{
  "contractName": "EHR",
  "abi": [
    {
      "inputs": [],
      "name": "getNumberOfRequest",
      "outputs": [
        {
          "internalType": "uint256",
          "name": "",
          "type": "uint256"
        }
      ],
      "stateMutability": "view",
      "type": "function"
    },
    {
      "inputs": [
        {
          "internalType": "uint256",
          "name": "_index",
          "type": "uint256"
        }
      ],
      "name": "getRequestByIndex",
      "outputs": [
        {
          "internalType": "uint256",
          "name": "",
          "type": "uint256"
        },
        {
          "internalType": "enum EHR.RequestType",
          "name": "",
          "type": "uint8"
        },
        {
          "internalType": "bool",
          "name": "",
          "type": "bool"
        }
      ],
      "stateMutability": "view",
      "type": "function"
    },
    {
      "inputs": [
        {
          "internalType": "uint256",
          "name": "_actorID",
          "type": "uint256"
        },
        {
          "internalType": "enum EHR.RequestType",
          "name": "_type",
          "type": "uint8"
        }
      ],
      "name": "setRequest",
      "outputs": [
        {
          "internalType": "uint256",
          "name": "",
          "type": "uint256"
        }
      ],
      "stateMutability": "nonpayable",
      "type": "function"
    },
    {
      "inputs": [
        {
          "internalType": "uint256",
          "name": "_requestID",
          "type": "uint256"
        }
      ],
      "name": "checkRequest",
      "outputs": [
        {
          "internalType": "bool",
          "name": "",
          "type": "bool"
        },
        {
          "internalType": "bool",
          "name": "",
          "type": "bool"
        }
      ],
      "stateMutability": "view",
      "type": "function"
    },
    {
      "inputs": [
        {
          "internalType": "uint256",
          "name": "_requestID",
          "type": "uint256"
        }
      ],
      "name": "setResponse",
      "outputs": [],
      "stateMutability": "nonpayable",
      "type": "function"
    }
  ],
  "bytecode": "0x608060405234801561001057600080fd5b50610728806100206000396000f3fe608060405234801561001057600080fd5b50600436106100575760003560e01c806323c314731461005c5780633f2c0e351461008c57806340c57998146100aa5780636d052b37146100db5780639d04ae841461010d575b600080fd5b61007660048036038101906100719190610451565b610129565b60405161008391906104a0565b60405180910390f35b610094610207565b6040516100a191906104a0565b60405180910390f35b6100c460048036038101906100bf91906104bb565b610213565b6040516100d2929190610503565b60405180910390f35b6100f560048036038101906100f091906104bb565b61026d565b604051610104939291906105a3565b60405180910390f35b610127600480360381019061012291906104bb565b61035e565b005b6000806000805490509050600080604051806080016040528087815260200186600181111561015b5761015a61052c565b5b81526020018315158152602001600081525090806001815401808255809150506001900390600052602060002090600302016000909190919091506000820151816000015560208201518160010160006101000a81548160ff021916908360018111156101cb576101ca61052c565b5b021790555060408201518160010160016101000a81548160ff021916908315150217905550606082015181600201555050819250505092915050565b60008080549050905090565b60008060008084600080549050111561026057600191506000858154811061023e5761023d6105da565b5b906000526020600020906003020160010160019054906101000a900460ff1690505b8181935093505050915091565b6000806000808410158015610286575060008054905084105b6102c5576040517f08c379a00000000000000000000000000000000000000000000000000000000081526004016102bc90610666565b60405180910390fd5b600084815481106102d9576102d86105da565b5b906000526020600020906003020160000154600085815481106102ff576102fe6105da565b5b906000526020600020906003020160010160009054906101000a900460ff1660008681548110610332576103316105da565b5b906000526020600020906003020160010160019054906101000a900460ff169250925092509193909250565b60008061036a83610213565b91509150816103ae576040517f08c379a00000000000000000000000000000000000000000000000000000000081526004016103a5906106d2565b60405180910390fd5b6001600084815481106103c4576103c36105da565b5b906000526020600020906003020160010160016101000a81548160ff021916908315150217905550505050565b600080fd5b6000819050919050565b610409816103f6565b811461041457600080fd5b50565b60008135905061042681610400565b92915050565b6002811061043957600080fd5b50565b60008135905061044b8161042c565b92915050565b60008060408385031215610468576104676103f1565b5b600061047685828601610417565b92505060206104878582860161043c565b9150509250929050565b61049a816103f6565b82525050565b60006020820190506104b56000830184610491565b92915050565b6000602082840312156104d1576104d06103f1565b5b60006104df84828501610417565b91505092915050565b60008115159050919050565b6104fd816104e8565b82525050565b600060408201905061051860008301856104f4565b61052560208301846104f4565b9392505050565b7f4e487b7100000000000000000000000000000000000000000000000000000000600052602160045260246000fd5b6002811061056c5761056b61052c565b5b50565b600081905061057d8261055b565b919050565b600061058d8261056f565b9050919050565b61059d81610582565b82525050565b60006060820190506105b86000830186610491565b6105c56020830185610594565b6105d260408301846104f4565b949350505050565b7f4e487b7100000000000000000000000000000000000000000000000000000000600052603260045260246000fd5b600082825260208201905092915050565b7f57524f4e4720494e44455820464f522052455155455354202121000000000000600082015250565b6000610650601a83610609565b915061065b8261061a565b602082019050919050565b6000602082019050818103600083015261067f81610643565b9050919050565b7f5265717565737420646f6573206e6f7420657869737420212100000000000000600082015250565b60006106bc601983610609565b91506106c782610686565b602082019050919050565b600060208201905081810360008301526106eb816106af565b905091905056fea2646970667358221220fa47ea6952e86e10f5c25daa938ab283da842a15287a32906954b4a64eb7709a64736f6c63430008110033",
  "immutableReferences": {},
  "source": "// SPDX-License-Identifier: GPL-3.0\r\npragma solidity >=0.7.0 <0.9.0;\r\n\r\n/** \r\n * @title EHR\r\n * @dev Implements EHR methods\r\n */\r\ncontract EHR {\r\n\r\n    enum RequestType {\r\n        PUBLISH,\r\n        CONSULT\r\n    }\r\n\r\n    struct request {\r\n        uint actorID;\r\n        RequestType rType;\r\n        bool accepted;\r\n        uint ReadyTime;\r\n    }\r\n    request[] requests;\r\n\r\n    enum EHRType {\r\n        examen,\r\n        SCANNER\r\n    }\r\n\r\n    struct EHRAbstract {\r\n        // uint id; index in the array of EHRAbstract\r\n        uint actorID;\r\n        EHRType eType;\r\n        string hash;\r\n        string ipfsHashAddress;\r\n        string secretKey;\r\n        // uint date; // TODO\r\n    }\r\n    EHRAbstract[] ehrArray;\r\n\r\n    \r\n\r\n\r\n    /**\r\n    * /////////////////////////////////////////////////////////\r\n    *           PUBLIC METHODS FOR REQUEST PURPOSE \r\n    * /////////////////////////////////////////////////////////\r\n    */\r\n    function getNumberOfRequest() public view returns (uint) {\r\n        return requests.length;\r\n    }\r\n\r\n    function getRequestByIndex(uint _index) public view returns (uint, RequestType, bool) {\r\n        require(_index >= 0 && _index < requests.length, \"WRONG INDEX FOR REQUEST !!\");\r\n        return (requests[_index].actorID, requests[_index].rType, requests[_index].accepted);\r\n    }\r\n\r\n    function setRequest(uint _actorID, RequestType _type) public returns (uint){\r\n        uint index = requests.length;\r\n        bool accepted = false;\r\n\r\n        requests.push(request(_actorID,  _type, accepted, 0));\r\n\r\n        return index;\r\n    }\r\n\r\n    function checkRequest(uint _requestID) view public returns (bool, bool) {\r\n        bool exist = false;\r\n        bool accepted = false;\r\n        if (requests.length > _requestID) {\r\n            exist = true;\r\n            accepted = requests[_requestID].accepted;\r\n        }\r\n\r\n        return (exist, accepted);\r\n    }\r\n\r\n    function setResponse(uint _requestID) public {\r\n        (bool exist, bool accepted) = checkRequest(_requestID);\r\n        require(exist, \"Request does not exist !!\");\r\n\r\n        requests[_requestID].accepted = true;\r\n        // TODO: readyTime\r\n    }\r\n\r\n\r\n    /**\r\n    * /////////////////////////////////////////////////////////\r\n    *           PUBLIC METHODS FOR EHR PURPOSE \r\n    * /////////////////////////////////////////////////////////\r\n    */\r\n\r\n    // function addEHRAbstract(uint _requestID, uint _actorID, EHRType _type, string memory _hash, string memory _ipfsAddr, string memory _secretKey ) public returns (uint _ehrID) {\r\n\r\n    //     // 1 - check the request \r\n    //     (bool exist, bool accepted) = checkRequest(_requestID);\r\n    //     require(exist && accepted, \"Request does not exist or does not accepted !!\");\r\n\r\n    //     // 2 - check if actor is the same in the request \r\n    //     require(requests[_requestID].actorID == _actorID, \"permission denied !!\");\r\n\r\n    //     // 3 - check the type of request (publish)\r\n    //     require(requests[_requestID].rType == RequestType.PUBLISH, \"permission denied !!\");\r\n\r\n\r\n    //     // share the EHR\r\n    //     _ehrID = ehrArray.length;\r\n    //     ehrArray.push(EHRAbstract(_actorID, _type, _hash, _ipfsAddr, _secretKey));\r\n\r\n    //     return _ehrID;\r\n    // }\r\n\r\n    // function checkEHR(uint _ehrID) view public returns (bool) {\r\n    //     if (ehrArray.length > _ehrID){\r\n    //         return true;\r\n    //     }\r\n    //     return false;\r\n    // }\r\n\r\n    // function getEHRAbstract(uint _ehrID) view public returns (EHRAbstract memory) {\r\n    //     require(checkEHR(_ehrID), \"EHR does not exist !!\");\r\n\r\n    //     return ehrArray[_ehrID];\r\n    // } \r\n\r\n    // function getLastEHR() view public returns (EHRAbstract memory, uint _ehrID) {\r\n    //     require(ehrArray.length > 0, \"not exist any EHR !!\");\r\n\r\n    //     _ehrID = ehrArray.length -1;\r\n    //     return (ehrArray[_ehrID], _ehrID);\r\n    // }\r\n\r\n    // function getEHRbyActor(uint _requestID, uint _actorID) view public returns (EHRAbstract memory) {\r\n    //     // 1 - check the request \r\n    //     (bool exist, bool accepted) = checkRequest(_requestID);\r\n    //     require(exist && accepted, \"Request does not exist or does not accepted !!\");\r\n\r\n    //     // 2 - check if the same actor \r\n    //     require(requests[_requestID].actorID == _actorID, \"permission denied !!\");\r\n\r\n    //     return ehrArray[requests[_requestID].ehrID];\r\n    // }\r\n    \r\n}",
  "sourcePath": "F:\\ComputerScience\\projects\\PFE\\tutorial\\truffle projects\\EHR Share System\\contracts\\EHR.sol",
  "compiler": {
    "name": "solc",
    "version": "0.8.17+commit.8df45f5f.Emscripten.clang"
  },
  "schemaVersion": "3.4.11",
  "updatedAt": "2023-02-21T21:49:44.106Z",
  "devdoc": {
    "details": "Implements EHR methods",
    "kind": "dev",
    "methods": {},
    "title": "EHR",
    "version": 1
  },
  "userdoc": {
    "kind": "user",
    "methods": {
      "getNumberOfRequest()": {
        "notice": "/////////////////////////////////////////////////////////           PUBLIC METHODS FOR REQUEST PURPOSE  /////////////////////////////////////////////////////////"
      }
    },
    "version": 1
  }
}