{
  "contractName": "EHR",
  "abi": [
    {
      "inputs": [
        {
          "internalType": "uint256",
          "name": "_actorID",
          "type": "uint256"
        },
        {
          "internalType": "uint256",
          "name": "_ehrID",
          "type": "uint256"
        },
        {
          "internalType": "enum EHR.RequestType",
          "name": "_type",
          "type": "uint8"
        },
        {
          "internalType": "bool",
          "name": "_lastEHR",
          "type": "bool"
        }
      ],
      "name": "setRequest",
      "outputs": [
        {
          "internalType": "uint256",
          "name": "",
          "type": "uint256"
        }
      ],
      "stateMutability": "nonpayable",
      "type": "function"
    },
    {
      "inputs": [
        {
          "internalType": "uint256",
          "name": "_requestID",
          "type": "uint256"
        }
      ],
      "name": "checkRequest",
      "outputs": [
        {
          "internalType": "bool",
          "name": "",
          "type": "bool"
        },
        {
          "internalType": "bool",
          "name": "",
          "type": "bool"
        }
      ],
      "stateMutability": "view",
      "type": "function"
    },
    {
      "inputs": [
        {
          "internalType": "uint256",
          "name": "_requestID",
          "type": "uint256"
        },
        {
          "internalType": "bool",
          "name": "response",
          "type": "bool"
        }
      ],
      "name": "setResponse",
      "outputs": [],
      "stateMutability": "nonpayable",
      "type": "function"
    },
    {
      "inputs": [
        {
          "internalType": "uint256",
          "name": "_requestID",
          "type": "uint256"
        },
        {
          "internalType": "uint256",
          "name": "_actorID",
          "type": "uint256"
        },
        {
          "internalType": "enum EHR.EHRType",
          "name": "_type",
          "type": "uint8"
        },
        {
          "internalType": "string",
          "name": "_hash",
          "type": "string"
        },
        {
          "internalType": "string",
          "name": "_ipfsAddr",
          "type": "string"
        },
        {
          "internalType": "string",
          "name": "_secretKey",
          "type": "string"
        }
      ],
      "name": "addEHRAbstract",
      "outputs": [
        {
          "internalType": "uint256",
          "name": "_ehrID",
          "type": "uint256"
        }
      ],
      "stateMutability": "nonpayable",
      "type": "function"
    },
    {
      "inputs": [
        {
          "internalType": "uint256",
          "name": "_ehrID",
          "type": "uint256"
        }
      ],
      "name": "checkEHR",
      "outputs": [
        {
          "internalType": "bool",
          "name": "",
          "type": "bool"
        }
      ],
      "stateMutability": "view",
      "type": "function"
    },
    {
      "inputs": [
        {
          "internalType": "uint256",
          "name": "_ehrID",
          "type": "uint256"
        }
      ],
      "name": "getEHRAbstract",
      "outputs": [
        {
          "components": [
            {
              "internalType": "uint256",
              "name": "actorID",
              "type": "uint256"
            },
            {
              "internalType": "enum EHR.EHRType",
              "name": "eType",
              "type": "uint8"
            },
            {
              "internalType": "string",
              "name": "hash",
              "type": "string"
            },
            {
              "internalType": "string",
              "name": "ipfsHashAddress",
              "type": "string"
            },
            {
              "internalType": "string",
              "name": "secretKey",
              "type": "string"
            }
          ],
          "internalType": "struct EHR.EHRAbstract",
          "name": "",
          "type": "tuple"
        }
      ],
      "stateMutability": "view",
      "type": "function"
    },
    {
      "inputs": [],
      "name": "getLastEHR",
      "outputs": [
        {
          "components": [
            {
              "internalType": "uint256",
              "name": "actorID",
              "type": "uint256"
            },
            {
              "internalType": "enum EHR.EHRType",
              "name": "eType",
              "type": "uint8"
            },
            {
              "internalType": "string",
              "name": "hash",
              "type": "string"
            },
            {
              "internalType": "string",
              "name": "ipfsHashAddress",
              "type": "string"
            },
            {
              "internalType": "string",
              "name": "secretKey",
              "type": "string"
            }
          ],
          "internalType": "struct EHR.EHRAbstract",
          "name": "",
          "type": "tuple"
        },
        {
          "internalType": "uint256",
          "name": "_ehrID",
          "type": "uint256"
        }
      ],
      "stateMutability": "view",
      "type": "function"
    },
    {
      "inputs": [
        {
          "internalType": "uint256",
          "name": "_requestID",
          "type": "uint256"
        },
        {
          "internalType": "uint256",
          "name": "_actorID",
          "type": "uint256"
        }
      ],
      "name": "getEHRbyActor",
      "outputs": [
        {
          "components": [
            {
              "internalType": "uint256",
              "name": "actorID",
              "type": "uint256"
            },
            {
              "internalType": "enum EHR.EHRType",
              "name": "eType",
              "type": "uint8"
            },
            {
              "internalType": "string",
              "name": "hash",
              "type": "string"
            },
            {
              "internalType": "string",
              "name": "ipfsHashAddress",
              "type": "string"
            },
            {
              "internalType": "string",
              "name": "secretKey",
              "type": "string"
            }
          ],
          "internalType": "struct EHR.EHRAbstract",
          "name": "",
          "type": "tuple"
        }
      ],
      "stateMutability": "view",
      "type": "function"
    }
  ],
  "bytecode": "0x608060405234801561001057600080fd5b50611b24806100206000396000f3fe608060405234801561001057600080fd5b50600436106100885760003560e01c80638c9ede631161005b5780638c9ede631461013d5780638f823dfe1461016d578063a9d51f581461019d578063fb76c1fb146101b957610088565b806308ff4d701461008d5780631b669d3c146100bd57806340c57998146100ed578063742d575d1461011e575b600080fd5b6100a760048036038101906100a29190610f16565b6101e9565b6040516100b491906110f0565b60405180910390f35b6100d760048036038101906100d2919061126c565b610508565b6040516100e4919061135c565b60405180910390f35b61010760048036038101906101029190611377565b610759565b6040516101159291906113bf565b60405180910390f35b6101266107b3565b6040516101349291906113e8565b60405180910390f35b61015760048036038101906101529190611469565b610a4b565b604051610164919061135c565b60405180910390f35b61018760048036038101906101829190611377565b610b56565b60405161019491906110f0565b60405180910390f35b6101b760048036038101906101b291906114d0565b610dd5565b005b6101d360048036038101906101ce9190611377565b610e69565b6040516101e09190611510565b60405180910390f35b6101f1610e8b565b6000806101fd85610759565b9150915081801561020b5750805b61024a576040517f08c379a0000000000000000000000000000000000000000000000000000000008152600401610241906115ae565b60405180910390fd5b836000868154811061025f5761025e6115ce565b5b906000526020600020906004020160000154146102b1576040517f08c379a00000000000000000000000000000000000000000000000000000000081526004016102a890611649565b60405180910390fd5b6001600086815481106102c7576102c66115ce565b5b906000526020600020906004020160010154815481106102ea576102e96115ce565b5b90600052602060002090600502016040518060a0016040529081600082015481526020016001820160009054906101000a900460ff16600181111561033257610331610f65565b5b600181111561034457610343610f65565b5b815260200160028201805461035890611698565b80601f016020809104026020016040519081016040528092919081815260200182805461038490611698565b80156103d15780601f106103a6576101008083540402835291602001916103d1565b820191906000526020600020905b8154815290600101906020018083116103b457829003601f168201915b505050505081526020016003820180546103ea90611698565b80601f016020809104026020016040519081016040528092919081815260200182805461041690611698565b80156104635780601f1061043857610100808354040283529160200191610463565b820191906000526020600020905b81548152906001019060200180831161044657829003601f168201915b5050505050815260200160048201805461047c90611698565b80601f01602080910402602001604051908101604052809291908181526020018280546104a890611698565b80156104f55780601f106104ca576101008083540402835291602001916104f5565b820191906000526020600020905b8154815290600101906020018083116104d857829003601f168201915b5050505050815250509250505092915050565b600080600061051689610759565b915091508180156105245750805b610563576040517f08c379a000000000000000000000000000000000000000000000000000000000815260040161055a906115ae565b60405180910390fd5b8760008a81548110610578576105776115ce565b5b906000526020600020906004020160000154146105ca576040517f08c379a00000000000000000000000000000000000000000000000000000000081526004016105c190611649565b60405180910390fd5b600060018111156105de576105dd610f65565b5b60008a815481106105f2576105f16115ce565b5b906000526020600020906004020160020160009054906101000a900460ff16600181111561062357610622610f65565b5b14610663576040517f08c379a000000000000000000000000000000000000000000000000000000000815260040161065a90611649565b60405180910390fd5b600180549050925060016040518060a001604052808a815260200189600181111561069157610690610f65565b5b81526020018881526020018781526020018681525090806001815401808255809150506001900390600052602060002090600502016000909190919091506000820151816000015560208201518160010160006101000a81548160ff0219169083600181111561070457610703610f65565b5b0217905550604082015181600201908161071e9190611875565b5060608201518160030190816107349190611875565b50608082015181600401908161074a9190611875565b50505050509695505050505050565b6000806000808460008054905011156107a6576001915060008581548110610784576107836115ce565b5b906000526020600020906004020160020160019054906101000a900460ff1690505b8181935093505050915091565b6107bb610e8b565b60008060018054905011610804576040517f08c379a00000000000000000000000000000000000000000000000000000000081526004016107fb90611993565b60405180910390fd5b6001808054905061081591906119e2565b90506001818154811061082b5761082a6115ce565b5b906000526020600020906005020181816040518060a0016040529081600082015481526020016001820160009054906101000a900460ff16600181111561087557610874610f65565b5b600181111561088757610886610f65565b5b815260200160028201805461089b90611698565b80601f01602080910402602001604051908101604052809291908181526020018280546108c790611698565b80156109145780601f106108e957610100808354040283529160200191610914565b820191906000526020600020905b8154815290600101906020018083116108f757829003601f168201915b5050505050815260200160038201805461092d90611698565b80601f016020809104026020016040519081016040528092919081815260200182805461095990611698565b80156109a65780601f1061097b576101008083540402835291602001916109a6565b820191906000526020600020905b81548152906001019060200180831161098957829003601f168201915b505050505081526020016004820180546109bf90611698565b80601f01602080910402602001604051908101604052809291908181526020018280546109eb90611698565b8015610a385780601f10610a0d57610100808354040283529160200191610a38565b820191906000526020600020905b815481529060010190602001808311610a1b57829003601f168201915b5050505050815250509150915091509091565b600080600080549050905060008315610a725760018080549050610a6f91906119e2565b95505b60006040518060a00160405280898152602001888152602001876001811115610a9e57610a9d610f65565b5b8152602001831515815260200160008152509080600181540180825580915050600190039060005260206000209060040201600090919091909150600082015181600001556020820151816001015560408201518160020160006101000a81548160ff02191690836001811115610b1857610b17610f65565b5b021790555060608201518160020160016101000a81548160ff0219169083151502179055506080820151816003015550508192505050949350505050565b610b5e610e8b565b610b6782610e69565b610ba6576040517f08c379a0000000000000000000000000000000000000000000000000000000008152600401610b9d90611a62565b60405180910390fd5b60018281548110610bba57610bb96115ce565b5b90600052602060002090600502016040518060a0016040529081600082015481526020016001820160009054906101000a900460ff166001811115610c0257610c01610f65565b5b6001811115610c1457610c13610f65565b5b8152602001600282018054610c2890611698565b80601f0160208091040260200160405190810160405280929190818152602001828054610c5490611698565b8015610ca15780601f10610c7657610100808354040283529160200191610ca1565b820191906000526020600020905b815481529060010190602001808311610c8457829003601f168201915b50505050508152602001600382018054610cba90611698565b80601f0160208091040260200160405190810160405280929190818152602001828054610ce690611698565b8015610d335780601f10610d0857610100808354040283529160200191610d33565b820191906000526020600020905b815481529060010190602001808311610d1657829003601f168201915b50505050508152602001600482018054610d4c90611698565b80601f0160208091040260200160405190810160405280929190818152602001828054610d7890611698565b8015610dc55780601f10610d9a57610100808354040283529160200191610dc5565b820191906000526020600020905b815481529060010190602001808311610da857829003601f168201915b5050505050815250509050919050565b600080610de184610759565b9150915081610e25576040517f08c379a0000000000000000000000000000000000000000000000000000000008152600401610e1c90611ace565b60405180910390fd5b600160008581548110610e3b57610e3a6115ce565b5b906000526020600020906004020160020160016101000a81548160ff02191690831515021790555050505050565b6000816001805490501115610e815760019050610e86565b600090505b919050565b6040518060a001604052806000815260200160006001811115610eb157610eb0610f65565b5b81526020016060815260200160608152602001606081525090565b6000604051905090565b600080fd5b600080fd5b6000819050919050565b610ef381610ee0565b8114610efe57600080fd5b50565b600081359050610f1081610eea565b92915050565b60008060408385031215610f2d57610f2c610ed6565b5b6000610f3b85828601610f01565b9250506020610f4c85828601610f01565b9150509250929050565b610f5f81610ee0565b82525050565b7f4e487b7100000000000000000000000000000000000000000000000000000000600052602160045260246000fd5b60028110610fa557610fa4610f65565b5b50565b6000819050610fb682610f94565b919050565b6000610fc682610fa8565b9050919050565b610fd681610fbb565b82525050565b600081519050919050565b600082825260208201905092915050565b60005b83811015611016578082015181840152602081019050610ffb565b60008484015250505050565b6000601f19601f8301169050919050565b600061103e82610fdc565b6110488185610fe7565b9350611058818560208601610ff8565b61106181611022565b840191505092915050565b600060a0830160008301516110846000860182610f56565b5060208301516110976020860182610fcd565b50604083015184820360408601526110af8282611033565b915050606083015184820360608601526110c98282611033565b915050608083015184820360808601526110e38282611033565b9150508091505092915050565b6000602082019050818103600083015261110a818461106c565b905092915050565b6002811061111f57600080fd5b50565b60008135905061113181611112565b92915050565b600080fd5b600080fd5b7f4e487b7100000000000000000000000000000000000000000000000000000000600052604160045260246000fd5b61117982611022565b810181811067ffffffffffffffff8211171561119857611197611141565b5b80604052505050565b60006111ab610ecc565b90506111b78282611170565b919050565b600067ffffffffffffffff8211156111d7576111d6611141565b5b6111e082611022565b9050602081019050919050565b82818337600083830152505050565b600061120f61120a846111bc565b6111a1565b90508281526020810184848401111561122b5761122a61113c565b5b6112368482856111ed565b509392505050565b600082601f83011261125357611252611137565b5b81356112638482602086016111fc565b91505092915050565b60008060008060008060c0878903121561128957611288610ed6565b5b600061129789828a01610f01565b96505060206112a889828a01610f01565b95505060406112b989828a01611122565b945050606087013567ffffffffffffffff8111156112da576112d9610edb565b5b6112e689828a0161123e565b935050608087013567ffffffffffffffff81111561130757611306610edb565b5b61131389828a0161123e565b92505060a087013567ffffffffffffffff81111561133457611333610edb565b5b61134089828a0161123e565b9150509295509295509295565b61135681610ee0565b82525050565b6000602082019050611371600083018461134d565b92915050565b60006020828403121561138d5761138c610ed6565b5b600061139b84828501610f01565b91505092915050565b60008115159050919050565b6113b9816113a4565b82525050565b60006040820190506113d460008301856113b0565b6113e160208301846113b0565b9392505050565b60006040820190508181036000830152611402818561106c565b9050611411602083018461134d565b9392505050565b6002811061142557600080fd5b50565b60008135905061143781611418565b92915050565b611446816113a4565b811461145157600080fd5b50565b6000813590506114638161143d565b92915050565b6000806000806080858703121561148357611482610ed6565b5b600061149187828801610f01565b94505060206114a287828801610f01565b93505060406114b387828801611428565b92505060606114c487828801611454565b91505092959194509250565b600080604083850312156114e7576114e6610ed6565b5b60006114f585828601610f01565b925050602061150685828601611454565b9150509250929050565b600060208201905061152560008301846113b0565b92915050565b600082825260208201905092915050565b7f5265717565737420646f6573206e6f74206578697374206f7220646f6573206e60008201527f6f74206163636570746564202121000000000000000000000000000000000000602082015250565b6000611598602e8361152b565b91506115a38261153c565b604082019050919050565b600060208201905081810360008301526115c78161158b565b9050919050565b7f4e487b7100000000000000000000000000000000000000000000000000000000600052603260045260246000fd5b7f7065726d697373696f6e2064656e696564202121000000000000000000000000600082015250565b600061163360148361152b565b915061163e826115fd565b602082019050919050565b6000602082019050818103600083015261166281611626565b9050919050565b7f4e487b7100000000000000000000000000000000000000000000000000000000600052602260045260246000fd5b600060028204905060018216806116b057607f821691505b6020821081036116c3576116c2611669565b5b50919050565b60008190508160005260206000209050919050565b60006020601f8301049050919050565b600082821b905092915050565b60006008830261172b7fffffffffffffffffffffffffffffffffffffffffffffffffffffffffffffffff826116ee565b61173586836116ee565b95508019841693508086168417925050509392505050565b6000819050919050565b600061177261176d61176884610ee0565b61174d565b610ee0565b9050919050565b6000819050919050565b61178c83611757565b6117a061179882611779565b8484546116fb565b825550505050565b600090565b6117b56117a8565b6117c0818484611783565b505050565b5b818110156117e4576117d96000826117ad565b6001810190506117c6565b5050565b601f821115611829576117fa816116c9565b611803846116de565b81016020851015611812578190505b61182661181e856116de565b8301826117c5565b50505b505050565b600082821c905092915050565b600061184c6000198460080261182e565b1980831691505092915050565b6000611865838361183b565b9150826002028217905092915050565b61187e82610fdc565b67ffffffffffffffff81111561189757611896611141565b5b6118a18254611698565b6118ac8282856117e8565b600060209050601f8311600181146118df57600084156118cd578287015190505b6118d78582611859565b86555061193f565b601f1984166118ed866116c9565b60005b82811015611915578489015182556001820191506020850194506020810190506118f0565b86831015611932578489015161192e601f89168261183b565b8355505b6001600288020188555050505b505050505050565b7f6e6f7420657869737420616e7920454852202121000000000000000000000000600082015250565b600061197d60148361152b565b915061198882611947565b602082019050919050565b600060208201905081810360008301526119ac81611970565b9050919050565b7f4e487b7100000000000000000000000000000000000000000000000000000000600052601160045260246000fd5b60006119ed82610ee0565b91506119f883610ee0565b9250828203905081811115611a1057611a0f6119b3565b5b92915050565b7f45485220646f6573206e6f742065786973742021210000000000000000000000600082015250565b6000611a4c60158361152b565b9150611a5782611a16565b602082019050919050565b60006020820190508181036000830152611a7b81611a3f565b9050919050565b7f5265717565737420646f6573206e6f7420657869737420212100000000000000600082015250565b6000611ab860198361152b565b9150611ac382611a82565b602082019050919050565b60006020820190508181036000830152611ae781611aab565b905091905056fea26469706673582212204fa637ec7faebc643effed3075c29ef507a20241806940c9c9dbbe3c6c998e3464736f6c63430008110033",
  "immutableReferences": {},
  "source": "// SPDX-License-Identifier: GPL-3.0\r\npragma solidity >=0.7.0 <0.9.0;\r\n\r\n/** \r\n * @title EHR\r\n * @dev Implements EHR methods\r\n */\r\ncontract EHR {\r\n\r\n    enum RequestType {\r\n        PUBLISH,\r\n        CONSULT\r\n    }\r\n\r\n    struct request {\r\n        // uint id; index in the array of request\r\n        uint actorID;\r\n        uint ehrID;\r\n        RequestType rType;\r\n        bool accepted;\r\n        uint ReadyTime;\r\n    }\r\n    request[] requests;\r\n\r\n    enum EHRType {\r\n        examen,\r\n        SCANNER\r\n    }\r\n\r\n    struct EHRAbstract {\r\n        // uint id; index in the array of EHRAbstract\r\n        uint actorID;\r\n        EHRType eType;\r\n        string hash;\r\n        string ipfsHashAddress;\r\n        string secretKey;\r\n        // uint date; // TODO\r\n    }\r\n    EHRAbstract[] ehrArray;\r\n\r\n    \r\n\r\n\r\n    /**\r\n    * /////////////////////////////////////////////////////////\r\n    *           PUBLIC METHODS FOR REQUEST PURPOSE \r\n    * /////////////////////////////////////////////////////////\r\n    */\r\n\r\n    function setRequest(uint _actorID, uint _ehrID, RequestType _type, bool _lastEHR) public returns (uint){\r\n        uint index = requests.length;\r\n        bool accepted = false;\r\n\r\n        if (_lastEHR) {\r\n            _ehrID = ehrArray.length - 1;\r\n        }\r\n        requests.push(request(_actorID, _ehrID, _type, accepted, 0));\r\n\r\n        return index;\r\n    }\r\n\r\n    function checkRequest(uint _requestID) view public returns (bool, bool) {\r\n        bool exist = false;\r\n        bool accepted = false;\r\n        if (requests.length > _requestID) {\r\n            exist = true;\r\n            accepted = requests[_requestID].accepted;\r\n        }\r\n\r\n        return (exist, accepted);\r\n    }\r\n\r\n    function setResponse(uint _requestID, bool response) public {\r\n        (bool exist, bool accepted) = checkRequest(_requestID);\r\n        require(exist, \"Request does not exist !!\");\r\n\r\n        requests[_requestID].accepted = true;\r\n        // TODO: readyTime\r\n    }\r\n\r\n\r\n    /**\r\n    * /////////////////////////////////////////////////////////\r\n    *           PUBLIC METHODS FOR EHR PURPOSE \r\n    * /////////////////////////////////////////////////////////\r\n    */\r\n\r\n    function addEHRAbstract(uint _requestID, uint _actorID, EHRType _type, string memory _hash, string memory _ipfsAddr, string memory _secretKey ) public returns (uint _ehrID) {\r\n\r\n        // 1 - check the request \r\n        (bool exist, bool accepted) = checkRequest(_requestID);\r\n        require(exist && accepted, \"Request does not exist or does not accepted !!\");\r\n\r\n        // 2 - check if actor is the same in the request \r\n        require(requests[_requestID].actorID == _actorID, \"permission denied !!\");\r\n\r\n        // 3 - check the type of request (publish)\r\n        require(requests[_requestID].rType == RequestType.PUBLISH, \"permission denied !!\");\r\n\r\n\r\n        // share the EHR\r\n        _ehrID = ehrArray.length;\r\n        ehrArray.push(EHRAbstract(_actorID, _type, _hash, _ipfsAddr, _secretKey));\r\n\r\n        return _ehrID;\r\n    }\r\n\r\n    function checkEHR(uint _ehrID) view public returns (bool) {\r\n        if (ehrArray.length > _ehrID){\r\n            return true;\r\n        }\r\n        return false;\r\n    }\r\n\r\n    function getEHRAbstract(uint _ehrID) view public returns (EHRAbstract memory) {\r\n        require(checkEHR(_ehrID), \"EHR does not exist !!\");\r\n\r\n        return ehrArray[_ehrID];\r\n    } \r\n\r\n    function getLastEHR() view public returns (EHRAbstract memory, uint _ehrID) {\r\n        require(ehrArray.length > 0, \"not exist any EHR !!\");\r\n\r\n        _ehrID = ehrArray.length -1;\r\n        return (ehrArray[_ehrID], _ehrID);\r\n    }\r\n\r\n    function getEHRbyActor(uint _requestID, uint _actorID) view public returns (EHRAbstract memory) {\r\n        // 1 - check the request \r\n        (bool exist, bool accepted) = checkRequest(_requestID);\r\n        require(exist && accepted, \"Request does not exist or does not accepted !!\");\r\n\r\n        // 2 - check if the same actor \r\n        require(requests[_requestID].actorID == _actorID, \"permission denied !!\");\r\n\r\n        return ehrArray[requests[_requestID].ehrID];\r\n    }\r\n    \r\n}",
  "sourcePath": "F:\\ComputerScience\\projects\\PFE\\tutorial\\truffle projects\\EHR Share System\\contracts\\EHR.sol",
  "compiler": {
    "name": "solc",
    "version": "0.8.17+commit.8df45f5f.Emscripten.clang"
  },
  "schemaVersion": "3.4.11",
  "updatedAt": "2023-02-21T09:15:48.402Z",
  "devdoc": {
    "details": "Implements EHR methods",
    "kind": "dev",
    "methods": {},
    "title": "EHR",
    "version": 1
  },
  "userdoc": {
    "kind": "user",
    "methods": {
      "addEHRAbstract(uint256,uint256,uint8,string,string,string)": {
        "notice": "/////////////////////////////////////////////////////////           PUBLIC METHODS FOR EHR PURPOSE  /////////////////////////////////////////////////////////"
      },
      "setRequest(uint256,uint256,uint8,bool)": {
        "notice": "/////////////////////////////////////////////////////////           PUBLIC METHODS FOR REQUEST PURPOSE  /////////////////////////////////////////////////////////"
      }
    },
    "version": 1
  }
}