{
  "contractName": "EHR",
  "abi": [
    {
      "inputs": [],
      "stateMutability": "nonpayable",
      "type": "constructor"
    },
    {
      "inputs": [
        {
          "internalType": "uint256",
          "name": "",
          "type": "uint256"
        }
      ],
      "name": "ehrArray",
      "outputs": [
        {
          "internalType": "string",
          "name": "title",
          "type": "string"
        },
        {
          "internalType": "uint256",
          "name": "date",
          "type": "uint256"
        },
        {
          "internalType": "uint256",
          "name": "actorID",
          "type": "uint256"
        },
        {
          "internalType": "string",
          "name": "ehrHash",
          "type": "string"
        },
        {
          "internalType": "string",
          "name": "ipfsHashAddress",
          "type": "string"
        },
        {
          "internalType": "string",
          "name": "secretKey",
          "type": "string"
        }
      ],
      "stateMutability": "view",
      "type": "function"
    },
    {
      "inputs": [],
      "name": "ehrCount",
      "outputs": [
        {
          "internalType": "uint256",
          "name": "",
          "type": "uint256"
        }
      ],
      "stateMutability": "view",
      "type": "function"
    },
    {
      "inputs": [],
      "name": "getNumberOfRequest",
      "outputs": [
        {
          "internalType": "uint256",
          "name": "",
          "type": "uint256"
        }
      ],
      "stateMutability": "view",
      "type": "function"
    },
    {
      "inputs": [
        {
          "internalType": "uint256",
          "name": "_index",
          "type": "uint256"
        }
      ],
      "name": "getRequestByIndex",
      "outputs": [
        {
          "internalType": "uint256",
          "name": "",
          "type": "uint256"
        },
        {
          "internalType": "uint256",
          "name": "",
          "type": "uint256"
        },
        {
          "internalType": "enum EHR.RequestType",
          "name": "",
          "type": "uint8"
        },
        {
          "internalType": "enum EHR.RequestState",
          "name": "",
          "type": "uint8"
        }
      ],
      "stateMutability": "view",
      "type": "function"
    },
    {
      "inputs": [
        {
          "internalType": "uint256",
          "name": "_requestID",
          "type": "uint256"
        },
        {
          "internalType": "enum EHR.RequestState",
          "name": "_newState",
          "type": "uint8"
        }
      ],
      "name": "setResponse",
      "outputs": [],
      "stateMutability": "nonpayable",
      "type": "function"
    },
    {
      "inputs": [
        {
          "internalType": "uint256",
          "name": "_actorID",
          "type": "uint256"
        },
        {
          "internalType": "enum EHR.RequestType",
          "name": "_type",
          "type": "uint8"
        }
      ],
      "name": "setRequest",
      "outputs": [
        {
          "internalType": "uint256",
          "name": "",
          "type": "uint256"
        }
      ],
      "stateMutability": "nonpayable",
      "type": "function"
    },
    {
      "inputs": [
        {
          "internalType": "uint256",
          "name": "_actorID",
          "type": "uint256"
        },
        {
          "internalType": "enum EHR.RequestType",
          "name": "_type",
          "type": "uint8"
        }
      ],
      "name": "checkResponse",
      "outputs": [
        {
          "internalType": "enum EHR.RequestState",
          "name": "",
          "type": "uint8"
        },
        {
          "internalType": "uint256",
          "name": "",
          "type": "uint256"
        }
      ],
      "stateMutability": "view",
      "type": "function"
    },
    {
      "inputs": [
        {
          "internalType": "uint256",
          "name": "_requestID",
          "type": "uint256"
        }
      ],
      "name": "checkRequest",
      "outputs": [
        {
          "internalType": "bool",
          "name": "",
          "type": "bool"
        },
        {
          "internalType": "bool",
          "name": "",
          "type": "bool"
        }
      ],
      "stateMutability": "view",
      "type": "function"
    },
    {
      "inputs": [
        {
          "internalType": "uint256",
          "name": "_ehrID",
          "type": "uint256"
        }
      ],
      "name": "getEHRAbstract",
      "outputs": [
        {
          "components": [
            {
              "internalType": "string",
              "name": "title",
              "type": "string"
            },
            {
              "internalType": "uint256",
              "name": "date",
              "type": "uint256"
            },
            {
              "internalType": "uint256",
              "name": "actorID",
              "type": "uint256"
            },
            {
              "internalType": "string",
              "name": "ehrHash",
              "type": "string"
            },
            {
              "internalType": "string",
              "name": "ipfsHashAddress",
              "type": "string"
            },
            {
              "internalType": "string",
              "name": "secretKey",
              "type": "string"
            }
          ],
          "internalType": "struct EHR.EHRAbstract",
          "name": "",
          "type": "tuple"
        }
      ],
      "stateMutability": "view",
      "type": "function"
    },
    {
      "inputs": [
        {
          "internalType": "uint256",
          "name": "_requestID",
          "type": "uint256"
        },
        {
          "internalType": "string",
          "name": "_title",
          "type": "string"
        },
        {
          "internalType": "uint256",
          "name": "_actorID",
          "type": "uint256"
        },
        {
          "internalType": "string",
          "name": "_hash",
          "type": "string"
        },
        {
          "internalType": "string",
          "name": "_ipfsAddr",
          "type": "string"
        },
        {
          "internalType": "string",
          "name": "_secretKey",
          "type": "string"
        }
      ],
      "name": "addEHRAbstract",
      "outputs": [
        {
          "internalType": "uint256",
          "name": "_ehrID",
          "type": "uint256"
        }
      ],
      "stateMutability": "nonpayable",
      "type": "function"
    },
    {
      "inputs": [
        {
          "internalType": "uint256",
          "name": "_requestID",
          "type": "uint256"
        },
        {
          "internalType": "uint256",
          "name": "_actorID",
          "type": "uint256"
        },
        {
          "internalType": "uint256",
          "name": "_ehrID",
          "type": "uint256"
        }
      ],
      "name": "getEHRbyActor",
      "outputs": [
        {
          "components": [
            {
              "internalType": "string",
              "name": "title",
              "type": "string"
            },
            {
              "internalType": "uint256",
              "name": "date",
              "type": "uint256"
            },
            {
              "internalType": "uint256",
              "name": "actorID",
              "type": "uint256"
            },
            {
              "internalType": "string",
              "name": "ehrHash",
              "type": "string"
            },
            {
              "internalType": "string",
              "name": "ipfsHashAddress",
              "type": "string"
            },
            {
              "internalType": "string",
              "name": "secretKey",
              "type": "string"
            }
          ],
          "internalType": "struct EHR.EHRAbstract",
          "name": "",
          "type": "tuple"
        }
      ],
      "stateMutability": "view",
      "type": "function"
    }
  ],
  "bytecode": "0x6080806040523461001b57600060025561119690816100218239f35b600080fdfe6080604052600436101561001257600080fd5b7c010000000000000000000000000000000000000000000000000000000060003504806308d19b8b14610a7b5780631c00a8cb1461046957806323c31473146103785780633f2c0e351461035a57806340c579981461032c5780636d052b371461025c5780637cd7710d1461023e5780638f823dfe1461021f57806398ad1b9514610192578063b0d23b09146101665763df5ff354146100b157600080fd5b346101615760603660031901126101615760ff60026101096004356100d4610f94565b506100ed6100e182610f42565b81610159575b5061109e565b6101046100f982610d8c565b505460243514611112565b610d8c565b5001541660028110156101405760016101229114611112565b61013c610130604435610fc6565b60405191829182610d0f565b0390f35b60e060020a634e487b7102600052602160045260246000fd5b9050386100e7565b600080fd5b3461016157604061017f61017936610ce3565b90610e0a565b61018b83518093610d02565b6020820152f35b34610161576040366003190112610161576004356024356004811015610161576101bb82610f42565b50156101d85760026101cf6101d693610d8c565b5001610ddd565b005b606460405160e560020a62461bcd02815260206004820152601960248201527f5265717565737420646f6573206e6f74206578697374202121000000000000006044820152fd5b346101615760203660031901126101615761013c610130600435610fc6565b34610161576000366003190112610161576020600254604051908152f35b34610161576020366003190112610161576004356000548110156102e55761028381610d8c565b5054600161029083610d8c565b5001549160ff61010060026102b383826102a987610d8c565b5001541694610d8c565b50015404169260405192835260208301526002811015610140576080926102e39160408401526060830190610d02565bf35b606460405160e560020a62461bcd02815260206004820152601a60248201527f57524f4e4720494e44455820464f5220524551554553542021210000000000006044820152fd5b3461016157602036600319011261016157604061034a600435610f42565b8251911515825215156020820152f35b34610161576000366003190112610161576020600054604051908152f35b346101615761038636610ce3565b9060005490604051906080820182811067ffffffffffffffff8211176104505760405281526020810190428252604081019360028110156101405784526060810191600283526801000000000000000084101561045057600184016000556103ed84610d8c565b9190916104375760029251825551600182015501925160028110156101405760ff80198554169116178355519160048310156101405760209261042f91610ddd565b604051908152f35b60e060020a634e487b7102600052600060045260246000fd5b60e060020a634e487b7102600052604160045260246000fd5b346101615760c03660031901126101615760043560243567ffffffffffffffff81116101615761049d903690600401610c8c565b9060643567ffffffffffffffff8111610161576104be903690600401610c8c565b9060843567ffffffffffffffff8111610161576104df903690600401610c8c565b60a43567ffffffffffffffff811161016157600261053561050660ff933690600401610c8c565b9461051e61051382610f42565b81610a73575061109e565b61010461052a82610d8c565b505460443514611112565b5001541660028110156101405761054c9015611112565b6002546000198114610a5a5760010192836002556040519461056d86610b69565b855242602086015260443560408601526060850152608084015260a083015260005260016020526040600020815180519067ffffffffffffffff82116104505781906105b98454610b2b565b601f8111610a0a575b50602090601f831160011461099f57600092610994575b5050816002029160080260020a6000190419161781555b6020820151600182015560408201516002820155606082015180519067ffffffffffffffff821161045057819061062a6003850154610b2b565b601f8111610941575b50602090601f83116001146108cd576000926108c2575b5050816002029160080260020a6000190419161760038201555b608082015180519067ffffffffffffffff8211610450576106886004840154610b2b565b601f811161087b575b50602090601f831160011461080357918060a094926005946000926107f8575b5050816002029160080260020a6000190419161760048201555b0191015180519067ffffffffffffffff82116104505781906106ed8454610b2b565b601f81116107a5575b50602090601f831160011461073c57600092610731575b5050816002029160080260020a6000190419161790555b6020600254604051908152f35b01519050838061070d565b6000858152602081209350601f198516905b81811061078d57509160029391856001969410610772575b50505002019055610724565b01516008601f841602840a6000190419169055848080610766565b9293602060018192878601518155019501930161074e565b9091508360005260206000206020601f850104810191602085106107ee575b906020601f86959493010401905b8181106107df57506106f6565b600081558493506001016107d2565b90915081906107c4565b0151905086806106b1565b906004840160005260206000209160005b601f198516811061086357508360a09593600193600293600597601f19811610610848575b505050020160048201556106cb565b01516008601f841602840a6000190419169055878080610839565b91926020600181928685015181550194019201610814565b6004840160005260206000206020601f8501048101602085106108bb575b6020601f840104820181106108af575050610691565b60008155600101610899565b5080610899565b01519050848061064a565b91506003840160005260206000209160005b601f19851681106109295750918391600293600195601f1981161061090e575b50505002016003820155610664565b01516008601f841602840a60001904191690558580806108ff565b919260206001819286850151815501940192016108df565b9091506003840160005260206000206020601f85010481016020851061098d575b90849392915b6020601f8401048201811061097e575050610633565b60008155859450600101610968565b5080610962565b0151905084806105d9565b60008581526020812093505b601f19851681106109f25750918391600293600195601f198116106109d7575b505050020181556105f0565b01516008601f841602840a60001904191690558580806109cb565b919260206001819286850151815501940192016109ab565b9091508360005260206000206020601f850104810160208510610a53575b90849392915b6020601f84010482018110610a445750506105c2565b60008155859450600101610a2e565b5080610a28565b60e060020a634e487b7102600052601160045260246000fd5b90508a6100e7565b34610161576020366003190112610161576004356000526001602052610af7604060002061013c610aab82610ba7565b91610b1d600182015491610b0f600282015493610aca60038401610ba7565b610ae26005610adb60048701610ba7565b9501610ba7565b95604051998a9960c08b5260c08b0190610c4c565b9260208a015260408901528782036060890152610c4c565b908582036080870152610c4c565b9083820360a0850152610c4c565b9060016002830492168015610b5f575b6020831014610b4657565b60e060020a634e487b7102600052602260045260246000fd5b91607f1691610b3b565b60c0810190811067ffffffffffffffff82111761045057604052565b90601f8019910116810190811067ffffffffffffffff82111761045057604052565b9060405191826000825492610bbb84610b2b565b908184526001948581169081600014610c2a5750600114610be7575b5050610be592500383610b85565b565b9093915060005260209081600020936000915b818310610c12575050610be593508201013880610bd7565b85548884018501529485019487945091830191610bfa565b915050610be594506020925060ff191682840152151581028201013880610bd7565b919082519283825260005b848110610c78575050826000602080949584010152601f8019910116010190565b602081830181015184830182015201610c57565b81601f820112156101615780359067ffffffffffffffff82116104505760405192610cc1601f8401601f191660200185610b85565b8284526020838301011161016157816000926020809301838601378301015290565b6040906003190112610161576004359060243560028110156101615790565b9060048210156101405752565b90610d899160208152610d2e825160c0602084015260e0830190610c4c565b90602083015160408201526040830151606082015260c060a0610d79610d66606087015195601f199687878303016080880152610c4c565b6080870151868683030184870152610c4c565b9401519282850301910152610c4c565b90565b906000918254811015610dc657600390838052027f290decd9548b62a8d60345a988386fc84ba6bc95484008f6362f93160ef3e563019190565b60248360e060020a634e487b710281526032600452fd5b9060048110156101405761ff0061010083549202169061ff001916179055565b91908203918211610a5a57565b916000918254805b610e1e57506002935050565b600019810181811180610f2b5786610e3583610d8c565b50541480610ed0575b610e6b5750508015610e54576000190180610e12565b60248460e060020a634e487b710281526011600452fd5b92509293945050610eb95762015180610e916001610e8884610d8c565b50015442610dfd565b1115610e9e575060039190565b915060ff6101006002610eb085610d8c565b50015404169190565b60248360e060020a634e487b710281526011600452fd5b505084610edc82610d8c565b5060ff600280920154169080861015610f1457811015610efd578414610e3e565b60248760e060020a634e487b710281526021600452fd5b60248860e060020a634e487b710281526021600452fd5b60248660e060020a634e487b710281526011600452fd5b62015180610f546001610e8884610d8c565b11610f8b576101006002610f6960ff93610d8c565b500154041660048110156101405715610f8457600190600090565b6001908190565b50600090600090565b60405190610fa182610b69565b606060a083828152600060208201526000604082015282808201528260808201520152565b610fce610f94565b5080151580611092575b1561104b5760005260016020526040600020611043600560405192610ffc84610b69565b61100581610ba7565b8452600181015460208501526002810154604085015261102760038201610ba7565b606085015261103860048201610ba7565b608085015201610ba7565b60a082015290565b606460405160e560020a62461bcd02815260206004820152601560248201527f45485220646f6573206e6f7420657869737420212100000000000000000000006044820152fd5b50600254811115610fd8565b156110a557565b608460405160e560020a62461bcd02815260206004820152602e60248201527f5265717565737420646f6573206e6f74206578697374206f7220646f6573206e60448201527f6f742061636365707465642021210000000000000000000000000000000000006064820152fd5b1561111957565b606460405160e560020a62461bcd02815260206004820152601460248201527f7065726d697373696f6e2064656e6965642021210000000000000000000000006044820152fdfea2646970667358221220a44b1c85143a99dba883d4e1971870d4422bbf48bff7fb9d492b7d88a94eed4a64736f6c63430008110033",
  "immutableReferences": {},
  "source": "// SPDX-License-Identifier: GPL-3.0\r\npragma solidity >=0.7.0 <0.9.0;\r\n\r\n/** \r\n * @title EHR\r\n * @dev Implements EHR methods\r\n */\r\ncontract EHR {\r\n    // request expired time in second\r\n    uint256 constant EXPIRED_TIME = 86400;\r\n\r\n    enum RequestType {\r\n        PUBLISH,\r\n        CONSULT\r\n    }\r\n    enum RequestState {\r\n        ACCEPTED,\r\n        REFUSED,\r\n        PENDING,\r\n        CANCELLED\r\n    }\r\n    struct request {\r\n        uint actorID;\r\n        uint256 timestamp;\r\n        RequestType rType;\r\n        RequestState state;        \r\n    }\r\n    request[] requests;\r\n\r\n    enum EHRType {\r\n        examen,\r\n        SCANNER\r\n    }\r\n    struct EHRAbstract {\r\n        // uint id; index in the array of EHRAbstract\r\n        string title;\r\n        uint256 date;\r\n        uint actorID;\r\n        string ehrHash;\r\n        string ipfsHashAddress;\r\n        string secretKey;\r\n    }\r\n    // EHRAbstract[] ehrArray;\r\n    mapping(uint256 => EHRAbstract) public ehrArray;\r\n    uint256 public ehrCount = 0;\r\n\r\n    \r\n    constructor () {\r\n        // ehrCount++;\r\n        // ehrArray[ehrCount] = EHRAbstract(\"test_title\", block.timestamp, 23, \"test\", \"Hello world\", \"test\");\r\n\r\n        // requests.push(request(23, block.timestamp, RequestType.CONSULT, RequestState.PENDING));\r\n        // requests.push(request(25, block.timestamp, RequestType.CONSULT, RequestState.ACCEPTED));\r\n    }\r\n\r\n\r\n    /**\r\n    * /////////////////////////////////////////////////////////\r\n    *           PUBLIC METHODS FOR REQUEST PURPOSE \r\n    * /////////////////////////////////////////////////////////\r\n    */\r\n    \r\n    function checkExpiredRequests() internal {\r\n        for (uint i=0; i<requests.length;i++) {\r\n            if (requests[i].state == RequestState.PENDING) {\r\n                uint256 currentTimestamp = block.timestamp;\r\n                uint256 timeDifference = currentTimestamp - requests[i].timestamp;\r\n                if (timeDifference > EXPIRED_TIME){\r\n                    requests[i].state = RequestState.CANCELLED;\r\n                }\r\n            }\r\n        }     \r\n    }\r\n\r\n    // #### for patient utilization ###\r\n    function getNumberOfRequest() public view returns (uint) {\r\n        // checkExpiredRequests();\r\n        return requests.length;\r\n    }\r\n\r\n    function getRequestByIndex(uint _index) public view returns (uint, uint256, RequestType, RequestState) {\r\n        require(_index >= 0 && _index < requests.length, \"WRONG INDEX FOR REQUEST !!\");\r\n        return (requests[_index].actorID, requests[_index].timestamp, requests[_index].rType, requests[_index].state);\r\n    }\r\n\r\n    function setResponse(uint _requestID, RequestState _newState) public {\r\n        (bool exist, ) = checkRequest(_requestID);\r\n        require(exist, \"Request does not exist !!\");\r\n        requests[_requestID].state = _newState;\r\n    }\r\n\r\n    // ### for actor utilization ###\r\n    function setRequest(uint _actorID, RequestType _type) public returns (uint){\r\n        uint index = requests.length;\r\n        uint256 currentTimestamp = block.timestamp;\r\n        requests.push(request(_actorID, currentTimestamp, _type, RequestState.PENDING));\r\n        return index;\r\n    }\r\n\r\n    function checkResponse(uint _actorID, RequestType _type) public view returns (RequestState, uint) {\r\n        uint256 currentTimestamp = block.timestamp;\r\n        uint i = requests.length;\r\n        for (i; i>0; i--) {\r\n            if (requests[i-1].actorID == _actorID && requests[i-1].rType == _type) {\r\n                uint256 timeDifference = currentTimestamp - requests[i-1].timestamp;\r\n                if (timeDifference > EXPIRED_TIME){ // CANCELLED\r\n                    return (RequestState.CANCELLED, 0);\r\n                } else {\r\n                    return (requests[i-1].state, i-1);\r\n                }\r\n            }\r\n        }\r\n        return (RequestState.PENDING, 0);\r\n    }\r\n\r\n    // ### for internal utilization ###\r\n    function checkRequest(uint _requestID) view public returns (bool, bool) {\r\n        uint256 currentTimestamp = block.timestamp;\r\n        uint256 timeDifference = currentTimestamp - requests[_requestID].timestamp;\r\n                \r\n        if (timeDifference > EXPIRED_TIME){ // CANCELLED\r\n            return (false, false);\r\n        }\r\n        if (requests[_requestID].state == RequestState.ACCEPTED) {\r\n            return (true, true); \r\n        }\r\n        return (true, false); // REFUSED OR PENDING\r\n    }\r\n\r\n    \r\n\r\n\r\n    /**\r\n    * /////////////////////////////////////////////////////////\r\n    *           PUBLIC METHODS FOR EHR PURPOSE \r\n    * /////////////////////////////////////////////////////////\r\n    */\r\n\r\n    ////////////////////// FOR OWNER\r\n    function getEHRAbstract(uint _ehrID) view public returns (EHRAbstract memory) {\r\n        require(_ehrID > 0 && _ehrID <= ehrCount, \"EHR does not exist !!\");\r\n        return ehrArray[_ehrID];\r\n    } \r\n\r\n    ////////////////////// FOR ACTOR\r\n    function addEHRAbstract(uint _requestID, string memory _title, uint _actorID, string memory _hash, string memory _ipfsAddr, string memory _secretKey) public returns (uint _ehrID) {\r\n\r\n        // 1 - check the request \r\n        (bool exist, bool accepted) = checkRequest(_requestID);\r\n        require(exist && accepted, \"Request does not exist or does not accepted !!\");\r\n\r\n        // 2 - check if actor is the same in the request \r\n        require(requests[_requestID].actorID == _actorID, \"permission denied !!\");\r\n\r\n        // 3 - check the type of request (publish)\r\n        require(requests[_requestID].rType == RequestType.PUBLISH, \"permission denied !!\");\r\n\r\n\r\n        // share the EHR\r\n        ehrCount++;\r\n        ehrArray[ehrCount] = EHRAbstract(_title, block.timestamp, _actorID, _hash, _ipfsAddr, _secretKey);\r\n\r\n        return ehrCount;\r\n    }\r\n\r\n    function getEHRbyActor(uint _requestID, uint _actorID, uint _ehrID) view public returns (EHRAbstract memory) {\r\n        // 1 - check the request \r\n        (bool exist, bool accepted) = checkRequest(_requestID);\r\n        require(exist && accepted, \"Request does not exist or does not accepted !!\");\r\n\r\n        // 2 - check if the same actor \r\n        require(requests[_requestID].actorID == _actorID, \"permission denied !!\");\r\n\r\n        // 3 - check the type of request (consult)\r\n        require(requests[_requestID].rType == RequestType.CONSULT, \"permission denied !!\");\r\n\r\n        return getEHRAbstract(_ehrID);\r\n    }\r\n}",
  "sourcePath": "F:\\ComputerScience\\projects\\PFE\\project\\2022-2023\\Blockchain-side\\contracts\\EHR.sol",
  "compiler": {
    "name": "solc",
    "version": "0.8.17+commit.8df45f5f.Emscripten.clang"
  },
  "schemaVersion": "3.4.11",
  "updatedAt": "2023-05-09T22:43:29.900Z",
  "devdoc": {
    "details": "Implements EHR methods",
    "kind": "dev",
    "methods": {},
    "title": "EHR",
    "version": 1
  },
  "userdoc": {
    "kind": "user",
    "methods": {
      "getEHRAbstract(uint256)": {
        "notice": "/////////////////////////////////////////////////////////           PUBLIC METHODS FOR EHR PURPOSE  /////////////////////////////////////////////////////////"
      }
    },
    "version": 1
  }
}