{
  "contractName": "EHR",
  "abi": [
    {
      "inputs": [],
      "stateMutability": "nonpayable",
      "type": "constructor"
    },
    {
      "inputs": [
        {
          "internalType": "uint256",
          "name": "",
          "type": "uint256"
        }
      ],
      "name": "ehrArray",
      "outputs": [
        {
          "internalType": "uint256",
          "name": "actorID",
          "type": "uint256"
        },
        {
          "internalType": "string",
          "name": "ehrHash",
          "type": "string"
        },
        {
          "internalType": "string",
          "name": "ipfsHashAddress",
          "type": "string"
        },
        {
          "internalType": "string",
          "name": "secretKey",
          "type": "string"
        }
      ],
      "stateMutability": "view",
      "type": "function"
    },
    {
      "inputs": [],
      "name": "ehrCount",
      "outputs": [
        {
          "internalType": "uint256",
          "name": "",
          "type": "uint256"
        }
      ],
      "stateMutability": "view",
      "type": "function"
    },
    {
      "inputs": [],
      "name": "getNumberOfRequest",
      "outputs": [
        {
          "internalType": "uint256",
          "name": "",
          "type": "uint256"
        }
      ],
      "stateMutability": "view",
      "type": "function"
    },
    {
      "inputs": [
        {
          "internalType": "uint256",
          "name": "_index",
          "type": "uint256"
        }
      ],
      "name": "getRequestByIndex",
      "outputs": [
        {
          "internalType": "uint256",
          "name": "",
          "type": "uint256"
        },
        {
          "internalType": "uint256",
          "name": "",
          "type": "uint256"
        },
        {
          "internalType": "enum EHR.RequestType",
          "name": "",
          "type": "uint8"
        },
        {
          "internalType": "enum EHR.RequestState",
          "name": "",
          "type": "uint8"
        }
      ],
      "stateMutability": "view",
      "type": "function"
    },
    {
      "inputs": [
        {
          "internalType": "uint256",
          "name": "_requestID",
          "type": "uint256"
        },
        {
          "internalType": "enum EHR.RequestState",
          "name": "_newState",
          "type": "uint8"
        }
      ],
      "name": "setResponse",
      "outputs": [],
      "stateMutability": "nonpayable",
      "type": "function"
    },
    {
      "inputs": [
        {
          "internalType": "uint256",
          "name": "_actorID",
          "type": "uint256"
        },
        {
          "internalType": "enum EHR.RequestType",
          "name": "_type",
          "type": "uint8"
        }
      ],
      "name": "setRequest",
      "outputs": [
        {
          "internalType": "uint256",
          "name": "",
          "type": "uint256"
        }
      ],
      "stateMutability": "nonpayable",
      "type": "function"
    },
    {
      "inputs": [
        {
          "internalType": "uint256",
          "name": "_actorID",
          "type": "uint256"
        }
      ],
      "name": "checkResponse",
      "outputs": [
        {
          "internalType": "enum EHR.RequestState",
          "name": "",
          "type": "uint8"
        },
        {
          "internalType": "uint256",
          "name": "",
          "type": "uint256"
        }
      ],
      "stateMutability": "view",
      "type": "function"
    },
    {
      "inputs": [
        {
          "internalType": "uint256",
          "name": "_requestID",
          "type": "uint256"
        }
      ],
      "name": "checkRequest",
      "outputs": [
        {
          "internalType": "bool",
          "name": "",
          "type": "bool"
        },
        {
          "internalType": "bool",
          "name": "",
          "type": "bool"
        }
      ],
      "stateMutability": "view",
      "type": "function"
    },
    {
      "inputs": [
        {
          "internalType": "uint256",
          "name": "_ehrID",
          "type": "uint256"
        }
      ],
      "name": "getEHRAbstract",
      "outputs": [
        {
          "components": [
            {
              "internalType": "uint256",
              "name": "actorID",
              "type": "uint256"
            },
            {
              "internalType": "string",
              "name": "ehrHash",
              "type": "string"
            },
            {
              "internalType": "string",
              "name": "ipfsHashAddress",
              "type": "string"
            },
            {
              "internalType": "string",
              "name": "secretKey",
              "type": "string"
            }
          ],
          "internalType": "struct EHR.EHRAbstract",
          "name": "",
          "type": "tuple"
        }
      ],
      "stateMutability": "view",
      "type": "function"
    },
    {
      "inputs": [
        {
          "internalType": "uint256",
          "name": "_requestID",
          "type": "uint256"
        },
        {
          "internalType": "uint256",
          "name": "_actorID",
          "type": "uint256"
        },
        {
          "internalType": "string",
          "name": "_hash",
          "type": "string"
        },
        {
          "internalType": "string",
          "name": "_ipfsAddr",
          "type": "string"
        },
        {
          "internalType": "string",
          "name": "_secretKey",
          "type": "string"
        }
      ],
      "name": "addEHRAbstract",
      "outputs": [
        {
          "internalType": "uint256",
          "name": "_ehrID",
          "type": "uint256"
        }
      ],
      "stateMutability": "nonpayable",
      "type": "function"
    },
    {
      "inputs": [
        {
          "internalType": "uint256",
          "name": "_requestID",
          "type": "uint256"
        },
        {
          "internalType": "uint256",
          "name": "_actorID",
          "type": "uint256"
        },
        {
          "internalType": "uint256",
          "name": "_ehrID",
          "type": "uint256"
        }
      ],
      "name": "getEHRbyActor",
      "outputs": [
        {
          "components": [
            {
              "internalType": "uint256",
              "name": "actorID",
              "type": "uint256"
            },
            {
              "internalType": "string",
              "name": "ehrHash",
              "type": "string"
            },
            {
              "internalType": "string",
              "name": "ipfsHashAddress",
              "type": "string"
            },
            {
              "internalType": "string",
              "name": "secretKey",
              "type": "string"
            }
          ],
          "internalType": "struct EHR.EHRAbstract",
          "name": "",
          "type": "tuple"
        }
      ],
      "stateMutability": "view",
      "type": "function"
    }
  ],
  "bytecode": "0x608060405260006002553480156200001657600080fd5b506002805490600062000029836200025c565b91905055506040518060800160405280600081526020016040518060400160405280600481526020017f746573740000000000000000000000000000000000000000000000000000000081525081526020016040518060400160405280600b81526020017f48656c6c6f20776f726c6400000000000000000000000000000000000000000081525081526020016040518060400160405280600481526020017f746573740000000000000000000000000000000000000000000000000000000081525081525060016000600254815260200190815260200160002060008201518160000155602082015181600101908162000125919062000374565b50604082015160028201906200013c908262000374565b506060820151600382019062000153908262000374565b50506040805160808101825260178152426020820190815260019282018381526002606084015260008054808601825590805283517f290decd9548b62a8d60345a988386fc84ba6bc95484008f6362f93160ef3e563600390920291820190815592517f290decd9548b62a8d60345a988386fc84ba6bc95484008f6362f93160ef3e56482015590517f290decd9548b62a8d60345a988386fc84ba6bc95484008f6362f93160ef3e56590910180549395509193909260ff191690838181111562000222576200022262000447565b0217905550606082015160028201805461ff0019166101008360038111156200024f576200024f62000447565b0217905550505062000476565b60006001820162000296577f4e487b7100000000000000000000000000000000000000000000000000000000600052601160045260246000fd5b5060010190565b7f4e487b7100000000000000000000000000000000000000000000000000000000600052604160045260246000fd5b600281046001821680620002e157607f821691505b6020821081036200031b577f4e487b7100000000000000000000000000000000000000000000000000000000600052602260045260246000fd5b50919050565b601f8211156200036f576000818152602081206020601f860104810160208610156200034a5750805b6020601f860104820191505b818110156200036b5782815560010162000356565b5050505b505050565b815167ffffffffffffffff8111156200039157620003916200029d565b620003a981620003a28454620002cc565b8462000321565b602080601f831160018114620003e55760008415620003c85750858301515b60028086026008870290910a60001904198216178655506200036b565b600085815260208120601f198616915b828110156200041657888601518255948401946001909101908401620003f5565b50858210156200043757878501516008601f88160260020a60001904191681555b5050505050600202600101905550565b7f4e487b7100000000000000000000000000000000000000000000000000000000600052602160045260246000fd5b6112dc80620004866000396000f3fe608060405234801561001057600080fd5b50600436106100c6576000357c0100000000000000000000000000000000000000000000000000000000900480637cd7710d1161008e5780637cd7710d1461016d5780638f823dfe1461017657806398ad1b9514610196578063cc541a68146101ab578063df5ff354146101cc578063e6358697146101df57600080fd5b806308d19b8b146100cb57806323c31473146100f75780633f2c0e351461011857806340c57998146101205780636d052b371461014a575b600080fd5b6100de6100d9366004610cfc565b6101f2565b6040516100ee9493929190610d5b565b60405180910390f35b61010a610105366004610da5565b6103b2565b6040519081526020016100ee565b60005461010a565b61013361012e366004610cfc565b610478565b6040805192151583529015156020830152016100ee565b61015d610158366004610cfc565b61052f565b6040516100ee9493929190610e06565b61010a60025481565b610189610184366004610cfc565b610644565b6040516100ee9190610e37565b6101a96101a4366004610e99565b6108ae565b005b6101be6101b9366004610cfc565b61095c565b6040516100ee929190610ec2565b6101896101da366004610edd565b610a67565b61010a6101ed366004610faf565b610b81565b6001602081905260009182526040909120805491810180546102139061104b565b80601f016020809104026020016040519081016040528092919081815260200182805461023f9061104b565b801561028c5780601f106102615761010080835404028352916020019161028c565b820191906000526020600020905b81548152906001019060200180831161026f57829003601f168201915b5050505050908060020180546102a19061104b565b80601f01602080910402602001604051908101604052809291908181526020018280546102cd9061104b565b801561031a5780601f106102ef5761010080835404028352916020019161031a565b820191906000526020600020905b8154815290600101906020018083116102fd57829003601f168201915b50505050509080600301805461032f9061104b565b80601f016020809104026020016040519081016040528092919081815260200182805461035b9061104b565b80156103a85780601f1061037d576101008083540402835291602001916103a8565b820191906000526020600020905b81548152906001019060200180831161038b57829003601f168201915b5050505050905084565b600080546040805160808101825285815242602082018190529184919081018660018111156103e3576103e3610dd9565b8152602001600290528154600181810184556000938452602093849020835160039093020191825592820151818401556040820151600282018054939492939192909160ff191690838181111561043c5761043c610dd9565b0217905550606082015160028201805461ff00191661010083600381111561046657610466610dd9565b02179055509293505050505b92915050565b6000806000429050600080858154811061049457610494611088565b906000526020600020906003020160010154826104b191906110ba565b9050620151808111156104cb575060009485945092505050565b60008086815481106104df576104df611088565b906000526020600020906003020160020160019054906101000a900460ff16600381111561050f5761050f610dd9565b03610521575060019485945092505050565b506001946000945092505050565b6000808080600054851061058d5760405160e560020a62461bcd02815260206004820152601a60248201527f57524f4e4720494e44455820464f52205245515545535420212100000000000060448201526064015b60405180910390fd5b600085815481106105a0576105a0611088565b906000526020600020906003020160000154600086815481106105c5576105c5611088565b906000526020600020906003020160010154600087815481106105ea576105ea611088565b60009182526020822060026003909202010154815460ff90911691908990811061061657610616611088565b906000526020600020906003020160020160019054906101000a900460ff1693509350935093509193509193565b61066f6040518060800160405280600081526020016060815260200160608152602001606081525090565b60008211801561068157506002548211155b6106d05760405160e560020a62461bcd02815260206004820152601560248201527f45485220646f6573206e6f7420657869737420212100000000000000000000006044820152606401610584565b600082815260016020818152604092839020835160808101909452805484529182018054918401916107019061104b565b80601f016020809104026020016040519081016040528092919081815260200182805461072d9061104b565b801561077a5780601f1061074f5761010080835404028352916020019161077a565b820191906000526020600020905b81548152906001019060200180831161075d57829003601f168201915b505050505081526020016002820180546107939061104b565b80601f01602080910402602001604051908101604052809291908181526020018280546107bf9061104b565b801561080c5780601f106107e15761010080835404028352916020019161080c565b820191906000526020600020905b8154815290600101906020018083116107ef57829003601f168201915b505050505081526020016003820180546108259061104b565b80601f01602080910402602001604051908101604052809291908181526020018280546108519061104b565b801561089e5780601f106108735761010080835404028352916020019161089e565b820191906000526020600020905b81548152906001019060200180831161088157829003601f168201915b5050505050815250509050919050565b60006108b983610478565b5090508061090c5760405160e560020a62461bcd02815260206004820152601960248201527f5265717565737420646f6573206e6f74206578697374202121000000000000006044820152606401610584565b816000848154811061092057610920611088565b906000526020600020906003020160020160016101000a81548160ff0219169083600381111561095257610952610dd9565b0217905550505050565b60008054819042905b8015610a59578460006109796001846110ba565b8154811061098957610989611088565b90600052602060002090600302016000015403610a47576000806109ae6001846110ba565b815481106109be576109be611088565b906000526020600020906003020160010154836109db91906110ba565b9050620151808111156109f75750600395600095509350505050565b6000610a046001846110ba565b81548110610a1457610a14611088565b6000918252602090912060039091020160020154610100900460ff16610a3b6001846110ba565b94509450505050915091565b80610a51816110cd565b915050610965565b506002946000945092505050565b610a926040518060800160405280600081526020016060815260200160608152602001606081525090565b600080610a9e86610478565b91509150818015610aac5750805b610acb5760405160e560020a62461bcd028152600401610584906110e4565b8460008781548110610adf57610adf611088565b90600052602060002090600302016000015414610b115760405160e560020a62461bcd02815260040161058490611141565b600160008781548110610b2657610b26611088565b600091825260209091206002600390920201015460ff166001811115610b4e57610b4e610dd9565b14610b6e5760405160e560020a62461bcd02815260040161058490611141565b610b7784610644565b9695505050505050565b6000806000610b8f88610478565b91509150818015610b9d5750805b610bbc5760405160e560020a62461bcd028152600401610584906110e4565b8660008981548110610bd057610bd0611088565b90600052602060002090600302016000015414610c025760405160e560020a62461bcd02815260040161058490611141565b6000808981548110610c1657610c16611088565b600091825260209091206002600390920201015460ff166001811115610c3e57610c3e610dd9565b14610c5e5760405160e560020a62461bcd02815260040161058490611141565b60028054906000610c6e83611178565b90915550506040805160808101825288815260208082018981528284018990526060830188905260025460009081526001928390529390932082518155925191929190820190610cbe90826111e0565b5060408201516002820190610cd390826111e0565b5060608201516003820190610ce890826111e0565b505060025493505050505b95945050505050565b600060208284031215610d0e57600080fd5b5035919050565b6000815180845260005b81811015610d3b57602081850181015186830182015201610d1f565b506000602082860101526020601f19601f83011685010191505092915050565b848152608060208201526000610d746080830186610d15565b8281036040840152610d868186610d15565b90508281036060840152610d9a8185610d15565b979650505050505050565b60008060408385031215610db857600080fd5b82359150602083013560028110610dce57600080fd5b809150509250929050565b60e060020a634e487b7102600052602160045260246000fd5b60048110610e0257610e02610dd9565b9052565b848152602081018490526080810160028410610e2457610e24610dd9565b836040830152610cf36060830184610df2565b60208152815160208201526000602083015160806040840152610e5d60a0840182610d15565b90506040840151601f1980858403016060860152610e7b8383610d15565b9250606086015191508085840301608086015250610cf38282610d15565b60008060408385031215610eac57600080fd5b82359150602083013560048110610dce57600080fd5b60408101610ed08285610df2565b8260208301529392505050565b600080600060608486031215610ef257600080fd5b505081359360208301359350604090920135919050565b60e060020a634e487b7102600052604160045260246000fd5b600082601f830112610f3357600080fd5b813567ffffffffffffffff80821115610f4e57610f4e610f09565b604051601f8301601f19908116603f01168101908282118183101715610f7657610f76610f09565b81604052838152866020858801011115610f8f57600080fd5b836020870160208301376000602085830101528094505050505092915050565b600080600080600060a08688031215610fc757600080fd5b8535945060208601359350604086013567ffffffffffffffff80821115610fed57600080fd5b610ff989838a01610f22565b9450606088013591508082111561100f57600080fd5b61101b89838a01610f22565b9350608088013591508082111561103157600080fd5b5061103e88828901610f22565b9150509295509295909350565b60028104600182168061105f57607f821691505b6020821081036110825760e060020a634e487b7102600052602260045260246000fd5b50919050565b60e060020a634e487b7102600052603260045260246000fd5b60e060020a634e487b7102600052601160045260246000fd5b81810381811115610472576104726110a1565b6000816110dc576110dc6110a1565b506000190190565b6020808252602e908201527f5265717565737420646f6573206e6f74206578697374206f7220646f6573206e60408201527f6f74206163636570746564202121000000000000000000000000000000000000606082015260800190565b60208082526014908201527f7065726d697373696f6e2064656e696564202121000000000000000000000000604082015260600190565b60006001820161118a5761118a6110a1565b5060010190565b601f8211156111db576000818152602081206020601f860104810160208610156111b85750805b6020601f860104820191505b818110156111d7578281556001016111c4565b5050505b505050565b815167ffffffffffffffff8111156111fa576111fa610f09565b61120e81611208845461104b565b84611191565b602080601f831160018114611247576000841561122b5750858301515b60028086026008870290910a60001904198216178655506111d7565b600085815260208120601f198616915b8281101561127657888601518255948401946001909101908401611257565b508582101561129657878501516008601f88160260020a60001904191681555b505050505060020260010190555056fea2646970667358221220305d8a800a8ef293391d58b5d2c6904eb1028ec7b0e2a8ec464d4308638723ba64736f6c63430008110033",
  "immutableReferences": {},
  "source": "// SPDX-License-Identifier: GPL-3.0\r\npragma solidity >=0.7.0 <0.9.0;\r\n\r\n/** \r\n * @title EHR\r\n * @dev Implements EHR methods\r\n */\r\ncontract EHR {\r\n    // request expired time in second\r\n    uint256 constant EXPIRED_TIME = 86400;\r\n\r\n    enum RequestType {\r\n        PUBLISH,\r\n        CONSULT\r\n    }\r\n    enum RequestState {\r\n        ACCEPTED,\r\n        REFUSED,\r\n        PENDING,\r\n        CANCELLED\r\n    }\r\n    struct request {\r\n        uint actorID;\r\n        uint256 timestamp;\r\n        RequestType rType;\r\n        RequestState state;        \r\n    }\r\n    request[] requests;\r\n\r\n    enum EHRType {\r\n        examen,\r\n        SCANNER\r\n    }\r\n    struct EHRAbstract {\r\n        // uint id; index in the array of EHRAbstract\r\n        uint actorID;\r\n        // EHRType eType;\r\n        string ehrHash;\r\n        string ipfsHashAddress;\r\n        string secretKey;\r\n        // uint date; // TODO\r\n    }\r\n    // EHRAbstract[] ehrArray;\r\n    mapping(uint256 => EHRAbstract) public ehrArray;\r\n    uint256 public ehrCount = 0;\r\n\r\n    \r\n    constructor () {\r\n        ehrCount++;\r\n        ehrArray[ehrCount] = EHRAbstract(0, \"test\", \"Hello world\", \"test\");\r\n\r\n        requests.push(request(23, block.timestamp, RequestType.CONSULT, RequestState.PENDING));\r\n        // requests.push(request(25, block.timestamp, RequestType.CONSULT, RequestState.ACCEPTED));\r\n    }\r\n\r\n\r\n    /**\r\n    * /////////////////////////////////////////////////////////\r\n    *           PUBLIC METHODS FOR REQUEST PURPOSE \r\n    * /////////////////////////////////////////////////////////\r\n    */\r\n    \r\n    function checkExpiredRequests() internal {\r\n        for (uint i=0; i<requests.length;i++)\r\n        if (requests[i].state == RequestState.PENDING) {\r\n            uint256 currentTimestamp = block.timestamp;\r\n            uint256 timeDifference = currentTimestamp - requests[i].timestamp;\r\n            if (timeDifference > EXPIRED_TIME){\r\n                requests[i].state = RequestState.CANCELLED;\r\n            }\r\n        }\r\n    }\r\n\r\n    // #### for patient utilization ###\r\n    function getNumberOfRequest() public view returns (uint) {\r\n        // checkExpiredRequests();\r\n        return requests.length;\r\n    }\r\n\r\n    function getRequestByIndex(uint _index) public view returns (uint, uint256, RequestType, RequestState) {\r\n        require(_index >= 0 && _index < requests.length, \"WRONG INDEX FOR REQUEST !!\");\r\n        return (requests[_index].actorID, requests[_index].timestamp, requests[_index].rType, requests[_index].state);\r\n    }\r\n\r\n    function setResponse(uint _requestID, RequestState _newState) public {\r\n        (bool exist, ) = checkRequest(_requestID);\r\n        require(exist, \"Request does not exist !!\");\r\n        requests[_requestID].state = _newState;\r\n    }\r\n\r\n    // ### for actor utilization ###\r\n    function setRequest(uint _actorID, RequestType _type) public returns (uint){\r\n        uint index = requests.length;\r\n        uint256 currentTimestamp = block.timestamp;\r\n        requests.push(request(_actorID, currentTimestamp, _type, RequestState.PENDING));\r\n        return index;\r\n    }\r\n\r\n    function checkResponse(uint _actorID) public view returns (RequestState, uint) {\r\n        uint256 currentTimestamp = block.timestamp;\r\n        uint i = requests.length;\r\n        for (i; i>0; i--) {\r\n            if (requests[i-1].actorID == _actorID) {\r\n                uint256 timeDifference = currentTimestamp - requests[i-1].timestamp;\r\n                if (timeDifference > EXPIRED_TIME){ // CANCELLED\r\n                    return (RequestState.CANCELLED, 0);\r\n                } else {\r\n                    return (requests[i-1].state, i-1);\r\n                }\r\n            }\r\n        }\r\n        return (RequestState.PENDING, 0);\r\n    }\r\n\r\n    // ### for internal utilization ###\r\n    function checkRequest(uint _requestID) view public returns (bool, bool) {\r\n        uint256 currentTimestamp = block.timestamp;\r\n        uint256 timeDifference = currentTimestamp - requests[_requestID].timestamp;\r\n                \r\n        if (timeDifference > EXPIRED_TIME){ // CANCELLED\r\n            return (false, false);\r\n        }\r\n        if (requests[_requestID].state == RequestState.ACCEPTED) {\r\n            return (true, true); \r\n        }\r\n        return (true, false); // REFUSED OR PENDING\r\n    }\r\n\r\n    \r\n\r\n\r\n    /**\r\n    * /////////////////////////////////////////////////////////\r\n    *           PUBLIC METHODS FOR EHR PURPOSE \r\n    * /////////////////////////////////////////////////////////\r\n    */\r\n\r\n    ////////////////////// FOR OWNER\r\n    function getEHRAbstract(uint _ehrID) view public returns (EHRAbstract memory) {\r\n        require(_ehrID > 0 && _ehrID <= ehrCount, \"EHR does not exist !!\");\r\n        return ehrArray[_ehrID];\r\n    } \r\n\r\n    ////////////////////// FOR ACTOR\r\n    function addEHRAbstract(uint _requestID, uint _actorID, string memory _hash, string memory _ipfsAddr, string memory _secretKey ) public returns (uint _ehrID) {\r\n\r\n        // 1 - check the request \r\n        (bool exist, bool accepted) = checkRequest(_requestID);\r\n        require(exist && accepted, \"Request does not exist or does not accepted !!\");\r\n\r\n        // 2 - check if actor is the same in the request \r\n        require(requests[_requestID].actorID == _actorID, \"permission denied !!\");\r\n\r\n        // 3 - check the type of request (publish)\r\n        require(requests[_requestID].rType == RequestType.PUBLISH, \"permission denied !!\");\r\n\r\n\r\n        // share the EHR\r\n        ehrCount++;\r\n        ehrArray[ehrCount] = EHRAbstract(_actorID, _hash, _ipfsAddr, _secretKey);\r\n\r\n        return ehrCount;\r\n    }\r\n\r\n    function getEHRbyActor(uint _requestID, uint _actorID, uint _ehrID) view public returns (EHRAbstract memory) {\r\n        // 1 - check the request \r\n        (bool exist, bool accepted) = checkRequest(_requestID);\r\n        require(exist && accepted, \"Request does not exist or does not accepted !!\");\r\n\r\n        // 2 - check if the same actor \r\n        require(requests[_requestID].actorID == _actorID, \"permission denied !!\");\r\n\r\n        // 3 - check the type of request (consult)\r\n        require(requests[_requestID].rType == RequestType.CONSULT, \"permission denied !!\");\r\n\r\n        return getEHRAbstract(_ehrID);\r\n    }\r\n}",
  "sourcePath": "F:\\ComputerScience\\projects\\PFE\\project\\2022-2023\\Blockchain-side\\contracts\\EHR.sol",
  "compiler": {
    "name": "solc",
    "version": "0.8.17+commit.8df45f5f.Emscripten.clang"
  },
  "schemaVersion": "3.4.11",
  "updatedAt": "2023-04-20T14:40:56.185Z",
  "devdoc": {
    "details": "Implements EHR methods",
    "kind": "dev",
    "methods": {},
    "title": "EHR",
    "version": 1
  },
  "userdoc": {
    "kind": "user",
    "methods": {
      "getEHRAbstract(uint256)": {
        "notice": "/////////////////////////////////////////////////////////           PUBLIC METHODS FOR EHR PURPOSE  /////////////////////////////////////////////////////////"
      }
    },
    "version": 1
  }
}