{
  "contractName": "EHR",
  "abi": [
    {
      "inputs": [],
      "stateMutability": "nonpayable",
      "type": "constructor"
    },
    {
      "inputs": [
        {
          "internalType": "uint256",
          "name": "",
          "type": "uint256"
        }
      ],
      "name": "ehrArray",
      "outputs": [
        {
          "internalType": "uint256",
          "name": "actorID",
          "type": "uint256"
        },
        {
          "internalType": "string",
          "name": "ehrHash",
          "type": "string"
        },
        {
          "internalType": "string",
          "name": "ipfsHashAddress",
          "type": "string"
        },
        {
          "internalType": "string",
          "name": "secretKey",
          "type": "string"
        }
      ],
      "stateMutability": "view",
      "type": "function"
    },
    {
      "inputs": [],
      "name": "ehrCount",
      "outputs": [
        {
          "internalType": "uint256",
          "name": "",
          "type": "uint256"
        }
      ],
      "stateMutability": "view",
      "type": "function"
    },
    {
      "inputs": [],
      "name": "getNumberOfRequest",
      "outputs": [
        {
          "internalType": "uint256",
          "name": "",
          "type": "uint256"
        }
      ],
      "stateMutability": "view",
      "type": "function"
    },
    {
      "inputs": [
        {
          "internalType": "uint256",
          "name": "_index",
          "type": "uint256"
        }
      ],
      "name": "getRequestByIndex",
      "outputs": [
        {
          "internalType": "uint256",
          "name": "",
          "type": "uint256"
        },
        {
          "internalType": "enum EHR.RequestType",
          "name": "",
          "type": "uint8"
        },
        {
          "internalType": "bool",
          "name": "",
          "type": "bool"
        }
      ],
      "stateMutability": "view",
      "type": "function"
    },
    {
      "inputs": [
        {
          "internalType": "uint256",
          "name": "_requestID",
          "type": "uint256"
        }
      ],
      "name": "setResponse",
      "outputs": [],
      "stateMutability": "nonpayable",
      "type": "function"
    },
    {
      "inputs": [
        {
          "internalType": "uint256",
          "name": "_actorID",
          "type": "uint256"
        },
        {
          "internalType": "enum EHR.RequestType",
          "name": "_type",
          "type": "uint8"
        }
      ],
      "name": "setRequest",
      "outputs": [
        {
          "internalType": "uint256",
          "name": "",
          "type": "uint256"
        }
      ],
      "stateMutability": "nonpayable",
      "type": "function"
    },
    {
      "inputs": [
        {
          "internalType": "uint256",
          "name": "_actorID",
          "type": "uint256"
        }
      ],
      "name": "checkResponse",
      "outputs": [
        {
          "internalType": "bool",
          "name": "",
          "type": "bool"
        },
        {
          "internalType": "uint256",
          "name": "",
          "type": "uint256"
        }
      ],
      "stateMutability": "view",
      "type": "function"
    },
    {
      "inputs": [
        {
          "internalType": "uint256",
          "name": "_requestID",
          "type": "uint256"
        }
      ],
      "name": "checkRequest",
      "outputs": [
        {
          "internalType": "bool",
          "name": "",
          "type": "bool"
        },
        {
          "internalType": "bool",
          "name": "",
          "type": "bool"
        }
      ],
      "stateMutability": "view",
      "type": "function"
    },
    {
      "inputs": [
        {
          "internalType": "uint256",
          "name": "_ehrID",
          "type": "uint256"
        }
      ],
      "name": "getEHRAbstract",
      "outputs": [
        {
          "components": [
            {
              "internalType": "uint256",
              "name": "actorID",
              "type": "uint256"
            },
            {
              "internalType": "string",
              "name": "ehrHash",
              "type": "string"
            },
            {
              "internalType": "string",
              "name": "ipfsHashAddress",
              "type": "string"
            },
            {
              "internalType": "string",
              "name": "secretKey",
              "type": "string"
            }
          ],
          "internalType": "struct EHR.EHRAbstract",
          "name": "",
          "type": "tuple"
        }
      ],
      "stateMutability": "view",
      "type": "function"
    },
    {
      "inputs": [
        {
          "internalType": "uint256",
          "name": "_requestID",
          "type": "uint256"
        },
        {
          "internalType": "uint256",
          "name": "_actorID",
          "type": "uint256"
        },
        {
          "internalType": "string",
          "name": "_hash",
          "type": "string"
        },
        {
          "internalType": "string",
          "name": "_ipfsAddr",
          "type": "string"
        },
        {
          "internalType": "string",
          "name": "_secretKey",
          "type": "string"
        }
      ],
      "name": "addEHRAbstract",
      "outputs": [
        {
          "internalType": "uint256",
          "name": "_ehrID",
          "type": "uint256"
        }
      ],
      "stateMutability": "nonpayable",
      "type": "function"
    },
    {
      "inputs": [
        {
          "internalType": "uint256",
          "name": "_requestID",
          "type": "uint256"
        },
        {
          "internalType": "uint256",
          "name": "_actorID",
          "type": "uint256"
        },
        {
          "internalType": "uint256",
          "name": "_ehrID",
          "type": "uint256"
        }
      ],
      "name": "getEHRbyActor",
      "outputs": [
        {
          "components": [
            {
              "internalType": "uint256",
              "name": "actorID",
              "type": "uint256"
            },
            {
              "internalType": "string",
              "name": "ehrHash",
              "type": "string"
            },
            {
              "internalType": "string",
              "name": "ipfsHashAddress",
              "type": "string"
            },
            {
              "internalType": "string",
              "name": "secretKey",
              "type": "string"
            }
          ],
          "internalType": "struct EHR.EHRAbstract",
          "name": "",
          "type": "tuple"
        }
      ],
      "stateMutability": "view",
      "type": "function"
    }
  ],
  "bytecode": "0x608060405260006002553480156200001657600080fd5b50600260008154809291906200002c906200026a565b91905055506040518060800160405280600081526020016040518060400160405280600481526020017f746573740000000000000000000000000000000000000000000000000000000081525081526020016040518060400160405280600481526020017f746573740000000000000000000000000000000000000000000000000000000081525081526020016040518060400160405280600481526020017f746573740000000000000000000000000000000000000000000000000000000081525081525060016000600254815260200190815260200160002060008201518160000155602082015181600101908162000128919062000527565b50604082015181600201908162000140919062000527565b50606082015181600301908162000158919062000527565b5090505060006040518060800160405280601781526020016001808111156200018657620001856200060e565b5b8152602001600115158152602001600081525090806001815401808255809150506001900390600052602060002090600302016000909190919091506000820151816000015560208201518160010160006101000a81548160ff02191690836001811115620001fa57620001f96200060e565b5b021790555060408201518160010160016101000a81548160ff0219169083151502179055506060820151816002015550506200063d565b7f4e487b7100000000000000000000000000000000000000000000000000000000600052601160045260246000fd5b6000819050919050565b6000620002778262000260565b91507fffffffffffffffffffffffffffffffffffffffffffffffffffffffffffffffff8203620002ac57620002ab62000231565b5b600182019050919050565b600081519050919050565b7f4e487b7100000000000000000000000000000000000000000000000000000000600052604160045260246000fd5b7f4e487b7100000000000000000000000000000000000000000000000000000000600052602260045260246000fd5b600060028204905060018216806200033957607f821691505b6020821081036200034f576200034e620002f1565b5b50919050565b60008190508160005260206000209050919050565b60006020601f8301049050919050565b600082821b905092915050565b600060088302620003b97fffffffffffffffffffffffffffffffffffffffffffffffffffffffffffffffff826200037a565b620003c586836200037a565b95508019841693508086168417925050509392505050565b6000819050919050565b60006200040862000402620003fc8462000260565b620003dd565b62000260565b9050919050565b6000819050919050565b6200042483620003e7565b6200043c62000433826200040f565b84845462000387565b825550505050565b600090565b6200045362000444565b6200046081848462000419565b505050565b5b8181101562000488576200047c60008262000449565b60018101905062000466565b5050565b601f821115620004d757620004a18162000355565b620004ac846200036a565b81016020851015620004bc578190505b620004d4620004cb856200036a565b83018262000465565b50505b505050565b600082821c905092915050565b6000620004fc60001984600802620004dc565b1980831691505092915050565b6000620005178383620004e9565b9150826002028217905092915050565b6200053282620002b7565b67ffffffffffffffff8111156200054e576200054d620002c2565b5b6200055a825462000320565b620005678282856200048c565b600060209050601f8311600181146200059f57600084156200058a578287015190505b62000596858262000509565b86555062000606565b601f198416620005af8662000355565b60005b82811015620005d957848901518255600182019150602085019450602081019050620005b2565b86831015620005f95784890151620005f5601f891682620004e9565b8355505b6001600288020188555050505b505050505050565b7f4e487b7100000000000000000000000000000000000000000000000000000000600052602160045260246000fd5b611ab5806200064d6000396000f3fe608060405234801561001057600080fd5b50600436106100a95760003560e01c80637cd7710d116100715780637cd7710d146101925780638f823dfe146101b05780639d04ae84146101e0578063cc541a68146101fc578063df5ff3541461022d578063e63586971461025d576100a9565b806308d19b8b146100ae57806323c31473146100e15780633f2c0e351461011157806340c579981461012f5780636d052b3714610160575b600080fd5b6100c860048036038101906100c39190610e58565b61028d565b6040516100d89493929190610f24565b60405180910390f35b6100fb60048036038101906100f69190610fa3565b610455565b6040516101089190610fe3565b60405180910390f35b610119610533565b6040516101269190610fe3565b60405180910390f35b61014960048036038101906101449190610e58565b61053f565b604051610157929190611019565b60405180910390f35b61017a60048036038101906101759190610e58565b610599565b604051610189939291906110b9565b60405180910390f35b61019a61068a565b6040516101a79190610fe3565b60405180910390f35b6101ca60048036038101906101c59190610e58565b610690565b6040516101d791906111ba565b60405180910390f35b6101fa60048036038101906101f59190610e58565b6108ce565b005b61021660048036038101906102119190610e58565b610961565b6040516102249291906111dc565b60405180910390f35b61024760048036038101906102429190611205565b610a6f565b60405161025491906111ba565b60405180910390f35b6102776004803603810190610272919061138d565b610be3565b6040516102849190610fe3565b60405180910390f35b60016020528060005260406000206000915090508060000154908060010180546102b69061148b565b80601f01602080910402602001604051908101604052809291908181526020018280546102e29061148b565b801561032f5780601f106103045761010080835404028352916020019161032f565b820191906000526020600020905b81548152906001019060200180831161031257829003601f168201915b5050505050908060020180546103449061148b565b80601f01602080910402602001604051908101604052809291908181526020018280546103709061148b565b80156103bd5780601f10610392576101008083540402835291602001916103bd565b820191906000526020600020905b8154815290600101906020018083116103a057829003601f168201915b5050505050908060030180546103d29061148b565b80601f01602080910402602001604051908101604052809291908181526020018280546103fe9061148b565b801561044b5780601f106104205761010080835404028352916020019161044b565b820191906000526020600020905b81548152906001019060200180831161042e57829003601f168201915b5050505050905084565b6000806000805490509050600080604051806080016040528087815260200186600181111561048757610486611042565b5b81526020018315158152602001600081525090806001815401808255809150506001900390600052602060002090600302016000909190919091506000820151816000015560208201518160010160006101000a81548160ff021916908360018111156104f7576104f6611042565b5b021790555060408201518160010160016101000a81548160ff021916908315150217905550606082015181600201555050819250505092915050565b60008080549050905090565b60008060008084600080549050111561058c57600191506000858154811061056a576105696114bc565b5b906000526020600020906003020160010160019054906101000a900460ff1690505b8181935093505050915091565b60008060008084101580156105b2575060008054905084105b6105f1576040517f08c379a00000000000000000000000000000000000000000000000000000000081526004016105e890611537565b60405180910390fd5b60008481548110610605576106046114bc565b5b9060005260206000209060030201600001546000858154811061062b5761062a6114bc565b5b906000526020600020906003020160010160009054906101000a900460ff166000868154811061065e5761065d6114bc565b5b906000526020600020906003020160010160019054906101000a900460ff169250925092509193909250565b60025481565b610698610de6565b6000821180156106aa57506002548211155b6106e9576040517f08c379a00000000000000000000000000000000000000000000000000000000081526004016106e0906115a3565b60405180910390fd5b60016000838152602001908152602001600020604051806080016040529081600082015481526020016001820180546107219061148b565b80601f016020809104026020016040519081016040528092919081815260200182805461074d9061148b565b801561079a5780601f1061076f5761010080835404028352916020019161079a565b820191906000526020600020905b81548152906001019060200180831161077d57829003601f168201915b505050505081526020016002820180546107b39061148b565b80601f01602080910402602001604051908101604052809291908181526020018280546107df9061148b565b801561082c5780601f106108015761010080835404028352916020019161082c565b820191906000526020600020905b81548152906001019060200180831161080f57829003601f168201915b505050505081526020016003820180546108459061148b565b80601f01602080910402602001604051908101604052809291908181526020018280546108719061148b565b80156108be5780601f10610893576101008083540402835291602001916108be565b820191906000526020600020905b8154815290600101906020018083116108a157829003601f168201915b5050505050815250509050919050565b6000806108da8361053f565b915091508161091e576040517f08c379a00000000000000000000000000000000000000000000000000000000081526004016109159061160f565b60405180910390fd5b600160008481548110610934576109336114bc565b5b906000526020600020906003020160010160016101000a81548160ff021916908315150217905550505050565b600080600080808054905090505b6000811115610a6057846000600183610988919061165e565b81548110610999576109986114bc565b5b90600052602060002090600302016000015403610a4d576000806001836109c0919061165e565b815481106109d1576109d06114bc565b5b90600052602060002090600302016002015403610a3f5760006001826109f7919061165e565b81548110610a0857610a076114bc565b5b906000526020600020906003020160010160019054906101000a900460ff16600182610a34919061165e565b935093505050610a6a565b600082935093505050610a6a565b8080610a5890611692565b91505061096f565b6000829350935050505b915091565b610a77610de6565b600080610a838661053f565b91509150818015610a915750805b610ad0576040517f08c379a0000000000000000000000000000000000000000000000000000000008152600401610ac79061172d565b60405180910390fd5b8460008781548110610ae557610ae46114bc565b5b90600052602060002090600302016000015414610b37576040517f08c379a0000000000000000000000000000000000000000000000000000000008152600401610b2e90611799565b60405180910390fd5b600180811115610b4a57610b49611042565b5b60008781548110610b5e57610b5d6114bc565b5b906000526020600020906003020160010160009054906101000a900460ff166001811115610b8f57610b8e611042565b5b14610bcf576040517f08c379a0000000000000000000000000000000000000000000000000000000008152600401610bc690611799565b60405180910390fd5b610bd884610690565b925050509392505050565b6000806000610bf18861053f565b91509150818015610bff5750805b610c3e576040517f08c379a0000000000000000000000000000000000000000000000000000000008152600401610c359061172d565b60405180910390fd5b8660008981548110610c5357610c526114bc565b5b90600052602060002090600302016000015414610ca5576040517f08c379a0000000000000000000000000000000000000000000000000000000008152600401610c9c90611799565b60405180910390fd5b60006001811115610cb957610cb8611042565b5b60008981548110610ccd57610ccc6114bc565b5b906000526020600020906003020160010160009054906101000a900460ff166001811115610cfe57610cfd611042565b5b14610d3e576040517f08c379a0000000000000000000000000000000000000000000000000000000008152600401610d3590611799565b60405180910390fd5b60026000815480929190610d51906117b9565b9190505550604051806080016040528088815260200187815260200186815260200185815250600160006002548152602001908152602001600020600082015181600001556020820151816001019081610dab91906119ad565b506040820151816002019081610dc191906119ad565b506060820151816003019081610dd791906119ad565b50905050505095945050505050565b6040518060800160405280600081526020016060815260200160608152602001606081525090565b6000604051905090565b600080fd5b600080fd5b6000819050919050565b610e3581610e22565b8114610e4057600080fd5b50565b600081359050610e5281610e2c565b92915050565b600060208284031215610e6e57610e6d610e18565b5b6000610e7c84828501610e43565b91505092915050565b610e8e81610e22565b82525050565b600081519050919050565b600082825260208201905092915050565b60005b83811015610ece578082015181840152602081019050610eb3565b60008484015250505050565b6000601f19601f8301169050919050565b6000610ef682610e94565b610f008185610e9f565b9350610f10818560208601610eb0565b610f1981610eda565b840191505092915050565b6000608082019050610f396000830187610e85565b8181036020830152610f4b8186610eeb565b90508181036040830152610f5f8185610eeb565b90508181036060830152610f738184610eeb565b905095945050505050565b60028110610f8b57600080fd5b50565b600081359050610f9d81610f7e565b92915050565b60008060408385031215610fba57610fb9610e18565b5b6000610fc885828601610e43565b9250506020610fd985828601610f8e565b9150509250929050565b6000602082019050610ff86000830184610e85565b92915050565b60008115159050919050565b61101381610ffe565b82525050565b600060408201905061102e600083018561100a565b61103b602083018461100a565b9392505050565b7f4e487b7100000000000000000000000000000000000000000000000000000000600052602160045260246000fd5b6002811061108257611081611042565b5b50565b600081905061109382611071565b919050565b60006110a382611085565b9050919050565b6110b381611098565b82525050565b60006060820190506110ce6000830186610e85565b6110db60208301856110aa565b6110e8604083018461100a565b949350505050565b6110f981610e22565b82525050565b600082825260208201905092915050565b600061111b82610e94565b61112581856110ff565b9350611135818560208601610eb0565b61113e81610eda565b840191505092915050565b600060808301600083015161116160008601826110f0565b50602083015184820360208601526111798282611110565b915050604083015184820360408601526111938282611110565b915050606083015184820360608601526111ad8282611110565b9150508091505092915050565b600060208201905081810360008301526111d48184611149565b905092915050565b60006040820190506111f1600083018561100a565b6111fe6020830184610e85565b9392505050565b60008060006060848603121561121e5761121d610e18565b5b600061122c86828701610e43565b935050602061123d86828701610e43565b925050604061124e86828701610e43565b9150509250925092565b600080fd5b600080fd5b7f4e487b7100000000000000000000000000000000000000000000000000000000600052604160045260246000fd5b61129a82610eda565b810181811067ffffffffffffffff821117156112b9576112b8611262565b5b80604052505050565b60006112cc610e0e565b90506112d88282611291565b919050565b600067ffffffffffffffff8211156112f8576112f7611262565b5b61130182610eda565b9050602081019050919050565b82818337600083830152505050565b600061133061132b846112dd565b6112c2565b90508281526020810184848401111561134c5761134b61125d565b5b61135784828561130e565b509392505050565b600082601f83011261137457611373611258565b5b813561138484826020860161131d565b91505092915050565b600080600080600060a086880312156113a9576113a8610e18565b5b60006113b788828901610e43565b95505060206113c888828901610e43565b945050604086013567ffffffffffffffff8111156113e9576113e8610e1d565b5b6113f58882890161135f565b935050606086013567ffffffffffffffff81111561141657611415610e1d565b5b6114228882890161135f565b925050608086013567ffffffffffffffff81111561144357611442610e1d565b5b61144f8882890161135f565b9150509295509295909350565b7f4e487b7100000000000000000000000000000000000000000000000000000000600052602260045260246000fd5b600060028204905060018216806114a357607f821691505b6020821081036114b6576114b561145c565b5b50919050565b7f4e487b7100000000000000000000000000000000000000000000000000000000600052603260045260246000fd5b7f57524f4e4720494e44455820464f522052455155455354202121000000000000600082015250565b6000611521601a83610e9f565b915061152c826114eb565b602082019050919050565b6000602082019050818103600083015261155081611514565b9050919050565b7f45485220646f6573206e6f742065786973742021210000000000000000000000600082015250565b600061158d601583610e9f565b915061159882611557565b602082019050919050565b600060208201905081810360008301526115bc81611580565b9050919050565b7f5265717565737420646f6573206e6f7420657869737420212100000000000000600082015250565b60006115f9601983610e9f565b9150611604826115c3565b602082019050919050565b60006020820190508181036000830152611628816115ec565b9050919050565b7f4e487b7100000000000000000000000000000000000000000000000000000000600052601160045260246000fd5b600061166982610e22565b915061167483610e22565b925082820390508181111561168c5761168b61162f565b5b92915050565b600061169d82610e22565b9150600082036116b0576116af61162f565b5b600182039050919050565b7f5265717565737420646f6573206e6f74206578697374206f7220646f6573206e60008201527f6f74206163636570746564202121000000000000000000000000000000000000602082015250565b6000611717602e83610e9f565b9150611722826116bb565b604082019050919050565b600060208201905081810360008301526117468161170a565b9050919050565b7f7065726d697373696f6e2064656e696564202121000000000000000000000000600082015250565b6000611783601483610e9f565b915061178e8261174d565b602082019050919050565b600060208201905081810360008301526117b281611776565b9050919050565b60006117c482610e22565b91507fffffffffffffffffffffffffffffffffffffffffffffffffffffffffffffffff82036117f6576117f561162f565b5b600182019050919050565b60008190508160005260206000209050919050565b60006020601f8301049050919050565b600082821b905092915050565b6000600883026118637fffffffffffffffffffffffffffffffffffffffffffffffffffffffffffffffff82611826565b61186d8683611826565b95508019841693508086168417925050509392505050565b6000819050919050565b60006118aa6118a56118a084610e22565b611885565b610e22565b9050919050565b6000819050919050565b6118c48361188f565b6118d86118d0826118b1565b848454611833565b825550505050565b600090565b6118ed6118e0565b6118f88184846118bb565b505050565b5b8181101561191c576119116000826118e5565b6001810190506118fe565b5050565b601f8211156119615761193281611801565b61193b84611816565b8101602085101561194a578190505b61195e61195685611816565b8301826118fd565b50505b505050565b600082821c905092915050565b600061198460001984600802611966565b1980831691505092915050565b600061199d8383611973565b9150826002028217905092915050565b6119b682610e94565b67ffffffffffffffff8111156119cf576119ce611262565b5b6119d9825461148b565b6119e4828285611920565b600060209050601f831160018114611a175760008415611a05578287015190505b611a0f8582611991565b865550611a77565b601f198416611a2586611801565b60005b82811015611a4d57848901518255600182019150602085019450602081019050611a28565b86831015611a6a5784890151611a66601f891682611973565b8355505b6001600288020188555050505b50505050505056fea26469706673582212206876605687212fb9a40350456bd599dad3f76c4e05a0a866fc456f358ff6fb2d64736f6c63430008110033",
  "immutableReferences": {},
  "source": "// SPDX-License-Identifier: GPL-3.0\r\npragma solidity >=0.7.0 <0.9.0;\r\n\r\n/** \r\n * @title EHR\r\n * @dev Implements EHR methods\r\n */\r\ncontract EHR {\r\n\r\n    enum RequestType {\r\n        PUBLISH,\r\n        CONSULT\r\n    }\r\n\r\n    struct request {\r\n        uint actorID;\r\n        RequestType rType;\r\n        bool accepted;\r\n        uint readyTime;\r\n    }\r\n    request[] requests;\r\n\r\n    enum EHRType {\r\n        examen,\r\n        SCANNER\r\n    }\r\n\r\n    struct EHRAbstract {\r\n        // uint id; index in the array of EHRAbstract\r\n        uint actorID;\r\n        // EHRType eType;\r\n        string ehrHash;\r\n        string ipfsHashAddress;\r\n        string secretKey;\r\n        // uint date; // TODO\r\n    }\r\n    // EHRAbstract[] ehrArray;\r\n    mapping(uint256 => EHRAbstract) public ehrArray;\r\n    uint256 public ehrCount = 0;\r\n\r\n    \r\n    constructor () {\r\n        ehrCount++;\r\n        ehrArray[ehrCount] = EHRAbstract(0, \"test\", \"test\", \"test\");\r\n\r\n        requests.push(request(23, RequestType.CONSULT, true, 0));\r\n    }\r\n\r\n\r\n    /**\r\n    * /////////////////////////////////////////////////////////\r\n    *           PUBLIC METHODS FOR REQUEST PURPOSE \r\n    * /////////////////////////////////////////////////////////\r\n    */\r\n\r\n    // #### for patient utilization ###\r\n    function getNumberOfRequest() public view returns (uint) {\r\n        return requests.length;\r\n    }\r\n\r\n    function getRequestByIndex(uint _index) public view returns (uint, RequestType, bool) {\r\n        require(_index >= 0 && _index < requests.length, \"WRONG INDEX FOR REQUEST !!\");\r\n        return (requests[_index].actorID, requests[_index].rType, requests[_index].accepted);\r\n    }\r\n\r\n    function setResponse(uint _requestID) public {\r\n        (bool exist, bool accepted) = checkRequest(_requestID);\r\n        require(exist, \"Request does not exist !!\");\r\n\r\n        requests[_requestID].accepted = true;\r\n        // TODO: readyTime\r\n    }\r\n\r\n    // ### for actor utilization ###\r\n    function setRequest(uint _actorID, RequestType _type) public returns (uint){\r\n        uint index = requests.length;\r\n        bool accepted = false;\r\n\r\n        requests.push(request(_actorID,  _type, accepted, 0));\r\n\r\n        return index;\r\n    }\r\n\r\n    function checkResponse(uint _actorID) public view returns (bool, uint) {\r\n        uint requestID = 0;\r\n        uint i = requests.length;\r\n        for (i; i>0; i--) {\r\n            if (requests[i-1].actorID == _actorID) {\r\n                if (requests[i-1].readyTime == 0) {\r\n                    return (requests[i-1].accepted, i-1); \r\n                }\r\n                else {\r\n                    return (false, requestID);\r\n                }\r\n            }\r\n        }\r\n        return (false, requestID);\r\n    }\r\n\r\n    // ### for internal utilization ###\r\n    function checkRequest(uint _requestID) view public returns (bool, bool) {\r\n        bool exist = false;\r\n        bool accepted = false;\r\n        if (requests.length > _requestID) {\r\n            exist = true;\r\n            accepted = requests[_requestID].accepted;\r\n        }\r\n\r\n        return (exist, accepted);\r\n    }\r\n\r\n    \r\n\r\n\r\n    /**\r\n    * /////////////////////////////////////////////////////////\r\n    *           PUBLIC METHODS FOR EHR PURPOSE \r\n    * /////////////////////////////////////////////////////////\r\n    */\r\n\r\n    ////////////////////// FOR OWNER\r\n    function getEHRAbstract(uint _ehrID) view public returns (EHRAbstract memory) {\r\n        require(_ehrID > 0 && _ehrID <= ehrCount, \"EHR does not exist !!\");\r\n\r\n        return ehrArray[_ehrID];\r\n    } \r\n\r\n    ////////////////////// FOR ACTOR\r\n    function addEHRAbstract(uint _requestID, uint _actorID, string memory _hash, string memory _ipfsAddr, string memory _secretKey ) public returns (uint _ehrID) {\r\n\r\n        // 1 - check the request \r\n        (bool exist, bool accepted) = checkRequest(_requestID);\r\n        require(exist && accepted, \"Request does not exist or does not accepted !!\");\r\n\r\n        // 2 - check if actor is the same in the request \r\n        require(requests[_requestID].actorID == _actorID, \"permission denied !!\");\r\n\r\n        // 3 - check the type of request (publish)\r\n        require(requests[_requestID].rType == RequestType.PUBLISH, \"permission denied !!\");\r\n\r\n\r\n        // share the EHR\r\n        ehrCount++;\r\n        ehrArray[ehrCount] = EHRAbstract(_actorID, _hash, _ipfsAddr, _secretKey);\r\n    }\r\n\r\n    // function checkEHR(uint _ehrID) view public returns (bool) {\r\n    //     if (ehrArray.length > _ehrID){\r\n    //         return true;\r\n    //     }\r\n    //     return false;\r\n    // }\r\n\r\n\r\n    function getEHRbyActor(uint _requestID, uint _actorID, uint _ehrID) view public returns (EHRAbstract memory) {\r\n        // 1 - check the request \r\n        (bool exist, bool accepted) = checkRequest(_requestID);\r\n        require(exist && accepted, \"Request does not exist or does not accepted !!\");\r\n\r\n        // 2 - check if the same actor \r\n        require(requests[_requestID].actorID == _actorID, \"permission denied !!\");\r\n\r\n        // 3 - check the type of request (consult)\r\n        require(requests[_requestID].rType == RequestType.CONSULT, \"permission denied !!\");\r\n\r\n        return getEHRAbstract(_ehrID);\r\n    }\r\n    \r\n}",
  "sourcePath": "F:\\ComputerScience\\projects\\PFE\\project\\2022-2023\\Blockchain-side\\contracts\\EHR.sol",
  "compiler": {
    "name": "solc",
    "version": "0.8.17+commit.8df45f5f.Emscripten.clang"
  },
  "schemaVersion": "3.4.11",
  "updatedAt": "2023-04-16T08:54:33.975Z",
  "devdoc": {
    "details": "Implements EHR methods",
    "kind": "dev",
    "methods": {},
    "title": "EHR",
    "version": 1
  },
  "userdoc": {
    "kind": "user",
    "methods": {
      "getEHRAbstract(uint256)": {
        "notice": "/////////////////////////////////////////////////////////           PUBLIC METHODS FOR EHR PURPOSE  /////////////////////////////////////////////////////////"
      },
      "getNumberOfRequest()": {
        "notice": "/////////////////////////////////////////////////////////           PUBLIC METHODS FOR REQUEST PURPOSE  /////////////////////////////////////////////////////////"
      }
    },
    "version": 1
  }
}