{
  "contractName": "EHR",
  "abi": [
    {
      "inputs": [],
      "stateMutability": "nonpayable",
      "type": "constructor"
    },
    {
      "inputs": [
        {
          "internalType": "uint256",
          "name": "",
          "type": "uint256"
        }
      ],
      "name": "ehrArray",
      "outputs": [
        {
          "internalType": "uint256",
          "name": "actorID",
          "type": "uint256"
        },
        {
          "internalType": "string",
          "name": "ehrHash",
          "type": "string"
        },
        {
          "internalType": "string",
          "name": "ipfsHashAddress",
          "type": "string"
        },
        {
          "internalType": "string",
          "name": "secretKey",
          "type": "string"
        }
      ],
      "stateMutability": "view",
      "type": "function"
    },
    {
      "inputs": [],
      "name": "ehrCount",
      "outputs": [
        {
          "internalType": "uint256",
          "name": "",
          "type": "uint256"
        }
      ],
      "stateMutability": "view",
      "type": "function"
    },
    {
      "inputs": [],
      "name": "getNumberOfRequest",
      "outputs": [
        {
          "internalType": "uint256",
          "name": "",
          "type": "uint256"
        }
      ],
      "stateMutability": "view",
      "type": "function"
    },
    {
      "inputs": [
        {
          "internalType": "uint256",
          "name": "_index",
          "type": "uint256"
        }
      ],
      "name": "getRequestByIndex",
      "outputs": [
        {
          "internalType": "uint256",
          "name": "",
          "type": "uint256"
        },
        {
          "internalType": "enum EHR.RequestType",
          "name": "",
          "type": "uint8"
        },
        {
          "internalType": "bool",
          "name": "",
          "type": "bool"
        }
      ],
      "stateMutability": "view",
      "type": "function"
    },
    {
      "inputs": [
        {
          "internalType": "uint256",
          "name": "_actorID",
          "type": "uint256"
        },
        {
          "internalType": "enum EHR.RequestType",
          "name": "_type",
          "type": "uint8"
        }
      ],
      "name": "setRequest",
      "outputs": [
        {
          "internalType": "uint256",
          "name": "",
          "type": "uint256"
        }
      ],
      "stateMutability": "nonpayable",
      "type": "function"
    },
    {
      "inputs": [
        {
          "internalType": "uint256",
          "name": "_requestID",
          "type": "uint256"
        }
      ],
      "name": "checkRequest",
      "outputs": [
        {
          "internalType": "bool",
          "name": "",
          "type": "bool"
        },
        {
          "internalType": "bool",
          "name": "",
          "type": "bool"
        }
      ],
      "stateMutability": "view",
      "type": "function"
    },
    {
      "inputs": [
        {
          "internalType": "uint256",
          "name": "_requestID",
          "type": "uint256"
        }
      ],
      "name": "setResponse",
      "outputs": [],
      "stateMutability": "nonpayable",
      "type": "function"
    },
    {
      "inputs": [
        {
          "internalType": "uint256",
          "name": "_ehrID",
          "type": "uint256"
        }
      ],
      "name": "getEHRAbstract",
      "outputs": [
        {
          "components": [
            {
              "internalType": "uint256",
              "name": "actorID",
              "type": "uint256"
            },
            {
              "internalType": "string",
              "name": "ehrHash",
              "type": "string"
            },
            {
              "internalType": "string",
              "name": "ipfsHashAddress",
              "type": "string"
            },
            {
              "internalType": "string",
              "name": "secretKey",
              "type": "string"
            }
          ],
          "internalType": "struct EHR.EHRAbstract",
          "name": "",
          "type": "tuple"
        }
      ],
      "stateMutability": "view",
      "type": "function"
    },
    {
      "inputs": [
        {
          "internalType": "uint256",
          "name": "_requestID",
          "type": "uint256"
        },
        {
          "internalType": "uint256",
          "name": "_actorID",
          "type": "uint256"
        },
        {
          "internalType": "string",
          "name": "_hash",
          "type": "string"
        },
        {
          "internalType": "string",
          "name": "_ipfsAddr",
          "type": "string"
        },
        {
          "internalType": "string",
          "name": "_secretKey",
          "type": "string"
        }
      ],
      "name": "addEHRAbstract",
      "outputs": [
        {
          "internalType": "uint256",
          "name": "_ehrID",
          "type": "uint256"
        }
      ],
      "stateMutability": "nonpayable",
      "type": "function"
    },
    {
      "inputs": [
        {
          "internalType": "uint256",
          "name": "_requestID",
          "type": "uint256"
        },
        {
          "internalType": "uint256",
          "name": "_actorID",
          "type": "uint256"
        },
        {
          "internalType": "uint256",
          "name": "_ehrID",
          "type": "uint256"
        }
      ],
      "name": "getEHRbyActor",
      "outputs": [
        {
          "components": [
            {
              "internalType": "uint256",
              "name": "actorID",
              "type": "uint256"
            },
            {
              "internalType": "string",
              "name": "ehrHash",
              "type": "string"
            },
            {
              "internalType": "string",
              "name": "ipfsHashAddress",
              "type": "string"
            },
            {
              "internalType": "string",
              "name": "secretKey",
              "type": "string"
            }
          ],
          "internalType": "struct EHR.EHRAbstract",
          "name": "",
          "type": "tuple"
        }
      ],
      "stateMutability": "view",
      "type": "function"
    }
  ],
  "bytecode": "0x608060405260006002553480156200001657600080fd5b50600260008154809291906200002c906200019b565b91905055506040518060800160405280600081526020016040518060400160405280600481526020017f746573740000000000000000000000000000000000000000000000000000000081525081526020016040518060400160405280600481526020017f746573740000000000000000000000000000000000000000000000000000000081525081526020016040518060400160405280600481526020017f746573740000000000000000000000000000000000000000000000000000000081525081525060016000600254815260200190815260200160002060008201518160000155602082015181600101908162000128919062000458565b50604082015181600201908162000140919062000458565b50606082015181600301908162000158919062000458565b509050506200053f565b7f4e487b7100000000000000000000000000000000000000000000000000000000600052601160045260246000fd5b6000819050919050565b6000620001a88262000191565b91507fffffffffffffffffffffffffffffffffffffffffffffffffffffffffffffffff8203620001dd57620001dc62000162565b5b600182019050919050565b600081519050919050565b7f4e487b7100000000000000000000000000000000000000000000000000000000600052604160045260246000fd5b7f4e487b7100000000000000000000000000000000000000000000000000000000600052602260045260246000fd5b600060028204905060018216806200026a57607f821691505b60208210810362000280576200027f62000222565b5b50919050565b60008190508160005260206000209050919050565b60006020601f8301049050919050565b600082821b905092915050565b600060088302620002ea7fffffffffffffffffffffffffffffffffffffffffffffffffffffffffffffffff82620002ab565b620002f68683620002ab565b95508019841693508086168417925050509392505050565b6000819050919050565b600062000339620003336200032d8462000191565b6200030e565b62000191565b9050919050565b6000819050919050565b620003558362000318565b6200036d620003648262000340565b848454620002b8565b825550505050565b600090565b6200038462000375565b620003918184846200034a565b505050565b5b81811015620003b957620003ad6000826200037a565b60018101905062000397565b5050565b601f8211156200040857620003d28162000286565b620003dd846200029b565b81016020851015620003ed578190505b62000405620003fc856200029b565b83018262000396565b50505b505050565b600082821c905092915050565b60006200042d600019846008026200040d565b1980831691505092915050565b60006200044883836200041a565b9150826002028217905092915050565b6200046382620001e8565b67ffffffffffffffff8111156200047f576200047e620001f3565b5b6200048b825462000251565b62000498828285620003bd565b600060209050601f831160018114620004d05760008415620004bb578287015190505b620004c785826200043a565b86555062000537565b601f198416620004e08662000286565b60005b828110156200050a57848901518255600182019150602085019450602081019050620004e3565b868310156200052a578489015162000526601f8916826200041a565b8355505b6001600288020188555050505b505050505050565b6118e5806200054f6000396000f3fe608060405234801561001057600080fd5b506004361061009e5760003560e01c80637cd7710d116100665780637cd7710d146101875780638f823dfe146101a55780639d04ae84146101d5578063df5ff354146101f1578063e6358697146102215761009e565b806308d19b8b146100a357806323c31473146100d65780633f2c0e351461010657806340c57998146101245780636d052b3714610155575b600080fd5b6100bd60048036038101906100b89190610d0e565b610251565b6040516100cd9493929190610dda565b60405180910390f35b6100f060048036038101906100eb9190610e59565b610419565b6040516100fd9190610e99565b60405180910390f35b61010e6104f7565b60405161011b9190610e99565b60405180910390f35b61013e60048036038101906101399190610d0e565b610503565b60405161014c929190610ecf565b60405180910390f35b61016f600480360381019061016a9190610d0e565b61055d565b60405161017e93929190610f6f565b60405180910390f35b61018f61064e565b60405161019c9190610e99565b60405180910390f35b6101bf60048036038101906101ba9190610d0e565b610654565b6040516101cc9190611070565b60405180910390f35b6101ef60048036038101906101ea9190610d0e565b610892565b005b61020b60048036038101906102069190611092565b610925565b6040516102189190611070565b60405180910390f35b61023b6004803603810190610236919061121a565b610a99565b6040516102489190610e99565b60405180910390f35b600160205280600052604060002060009150905080600001549080600101805461027a90611318565b80601f01602080910402602001604051908101604052809291908181526020018280546102a690611318565b80156102f35780601f106102c8576101008083540402835291602001916102f3565b820191906000526020600020905b8154815290600101906020018083116102d657829003601f168201915b50505050509080600201805461030890611318565b80601f016020809104026020016040519081016040528092919081815260200182805461033490611318565b80156103815780601f1061035657610100808354040283529160200191610381565b820191906000526020600020905b81548152906001019060200180831161036457829003601f168201915b50505050509080600301805461039690611318565b80601f01602080910402602001604051908101604052809291908181526020018280546103c290611318565b801561040f5780601f106103e45761010080835404028352916020019161040f565b820191906000526020600020905b8154815290600101906020018083116103f257829003601f168201915b5050505050905084565b6000806000805490509050600080604051806080016040528087815260200186600181111561044b5761044a610ef8565b5b81526020018315158152602001600081525090806001815401808255809150506001900390600052602060002090600302016000909190919091506000820151816000015560208201518160010160006101000a81548160ff021916908360018111156104bb576104ba610ef8565b5b021790555060408201518160010160016101000a81548160ff021916908315150217905550606082015181600201555050819250505092915050565b60008080549050905090565b60008060008084600080549050111561055057600191506000858154811061052e5761052d611349565b5b906000526020600020906003020160010160019054906101000a900460ff1690505b8181935093505050915091565b6000806000808410158015610576575060008054905084105b6105b5576040517f08c379a00000000000000000000000000000000000000000000000000000000081526004016105ac906113c4565b60405180910390fd5b600084815481106105c9576105c8611349565b5b906000526020600020906003020160000154600085815481106105ef576105ee611349565b5b906000526020600020906003020160010160009054906101000a900460ff166000868154811061062257610621611349565b5b906000526020600020906003020160010160019054906101000a900460ff169250925092509193909250565b60025481565b61065c610c9c565b60008211801561066e57506002548211155b6106ad576040517f08c379a00000000000000000000000000000000000000000000000000000000081526004016106a490611430565b60405180910390fd5b60016000838152602001908152602001600020604051806080016040529081600082015481526020016001820180546106e590611318565b80601f016020809104026020016040519081016040528092919081815260200182805461071190611318565b801561075e5780601f106107335761010080835404028352916020019161075e565b820191906000526020600020905b81548152906001019060200180831161074157829003601f168201915b5050505050815260200160028201805461077790611318565b80601f01602080910402602001604051908101604052809291908181526020018280546107a390611318565b80156107f05780601f106107c5576101008083540402835291602001916107f0565b820191906000526020600020905b8154815290600101906020018083116107d357829003601f168201915b5050505050815260200160038201805461080990611318565b80601f016020809104026020016040519081016040528092919081815260200182805461083590611318565b80156108825780601f1061085757610100808354040283529160200191610882565b820191906000526020600020905b81548152906001019060200180831161086557829003601f168201915b5050505050815250509050919050565b60008061089e83610503565b91509150816108e2576040517f08c379a00000000000000000000000000000000000000000000000000000000081526004016108d99061149c565b60405180910390fd5b6001600084815481106108f8576108f7611349565b5b906000526020600020906003020160010160016101000a81548160ff021916908315150217905550505050565b61092d610c9c565b60008061093986610503565b915091508180156109475750805b610986576040517f08c379a000000000000000000000000000000000000000000000000000000000815260040161097d9061152e565b60405180910390fd5b846000878154811061099b5761099a611349565b5b906000526020600020906003020160000154146109ed576040517f08c379a00000000000000000000000000000000000000000000000000000000081526004016109e49061159a565b60405180910390fd5b600180811115610a00576109ff610ef8565b5b60008781548110610a1457610a13611349565b5b906000526020600020906003020160010160009054906101000a900460ff166001811115610a4557610a44610ef8565b5b14610a85576040517f08c379a0000000000000000000000000000000000000000000000000000000008152600401610a7c9061159a565b60405180910390fd5b610a8e84610654565b925050509392505050565b6000806000610aa788610503565b91509150818015610ab55750805b610af4576040517f08c379a0000000000000000000000000000000000000000000000000000000008152600401610aeb9061152e565b60405180910390fd5b8660008981548110610b0957610b08611349565b5b90600052602060002090600302016000015414610b5b576040517f08c379a0000000000000000000000000000000000000000000000000000000008152600401610b529061159a565b60405180910390fd5b60006001811115610b6f57610b6e610ef8565b5b60008981548110610b8357610b82611349565b5b906000526020600020906003020160010160009054906101000a900460ff166001811115610bb457610bb3610ef8565b5b14610bf4576040517f08c379a0000000000000000000000000000000000000000000000000000000008152600401610beb9061159a565b60405180910390fd5b60026000815480929190610c07906115e9565b9190505550604051806080016040528088815260200187815260200186815260200185815250600160006002548152602001908152602001600020600082015181600001556020820151816001019081610c6191906117dd565b506040820151816002019081610c7791906117dd565b506060820151816003019081610c8d91906117dd565b50905050505095945050505050565b6040518060800160405280600081526020016060815260200160608152602001606081525090565b6000604051905090565b600080fd5b600080fd5b6000819050919050565b610ceb81610cd8565b8114610cf657600080fd5b50565b600081359050610d0881610ce2565b92915050565b600060208284031215610d2457610d23610cce565b5b6000610d3284828501610cf9565b91505092915050565b610d4481610cd8565b82525050565b600081519050919050565b600082825260208201905092915050565b60005b83811015610d84578082015181840152602081019050610d69565b60008484015250505050565b6000601f19601f8301169050919050565b6000610dac82610d4a565b610db68185610d55565b9350610dc6818560208601610d66565b610dcf81610d90565b840191505092915050565b6000608082019050610def6000830187610d3b565b8181036020830152610e018186610da1565b90508181036040830152610e158185610da1565b90508181036060830152610e298184610da1565b905095945050505050565b60028110610e4157600080fd5b50565b600081359050610e5381610e34565b92915050565b60008060408385031215610e7057610e6f610cce565b5b6000610e7e85828601610cf9565b9250506020610e8f85828601610e44565b9150509250929050565b6000602082019050610eae6000830184610d3b565b92915050565b60008115159050919050565b610ec981610eb4565b82525050565b6000604082019050610ee46000830185610ec0565b610ef16020830184610ec0565b9392505050565b7f4e487b7100000000000000000000000000000000000000000000000000000000600052602160045260246000fd5b60028110610f3857610f37610ef8565b5b50565b6000819050610f4982610f27565b919050565b6000610f5982610f3b565b9050919050565b610f6981610f4e565b82525050565b6000606082019050610f846000830186610d3b565b610f916020830185610f60565b610f9e6040830184610ec0565b949350505050565b610faf81610cd8565b82525050565b600082825260208201905092915050565b6000610fd182610d4a565b610fdb8185610fb5565b9350610feb818560208601610d66565b610ff481610d90565b840191505092915050565b60006080830160008301516110176000860182610fa6565b506020830151848203602086015261102f8282610fc6565b915050604083015184820360408601526110498282610fc6565b915050606083015184820360608601526110638282610fc6565b9150508091505092915050565b6000602082019050818103600083015261108a8184610fff565b905092915050565b6000806000606084860312156110ab576110aa610cce565b5b60006110b986828701610cf9565b93505060206110ca86828701610cf9565b92505060406110db86828701610cf9565b9150509250925092565b600080fd5b600080fd5b7f4e487b7100000000000000000000000000000000000000000000000000000000600052604160045260246000fd5b61112782610d90565b810181811067ffffffffffffffff82111715611146576111456110ef565b5b80604052505050565b6000611159610cc4565b9050611165828261111e565b919050565b600067ffffffffffffffff821115611185576111846110ef565b5b61118e82610d90565b9050602081019050919050565b82818337600083830152505050565b60006111bd6111b88461116a565b61114f565b9050828152602081018484840111156111d9576111d86110ea565b5b6111e484828561119b565b509392505050565b600082601f830112611201576112006110e5565b5b81356112118482602086016111aa565b91505092915050565b600080600080600060a0868803121561123657611235610cce565b5b600061124488828901610cf9565b955050602061125588828901610cf9565b945050604086013567ffffffffffffffff81111561127657611275610cd3565b5b611282888289016111ec565b935050606086013567ffffffffffffffff8111156112a3576112a2610cd3565b5b6112af888289016111ec565b925050608086013567ffffffffffffffff8111156112d0576112cf610cd3565b5b6112dc888289016111ec565b9150509295509295909350565b7f4e487b7100000000000000000000000000000000000000000000000000000000600052602260045260246000fd5b6000600282049050600182168061133057607f821691505b602082108103611343576113426112e9565b5b50919050565b7f4e487b7100000000000000000000000000000000000000000000000000000000600052603260045260246000fd5b7f57524f4e4720494e44455820464f522052455155455354202121000000000000600082015250565b60006113ae601a83610d55565b91506113b982611378565b602082019050919050565b600060208201905081810360008301526113dd816113a1565b9050919050565b7f45485220646f6573206e6f742065786973742021210000000000000000000000600082015250565b600061141a601583610d55565b9150611425826113e4565b602082019050919050565b600060208201905081810360008301526114498161140d565b9050919050565b7f5265717565737420646f6573206e6f7420657869737420212100000000000000600082015250565b6000611486601983610d55565b915061149182611450565b602082019050919050565b600060208201905081810360008301526114b581611479565b9050919050565b7f5265717565737420646f6573206e6f74206578697374206f7220646f6573206e60008201527f6f74206163636570746564202121000000000000000000000000000000000000602082015250565b6000611518602e83610d55565b9150611523826114bc565b604082019050919050565b600060208201905081810360008301526115478161150b565b9050919050565b7f7065726d697373696f6e2064656e696564202121000000000000000000000000600082015250565b6000611584601483610d55565b915061158f8261154e565b602082019050919050565b600060208201905081810360008301526115b381611577565b9050919050565b7f4e487b7100000000000000000000000000000000000000000000000000000000600052601160045260246000fd5b60006115f482610cd8565b91507fffffffffffffffffffffffffffffffffffffffffffffffffffffffffffffffff8203611626576116256115ba565b5b600182019050919050565b60008190508160005260206000209050919050565b60006020601f8301049050919050565b600082821b905092915050565b6000600883026116937fffffffffffffffffffffffffffffffffffffffffffffffffffffffffffffffff82611656565b61169d8683611656565b95508019841693508086168417925050509392505050565b6000819050919050565b60006116da6116d56116d084610cd8565b6116b5565b610cd8565b9050919050565b6000819050919050565b6116f4836116bf565b611708611700826116e1565b848454611663565b825550505050565b600090565b61171d611710565b6117288184846116eb565b505050565b5b8181101561174c57611741600082611715565b60018101905061172e565b5050565b601f8211156117915761176281611631565b61176b84611646565b8101602085101561177a578190505b61178e61178685611646565b83018261172d565b50505b505050565b600082821c905092915050565b60006117b460001984600802611796565b1980831691505092915050565b60006117cd83836117a3565b9150826002028217905092915050565b6117e682610d4a565b67ffffffffffffffff8111156117ff576117fe6110ef565b5b6118098254611318565b611814828285611750565b600060209050601f8311600181146118475760008415611835578287015190505b61183f85826117c1565b8655506118a7565b601f19841661185586611631565b60005b8281101561187d57848901518255600182019150602085019450602081019050611858565b8683101561189a5784890151611896601f8916826117a3565b8355505b6001600288020188555050505b50505050505056fea264697066735822122097263aafb9d6880de44c33339869ea6fc948597c618f154260096154ac9e14eb64736f6c63430008110033",
  "immutableReferences": {},
  "source": "// SPDX-License-Identifier: GPL-3.0\r\npragma solidity >=0.7.0 <0.9.0;\r\n\r\n/** \r\n * @title EHR\r\n * @dev Implements EHR methods\r\n */\r\ncontract EHR {\r\n\r\n    enum RequestType {\r\n        PUBLISH,\r\n        CONSULT\r\n    }\r\n\r\n    struct request {\r\n        uint actorID;\r\n        RequestType rType;\r\n        bool accepted;\r\n        uint ReadyTime;\r\n    }\r\n    request[] requests;\r\n\r\n    enum EHRType {\r\n        examen,\r\n        SCANNER\r\n    }\r\n\r\n    struct EHRAbstract {\r\n        // uint id; index in the array of EHRAbstract\r\n        uint actorID;\r\n        // EHRType eType;\r\n        string ehrHash;\r\n        string ipfsHashAddress;\r\n        string secretKey;\r\n        // uint date; // TODO\r\n    }\r\n    // EHRAbstract[] ehrArray;\r\n    mapping(uint256 => EHRAbstract) public ehrArray;\r\n    uint256 public ehrCount = 0;\r\n\r\n    \r\n    constructor () {\r\n        ehrCount++;\r\n        ehrArray[ehrCount] = EHRAbstract(0, \"test\", \"test\", \"test\");\r\n    }\r\n\r\n\r\n    /**\r\n    * /////////////////////////////////////////////////////////\r\n    *           PUBLIC METHODS FOR REQUEST PURPOSE \r\n    * /////////////////////////////////////////////////////////\r\n    */\r\n    function getNumberOfRequest() public view returns (uint) {\r\n        return requests.length;\r\n    }\r\n\r\n    function getRequestByIndex(uint _index) public view returns (uint, RequestType, bool) {\r\n        require(_index >= 0 && _index < requests.length, \"WRONG INDEX FOR REQUEST !!\");\r\n        return (requests[_index].actorID, requests[_index].rType, requests[_index].accepted);\r\n    }\r\n\r\n    function setRequest(uint _actorID, RequestType _type) public returns (uint){\r\n        uint index = requests.length;\r\n        bool accepted = false;\r\n\r\n        requests.push(request(_actorID,  _type, accepted, 0));\r\n\r\n        return index;\r\n    }\r\n\r\n    function checkRequest(uint _requestID) view public returns (bool, bool) {\r\n        bool exist = false;\r\n        bool accepted = false;\r\n        if (requests.length > _requestID) {\r\n            exist = true;\r\n            accepted = requests[_requestID].accepted;\r\n        }\r\n\r\n        return (exist, accepted);\r\n    }\r\n\r\n    function setResponse(uint _requestID) public {\r\n        (bool exist, bool accepted) = checkRequest(_requestID);\r\n        require(exist, \"Request does not exist !!\");\r\n\r\n        requests[_requestID].accepted = true;\r\n        // TODO: readyTime\r\n    }\r\n\r\n\r\n    /**\r\n    * /////////////////////////////////////////////////////////\r\n    *           PUBLIC METHODS FOR EHR PURPOSE \r\n    * /////////////////////////////////////////////////////////\r\n    */\r\n\r\n    ////////////////////// FOR OWNER\r\n    function getEHRAbstract(uint _ehrID) view public returns (EHRAbstract memory) {\r\n        require(_ehrID > 0 && _ehrID <= ehrCount, \"EHR does not exist !!\");\r\n\r\n        return ehrArray[_ehrID];\r\n    } \r\n\r\n    ////////////////////// FOR ACTOR\r\n    function addEHRAbstract(uint _requestID, uint _actorID, string memory _hash, string memory _ipfsAddr, string memory _secretKey ) public returns (uint _ehrID) {\r\n\r\n        // 1 - check the request \r\n        (bool exist, bool accepted) = checkRequest(_requestID);\r\n        require(exist && accepted, \"Request does not exist or does not accepted !!\");\r\n\r\n        // 2 - check if actor is the same in the request \r\n        require(requests[_requestID].actorID == _actorID, \"permission denied !!\");\r\n\r\n        // 3 - check the type of request (publish)\r\n        require(requests[_requestID].rType == RequestType.PUBLISH, \"permission denied !!\");\r\n\r\n\r\n        // share the EHR\r\n        ehrCount++;\r\n        ehrArray[ehrCount] = EHRAbstract(_actorID, _hash, _ipfsAddr, _secretKey);\r\n    }\r\n\r\n    // function checkEHR(uint _ehrID) view public returns (bool) {\r\n    //     if (ehrArray.length > _ehrID){\r\n    //         return true;\r\n    //     }\r\n    //     return false;\r\n    // }\r\n\r\n    \r\n\r\n    // function getLastEHR() view public returns (EHRAbstract memory, uint _ehrID) {\r\n    //     require(ehrArray.length > 0, \"not exist any EHR !!\");\r\n\r\n    //     _ehrID = ehrArray.length -1;\r\n    //     return (ehrArray[_ehrID], _ehrID);\r\n    // }\r\n\r\n    function getEHRbyActor(uint _requestID, uint _actorID, uint _ehrID) view public returns (EHRAbstract memory) {\r\n        // 1 - check the request \r\n        (bool exist, bool accepted) = checkRequest(_requestID);\r\n        require(exist && accepted, \"Request does not exist or does not accepted !!\");\r\n\r\n        // 2 - check if the same actor \r\n        require(requests[_requestID].actorID == _actorID, \"permission denied !!\");\r\n\r\n        // 3 - check the type of request (consult)\r\n        require(requests[_requestID].rType == RequestType.CONSULT, \"permission denied !!\");\r\n\r\n        return getEHRAbstract(_ehrID);\r\n    }\r\n    \r\n}",
  "sourcePath": "F:\\ComputerScience\\projects\\PFE\\tutorial\\truffle projects\\EHR Share System\\contracts\\EHR.sol",
  "compiler": {
    "name": "solc",
    "version": "0.8.17+commit.8df45f5f.Emscripten.clang"
  },
  "schemaVersion": "3.4.11",
  "updatedAt": "2023-02-22T09:35:32.383Z",
  "devdoc": {
    "details": "Implements EHR methods",
    "kind": "dev",
    "methods": {},
    "title": "EHR",
    "version": 1
  },
  "userdoc": {
    "kind": "user",
    "methods": {
      "getEHRAbstract(uint256)": {
        "notice": "/////////////////////////////////////////////////////////           PUBLIC METHODS FOR EHR PURPOSE  /////////////////////////////////////////////////////////"
      },
      "getNumberOfRequest()": {
        "notice": "/////////////////////////////////////////////////////////           PUBLIC METHODS FOR REQUEST PURPOSE  /////////////////////////////////////////////////////////"
      }
    },
    "version": 1
  }
}