{
  "contractName": "HealthActor",
  "abi": [
    {
      "inputs": [
        {
          "internalType": "address",
          "name": "authorityAddress",
          "type": "address"
        }
      ],
      "stateMutability": "nonpayable",
      "type": "constructor"
    },
    {
      "inputs": [],
      "name": "actorCount",
      "outputs": [
        {
          "internalType": "uint256",
          "name": "",
          "type": "uint256"
        }
      ],
      "stateMutability": "view",
      "type": "function",
      "constant": true
    },
    {
      "inputs": [
        {
          "internalType": "uint256",
          "name": "",
          "type": "uint256"
        }
      ],
      "name": "actors",
      "outputs": [
        {
          "internalType": "uint256",
          "name": "id",
          "type": "uint256"
        },
        {
          "internalType": "uint256",
          "name": "centerID",
          "type": "uint256"
        },
        {
          "internalType": "string",
          "name": "name",
          "type": "string"
        },
        {
          "internalType": "address",
          "name": "addr",
          "type": "address"
        }
      ],
      "stateMutability": "view",
      "type": "function",
      "constant": true
    },
    {
      "inputs": [
        {
          "internalType": "uint256",
          "name": "_id",
          "type": "uint256"
        },
        {
          "internalType": "string",
          "name": "_name",
          "type": "string"
        },
        {
          "internalType": "address",
          "name": "_account",
          "type": "address"
        }
      ],
      "name": "addHealthCenter",
      "outputs": [],
      "stateMutability": "nonpayable",
      "type": "function"
    },
    {
      "inputs": [
        {
          "internalType": "uint256",
          "name": "_index",
          "type": "uint256"
        }
      ],
      "name": "getCenterByIndex",
      "outputs": [
        {
          "internalType": "uint256",
          "name": "",
          "type": "uint256"
        },
        {
          "internalType": "string",
          "name": "",
          "type": "string"
        },
        {
          "internalType": "address",
          "name": "",
          "type": "address"
        }
      ],
      "stateMutability": "view",
      "type": "function",
      "constant": true
    },
    {
      "inputs": [],
      "name": "getNumberOfCenters",
      "outputs": [
        {
          "internalType": "uint256",
          "name": "",
          "type": "uint256"
        }
      ],
      "stateMutability": "view",
      "type": "function",
      "constant": true
    },
    {
      "inputs": [
        {
          "internalType": "uint256",
          "name": "_id",
          "type": "uint256"
        }
      ],
      "name": "rmHealthCenter",
      "outputs": [],
      "stateMutability": "nonpayable",
      "type": "function"
    },
    {
      "inputs": [
        {
          "internalType": "uint256",
          "name": "_id",
          "type": "uint256"
        },
        {
          "internalType": "uint256",
          "name": "_centerID",
          "type": "uint256"
        },
        {
          "internalType": "string",
          "name": "_name",
          "type": "string"
        },
        {
          "internalType": "address",
          "name": "_account",
          "type": "address"
        }
      ],
      "name": "addHealthActor",
      "outputs": [],
      "stateMutability": "nonpayable",
      "type": "function"
    },
    {
      "inputs": [
        {
          "internalType": "uint256",
          "name": "_id",
          "type": "uint256"
        }
      ],
      "name": "rmHealthActor",
      "outputs": [],
      "stateMutability": "nonpayable",
      "type": "function"
    },
    {
      "inputs": [
        {
          "internalType": "uint256",
          "name": "_id",
          "type": "uint256"
        },
        {
          "internalType": "address",
          "name": "_address",
          "type": "address"
        }
      ],
      "name": "checkHealthActor",
      "outputs": [
        {
          "internalType": "uint256",
          "name": "",
          "type": "uint256"
        }
      ],
      "stateMutability": "view",
      "type": "function",
      "constant": true
    },
    {
      "inputs": [
        {
          "internalType": "address",
          "name": "_address",
          "type": "address"
        }
      ],
      "name": "getActorID",
      "outputs": [
        {
          "internalType": "uint256",
          "name": "",
          "type": "uint256"
        }
      ],
      "stateMutability": "view",
      "type": "function",
      "constant": true
    }
  ],
  "bytecode": "0x608060405260006003553480156200001657600080fd5b50604051620026063803806200260683398181016040528101906200003c919062000314565b80806000806101000a81548173ffffffffffffffffffffffffffffffffffffffff021916908373ffffffffffffffffffffffffffffffffffffffff16021790555060016040518060600160405280600b81526020016040518060400160405280600981526020017f6d792063656e74657200000000000000000000000000000000000000000000008152508152602001600073ffffffffffffffffffffffffffffffffffffffff168152509080600181540180825580915050600190039060005260206000209060030201600090919091909150600082015181600001556020820151816001019081620001319190620005c0565b5060408201518160020160006101000a81548173ffffffffffffffffffffffffffffffffffffffff021916908373ffffffffffffffffffffffffffffffffffffffff160217905550505050600360008154809291906200019190620006d6565b9190505550604051806080016040528060178152602001600b81526020016040518060400160405280600581526020017f626164726f0000000000000000000000000000000000000000000000000000008152508152602001736158ca8d2f4d51a88207c87c495e31079cb01c0273ffffffffffffffffffffffffffffffffffffffff1681525060026000600354815260200190815260200160002060008201518160000155602082015181600101556040820151816002019081620002589190620005c0565b5060608201518160030160006101000a81548173ffffffffffffffffffffffffffffffffffffffff021916908373ffffffffffffffffffffffffffffffffffffffff1602179055509050505062000723565b600080fd5b600073ffffffffffffffffffffffffffffffffffffffff82169050919050565b6000620002dc82620002af565b9050919050565b620002ee81620002cf565b8114620002fa57600080fd5b50565b6000815190506200030e81620002e3565b92915050565b6000602082840312156200032d576200032c620002aa565b5b60006200033d84828501620002fd565b91505092915050565b600081519050919050565b7f4e487b7100000000000000000000000000000000000000000000000000000000600052604160045260246000fd5b7f4e487b7100000000000000000000000000000000000000000000000000000000600052602260045260246000fd5b60006002820490506001821680620003c857607f821691505b602082108103620003de57620003dd62000380565b5b50919050565b60008190508160005260206000209050919050565b60006020601f8301049050919050565b600082821b905092915050565b600060088302620004487fffffffffffffffffffffffffffffffffffffffffffffffffffffffffffffffff8262000409565b62000454868362000409565b95508019841693508086168417925050509392505050565b6000819050919050565b6000819050919050565b6000620004a16200049b62000495846200046c565b62000476565b6200046c565b9050919050565b6000819050919050565b620004bd8362000480565b620004d5620004cc82620004a8565b84845462000416565b825550505050565b600090565b620004ec620004dd565b620004f9818484620004b2565b505050565b5b81811015620005215762000515600082620004e2565b600181019050620004ff565b5050565b601f82111562000570576200053a81620003e4565b6200054584620003f9565b8101602085101562000555578190505b6200056d6200056485620003f9565b830182620004fe565b50505b505050565b600082821c905092915050565b6000620005956000198460080262000575565b1980831691505092915050565b6000620005b0838362000582565b9150826002028217905092915050565b620005cb8262000346565b67ffffffffffffffff811115620005e757620005e662000351565b5b620005f38254620003af565b6200060082828562000525565b600060209050601f83116001811462000638576000841562000623578287015190505b6200062f8582620005a2565b8655506200069f565b601f1984166200064886620003e4565b60005b8281101562000672578489015182556001820191506020850194506020810190506200064b565b868310156200069257848901516200068e601f89168262000582565b8355505b6001600288020188555050505b505050505050565b7f4e487b7100000000000000000000000000000000000000000000000000000000600052601160045260246000fd5b6000620006e3826200046c565b91507fffffffffffffffffffffffffffffffffffffffffffffffffffffffffffffffff8203620007185762000717620006a7565b5b600182019050919050565b611ed380620007336000396000f3fe608060405234801561001057600080fd5b506004361061009e5760003560e01c8063a2f7e84c11610066578063a2f7e84c1461015e578063a58c1c261461017a578063c5d78afb146101aa578063cbd3638f146101c6578063ecd5b55d146101f65761009e565b80632b1ca81d146100a35780634edbdc0e146100bf57806389421f5e146100db57806393c0e83a146100f95780639b7d75b71461012c575b600080fd5b6100bd60048036038101906100b89190611077565b610214565b005b6100d960048036038101906100d49190611248565b61049a565b005b6100e3610707565b6040516100f091906112da565b60405180910390f35b610113600480360381019061010e9190611077565b61070d565b6040516101239493929190611383565b60405180910390f35b61014660048036038101906101419190611077565b6107e5565b604051610155939291906113cf565b60405180910390f35b61017860048036038101906101739190611077565b610968565b005b610194600480360381019061018f919061140d565b610b73565b6040516101a191906112da565b60405180910390f35b6101c460048036038101906101bf919061144d565b610c36565b005b6101e060048036038101906101db91906114bc565b610e3c565b6040516101ed91906112da565b60405180910390f35b6101fe610ed1565b60405161020b91906112da565b60405180910390f35b60008060008054906101000a900473ffffffffffffffffffffffffffffffffffffffff1673ffffffffffffffffffffffffffffffffffffffff1663134e91ac336040518263ffffffff1660e01b815260040161027091906114e9565b6040805180830381865afa15801561028c573d6000803e3d6000fd5b505050506040513d601f19601f820116820180604052508101906102b09190611551565b91509150806102f4576040517f08c379a00000000000000000000000000000000000000000000000000000000081526004016102eb906115dd565b60405180910390fd5b600080610302856000610ee3565b91509150600115158115151461034d576040517f08c379a000000000000000000000000000000000000000000000000000000000815260040161034490611649565b60405180910390fd5b600180808054905061035f9190611698565b815481106103705761036f6116cc565b5b906000526020600020906003020160018381548110610392576103916116cc565b5b906000526020600020906003020160008201548160000155600182018160010190816103be919061191d565b506002820160009054906101000a900473ffffffffffffffffffffffffffffffffffffffff168160020160006101000a81548173ffffffffffffffffffffffffffffffffffffffff021916908373ffffffffffffffffffffffffffffffffffffffff160217905550905050600180548061043b5761043a611a05565b5b60019003818190600052602060002090600302016000808201600090556001820160006104689190610fd0565b6002820160006101000a81549073ffffffffffffffffffffffffffffffffffffffff0219169055505090555050505050565b60008060008054906101000a900473ffffffffffffffffffffffffffffffffffffffff1673ffffffffffffffffffffffffffffffffffffffff1663134e91ac336040518263ffffffff1660e01b81526004016104f691906114e9565b6040805180830381865afa158015610512573d6000803e3d6000fd5b505050506040513d601f19601f820116820180604052508101906105369190611551565b915091508061057a576040517f08c379a0000000000000000000000000000000000000000000000000000000008152600401610571906115dd565b60405180910390fd5b60006105868785610b73565b9050600081146105cb576040517f08c379a00000000000000000000000000000000000000000000000000000000081526004016105c290611aa6565b60405180910390fd5b6000806105d9886000610ee3565b915091506001151581151514610624576040517f08c379a000000000000000000000000000000000000000000000000000000000815260040161061b90611b12565b60405180910390fd5b6003600081548092919061063790611b32565b919050555060405180608001604052808a81526020018981526020018881526020018773ffffffffffffffffffffffffffffffffffffffff16815250600260006003548152602001908152602001600020600082015181600001556020820151816001015560408201518160020190816106b19190611b7a565b5060608201518160030160006101000a81548173ffffffffffffffffffffffffffffffffffffffff021916908373ffffffffffffffffffffffffffffffffffffffff160217905550905050505050505050505050565b60035481565b600260205280600052604060002060009150905080600001549080600101549080600201805461073c9061172a565b80601f01602080910402602001604051908101604052809291908181526020018280546107689061172a565b80156107b55780601f1061078a576101008083540402835291602001916107b5565b820191906000526020600020905b81548152906001019060200180831161079857829003601f168201915b5050505050908060030160009054906101000a900473ffffffffffffffffffffffffffffffffffffffff16905084565b6000606060008084101580156107ff575060018054905084105b61083e576040517f08c379a000000000000000000000000000000000000000000000000000000000815260040161083590611c98565b60405180910390fd5b60018481548110610852576108516116cc565b5b90600052602060002090600302016000015460018581548110610878576108776116cc565b5b90600052602060002090600302016001016001868154811061089d5761089c6116cc565b5b906000526020600020906003020160020160009054906101000a900473ffffffffffffffffffffffffffffffffffffffff168180546108db9061172a565b80601f01602080910402602001604051908101604052809291908181526020018280546109079061172a565b80156109545780601f1061092957610100808354040283529160200191610954565b820191906000526020600020905b81548152906001019060200180831161093757829003601f168201915b505050505091509250925092509193909250565b60008060008054906101000a900473ffffffffffffffffffffffffffffffffffffffff1673ffffffffffffffffffffffffffffffffffffffff1663134e91ac336040518263ffffffff1660e01b81526004016109c491906114e9565b6040805180830381865afa1580156109e0573d6000803e3d6000fd5b505050506040513d601f19601f82011682018060405250810190610a049190611551565b9150915080610a48576040517f08c379a0000000000000000000000000000000000000000000000000000000008152600401610a3f906115dd565b60405180910390fd5b6000610a55846000610b73565b905060008111610a9a576040517f08c379a0000000000000000000000000000000000000000000000000000000008152600401610a9190611d04565b60405180910390fd5b60026000600354815260200190815260200160002060026000838152602001908152602001600020600082015481600001556001820154816001015560028201816002019081610aea919061191d565b506003820160009054906101000a900473ffffffffffffffffffffffffffffffffffffffff168160030160006101000a81548173ffffffffffffffffffffffffffffffffffffffff021916908373ffffffffffffffffffffffffffffffffffffffff16021790555090505060036000815480929190610b6890611d24565b919050555050505050565b600080600190505b6003548111610c2a578360026000838152602001908152602001600020600001541480610c0957508273ffffffffffffffffffffffffffffffffffffffff166002600083815260200190815260200160002060030160009054906101000a900473ffffffffffffffffffffffffffffffffffffffff1673ffffffffffffffffffffffffffffffffffffffff16145b15610c175780915050610c30565b8080610c2290611b32565b915050610b7b565b60009150505b92915050565b60008060008054906101000a900473ffffffffffffffffffffffffffffffffffffffff1673ffffffffffffffffffffffffffffffffffffffff1663134e91ac336040518263ffffffff1660e01b8152600401610c9291906114e9565b6040805180830381865afa158015610cae573d6000803e3d6000fd5b505050506040513d601f19601f82011682018060405250810190610cd29190611551565b9150915080610d16576040517f08c379a0000000000000000000000000000000000000000000000000000000008152600401610d0d906115dd565b60405180910390fd5b600080610d238786610ee3565b915091506000151581151514610d6e576040517f08c379a0000000000000000000000000000000000000000000000000000000008152600401610d6590611dbf565b60405180910390fd5b600160405180606001604052808981526020018881526020018773ffffffffffffffffffffffffffffffffffffffff168152509080600181540180825580915050600190039060005260206000209060030201600090919091909150600082015181600001556020820151816001019081610de99190611b7a565b5060408201518160020160006101000a81548173ffffffffffffffffffffffffffffffffffffffff021916908373ffffffffffffffffffffffffffffffffffffffff160217905550505050505050505050565b600080610e4a600084610b73565b90506000811183604051602001610e619190611e55565b60405160208183030381529060405290610eb1576040517f08c379a0000000000000000000000000000000000000000000000000000000008152600401610ea89190611e7b565b60405180910390fd5b506002600082815260200190815260200160002060000154915050919050565b60008060018054905090508091505090565b60008060008060005b600180549050811015610fc0578660018281548110610f0e57610f0d6116cc565b5b9060005260206000209060030201600001541480610f9c57508573ffffffffffffffffffffffffffffffffffffffff1660018281548110610f5257610f516116cc565b5b906000526020600020906003020160020160009054906101000a900473ffffffffffffffffffffffffffffffffffffffff1673ffffffffffffffffffffffffffffffffffffffff16145b15610fad5760019150809250610fc0565b8080610fb890611b32565b915050610eec565b5081819350935050509250929050565b508054610fdc9061172a565b6000825580601f10610fee575061100d565b601f01602090049060005260206000209081019061100c9190611010565b5b50565b5b80821115611029576000816000905550600101611011565b5090565b6000604051905090565b600080fd5b600080fd5b6000819050919050565b61105481611041565b811461105f57600080fd5b50565b6000813590506110718161104b565b92915050565b60006020828403121561108d5761108c611037565b5b600061109b84828501611062565b91505092915050565b600080fd5b600080fd5b6000601f19601f8301169050919050565b7f4e487b7100000000000000000000000000000000000000000000000000000000600052604160045260246000fd5b6110f7826110ae565b810181811067ffffffffffffffff82111715611116576111156110bf565b5b80604052505050565b600061112961102d565b905061113582826110ee565b919050565b600067ffffffffffffffff821115611155576111546110bf565b5b61115e826110ae565b9050602081019050919050565b82818337600083830152505050565b600061118d6111888461113a565b61111f565b9050828152602081018484840111156111a9576111a86110a9565b5b6111b484828561116b565b509392505050565b600082601f8301126111d1576111d06110a4565b5b81356111e184826020860161117a565b91505092915050565b600073ffffffffffffffffffffffffffffffffffffffff82169050919050565b6000611215826111ea565b9050919050565b6112258161120a565b811461123057600080fd5b50565b6000813590506112428161121c565b92915050565b6000806000806080858703121561126257611261611037565b5b600061127087828801611062565b945050602061128187828801611062565b935050604085013567ffffffffffffffff8111156112a2576112a161103c565b5b6112ae878288016111bc565b92505060606112bf87828801611233565b91505092959194509250565b6112d481611041565b82525050565b60006020820190506112ef60008301846112cb565b92915050565b600081519050919050565b600082825260208201905092915050565b60005b8381101561132f578082015181840152602081019050611314565b60008484015250505050565b6000611346826112f5565b6113508185611300565b9350611360818560208601611311565b611369816110ae565b840191505092915050565b61137d8161120a565b82525050565b600060808201905061139860008301876112cb565b6113a560208301866112cb565b81810360408301526113b7818561133b565b90506113c66060830184611374565b95945050505050565b60006060820190506113e460008301866112cb565b81810360208301526113f6818561133b565b90506114056040830184611374565b949350505050565b6000806040838503121561142457611423611037565b5b600061143285828601611062565b925050602061144385828601611233565b9150509250929050565b60008060006060848603121561146657611465611037565b5b600061147486828701611062565b935050602084013567ffffffffffffffff8111156114955761149461103c565b5b6114a1868287016111bc565b92505060406114b286828701611233565b9150509250925092565b6000602082840312156114d2576114d1611037565b5b60006114e084828501611233565b91505092915050565b60006020820190506114fe6000830184611374565b92915050565b6000815190506115138161104b565b92915050565b60008115159050919050565b61152e81611519565b811461153957600080fd5b50565b60008151905061154b81611525565b92915050565b6000806040838503121561156857611567611037565b5b600061157685828601611504565b92505060206115878582860161153c565b9150509250929050565b7f43616c6c65722068617665206e6f74207065726d657373696f6e000000000000600082015250565b60006115c7601a83611300565b91506115d282611591565b602082019050919050565b600060208201905081810360008301526115f6816115ba565b9050919050565b7f63656e74657220646f6573206e6f742065786973742021210000000000000000600082015250565b6000611633601883611300565b915061163e826115fd565b602082019050919050565b6000602082019050818103600083015261166281611626565b9050919050565b7f4e487b7100000000000000000000000000000000000000000000000000000000600052601160045260246000fd5b60006116a382611041565b91506116ae83611041565b92508282039050818111156116c6576116c5611669565b5b92915050565b7f4e487b7100000000000000000000000000000000000000000000000000000000600052603260045260246000fd5b7f4e487b7100000000000000000000000000000000000000000000000000000000600052602260045260246000fd5b6000600282049050600182168061174257607f821691505b602082108103611755576117546116fb565b5b50919050565b60008154905061176a8161172a565b9050919050565b60008190508160005260206000209050919050565b60006020601f8301049050919050565b600082821b905092915050565b6000600883026117d37fffffffffffffffffffffffffffffffffffffffffffffffffffffffffffffffff82611796565b6117dd8683611796565b95508019841693508086168417925050509392505050565b6000819050919050565b600061181a61181561181084611041565b6117f5565b611041565b9050919050565b6000819050919050565b611834836117ff565b61184861184082611821565b8484546117a3565b825550505050565b600090565b61185d611850565b61186881848461182b565b505050565b5b8181101561188c57611881600082611855565b60018101905061186e565b5050565b601f8211156118d1576118a281611771565b6118ab84611786565b810160208510156118ba578190505b6118ce6118c685611786565b83018261186d565b50505b505050565b600082821c905092915050565b60006118f4600019846008026118d6565b1980831691505092915050565b600061190d83836118e3565b9150826002028217905092915050565b81810361192b575050611a03565b6119348261175b565b67ffffffffffffffff81111561194d5761194c6110bf565b5b611957825461172a565b611962828285611890565b6000601f831160018114611991576000841561197f578287015490505b6119898582611901565b8655506119fc565b601f19841661199f87611771565b96506119aa86611771565b60005b828110156119d2578489015482556001820191506001850194506020810190506119ad565b868310156119ef57848901546119eb601f8916826118e3565b8355505b6001600288020188555050505b5050505050505b565b7f4e487b7100000000000000000000000000000000000000000000000000000000600052603160045260246000fd5b7f4163746f72206964206f72206163636f756e7420616c7265616479206578697360008201527f7420212100000000000000000000000000000000000000000000000000000000602082015250565b6000611a90602483611300565b9150611a9b82611a34565b604082019050919050565b60006020820190508181036000830152611abf81611a83565b9050919050565b7f63656e74657220646f6573206e6f742065786973742065786973742021210000600082015250565b6000611afc601e83611300565b9150611b0782611ac6565b602082019050919050565b60006020820190508181036000830152611b2b81611aef565b9050919050565b6000611b3d82611041565b91507fffffffffffffffffffffffffffffffffffffffffffffffffffffffffffffffff8203611b6f57611b6e611669565b5b600182019050919050565b611b83826112f5565b67ffffffffffffffff811115611b9c57611b9b6110bf565b5b611ba6825461172a565b611bb1828285611890565b600060209050601f831160018114611be45760008415611bd2578287015190505b611bdc8582611901565b865550611c44565b601f198416611bf286611771565b60005b82811015611c1a57848901518255600182019150602085019450602081019050611bf5565b86831015611c375784890151611c33601f8916826118e3565b8355505b6001600288020188555050505b505050505050565b7f57726f6e6720496e646578202121000000000000000000000000000000000000600082015250565b6000611c82600e83611300565b9150611c8d82611c4c565b602082019050919050565b60006020820190508181036000830152611cb181611c75565b9050919050565b7f4163746f7220646f6573206e6f74206578697374202121000000000000000000600082015250565b6000611cee601783611300565b9150611cf982611cb8565b602082019050919050565b60006020820190508181036000830152611d1d81611ce1565b9050919050565b6000611d2f82611041565b915060008203611d4257611d41611669565b5b600182039050919050565b7f63656e746572206964206f72206163636f756e7420616c72656164792065786960008201527f7374202121000000000000000000000000000000000000000000000000000000602082015250565b6000611da9602583611300565b9150611db482611d4d565b604082019050919050565b60006020820190508181036000830152611dd881611d9c565b9050919050565b600081905092915050565b6000611df7601783611ddf565b9150611e0282611cb8565b601782019050919050565b60008160601b9050919050565b6000611e2582611e0d565b9050919050565b6000611e3782611e1a565b9050919050565b611e4f611e4a8261120a565b611e2c565b82525050565b6000611e6082611dea565b9150611e6c8284611e3e565b60148201915081905092915050565b60006020820190508181036000830152611e95818461133b565b90509291505056fea26469706673582212206d2be5c0e05995a369659d2eebf9d0b6e0738c942ad0c8d9aef140fd27beadf764736f6c63430008110033",
  "immutableReferences": {},
  "source": "// SPDX-License-Identifier: GPL-3.0\r\npragma solidity >=0.7.0 <0.9.0;\r\n\r\nimport {HealthCenter} from  \"./HealthCenter.sol\";\r\n\r\n\r\n/** \r\n * @title HealthActor\r\n * @dev Implements actor methods\r\n */\r\ncontract HealthActor is HealthCenter {\r\n\r\n    struct actor {\r\n        uint id;\r\n        uint centerID;\r\n        string name;\r\n        address addr;\r\n    }\r\n    //actor[] actors;\r\n\r\n    mapping (uint => actor) public actors;\r\n    uint256 public actorCount = 0; // pointer in the last element in the map\r\n\r\n    constructor (address authorityAddress) HealthCenter(authorityAddress){\r\n\r\n        actorCount++;\r\n        actors[actorCount] = actor(23, 11, 'badro', address(0x6158ca8d2F4D51a88207C87c495E31079cb01c02));\r\n    }\r\n\r\n    \r\n    /**\r\n    * ////////////////////////////////////////////////////////////\r\n    *           PUBLIC METHODS FOR CONTRACT INTERFACE\r\n    * ////////////////////////////////////////////////////////////\r\n    */\r\n\r\n    \r\n    function addHealthActor(uint _id, uint _centerID, string memory _name, address _account) public isAccount{\r\n        uint index = checkHealthActor(_id, _account);\r\n        require(index == 0, \"Actor id or account already exist !!\");\r\n\r\n        (uint cid, bool centerExist) = checkHealthCenter(_centerID, address(0));\r\n        require(centerExist==true, \"center does not exist exist !!\");\r\n\r\n        actorCount++;\r\n        actors[actorCount] = actor(_id, _centerID, _name, _account);\r\n    }\r\n\r\n    function rmHealthActor(uint _id) public isAccount{\r\n        uint index = checkHealthActor(_id, address(0));\r\n        require(index>0, \"Actor does not exist !!\");\r\n\r\n        actors[index] = actors[actorCount];\r\n        actorCount--;\r\n    }\r\n\r\n    // function to show if an actor exist\r\n    // exist : return index of actor\r\n    // n'exist pas : return 0\r\n    function checkHealthActor(uint _id, address _address)  view public returns (uint) {\r\n        uint index = 1;\r\n        for (index; index <= actorCount; index++){\r\n            if (actors[index].id == _id || actors[index].addr == _address){\r\n                return index;\r\n            }\r\n        }\r\n        return 0;\r\n    }\r\n\r\n    function getActorID(address _address) view public returns (uint) {\r\n        uint index = checkHealthActor(0, _address);\r\n        require(index>0, string(abi.encodePacked(\"Actor does not exist !!\",_address)));\r\n\r\n        return actors[index].id;\r\n    }\r\n    \r\n}\r\n",
  "sourcePath": "F:\\ComputerScience\\projects\\PFE\\tutorial\\truffle projects\\EHR Share System\\contracts\\HealthActor.sol",
  "compiler": {
    "name": "solc",
    "version": "0.8.17+commit.8df45f5f.Emscripten.clang"
  },
  "schemaVersion": "3.4.11",
  "updatedAt": "2023-02-22T09:36:01.069Z",
  "networkType": "ethereum",
  "devdoc": {
    "details": "Implements actor methods",
    "kind": "dev",
    "methods": {},
    "title": "HealthActor",
    "version": 1
  },
  "userdoc": {
    "kind": "user",
    "methods": {
      "addHealthActor(uint256,uint256,string,address)": {
        "notice": "////////////////////////////////////////////////////////////           PUBLIC METHODS FOR CONTRACT INTERFACE ////////////////////////////////////////////////////////////"
      }
    },
    "version": 1
  }
}