{
  "contractName": "HealthAuthority",
  "abi": [
    {
      "inputs": [],
      "stateMutability": "nonpayable",
      "type": "constructor"
    },
    {
      "inputs": [],
      "name": "authCount",
      "outputs": [
        {
          "internalType": "uint256",
          "name": "",
          "type": "uint256"
        }
      ],
      "stateMutability": "view",
      "type": "function",
      "constant": true
    },
    {
      "inputs": [
        {
          "internalType": "uint256",
          "name": "",
          "type": "uint256"
        }
      ],
      "name": "authorities",
      "outputs": [
        {
          "internalType": "address",
          "name": "",
          "type": "address"
        }
      ],
      "stateMutability": "view",
      "type": "function",
      "constant": true
    },
    {
      "inputs": [
        {
          "internalType": "address",
          "name": "_address",
          "type": "address"
        }
      ],
      "name": "checkHealthAuthority",
      "outputs": [
        {
          "internalType": "uint256",
          "name": "",
          "type": "uint256"
        },
        {
          "internalType": "bool",
          "name": "",
          "type": "bool"
        }
      ],
      "stateMutability": "view",
      "type": "function",
      "constant": true
    },
    {
      "inputs": [
        {
          "internalType": "address",
          "name": "_address",
          "type": "address"
        }
      ],
      "name": "addAccount",
      "outputs": [],
      "stateMutability": "nonpayable",
      "type": "function"
    },
    {
      "inputs": [
        {
          "internalType": "address",
          "name": "_address",
          "type": "address"
        }
      ],
      "name": "rmAccount",
      "outputs": [],
      "stateMutability": "nonpayable",
      "type": "function"
    }
  ],
  "bytecode": "0x60806040526000805534801561001457600080fd5b506000805490806100248361004d565b90915550506000805481526001602052604090208054600160a060020a0319163317905561008d565b600060018201610086577f4e487b7100000000000000000000000000000000000000000000000000000000600052601160045260246000fd5b5060010190565b6104c98061009c6000396000f3fe608060405234801561001057600080fd5b5060043610610073577c01000000000000000000000000000000000000000000000000000000006000350463134e91ac8114610078578063494503d4146100a5578063658d1b9814610100578063b8abb1a014610115578063e89b0e1e1461012c575b600080fd5b61008b6100863660046103de565b61013f565b604080519283529015156020830152015b60405180910390f35b6100db6100b336600461041b565b60016020526000908152604090205473ffffffffffffffffffffffffffffffffffffffff1681565b60405173ffffffffffffffffffffffffffffffffffffffff909116815260200161009c565b61011361010e3660046103de565b6101a7565b005b61011e60005481565b60405190815260200161009c565b61011361013a3660046103de565b610307565b600080808060015b600054811161019c5760008181526001602052604090205473ffffffffffffffffffffffffffffffffffffffff80881691160361018a576001915080925061019c565b8061019481610463565b915050610147565b509094909350915050565b6000806101b33361013f565b9150915080610223576040517f08c379a000000000000000000000000000000000000000000000000000000000815260206004820152601a60248201527f43616c6c65722068617665206e6f74207065726d657373696f6e00000000000060448201526064015b60405180910390fd5b60008061022f8561013f565b90925090506001811515146102a0576040517f08c379a000000000000000000000000000000000000000000000000000000000815260206004820152601860248201527f63656e74657220646f6573206e6f742065786973742021210000000000000000604482015260640161021a565b6000805481526001602052604080822054848352908220805473ffffffffffffffffffffffffffffffffffffffff191673ffffffffffffffffffffffffffffffffffffffff909216919091179055805490806102fb8361047c565b91905055505050505050565b6000806103133361013f565b915091508061037e576040517f08c379a000000000000000000000000000000000000000000000000000000000815260206004820152601a60248201527f43616c6c65722068617665206e6f74207065726d657373696f6e000000000000604482015260640161021a565b60008054908061038d83610463565b9091555050600080548152600160205260409020805473ffffffffffffffffffffffffffffffffffffffff191673ffffffffffffffffffffffffffffffffffffffff94909416939093179092555050565b6000602082840312156103f057600080fd5b813573ffffffffffffffffffffffffffffffffffffffff8116811461041457600080fd5b9392505050565b60006020828403121561042d57600080fd5b5035919050565b7f4e487b7100000000000000000000000000000000000000000000000000000000600052601160045260246000fd5b60006001820161047557610475610434565b5060010190565b60008161048b5761048b610434565b50600019019056fea2646970667358221220cd1f798d70d89ca6431f8d07d230f4a0b2f46635c8dbcfe174d6be8dccd82d0b64736f6c63430008110033",
  "immutableReferences": {},
  "source": "// SPDX-License-Identifier: GPL-3.0\r\npragma solidity >=0.7.0 <0.9.0;\r\n\r\n/**\r\n * @title HealthAuthority\r\n * @dev Store & retrieve value in a variable\r\n * @custom:dev-run-script ./scripts/deploy.ts // il faut modifier\r\n */\r\n\r\ncontract HealthAuthority {\r\n\r\n    // variable store all account in authority\r\n    // address[] authorities;\r\n\r\n    uint256 public authCount = 0;\r\n    mapping(uint => address) public authorities;\r\n    \r\n    constructor() {\r\n        authCount++;\r\n        authorities[authCount] = msg.sender;\r\n    }\r\n\r\n\r\n    ///////////////////////////////// GETTERS /////////////////////////////////\r\n    ///////////////////////////////////////////////////////////////////////////\r\n\r\n    // modifier to check if caller is account in authorty\r\n    modifier onlyAuthority() {\r\n        (uint index, bool exist) = checkHealthAuthority(msg.sender);\r\n        require(exist, \"Caller have not permession\");\r\n        _;\r\n    }\r\n\r\n    function checkHealthAuthority(address _address) view public returns (uint, bool) {\r\n        uint index = 0;\r\n        bool exist = false;\r\n        for (uint i = 1; i <= authCount ; i++){\r\n            if (authorities[i] == _address ){\r\n                exist = true;\r\n                index = i;\r\n                break;\r\n            }\r\n        }\r\n        return (index, exist);\r\n    }\r\n\r\n\r\n\r\n    ///////////////////////////////// SETTERS /////////////////////////////////\r\n    ///////////////////////////////////////////////////////////////////////////\r\n\r\n    /**\r\n    * @dev add new account to authority\r\n    * @param _address address to added\r\n    */\r\n    function addAccount(address _address) public onlyAuthority {\r\n        authCount++;\r\n        authorities[authCount] = _address;\r\n    }\r\n\r\n    /**\r\n    * @dev remove account from authority\r\n    * @param _address address to remove\r\n    */\r\n    function rmAccount(address _address) public onlyAuthority {\r\n        (uint index, bool exist) = checkHealthAuthority(_address);\r\n        require(exist==true, \"center does not exist !!\");\r\n\r\n        authorities[index] = authorities[authCount];\r\n        authCount--;\r\n    }\r\n}",
  "sourcePath": "F:\\ComputerScience\\projects\\PFE\\project\\2022-2023\\Blockchain-side\\contracts\\HealthAuthority.sol",
  "compiler": {
    "name": "solc",
    "version": "0.8.17+commit.8df45f5f.Emscripten.clang"
  },
  "schemaVersion": "3.4.11",
  "updatedAt": "2023-04-20T14:41:47.051Z",
  "networkType": "ethereum",
  "devdoc": {
    "custom:dev-run-script": "./scripts/deploy.ts // il faut modifier",
    "details": "Store & retrieve value in a variable",
    "kind": "dev",
    "methods": {
      "addAccount(address)": {
        "details": "add new account to authority",
        "params": {
          "_address": "address to added"
        }
      },
      "rmAccount(address)": {
        "details": "remove account from authority",
        "params": {
          "_address": "address to remove"
        }
      }
    },
    "title": "HealthAuthority",
    "version": 1
  },
  "userdoc": {
    "kind": "user",
    "methods": {},
    "version": 1
  }
}