{
  "contractName": "HealthCenter",
  "abi": [
    {
      "inputs": [
        {
          "internalType": "address",
          "name": "AuthorityAddress",
          "type": "address"
        }
      ],
      "stateMutability": "nonpayable",
      "type": "constructor"
    },
    {
      "inputs": [],
      "name": "getNumberOfCenters",
      "outputs": [
        {
          "internalType": "uint256",
          "name": "",
          "type": "uint256"
        }
      ],
      "stateMutability": "view",
      "type": "function"
    },
    {
      "inputs": [
        {
          "internalType": "uint256",
          "name": "_index",
          "type": "uint256"
        }
      ],
      "name": "getCenterByIndex",
      "outputs": [
        {
          "internalType": "uint256",
          "name": "",
          "type": "uint256"
        },
        {
          "internalType": "string",
          "name": "",
          "type": "string"
        },
        {
          "internalType": "address",
          "name": "",
          "type": "address"
        }
      ],
      "stateMutability": "view",
      "type": "function"
    },
    {
      "inputs": [
        {
          "internalType": "uint256",
          "name": "_id",
          "type": "uint256"
        },
        {
          "internalType": "string",
          "name": "_name",
          "type": "string"
        },
        {
          "internalType": "address",
          "name": "_account",
          "type": "address"
        }
      ],
      "name": "addHealthCenter",
      "outputs": [],
      "stateMutability": "nonpayable",
      "type": "function"
    },
    {
      "inputs": [
        {
          "internalType": "uint256",
          "name": "_id",
          "type": "uint256"
        }
      ],
      "name": "rmHealthCenter",
      "outputs": [],
      "stateMutability": "nonpayable",
      "type": "function"
    }
  ],
  "bytecode": "0x60806040523480156200001157600080fd5b50604051620018e6380380620018e68339818101604052810190620000379190620001e6565b806000806101000a81548173ffffffffffffffffffffffffffffffffffffffff021916908373ffffffffffffffffffffffffffffffffffffffff16021790555060016040518060600160405280600b81526020016040518060400160405280600981526020017f6d792063656e74657200000000000000000000000000000000000000000000008152508152602001600073ffffffffffffffffffffffffffffffffffffffff1681525090806001815401808255809150506001900390600052602060002090600302016000909190919091506000820151816000015560208201518160010190816200012b919062000492565b5060408201518160020160006101000a81548173ffffffffffffffffffffffffffffffffffffffff021916908373ffffffffffffffffffffffffffffffffffffffff16021790555050505062000579565b600080fd5b600073ffffffffffffffffffffffffffffffffffffffff82169050919050565b6000620001ae8262000181565b9050919050565b620001c081620001a1565b8114620001cc57600080fd5b50565b600081519050620001e081620001b5565b92915050565b600060208284031215620001ff57620001fe6200017c565b5b60006200020f84828501620001cf565b91505092915050565b600081519050919050565b7f4e487b7100000000000000000000000000000000000000000000000000000000600052604160045260246000fd5b7f4e487b7100000000000000000000000000000000000000000000000000000000600052602260045260246000fd5b600060028204905060018216806200029a57607f821691505b602082108103620002b057620002af62000252565b5b50919050565b60008190508160005260206000209050919050565b60006020601f8301049050919050565b600082821b905092915050565b6000600883026200031a7fffffffffffffffffffffffffffffffffffffffffffffffffffffffffffffffff82620002db565b620003268683620002db565b95508019841693508086168417925050509392505050565b6000819050919050565b6000819050919050565b6000620003736200036d62000367846200033e565b62000348565b6200033e565b9050919050565b6000819050919050565b6200038f8362000352565b620003a76200039e826200037a565b848454620002e8565b825550505050565b600090565b620003be620003af565b620003cb81848462000384565b505050565b5b81811015620003f357620003e7600082620003b4565b600181019050620003d1565b5050565b601f82111562000442576200040c81620002b6565b6200041784620002cb565b8101602085101562000427578190505b6200043f6200043685620002cb565b830182620003d0565b50505b505050565b600082821c905092915050565b6000620004676000198460080262000447565b1980831691505092915050565b600062000482838362000454565b9150826002028217905092915050565b6200049d8262000218565b67ffffffffffffffff811115620004b957620004b862000223565b5b620004c5825462000281565b620004d2828285620003f7565b600060209050601f8311600181146200050a5760008415620004f5578287015190505b62000501858262000474565b86555062000571565b601f1984166200051a86620002b6565b60005b8281101562000544578489015182556001820191506020850194506020810190506200051d565b8683101562000564578489015162000560601f89168262000454565b8355505b6001600288020188555050505b505050505050565b61135d80620005896000396000f3fe608060405234801561001057600080fd5b506004361061004c5760003560e01c80632b1ca81d146100515780639b7d75b71461006d578063c5d78afb1461009f578063ecd5b55d146100bb575b600080fd5b61006b6004803603810190610066919061088e565b6100d9565b005b6100876004803603810190610082919061088e565b61035f565b6040516100969392919061099b565b60405180910390f35b6100b960048036038101906100b49190610b3a565b6104e2565b005b6100c36106e8565b6040516100d09190610ba9565b60405180910390f35b60008060008054906101000a900473ffffffffffffffffffffffffffffffffffffffff1673ffffffffffffffffffffffffffffffffffffffff1663134e91ac336040518263ffffffff1660e01b81526004016101359190610bc4565b6040805180830381865afa158015610151573d6000803e3d6000fd5b505050506040513d601f19601f820116820180604052508101906101759190610c2c565b91509150806101b9576040517f08c379a00000000000000000000000000000000000000000000000000000000081526004016101b090610cb8565b60405180910390fd5b6000806101c78560006106fa565b915091506001151581151514610212576040517f08c379a000000000000000000000000000000000000000000000000000000000815260040161020990610d24565b60405180910390fd5b60018080805490506102249190610d73565b8154811061023557610234610da7565b5b90600052602060002090600302016001838154811061025757610256610da7565b5b906000526020600020906003020160008201548160000155600182018160010190816102839190610ff8565b506002820160009054906101000a900473ffffffffffffffffffffffffffffffffffffffff168160020160006101000a81548173ffffffffffffffffffffffffffffffffffffffff021916908373ffffffffffffffffffffffffffffffffffffffff1602179055509050506001805480610300576102ff6110e0565b5b600190038181906000526020600020906003020160008082016000905560018201600061032d91906107e7565b6002820160006101000a81549073ffffffffffffffffffffffffffffffffffffffff0219169055505090555050505050565b600060606000808410158015610379575060018054905084105b6103b8576040517f08c379a00000000000000000000000000000000000000000000000000000000081526004016103af9061115b565b60405180910390fd5b600184815481106103cc576103cb610da7565b5b906000526020600020906003020160000154600185815481106103f2576103f1610da7565b5b90600052602060002090600302016001016001868154811061041757610416610da7565b5b906000526020600020906003020160020160009054906101000a900473ffffffffffffffffffffffffffffffffffffffff1681805461045590610e05565b80601f016020809104026020016040519081016040528092919081815260200182805461048190610e05565b80156104ce5780601f106104a3576101008083540402835291602001916104ce565b820191906000526020600020905b8154815290600101906020018083116104b157829003601f168201915b505050505091509250925092509193909250565b60008060008054906101000a900473ffffffffffffffffffffffffffffffffffffffff1673ffffffffffffffffffffffffffffffffffffffff1663134e91ac336040518263ffffffff1660e01b815260040161053e9190610bc4565b6040805180830381865afa15801561055a573d6000803e3d6000fd5b505050506040513d601f19601f8201168201806040525081019061057e9190610c2c565b91509150806105c2576040517f08c379a00000000000000000000000000000000000000000000000000000000081526004016105b990610cb8565b60405180910390fd5b6000806105cf87866106fa565b91509150600015158115151461061a576040517f08c379a0000000000000000000000000000000000000000000000000000000008152600401610611906111ed565b60405180910390fd5b600160405180606001604052808981526020018881526020018773ffffffffffffffffffffffffffffffffffffffff168152509080600181540180825580915050600190039060005260206000209060030201600090919091909150600082015181600001556020820151816001019081610695919061120d565b5060408201518160020160006101000a81548173ffffffffffffffffffffffffffffffffffffffff021916908373ffffffffffffffffffffffffffffffffffffffff160217905550505050505050505050565b60008060018054905090508091505090565b60008060008060005b6001805490508110156107d757866001828154811061072557610724610da7565b5b90600052602060002090600302016000015414806107b357508573ffffffffffffffffffffffffffffffffffffffff166001828154811061076957610768610da7565b5b906000526020600020906003020160020160009054906101000a900473ffffffffffffffffffffffffffffffffffffffff1673ffffffffffffffffffffffffffffffffffffffff16145b156107c457600191508092506107d7565b80806107cf906112df565b915050610703565b5081819350935050509250929050565b5080546107f390610e05565b6000825580601f106108055750610824565b601f0160209004906000526020600020908101906108239190610827565b5b50565b5b80821115610840576000816000905550600101610828565b5090565b6000604051905090565b600080fd5b600080fd5b6000819050919050565b61086b81610858565b811461087657600080fd5b50565b60008135905061088881610862565b92915050565b6000602082840312156108a4576108a361084e565b5b60006108b284828501610879565b91505092915050565b6108c481610858565b82525050565b600081519050919050565b600082825260208201905092915050565b60005b838110156109045780820151818401526020810190506108e9565b60008484015250505050565b6000601f19601f8301169050919050565b600061092c826108ca565b61093681856108d5565b93506109468185602086016108e6565b61094f81610910565b840191505092915050565b600073ffffffffffffffffffffffffffffffffffffffff82169050919050565b60006109858261095a565b9050919050565b6109958161097a565b82525050565b60006060820190506109b060008301866108bb565b81810360208301526109c28185610921565b90506109d1604083018461098c565b949350505050565b600080fd5b600080fd5b7f4e487b7100000000000000000000000000000000000000000000000000000000600052604160045260246000fd5b610a1b82610910565b810181811067ffffffffffffffff82111715610a3a57610a396109e3565b5b80604052505050565b6000610a4d610844565b9050610a598282610a12565b919050565b600067ffffffffffffffff821115610a7957610a786109e3565b5b610a8282610910565b9050602081019050919050565b82818337600083830152505050565b6000610ab1610aac84610a5e565b610a43565b905082815260208101848484011115610acd57610acc6109de565b5b610ad8848285610a8f565b509392505050565b600082601f830112610af557610af46109d9565b5b8135610b05848260208601610a9e565b91505092915050565b610b178161097a565b8114610b2257600080fd5b50565b600081359050610b3481610b0e565b92915050565b600080600060608486031215610b5357610b5261084e565b5b6000610b6186828701610879565b935050602084013567ffffffffffffffff811115610b8257610b81610853565b5b610b8e86828701610ae0565b9250506040610b9f86828701610b25565b9150509250925092565b6000602082019050610bbe60008301846108bb565b92915050565b6000602082019050610bd9600083018461098c565b92915050565b600081519050610bee81610862565b92915050565b60008115159050919050565b610c0981610bf4565b8114610c1457600080fd5b50565b600081519050610c2681610c00565b92915050565b60008060408385031215610c4357610c4261084e565b5b6000610c5185828601610bdf565b9250506020610c6285828601610c17565b9150509250929050565b7f43616c6c65722068617665206e6f74207065726d657373696f6e000000000000600082015250565b6000610ca2601a836108d5565b9150610cad82610c6c565b602082019050919050565b60006020820190508181036000830152610cd181610c95565b9050919050565b7f63656e74657220646f6573206e6f742065786973742021210000000000000000600082015250565b6000610d0e6018836108d5565b9150610d1982610cd8565b602082019050919050565b60006020820190508181036000830152610d3d81610d01565b9050919050565b7f4e487b7100000000000000000000000000000000000000000000000000000000600052601160045260246000fd5b6000610d7e82610858565b9150610d8983610858565b9250828203905081811115610da157610da0610d44565b5b92915050565b7f4e487b7100000000000000000000000000000000000000000000000000000000600052603260045260246000fd5b7f4e487b7100000000000000000000000000000000000000000000000000000000600052602260045260246000fd5b60006002820490506001821680610e1d57607f821691505b602082108103610e3057610e2f610dd6565b5b50919050565b600081549050610e4581610e05565b9050919050565b60008190508160005260206000209050919050565b60006020601f8301049050919050565b600082821b905092915050565b600060088302610eae7fffffffffffffffffffffffffffffffffffffffffffffffffffffffffffffffff82610e71565b610eb88683610e71565b95508019841693508086168417925050509392505050565b6000819050919050565b6000610ef5610ef0610eeb84610858565b610ed0565b610858565b9050919050565b6000819050919050565b610f0f83610eda565b610f23610f1b82610efc565b848454610e7e565b825550505050565b600090565b610f38610f2b565b610f43818484610f06565b505050565b5b81811015610f6757610f5c600082610f30565b600181019050610f49565b5050565b601f821115610fac57610f7d81610e4c565b610f8684610e61565b81016020851015610f95578190505b610fa9610fa185610e61565b830182610f48565b50505b505050565b600082821c905092915050565b6000610fcf60001984600802610fb1565b1980831691505092915050565b6000610fe88383610fbe565b9150826002028217905092915050565b8181036110065750506110de565b61100f82610e36565b67ffffffffffffffff811115611028576110276109e3565b5b6110328254610e05565b61103d828285610f6b565b6000601f83116001811461106c576000841561105a578287015490505b6110648582610fdc565b8655506110d7565b601f19841661107a87610e4c565b965061108586610e4c565b60005b828110156110ad57848901548255600182019150600185019450602081019050611088565b868310156110ca57848901546110c6601f891682610fbe565b8355505b6001600288020188555050505b5050505050505b565b7f4e487b7100000000000000000000000000000000000000000000000000000000600052603160045260246000fd5b7f57726f6e6720496e646578202121000000000000000000000000000000000000600082015250565b6000611145600e836108d5565b91506111508261110f565b602082019050919050565b6000602082019050818103600083015261117481611138565b9050919050565b7f63656e746572206964206f72206163636f756e7420616c72656164792065786960008201527f7374202121000000000000000000000000000000000000000000000000000000602082015250565b60006111d76025836108d5565b91506111e28261117b565b604082019050919050565b60006020820190508181036000830152611206816111ca565b9050919050565b611216826108ca565b67ffffffffffffffff81111561122f5761122e6109e3565b5b6112398254610e05565b611244828285610f6b565b600060209050601f8311600181146112775760008415611265578287015190505b61126f8582610fdc565b8655506112d7565b601f19841661128586610e4c565b60005b828110156112ad57848901518255600182019150602085019450602081019050611288565b868310156112ca57848901516112c6601f891682610fbe565b8355505b6001600288020188555050505b505050505050565b60006112ea82610858565b91507fffffffffffffffffffffffffffffffffffffffffffffffffffffffffffffffff820361131c5761131b610d44565b5b60018201905091905056fea264697066735822122006a6695b40ab4d74d250e1e22dd74495fdef83da52febebf99dcd7670e94086264736f6c63430008110033",
  "immutableReferences": {},
  "source": "// SPDX-License-Identifier: GPL-3.0\r\npragma solidity >=0.7.0 <0.9.0;\r\n\r\n\r\nimport {HealthAuthority} from  \"./HealthAuthority.sol\";\r\n\r\n\r\n/** \r\n * @title HealthCenter\r\n * @dev Implements center methods\r\n */\r\ncontract HealthCenter {\r\n\r\n    HealthAuthority authority; // associated authority\r\n\r\n    struct center {\r\n        uint id;\r\n        string name;\r\n        address addr;\r\n    }\r\n\r\n    // array content all center\r\n    center[] centers;\r\n\r\n    modifier isAccount() {\r\n        (uint index, bool exist) = authority.checkHealthAuthority(msg.sender);\r\n        require(exist, \"Caller have not permession\");\r\n        _;\r\n    } \r\n\r\n\r\n    constructor(address AuthorityAddress) {\r\n        authority = HealthAuthority(AuthorityAddress);\r\n\r\n        centers.push(center(11, 'my center', address(0x0)));\r\n    }\r\n\r\n    function getNumberOfCenters() view public returns (uint) {\r\n        uint len = centers.length;\r\n        return len;\r\n    }\r\n\r\n    function getCenterByIndex(uint _index) view public returns (uint, string memory, address) {\r\n        require(_index>=0 && _index<centers.length, \"Wrong Index !!\");\r\n        return (centers[_index].id, centers[_index].name, centers[_index].addr); \r\n    }\r\n    \r\n\r\n    /**\r\n    * ////////////////////////////////////////////////////////////\r\n    *           PUBLIC METHODS FOR CONTRACT INTERFACE\r\n    * ////////////////////////////////////////////////////////////\r\n    */\r\n\r\n    function checkHealthCenter(uint _id, address _address)  view internal returns (uint, bool) {\r\n        uint index = 0;\r\n        bool exist = false;\r\n        for (uint i = 0; i < centers.length ; i++){\r\n            if (centers[i].id == _id || centers[i].addr == _address){\r\n                exist = true;\r\n                index = i;\r\n                break;\r\n            }\r\n        }\r\n        return (index, exist);\r\n    }\r\n\r\n    function addHealthCenter(uint _id, string memory _name, address _account) public isAccount{\r\n        (uint index, bool exist) = checkHealthCenter(_id, _account);\r\n        require(exist==false, \"center id or account already exist !!\");\r\n\r\n        centers.push(center(_id, _name, _account));\r\n    }\r\n\r\n    function rmHealthCenter(uint _id) public isAccount{\r\n        (uint index, bool exist) = checkHealthCenter(_id, address(0));\r\n        require(exist==true, \"center does not exist !!\");\r\n\r\n        centers[index] = centers[centers.length-1];\r\n        centers.pop();\r\n    }\r\n}",
  "sourcePath": "F:\\ComputerScience\\projects\\PFE\\project\\2022-2023\\Blockchain-side\\contracts\\HealthCenter.sol",
  "compiler": {
    "name": "solc",
    "version": "0.8.17+commit.8df45f5f.Emscripten.clang"
  },
  "schemaVersion": "3.4.11",
  "updatedAt": "2023-04-16T08:54:34.173Z",
  "devdoc": {
    "details": "Implements center methods",
    "kind": "dev",
    "methods": {},
    "title": "HealthCenter",
    "version": 1
  },
  "userdoc": {
    "kind": "user",
    "methods": {},
    "version": 1
  }
}