{
  "contractName": "HealthAuthority",
  "abi": [
    {
      "inputs": [],
      "stateMutability": "nonpayable",
      "type": "constructor"
    },
    {
      "inputs": [],
      "name": "authCount",
      "outputs": [
        {
          "internalType": "uint256",
          "name": "",
          "type": "uint256"
        }
      ],
      "stateMutability": "view",
      "type": "function",
      "constant": true
    },
    {
      "inputs": [
        {
          "internalType": "uint256",
          "name": "",
          "type": "uint256"
        }
      ],
      "name": "authorities",
      "outputs": [
        {
          "internalType": "address",
          "name": "",
          "type": "address"
        }
      ],
      "stateMutability": "view",
      "type": "function",
      "constant": true
    },
    {
      "inputs": [
        {
          "internalType": "address",
          "name": "_address",
          "type": "address"
        }
      ],
      "name": "checkHealthAuthority",
      "outputs": [
        {
          "internalType": "uint256",
          "name": "",
          "type": "uint256"
        },
        {
          "internalType": "bool",
          "name": "",
          "type": "bool"
        }
      ],
      "stateMutability": "view",
      "type": "function",
      "constant": true
    },
    {
      "inputs": [
        {
          "internalType": "address",
          "name": "_address",
          "type": "address"
        }
      ],
      "name": "addAccount",
      "outputs": [],
      "stateMutability": "nonpayable",
      "type": "function"
    },
    {
      "inputs": [
        {
          "internalType": "address",
          "name": "_address",
          "type": "address"
        }
      ],
      "name": "rmAccount",
      "outputs": [],
      "stateMutability": "nonpayable",
      "type": "function"
    }
  ],
  "bytecode": "0x60806040526000805534801561001457600080fd5b50600080815480929190610027906100bd565b919050555033600160008054815260200190815260200160002060006101000a81548173ffffffffffffffffffffffffffffffffffffffff021916908373ffffffffffffffffffffffffffffffffffffffff160217905550610105565b7f4e487b7100000000000000000000000000000000000000000000000000000000600052601160045260246000fd5b6000819050919050565b60006100c8826100b3565b91507fffffffffffffffffffffffffffffffffffffffffffffffffffffffffffffffff82036100fa576100f9610084565b5b600182019050919050565b610749806101146000396000f3fe608060405234801561001057600080fd5b50600436106100575760003560e01c8063134e91ac1461005c578063494503d41461008d578063658d1b98146100bd578063b8abb1a0146100d9578063e89b0e1e146100f7575b600080fd5b61007660048036038101906100719190610462565b610113565b6040516100849291906104c3565b60405180910390f35b6100a760048036038101906100a29190610518565b6101bc565b6040516100b49190610554565b60405180910390f35b6100d760048036038101906100d29190610462565b6101ef565b005b6100e161033a565b6040516100ee919061056f565b60405180910390f35b610111600480360381019061010c9190610462565b610340565b005b6000806000806000600190505b60005481116101ae578573ffffffffffffffffffffffffffffffffffffffff166001600083815260200190815260200160002060009054906101000a900473ffffffffffffffffffffffffffffffffffffffff1673ffffffffffffffffffffffffffffffffffffffff160361019b57600191508092506101ae565b80806101a6906105b9565b915050610120565b508181935093505050915091565b60016020528060005260406000206000915054906101000a900473ffffffffffffffffffffffffffffffffffffffff1681565b6000806101fb33610113565b915091508061023f576040517f08c379a00000000000000000000000000000000000000000000000000000000081526004016102369061065e565b60405180910390fd5b60008061024b85610113565b915091506001151581151514610296576040517f08c379a000000000000000000000000000000000000000000000000000000000815260040161028d906106ca565b60405180910390fd5b600160008054815260200190815260200160002060009054906101000a900473ffffffffffffffffffffffffffffffffffffffff166001600084815260200190815260200160002060006101000a81548173ffffffffffffffffffffffffffffffffffffffff021916908373ffffffffffffffffffffffffffffffffffffffff16021790555060008081548092919061032e906106ea565b91905055505050505050565b60005481565b60008061034c33610113565b9150915080610390576040517f08c379a00000000000000000000000000000000000000000000000000000000081526004016103879061065e565b60405180910390fd5b6000808154809291906103a2906105b9565b919050555082600160008054815260200190815260200160002060006101000a81548173ffffffffffffffffffffffffffffffffffffffff021916908373ffffffffffffffffffffffffffffffffffffffff160217905550505050565b600080fd5b600073ffffffffffffffffffffffffffffffffffffffff82169050919050565b600061042f82610404565b9050919050565b61043f81610424565b811461044a57600080fd5b50565b60008135905061045c81610436565b92915050565b600060208284031215610478576104776103ff565b5b60006104868482850161044d565b91505092915050565b6000819050919050565b6104a28161048f565b82525050565b60008115159050919050565b6104bd816104a8565b82525050565b60006040820190506104d86000830185610499565b6104e560208301846104b4565b9392505050565b6104f58161048f565b811461050057600080fd5b50565b600081359050610512816104ec565b92915050565b60006020828403121561052e5761052d6103ff565b5b600061053c84828501610503565b91505092915050565b61054e81610424565b82525050565b60006020820190506105696000830184610545565b92915050565b60006020820190506105846000830184610499565b92915050565b7f4e487b7100000000000000000000000000000000000000000000000000000000600052601160045260246000fd5b60006105c48261048f565b91507fffffffffffffffffffffffffffffffffffffffffffffffffffffffffffffffff82036105f6576105f561058a565b5b600182019050919050565b600082825260208201905092915050565b7f43616c6c65722068617665206e6f74207065726d657373696f6e000000000000600082015250565b6000610648601a83610601565b915061065382610612565b602082019050919050565b600060208201905081810360008301526106778161063b565b9050919050565b7f63656e74657220646f6573206e6f742065786973742021210000000000000000600082015250565b60006106b4601883610601565b91506106bf8261067e565b602082019050919050565b600060208201905081810360008301526106e3816106a7565b9050919050565b60006106f58261048f565b9150600082036107085761070761058a565b5b60018203905091905056fea26469706673582212200019acadd392d02bd4b38cfb81f41f69470d4844b01d2303fa87073d0efb0c0864736f6c63430008110033",
  "immutableReferences": {},
  "source": "// SPDX-License-Identifier: GPL-3.0\r\npragma solidity >=0.7.0 <0.9.0;\r\n\r\n/**\r\n * @title HealthAuthority\r\n * @dev Store & retrieve value in a variable\r\n * @custom:dev-run-script ./scripts/deploy.ts // il faut modifier\r\n */\r\n\r\ncontract HealthAuthority {\r\n\r\n    // variable store all account in authority\r\n    // address[] authorities;\r\n\r\n    uint256 public authCount = 0;\r\n    mapping(uint => address) public authorities;\r\n    \r\n    constructor() {\r\n        authCount++;\r\n        authorities[authCount] = msg.sender;\r\n    }\r\n\r\n\r\n    ///////////////////////////////// GETTERS /////////////////////////////////\r\n    ///////////////////////////////////////////////////////////////////////////\r\n\r\n    // modifier to check if caller is account in authorty\r\n    modifier isAccount() {\r\n        (uint index, bool exist) = checkHealthAuthority(msg.sender);\r\n        require(exist, \"Caller have not permession\");\r\n        _;\r\n    }\r\n\r\n    function checkHealthAuthority(address _address) view public returns (uint, bool) {\r\n        uint index = 0;\r\n        bool exist = false;\r\n        for (uint i = 1; i <= authCount ; i++){\r\n            if (authorities[i] == _address ){\r\n                exist = true;\r\n                index = i;\r\n                break;\r\n            }\r\n        }\r\n        return (index, exist);\r\n    }\r\n\r\n\r\n\r\n    ///////////////////////////////// SETTERS /////////////////////////////////\r\n    ///////////////////////////////////////////////////////////////////////////\r\n\r\n    /**\r\n    * @dev add new account to authority\r\n    * @param _address address to added\r\n    */\r\n    function addAccount(address _address) public isAccount {\r\n        authCount++;\r\n        authorities[authCount] = _address;\r\n    }\r\n\r\n    /**\r\n    * @dev remove account from authority\r\n    * @param _address address to remove\r\n    */\r\n    function rmAccount(address _address) public isAccount {\r\n        (uint index, bool exist) = checkHealthAuthority(_address);\r\n        require(exist==true, \"center does not exist !!\");\r\n\r\n        authorities[index] = authorities[authCount];\r\n        authCount--;\r\n    }\r\n}",
  "sourcePath": "F:\\ComputerScience\\projects\\PFE\\tutorial\\truffle projects\\EHR Share System\\contracts\\HealthAuthority.sol",
  "compiler": {
    "name": "solc",
    "version": "0.8.17+commit.8df45f5f.Emscripten.clang"
  },
  "schemaVersion": "3.4.11",
  "updatedAt": "2023-02-22T09:36:01.061Z",
  "networkType": "ethereum",
  "devdoc": {
    "custom:dev-run-script": "./scripts/deploy.ts // il faut modifier",
    "details": "Store & retrieve value in a variable",
    "kind": "dev",
    "methods": {
      "addAccount(address)": {
        "details": "add new account to authority",
        "params": {
          "_address": "address to added"
        }
      },
      "rmAccount(address)": {
        "details": "remove account from authority",
        "params": {
          "_address": "address to remove"
        }
      }
    },
    "title": "HealthAuthority",
    "version": 1
  },
  "userdoc": {
    "kind": "user",
    "methods": {},
    "version": 1
  }
}