{
  "contractName": "HealthActor",
  "abi": [
    {
      "inputs": [
        {
          "internalType": "address",
          "name": "authorityAddress",
          "type": "address"
        }
      ],
      "stateMutability": "nonpayable",
      "type": "constructor"
    },
    {
      "inputs": [],
      "name": "actorCount",
      "outputs": [
        {
          "internalType": "uint256",
          "name": "",
          "type": "uint256"
        }
      ],
      "stateMutability": "view",
      "type": "function"
    },
    {
      "inputs": [
        {
          "internalType": "uint256",
          "name": "",
          "type": "uint256"
        }
      ],
      "name": "actors",
      "outputs": [
        {
          "internalType": "uint256",
          "name": "id",
          "type": "uint256"
        },
        {
          "internalType": "uint256",
          "name": "centerID",
          "type": "uint256"
        },
        {
          "internalType": "string",
          "name": "name",
          "type": "string"
        },
        {
          "internalType": "address",
          "name": "addr",
          "type": "address"
        }
      ],
      "stateMutability": "view",
      "type": "function"
    },
    {
      "inputs": [
        {
          "internalType": "uint256",
          "name": "_id",
          "type": "uint256"
        },
        {
          "internalType": "string",
          "name": "_name",
          "type": "string"
        },
        {
          "internalType": "address",
          "name": "_account",
          "type": "address"
        }
      ],
      "name": "addHealthCenter",
      "outputs": [],
      "stateMutability": "nonpayable",
      "type": "function"
    },
    {
      "inputs": [
        {
          "internalType": "uint256",
          "name": "_index",
          "type": "uint256"
        }
      ],
      "name": "getCenterByIndex",
      "outputs": [
        {
          "internalType": "uint256",
          "name": "",
          "type": "uint256"
        },
        {
          "internalType": "string",
          "name": "",
          "type": "string"
        },
        {
          "internalType": "address",
          "name": "",
          "type": "address"
        }
      ],
      "stateMutability": "view",
      "type": "function"
    },
    {
      "inputs": [],
      "name": "getNumberOfCenters",
      "outputs": [
        {
          "internalType": "uint256",
          "name": "",
          "type": "uint256"
        }
      ],
      "stateMutability": "view",
      "type": "function"
    },
    {
      "inputs": [
        {
          "internalType": "uint256",
          "name": "_id",
          "type": "uint256"
        }
      ],
      "name": "rmHealthCenter",
      "outputs": [],
      "stateMutability": "nonpayable",
      "type": "function"
    },
    {
      "inputs": [
        {
          "internalType": "uint256",
          "name": "_id",
          "type": "uint256"
        },
        {
          "internalType": "uint256",
          "name": "_centerID",
          "type": "uint256"
        },
        {
          "internalType": "string",
          "name": "_name",
          "type": "string"
        },
        {
          "internalType": "address",
          "name": "_account",
          "type": "address"
        }
      ],
      "name": "addHealthActor",
      "outputs": [],
      "stateMutability": "nonpayable",
      "type": "function"
    },
    {
      "inputs": [
        {
          "internalType": "uint256",
          "name": "_id",
          "type": "uint256"
        }
      ],
      "name": "rmHealthActor",
      "outputs": [],
      "stateMutability": "nonpayable",
      "type": "function"
    },
    {
      "inputs": [
        {
          "internalType": "uint256",
          "name": "_id",
          "type": "uint256"
        },
        {
          "internalType": "address",
          "name": "_address",
          "type": "address"
        }
      ],
      "name": "checkHealthActor",
      "outputs": [
        {
          "internalType": "uint256",
          "name": "",
          "type": "uint256"
        }
      ],
      "stateMutability": "view",
      "type": "function"
    },
    {
      "inputs": [
        {
          "internalType": "address",
          "name": "_address",
          "type": "address"
        }
      ],
      "name": "getActorID",
      "outputs": [
        {
          "internalType": "uint256",
          "name": "",
          "type": "uint256"
        }
      ],
      "stateMutability": "view",
      "type": "function"
    }
  ],
  "bytecode": "0x608060405260006003553480156200001657600080fd5b5060405162001f2338038062001f2383398181016040528101906200003c9190620000ef565b80806000806101000a81548173ffffffffffffffffffffffffffffffffffffffff021916908373ffffffffffffffffffffffffffffffffffffffff160217905550505062000121565b600080fd5b600073ffffffffffffffffffffffffffffffffffffffff82169050919050565b6000620000b7826200008a565b9050919050565b620000c981620000aa565b8114620000d557600080fd5b50565b600081519050620000e981620000be565b92915050565b60006020828403121562000108576200010762000085565b5b60006200011884828501620000d8565b91505092915050565b611df280620001316000396000f3fe608060405234801561001057600080fd5b506004361061009e5760003560e01c8063a2f7e84c11610066578063a2f7e84c1461015e578063a58c1c261461017a578063c5d78afb146101aa578063cbd3638f146101c6578063ecd5b55d146101f65761009e565b80632b1ca81d146100a35780634edbdc0e146100bf57806389421f5e146100db57806393c0e83a146100f95780639b7d75b71461012c575b600080fd5b6100bd60048036038101906100b89190611054565b610214565b005b6100d960048036038101906100d49190611225565b61049a565b005b6100e3610707565b6040516100f091906112b7565b60405180910390f35b610113600480360381019061010e9190611054565b61070d565b6040516101239493929190611360565b60405180910390f35b61014660048036038101906101419190611054565b6107e5565b604051610155939291906113ac565b60405180910390f35b61017860048036038101906101739190611054565b610968565b005b610194600480360381019061018f91906113ea565b610b73565b6040516101a191906112b7565b60405180910390f35b6101c460048036038101906101bf919061142a565b610c36565b005b6101e060048036038101906101db9190611499565b610e3c565b6040516101ed91906112b7565b60405180910390f35b6101fe610eae565b60405161020b91906112b7565b60405180910390f35b60008060008054906101000a900473ffffffffffffffffffffffffffffffffffffffff1673ffffffffffffffffffffffffffffffffffffffff1663134e91ac336040518263ffffffff1660e01b815260040161027091906114c6565b6040805180830381865afa15801561028c573d6000803e3d6000fd5b505050506040513d601f19601f820116820180604052508101906102b0919061152e565b91509150806102f4576040517f08c379a00000000000000000000000000000000000000000000000000000000081526004016102eb906115ba565b60405180910390fd5b600080610302856000610ec0565b91509150600115158115151461034d576040517f08c379a000000000000000000000000000000000000000000000000000000000815260040161034490611626565b60405180910390fd5b600180808054905061035f9190611675565b815481106103705761036f6116a9565b5b906000526020600020906003020160018381548110610392576103916116a9565b5b906000526020600020906003020160008201548160000155600182018160010190816103be91906118fa565b506002820160009054906101000a900473ffffffffffffffffffffffffffffffffffffffff168160020160006101000a81548173ffffffffffffffffffffffffffffffffffffffff021916908373ffffffffffffffffffffffffffffffffffffffff160217905550905050600180548061043b5761043a6119e2565b5b60019003818190600052602060002090600302016000808201600090556001820160006104689190610fad565b6002820160006101000a81549073ffffffffffffffffffffffffffffffffffffffff0219169055505090555050505050565b60008060008054906101000a900473ffffffffffffffffffffffffffffffffffffffff1673ffffffffffffffffffffffffffffffffffffffff1663134e91ac336040518263ffffffff1660e01b81526004016104f691906114c6565b6040805180830381865afa158015610512573d6000803e3d6000fd5b505050506040513d601f19601f82011682018060405250810190610536919061152e565b915091508061057a576040517f08c379a0000000000000000000000000000000000000000000000000000000008152600401610571906115ba565b60405180910390fd5b60006105868785610b73565b9050600081146105cb576040517f08c379a00000000000000000000000000000000000000000000000000000000081526004016105c290611a83565b60405180910390fd5b6000806105d9886000610ec0565b915091506001151581151514610624576040517f08c379a000000000000000000000000000000000000000000000000000000000815260040161061b90611aef565b60405180910390fd5b6003600081548092919061063790611b0f565b919050555060405180608001604052808a81526020018981526020018881526020018773ffffffffffffffffffffffffffffffffffffffff16815250600260006003548152602001908152602001600020600082015181600001556020820151816001015560408201518160020190816106b19190611b57565b5060608201518160030160006101000a81548173ffffffffffffffffffffffffffffffffffffffff021916908373ffffffffffffffffffffffffffffffffffffffff160217905550905050505050505050505050565b60035481565b600260205280600052604060002060009150905080600001549080600101549080600201805461073c90611707565b80601f016020809104026020016040519081016040528092919081815260200182805461076890611707565b80156107b55780601f1061078a576101008083540402835291602001916107b5565b820191906000526020600020905b81548152906001019060200180831161079857829003601f168201915b5050505050908060030160009054906101000a900473ffffffffffffffffffffffffffffffffffffffff16905084565b6000606060008084101580156107ff575060018054905084105b61083e576040517f08c379a000000000000000000000000000000000000000000000000000000000815260040161083590611c75565b60405180910390fd5b60018481548110610852576108516116a9565b5b90600052602060002090600302016000015460018581548110610878576108776116a9565b5b90600052602060002090600302016001016001868154811061089d5761089c6116a9565b5b906000526020600020906003020160020160009054906101000a900473ffffffffffffffffffffffffffffffffffffffff168180546108db90611707565b80601f016020809104026020016040519081016040528092919081815260200182805461090790611707565b80156109545780601f1061092957610100808354040283529160200191610954565b820191906000526020600020905b81548152906001019060200180831161093757829003601f168201915b505050505091509250925092509193909250565b60008060008054906101000a900473ffffffffffffffffffffffffffffffffffffffff1673ffffffffffffffffffffffffffffffffffffffff1663134e91ac336040518263ffffffff1660e01b81526004016109c491906114c6565b6040805180830381865afa1580156109e0573d6000803e3d6000fd5b505050506040513d601f19601f82011682018060405250810190610a04919061152e565b9150915080610a48576040517f08c379a0000000000000000000000000000000000000000000000000000000008152600401610a3f906115ba565b60405180910390fd5b6000610a55846000610b73565b905060008111610a9a576040517f08c379a0000000000000000000000000000000000000000000000000000000008152600401610a9190611ce1565b60405180910390fd5b60026000600354815260200190815260200160002060026000838152602001908152602001600020600082015481600001556001820154816001015560028201816002019081610aea91906118fa565b506003820160009054906101000a900473ffffffffffffffffffffffffffffffffffffffff168160030160006101000a81548173ffffffffffffffffffffffffffffffffffffffff021916908373ffffffffffffffffffffffffffffffffffffffff16021790555090505060036000815480929190610b6890611d01565b919050555050505050565b600080600090505b6003548111610c2a578360026000838152602001908152602001600020600001541480610c0957508273ffffffffffffffffffffffffffffffffffffffff166002600083815260200190815260200160002060030160009054906101000a900473ffffffffffffffffffffffffffffffffffffffff1673ffffffffffffffffffffffffffffffffffffffff16145b15610c175780915050610c30565b8080610c2290611b0f565b915050610b7b565b60009150505b92915050565b60008060008054906101000a900473ffffffffffffffffffffffffffffffffffffffff1673ffffffffffffffffffffffffffffffffffffffff1663134e91ac336040518263ffffffff1660e01b8152600401610c9291906114c6565b6040805180830381865afa158015610cae573d6000803e3d6000fd5b505050506040513d601f19601f82011682018060405250810190610cd2919061152e565b9150915080610d16576040517f08c379a0000000000000000000000000000000000000000000000000000000008152600401610d0d906115ba565b60405180910390fd5b600080610d238786610ec0565b915091506000151581151514610d6e576040517f08c379a0000000000000000000000000000000000000000000000000000000008152600401610d6590611d9c565b60405180910390fd5b600160405180606001604052808981526020018881526020018773ffffffffffffffffffffffffffffffffffffffff168152509080600181540180825580915050600190039060005260206000209060030201600090919091909150600082015181600001556020820151816001019081610de99190611b57565b5060408201518160020160006101000a81548173ffffffffffffffffffffffffffffffffffffffff021916908373ffffffffffffffffffffffffffffffffffffffff160217905550505050505050505050565b600080610e4a600084610b73565b905060008111610e8f576040517f08c379a0000000000000000000000000000000000000000000000000000000008152600401610e8690611ce1565b60405180910390fd5b6002600082815260200190815260200160002060000154915050919050565b60008060018054905090508091505090565b60008060008060005b600180549050811015610f9d578660018281548110610eeb57610eea6116a9565b5b9060005260206000209060030201600001541480610f7957508573ffffffffffffffffffffffffffffffffffffffff1660018281548110610f2f57610f2e6116a9565b5b906000526020600020906003020160020160009054906101000a900473ffffffffffffffffffffffffffffffffffffffff1673ffffffffffffffffffffffffffffffffffffffff16145b15610f8a5760019150809250610f9d565b8080610f9590611b0f565b915050610ec9565b5081819350935050509250929050565b508054610fb990611707565b6000825580601f10610fcb5750610fea565b601f016020900490600052602060002090810190610fe99190610fed565b5b50565b5b80821115611006576000816000905550600101610fee565b5090565b6000604051905090565b600080fd5b600080fd5b6000819050919050565b6110318161101e565b811461103c57600080fd5b50565b60008135905061104e81611028565b92915050565b60006020828403121561106a57611069611014565b5b60006110788482850161103f565b91505092915050565b600080fd5b600080fd5b6000601f19601f8301169050919050565b7f4e487b7100000000000000000000000000000000000000000000000000000000600052604160045260246000fd5b6110d48261108b565b810181811067ffffffffffffffff821117156110f3576110f261109c565b5b80604052505050565b600061110661100a565b905061111282826110cb565b919050565b600067ffffffffffffffff8211156111325761113161109c565b5b61113b8261108b565b9050602081019050919050565b82818337600083830152505050565b600061116a61116584611117565b6110fc565b90508281526020810184848401111561118657611185611086565b5b611191848285611148565b509392505050565b600082601f8301126111ae576111ad611081565b5b81356111be848260208601611157565b91505092915050565b600073ffffffffffffffffffffffffffffffffffffffff82169050919050565b60006111f2826111c7565b9050919050565b611202816111e7565b811461120d57600080fd5b50565b60008135905061121f816111f9565b92915050565b6000806000806080858703121561123f5761123e611014565b5b600061124d8782880161103f565b945050602061125e8782880161103f565b935050604085013567ffffffffffffffff81111561127f5761127e611019565b5b61128b87828801611199565b925050606061129c87828801611210565b91505092959194509250565b6112b18161101e565b82525050565b60006020820190506112cc60008301846112a8565b92915050565b600081519050919050565b600082825260208201905092915050565b60005b8381101561130c5780820151818401526020810190506112f1565b60008484015250505050565b6000611323826112d2565b61132d81856112dd565b935061133d8185602086016112ee565b6113468161108b565b840191505092915050565b61135a816111e7565b82525050565b600060808201905061137560008301876112a8565b61138260208301866112a8565b81810360408301526113948185611318565b90506113a36060830184611351565b95945050505050565b60006060820190506113c160008301866112a8565b81810360208301526113d38185611318565b90506113e26040830184611351565b949350505050565b6000806040838503121561140157611400611014565b5b600061140f8582860161103f565b925050602061142085828601611210565b9150509250929050565b60008060006060848603121561144357611442611014565b5b60006114518682870161103f565b935050602084013567ffffffffffffffff81111561147257611471611019565b5b61147e86828701611199565b925050604061148f86828701611210565b9150509250925092565b6000602082840312156114af576114ae611014565b5b60006114bd84828501611210565b91505092915050565b60006020820190506114db6000830184611351565b92915050565b6000815190506114f081611028565b92915050565b60008115159050919050565b61150b816114f6565b811461151657600080fd5b50565b60008151905061152881611502565b92915050565b6000806040838503121561154557611544611014565b5b6000611553858286016114e1565b925050602061156485828601611519565b9150509250929050565b7f43616c6c65722068617665206e6f74207065726d657373696f6e000000000000600082015250565b60006115a4601a836112dd565b91506115af8261156e565b602082019050919050565b600060208201905081810360008301526115d381611597565b9050919050565b7f63656e74657220646f6573206e6f742065786973742021210000000000000000600082015250565b60006116106018836112dd565b915061161b826115da565b602082019050919050565b6000602082019050818103600083015261163f81611603565b9050919050565b7f4e487b7100000000000000000000000000000000000000000000000000000000600052601160045260246000fd5b60006116808261101e565b915061168b8361101e565b92508282039050818111156116a3576116a2611646565b5b92915050565b7f4e487b7100000000000000000000000000000000000000000000000000000000600052603260045260246000fd5b7f4e487b7100000000000000000000000000000000000000000000000000000000600052602260045260246000fd5b6000600282049050600182168061171f57607f821691505b602082108103611732576117316116d8565b5b50919050565b60008154905061174781611707565b9050919050565b60008190508160005260206000209050919050565b60006020601f8301049050919050565b600082821b905092915050565b6000600883026117b07fffffffffffffffffffffffffffffffffffffffffffffffffffffffffffffffff82611773565b6117ba8683611773565b95508019841693508086168417925050509392505050565b6000819050919050565b60006117f76117f26117ed8461101e565b6117d2565b61101e565b9050919050565b6000819050919050565b611811836117dc565b61182561181d826117fe565b848454611780565b825550505050565b600090565b61183a61182d565b611845818484611808565b505050565b5b818110156118695761185e600082611832565b60018101905061184b565b5050565b601f8211156118ae5761187f8161174e565b61188884611763565b81016020851015611897578190505b6118ab6118a385611763565b83018261184a565b50505b505050565b600082821c905092915050565b60006118d1600019846008026118b3565b1980831691505092915050565b60006118ea83836118c0565b9150826002028217905092915050565b8181036119085750506119e0565b61191182611738565b67ffffffffffffffff81111561192a5761192961109c565b5b6119348254611707565b61193f82828561186d565b6000601f83116001811461196e576000841561195c578287015490505b61196685826118de565b8655506119d9565b601f19841661197c8761174e565b96506119878661174e565b60005b828110156119af5784890154825560018201915060018501945060208101905061198a565b868310156119cc57848901546119c8601f8916826118c0565b8355505b6001600288020188555050505b5050505050505b565b7f4e487b7100000000000000000000000000000000000000000000000000000000600052603160045260246000fd5b7f4163746f72206964206f72206163636f756e7420616c7265616479206578697360008201527f7420212100000000000000000000000000000000000000000000000000000000602082015250565b6000611a6d6024836112dd565b9150611a7882611a11565b604082019050919050565b60006020820190508181036000830152611a9c81611a60565b9050919050565b7f63656e74657220646f6573206e6f742065786973742065786973742021210000600082015250565b6000611ad9601e836112dd565b9150611ae482611aa3565b602082019050919050565b60006020820190508181036000830152611b0881611acc565b9050919050565b6000611b1a8261101e565b91507fffffffffffffffffffffffffffffffffffffffffffffffffffffffffffffffff8203611b4c57611b4b611646565b5b600182019050919050565b611b60826112d2565b67ffffffffffffffff811115611b7957611b7861109c565b5b611b838254611707565b611b8e82828561186d565b600060209050601f831160018114611bc15760008415611baf578287015190505b611bb985826118de565b865550611c21565b601f198416611bcf8661174e565b60005b82811015611bf757848901518255600182019150602085019450602081019050611bd2565b86831015611c145784890151611c10601f8916826118c0565b8355505b6001600288020188555050505b505050505050565b7f57726f6e6720496e646578202121000000000000000000000000000000000000600082015250565b6000611c5f600e836112dd565b9150611c6a82611c29565b602082019050919050565b60006020820190508181036000830152611c8e81611c52565b9050919050565b7f4163746f7220646f6573206e6f74206578697374202121000000000000000000600082015250565b6000611ccb6017836112dd565b9150611cd682611c95565b602082019050919050565b60006020820190508181036000830152611cfa81611cbe565b9050919050565b6000611d0c8261101e565b915060008203611d1f57611d1e611646565b5b600182039050919050565b7f63656e746572206964206f72206163636f756e7420616c72656164792065786960008201527f7374202121000000000000000000000000000000000000000000000000000000602082015250565b6000611d866025836112dd565b9150611d9182611d2a565b604082019050919050565b60006020820190508181036000830152611db581611d79565b905091905056fea26469706673582212207f23e1fedc23737535cb43f512094267d1ef9c9b1a81d7db78d6954e111679df64736f6c63430008110033",
  "immutableReferences": {},
  "source": "// SPDX-License-Identifier: GPL-3.0\r\npragma solidity >=0.7.0 <0.9.0;\r\n\r\nimport {HealthCenter} from  \"./HealthCenter.sol\";\r\n\r\n\r\n/** \r\n * @title HealthActor\r\n * @dev Implements actor methods\r\n */\r\ncontract HealthActor is HealthCenter {\r\n\r\n    struct actor {\r\n        uint id;\r\n        uint centerID;\r\n        string name;\r\n        address addr;\r\n    }\r\n    //actor[] actors;\r\n\r\n    mapping (uint => actor) public actors;\r\n    uint256 public actorCount = 0; // pointer in the last element in the map\r\n\r\n    constructor (address authorityAddress) HealthCenter(authorityAddress){}\r\n\r\n    \r\n    /**\r\n    * ////////////////////////////////////////////////////////////\r\n    *           PUBLIC METHODS FOR CONTRACT INTERFACE\r\n    * ////////////////////////////////////////////////////////////\r\n    */\r\n\r\n    \r\n    function addHealthActor(uint _id, uint _centerID, string memory _name, address _account) public isAccount{\r\n        uint index = checkHealthActor(_id, _account);\r\n        require(index == 0, \"Actor id or account already exist !!\");\r\n\r\n        (uint cid, bool centerExist) = checkHealthCenter(_centerID, address(0));\r\n        require(centerExist==true, \"center does not exist exist !!\");\r\n\r\n        actorCount++;\r\n        actors[actorCount] = actor(_id, _centerID, _name, _account);\r\n    }\r\n\r\n    function rmHealthActor(uint _id) public isAccount{\r\n        uint index = checkHealthActor(_id, address(0));\r\n        require(index>0, \"Actor does not exist !!\");\r\n\r\n        actors[index] = actors[actorCount];\r\n        actorCount--;\r\n    }\r\n\r\n    function checkHealthActor(uint _id, address _address)  view public returns (uint) {\r\n        uint index = 0;\r\n        for (index; index <= actorCount ; index++){\r\n            if (actors[index].id == _id || actors[index].addr == _address){\r\n                return index;\r\n            }\r\n        }\r\n        return 0;\r\n    }\r\n\r\n    function getActorID(address _address) view public returns (uint) {\r\n        uint index = checkHealthActor(0, _address);\r\n        require(index>0, \"Actor does not exist !!\");\r\n\r\n        return actors[index].id;\r\n    }\r\n    \r\n}\r\n",
  "sourcePath": "F:\\ComputerScience\\projects\\PFE\\tutorial\\truffle projects\\EHR Share System\\contracts\\HealthActor.sol",
  "compiler": {
    "name": "solc",
    "version": "0.8.17+commit.8df45f5f.Emscripten.clang"
  },
  "schemaVersion": "3.4.11",
  "updatedAt": "2023-02-21T09:15:57.096Z",
  "networkType": "ethereum",
  "devdoc": {
    "details": "Implements actor methods",
    "kind": "dev",
    "methods": {},
    "title": "HealthActor",
    "version": 1
  },
  "userdoc": {
    "kind": "user",
    "methods": {
      "addHealthActor(uint256,uint256,string,address)": {
        "notice": "////////////////////////////////////////////////////////////           PUBLIC METHODS FOR CONTRACT INTERFACE ////////////////////////////////////////////////////////////"
      }
    },
    "version": 1
  }
}