{
  "contractName": "HealthActor",
  "abi": [
    {
      "inputs": [
        {
          "internalType": "address",
          "name": "authorityAddress",
          "type": "address"
        }
      ],
      "stateMutability": "nonpayable",
      "type": "constructor"
    },
    {
      "inputs": [],
      "name": "actorCount",
      "outputs": [
        {
          "internalType": "uint256",
          "name": "",
          "type": "uint256"
        }
      ],
      "stateMutability": "view",
      "type": "function",
      "constant": true
    },
    {
      "inputs": [
        {
          "internalType": "uint256",
          "name": "",
          "type": "uint256"
        }
      ],
      "name": "actors",
      "outputs": [
        {
          "internalType": "uint256",
          "name": "id",
          "type": "uint256"
        },
        {
          "internalType": "uint256",
          "name": "centerID",
          "type": "uint256"
        },
        {
          "internalType": "string",
          "name": "name",
          "type": "string"
        },
        {
          "internalType": "address",
          "name": "addr",
          "type": "address"
        },
        {
          "internalType": "string",
          "name": "public_key",
          "type": "string"
        }
      ],
      "stateMutability": "view",
      "type": "function",
      "constant": true
    },
    {
      "inputs": [
        {
          "internalType": "uint256",
          "name": "_id",
          "type": "uint256"
        },
        {
          "internalType": "string",
          "name": "_name",
          "type": "string"
        },
        {
          "internalType": "address",
          "name": "_account",
          "type": "address"
        }
      ],
      "name": "addHealthCenter",
      "outputs": [],
      "stateMutability": "nonpayable",
      "type": "function"
    },
    {
      "inputs": [
        {
          "internalType": "uint256",
          "name": "_id",
          "type": "uint256"
        },
        {
          "internalType": "address",
          "name": "_address",
          "type": "address"
        }
      ],
      "name": "checkHealthCenter",
      "outputs": [
        {
          "internalType": "uint256",
          "name": "",
          "type": "uint256"
        },
        {
          "internalType": "bool",
          "name": "",
          "type": "bool"
        }
      ],
      "stateMutability": "view",
      "type": "function",
      "constant": true
    },
    {
      "inputs": [
        {
          "internalType": "uint256",
          "name": "_index",
          "type": "uint256"
        }
      ],
      "name": "getCenterByIndex",
      "outputs": [
        {
          "internalType": "uint256",
          "name": "",
          "type": "uint256"
        },
        {
          "internalType": "string",
          "name": "",
          "type": "string"
        },
        {
          "internalType": "address",
          "name": "",
          "type": "address"
        }
      ],
      "stateMutability": "view",
      "type": "function",
      "constant": true
    },
    {
      "inputs": [],
      "name": "getNumberOfCenters",
      "outputs": [
        {
          "internalType": "uint256",
          "name": "",
          "type": "uint256"
        }
      ],
      "stateMutability": "view",
      "type": "function",
      "constant": true
    },
    {
      "inputs": [
        {
          "internalType": "uint256",
          "name": "_id",
          "type": "uint256"
        }
      ],
      "name": "rmHealthCenter",
      "outputs": [],
      "stateMutability": "nonpayable",
      "type": "function"
    },
    {
      "inputs": [
        {
          "internalType": "uint256",
          "name": "_id",
          "type": "uint256"
        },
        {
          "internalType": "uint256",
          "name": "_centerID",
          "type": "uint256"
        },
        {
          "internalType": "string",
          "name": "_name",
          "type": "string"
        },
        {
          "internalType": "address",
          "name": "_account",
          "type": "address"
        },
        {
          "internalType": "string",
          "name": "_pKey",
          "type": "string"
        }
      ],
      "name": "addHealthActor",
      "outputs": [],
      "stateMutability": "nonpayable",
      "type": "function"
    },
    {
      "inputs": [
        {
          "internalType": "uint256",
          "name": "_id",
          "type": "uint256"
        }
      ],
      "name": "rmHealthActor",
      "outputs": [],
      "stateMutability": "nonpayable",
      "type": "function"
    },
    {
      "inputs": [
        {
          "internalType": "uint256",
          "name": "_id",
          "type": "uint256"
        },
        {
          "internalType": "address",
          "name": "_address",
          "type": "address"
        }
      ],
      "name": "checkHealthActor",
      "outputs": [
        {
          "internalType": "uint256",
          "name": "",
          "type": "uint256"
        }
      ],
      "stateMutability": "view",
      "type": "function",
      "constant": true
    },
    {
      "inputs": [
        {
          "internalType": "address",
          "name": "_address",
          "type": "address"
        }
      ],
      "name": "getActor",
      "outputs": [
        {
          "components": [
            {
              "internalType": "uint256",
              "name": "id",
              "type": "uint256"
            },
            {
              "internalType": "uint256",
              "name": "centerID",
              "type": "uint256"
            },
            {
              "internalType": "string",
              "name": "name",
              "type": "string"
            },
            {
              "internalType": "address",
              "name": "addr",
              "type": "address"
            },
            {
              "internalType": "string",
              "name": "public_key",
              "type": "string"
            }
          ],
          "internalType": "struct HealthActor.actor",
          "name": "",
          "type": "tuple"
        }
      ],
      "stateMutability": "view",
      "type": "function",
      "constant": true
    },
    {
      "inputs": [
        {
          "internalType": "uint256",
          "name": "_actorID",
          "type": "uint256"
        }
      ],
      "name": "getActorAndCenterName",
      "outputs": [
        {
          "internalType": "string",
          "name": "",
          "type": "string"
        },
        {
          "internalType": "string",
          "name": "",
          "type": "string"
        }
      ],
      "stateMutability": "view",
      "type": "function",
      "constant": true
    }
  ],
  "bytecode": "0x608034610077576118a680380390601f19601f83011683019183831067ffffffffffffffff84111761007c578084926020946040528339810103126100775751600160a060020a038116908190036100775760008054600160a060020a0319169190911781556003556040516117fa90816100ac8239f35b600080fd5b7f4e487b7100000000000000000000000000000000000000000000000000000000600052604160045260246000fdfe608060408181526004918236101561001657600080fd5b6000927c01000000000000000000000000000000000000000000000000000000008435049182632b1ca81d14610e4557508382632efc171314610a79575081634138d1671461073857816382820a391461070357816389421f5e146106e457816393c0e83a146106625781639b7d75b714610614578163a2f7e84c146104a1578163a58c1c2614610472578163af653207146103b7578163c5d78afb146100e8575063ecd5b55d146100c757600080fd5b346100e457816003193601126100e4576020906001549051908152f35b5080fd5b8383346100e45760603660031901126100e457602490833567ffffffffffffffff83358181116103b35761011f90369088016110a4565b9060443594600160a060020a0394858716968781036103af5786895416828b8582518094819360e260020a6304d3a46b02835233908301525afa9081156103a55761017c9291610176918c91610376575b50611260565b866116ba565b905061030b5780519460608601868110858211176102f6578252855260209081860194855285019687526001918254680100000000000000008110156102e15780846101ca9201855561160e565b9690966102cd575186558286019451998a519485116102b95750506101f9836101f3865461115e565b866112ed565b8091601f841160011461024d57505081908798600296979892610242575b505060088202850a6000190419169084021790555b01915116600160a060020a031982541617905580f35b015190508880610217565b92919098601f198316858a528a8a209a8a905b8282106102a25750509160029798999a918489959410610287575b5050500201905561022c565b01516008601f841602840a600019041916905589808061027b565b8087869e8294978701518155019d01940190610260565b60418a9160e060020a634e487b7102835252fd5b5088808b60e060020a634e487b7102825252fd5b508860418b60e060020a634e487b7102835252fd5b838a60418d60e060020a634e487b7102835252fd5b602560849260208b93519360e560020a62461bcd0285528401528201527f63656e746572206964206f72206163636f756e7420616c72656164792065786960448201527f73742021210000000000000000000000000000000000000000000000000000006064820152fd5b6103969150853d871161039e575b61038e8183611082565b810190611241565b90508d610170565b503d610384565b83513d8c823e3d90fd5b8880fd5b8580fd5b82843461046f57602036600319011261046f5761044461043e8361046b936103df8735611478565b81526002602052209484516103f38161104d565b8654815260806104356001890154936020840194855261041560028b0161119c565b998985019a8b52600160a060020a0360038201541660608601520161119c565b91015251611649565b50611734565b50939050519261045d8351948486958652850190611139565b908382036020850152611139565b0390f35b80fd5b82843461046f578160031936011261046f575061049a602092610493611100565b90356114d9565b9051908152f35b9190503461061057602036600319011261061057600160a060020a036024828286541681519283809260e260020a6304d3a46b02825233898301525afa90811561060657906104f69186916105e75750611260565b6105008335611478565b9182156105a257839060035486526002602052808620938652852091838303610553575b5050505060035490811561053d57506000190160035580f35b82601160249260e060020a634e487b7102835252fd5b83829161059995548555600182015460018601556105776002830160028701611332565b6003850190600383015416600160a060020a0319825416179055019101611332565b38808281610524565b5160e560020a62461bcd028152602081850152601760248201527f4163746f7220646f6573206e6f742065786973742021210000000000000000006044820152606490fd5b6105fe9150843d861161039e5761038e8183611082565b905038610170565b83513d87823e3d90fd5b8280fd5b9050823461046f57602036600319011261046f57506106339035611734565b9092600160a060020a0361065882519586958652606060208701526060860190611139565b9216908301520390f35b82843461046f57602036600319011261046f578161046b91843581526002602052208054926106d160018301549560a06106b76106a16002870161119c565b92600160a060020a03600388015416960161119c565b9380519889988952602089015287015260a0860190611139565b9160608501528382036080850152611139565b5050346100e457816003193601126100e4576020906003549051908152f35b9050823461046f578260031936011261046f575061072a90610723611100565b90356116ba565b825191825215156020820152f35b9050823461046f57602092836003193601126100e457600160a060020a03833581811690818103610a755790610795849392608095516107778161104d565b878152878a8201526060968188888194015289838201520152611410565b90835185810181811067ffffffffffffffff821117610a5f579089918652602881528181019286368537885b601481106108e657505061081b917f4163746f7220646f6573206e6f742065786973742021210000000000000000009361080b603793895196879485015251809285850190611116565b8101036017810184520182611082565b81156108be575082856108a49261046b975260028952209360a08451976108418961104d565b865489526001870154958a8a0196875261087b61086060028a0161119c565b92828c019384528760038b01541699868d019a8b520161119c565b9660808b0197885281519b8c9b818d5251908c015251908a0152519188015260c0870190611139565b925116608085015251838203601f190160a0850152611139565b866108e28992865193849360e560020a62461bcd0285528401526024830190611139565b0390fd5b909192506013818103908111610a495760089080820291820403610a495760ff8082116109ee57600291820a8015610a335781807f01000000000000000000000000000000000000000000000000000000000000008093817fff000000000000000000000000000000000000000000000000000000000000009687928b0416021604166010908484848484041602169183858404160290838216918203610a1b570390828211610a045761099990611570565b8686029586048703610a0457906109c2949392918f1a6109b9878b611546565b53160216611570565b600182018092116109ee57906109df6109e593928c1a9186611546565b536112ae565b908a92916107c1565b60248b60118e60e060020a634e487b7102835252fd5b8f8f601160249260e060020a634e487b7102835252fd5b508f8f601160249260e060020a634e487b7102835252fd5b60248c60128f60e060020a634e487b7102835252fd5b60248a60118d60e060020a634e487b7102835252fd5b60248860418b60e060020a634e487b7102835252fd5b8480fd5b92915034610e415760a0366003190112610e415780359167ffffffffffffffff91602480359190604435858111610e3d57610ab790369084016110a4565b95606435600160a060020a0380821691828103610e3957608435898111610e35578883610ae8889336908b016110a4565b9d541681519283809260e260020a6304d3a46b028252338c8301525afa908d8215610e2a57610b279392610b219290610e135750611260565b846114d9565b610da957610b3486611649565b9990506001809a151503610d6457610b4d6003546112ae565b9687600355885194610b5e8661104d565b8552602080860191825289860192835260608601948552608086019c8d52978d526002808952988d2094518555518a850155518051848901918a8211610d4f57908d8392610bb4836101f38c9a9998975461115e565b8a91601f8411600114610cd457919083610cc9575b5050600882028b0a600019041916908a021790555b60038301915116600160a060020a0319825416179055019651918251958611610cb5575050610c1784610c11885461115e565b886112ed565b81601f8511600114610c5057508394508693610c45575b505082810292600802900a60001904191617905580f35b015191503880610c2e565b919084601f959495198116888a52848a20948a905b89838310610c9b5750505010610c80575b5050500201905580f35b01516008601f841602840a6000190419169055388080610c76565b858701518855909601959485019487935090810190610c65565b6041899160e060020a634e487b7102835252fd5b015190503880610bc9565b8c928f94928d601f1985169088855280852094905b828210610d205750508411610d05575b50505002019055610bde565b01516008601f841602840a6000190419169055388080610cf9565b93838594979a9b9c9d9e5081999396929850015181550195019301928f9491928c9a99989796938f958f610ce9565b868e60418a60e060020a634e487b7102835252fd5b606486601e8760208c519360e560020a62461bcd0285528401528201527f63656e74657220646f6573206e6f7420657869737420657869737420212100006044820152fd5b6084858560208a519260e560020a62461bcd028452830152808201527f4163746f72206964206f72206163636f756e7420616c7265616479206578697360448201527f74202121000000000000000000000000000000000000000000000000000000006064820152fd5b6105fe91508b3d8d1161039e5761038e8183611082565b8a51903d90823e3d90fd5b8b80fd5b8a80fd5b8780fd5b5050fd5b9291503461104957602036600319011261104957600160a060020a038383818388541660e260020a6304d3a46b028252338683015260249788915afa90811561103f5790610e999187916110285750611260565b610ea38235611649565b9360018095151503610fe4575083546000199290838101908111610fcf57610ecd610ed49161160e565b509261160e565b610fbb57828103610f89575b50505082548015610f74570192610ef68461160e565b929092610f615750506002818580935582848201610f14815461115e565b80610f23575b50505001555580f35b601f8111600114610f395750555b823880610f1a565b610f5490828452876020601f818720930104820191016112d6565b8160208120915555610f31565b85809160e060020a634e487b7102825252fd5b848660318560e060020a634e487b7102835252fd5b6002809184548155610f9f888601898301611332565b0192015416600160a060020a0319825416179055388080610ee0565b8688808760e060020a634e487b7102825252fd5b868860118760e060020a634e487b7102835252fd5b5160e560020a62461bcd0281526020818501526018818701527f63656e74657220646f6573206e6f7420657869737420212100000000000000006044820152606490fd5b6105fe9150853d871161039e5761038e8183611082565b84513d88823e3d90fd5b8380fd5b60a0810190811067ffffffffffffffff82111761106957604052565b60e060020a634e487b7102600052604160045260246000fd5b90601f8019910116810190811067ffffffffffffffff82111761106957604052565b81601f820112156110fb5780359067ffffffffffffffff821161106957604051926110d9601f8401601f191660200185611082565b828452602083830101116110fb57816000926020809301838601378301015290565b600080fd5b60243590600160a060020a03821682036110fb57565b60005b8381106111295750506000910152565b8181015183820152602001611119565b9060209161115281518092818552858086019101611116565b601f01601f1916010190565b9060016002830492168015611192575b602083101461117957565b60e060020a634e487b7102600052602260045260246000fd5b91607f169161116e565b90604051918260008254926111b08461115e565b90818452600194858116908160001461121f57506001146111dc575b50506111da92500383611082565b565b9093915060005260209081600020936000915b8183106112075750506111da935082010138806111cc565b855488840185015294850194879450918301916111ef565b9150506111da94506020925060ff1916828401521515810282010138806111cc565b91908260409103126110fb576020825192015180151581036110fb5790565b1561126757565b606460405160e560020a62461bcd02815260206004820152601a60248201527f43616c6c65722068617665206e6f74207065726d657373696f6e0000000000006044820152fd5b60001981146112bd5760010190565b60e060020a634e487b7102600052601160045260246000fd5b8181106112e1575050565b600081556001016112d6565b9190601f81116112fc57505050565b6111da92600052602060002090602080601f85010483019310611328575b601f602091010401906112d6565b909150819061131a565b9080821461140c57611344815461115e565b9067ffffffffffffffff8211611069578190611364826101f3865461115e565b600090601f831160011461139d57600092611392575b5050816002029160080260020a600019041916179055565b01549050388061137a565b81526020808220858352818320935090601f1985169083905b8282106113f357505091600293918560019694106113d8575b50505002019055565b01546008601f841602840a60001904191690553880806113cf565b84958192958501548155600180910196019401906113b6565b5050565b600380549160015b838111156114295750505050600090565b600081815260026020526040808220541591821561145d575b505061145657611451906112ae565b611418565b9250505090565b20840154600160a060020a0384811691161490503880611442565b60019060038054925b838111156114925750505050600090565b600081815260026020528260408581842054149283156114c2575b505050611456576114bd906112ae565b611481565b600160a060020a03935020015416158238806114ad565b6001916003918254935b848111156114f5575050505050600090565b60008181526002602052604083818320541491821561152b575b50506115235761151e906112ae565b6114e3565b935050505090565b20850154600160a060020a038581169116149050388061150f565b908151811015611557570160200190565b60e060020a634e487b7102600052603260045260246000fd5b60ff7f010000000000000000000000000000000000000000000000000000000000000080920416600a81106000146115d8576030019060ff82116112bd5760ff7fff000000000000000000000000000000000000000000000000000000000000009216021690565b6057019060ff82116112bd5760ff7fff000000000000000000000000000000000000000000000000000000000000009216021690565b600154811015611557576003906001600052027fb10e2d527612073b26eecdfd717e6a320cf44b4afac2b0732d9fcbe2b7fa0cf60190600090565b6001805460009392849290835b838110611666575b505050509190565b816116708261160e565b505414801561169c575b61168c57611687906112ae565b611656565b955050915050913880808061165e565b50600160a060020a0360026116b08361160e565b500154161561167a565b60018054600094938593919291845b8481106116da575b50505050509190565b816116e48261160e565b5054148015611712575b611700576116fb906112ae565b6116c9565b965050509150509138808080806116d1565b50600261171e8261160e565b500154600160a060020a038481169116146116ee565b9060015482101561177d576117488261160e565b5054906117796001600160a060020a03600261176d6117668861160e565b509761160e565b5001541693940161119c565b9190565b606460405160e560020a62461bcd02815260206004820152600e60248201527f57726f6e6720496e6465782021210000000000000000000000000000000000006044820152fdfea26469706673582212206ef67a0e7223c0f67b8086e328f205dd5105216a1b2fdfc713d1f0956e5c65bd64736f6c63430008110033",
  "immutableReferences": {},
  "source": "// SPDX-License-Identifier: GPL-3.0\r\npragma solidity >=0.7.0 <0.9.0;\r\n\r\nimport {HealthCenter} from  \"./HealthCenter.sol\";\r\n\r\n\r\n/** \r\n * @title HealthActor\r\n * @dev Implements actor methods\r\n */\r\ncontract HealthActor is HealthCenter {\r\n\r\n    struct actor {\r\n        uint id;\r\n        uint centerID;\r\n        string name;\r\n        address addr;\r\n        string public_key;\r\n    }\r\n\r\n    mapping (uint => actor) public actors;\r\n    uint256 public actorCount = 0; // pointer in the last element in the map\r\n\r\n    constructor (address authorityAddress) HealthCenter(authorityAddress){\r\n        // actorCount++;\r\n        // actors[actorCount] = actor(23, 11, \"badro\", address(0x6158ca8d2F4D51a88207C87c495E31079cb01c02), \"test_public_key\");\r\n        // actorCount++;\r\n        // actors[actorCount] = actor(25, 11, \"bilal\", address(0x275e9114f18A7751af2E743e181a50525af1b08a), \"test_public_key\");\r\n    }\r\n\r\n    function char(bytes1 b) internal pure returns (bytes1 c) {\r\n        if (uint8(b) < 10) return bytes1(uint8(b) + 0x30);\r\n        else return bytes1(uint8(b) + 0x57);\r\n    }\r\n\r\n    function toAsciiString(address x) internal pure returns (string memory) {\r\n        bytes memory s = new bytes(40);\r\n        for (uint i = 0; i < 20; i++) {\r\n            bytes1 b = bytes1(uint8(uint(uint160(x)) / (2**(8*(19 - i)))));\r\n            bytes1 hi = bytes1(uint8(b) / 16);\r\n            bytes1 lo = bytes1(uint8(b) - 16 * uint8(hi));\r\n            s[2*i] = char(hi);\r\n            s[2*i+1] = char(lo);            \r\n        }\r\n        return string(s);\r\n    }\r\n    \r\n    /**\r\n    * ////////////////////////////////////////////////////////////\r\n    *           PUBLIC METHODS FOR CONTRACT INTERFACE\r\n    * ////////////////////////////////////////////////////////////\r\n    */\r\n\r\n    function addHealthActor(uint _id, uint _centerID, string memory _name, address _account, string memory _pKey) public onlyAuthority{\r\n        uint index = checkHealthActor(_id, _account);\r\n        require(index == 0, \"Actor id or account already exist !!\");\r\n\r\n        ( , bool centerExist) = checkHealthCenter(_centerID, address(0));\r\n        require(centerExist==true, \"center does not exist exist !!\");\r\n\r\n        actorCount++;\r\n        actors[actorCount] = actor(_id, _centerID, _name, _account, _pKey);\r\n    }\r\n\r\n    function rmHealthActor(uint _id) public onlyAuthority{\r\n        uint index = checkHealthActor(_id, address(0));\r\n        require(index>0, \"Actor does not exist !!\");\r\n\r\n        actors[index] = actors[actorCount];\r\n        actorCount--;\r\n    }\r\n\r\n    // function to show if an actor exist\r\n    // exist : return index of actor\r\n    // n'exist pas : return 0\r\n    function checkHealthActor(uint _id, address _address) view public returns (uint) {\r\n        uint index = 1;\r\n        for (index; index <= actorCount; index++){\r\n            if (actors[index].id == _id || actors[index].addr == _address){\r\n                return index;\r\n            }\r\n        }\r\n        return 0;\r\n    }\r\n\r\n    \r\n    // function should be call only inside solidity\r\n    function getActor(address _address) view public returns (actor memory) {\r\n        uint index = checkHealthActor(0, _address);\r\n        require(index>0, string(abi.encodePacked(\"Actor does not exist !!\",toAsciiString(_address))));\r\n\r\n        return actors[index];\r\n    }\r\n\r\n    // return actor and center name \r\n    function getActorAndCenterName(uint _actorID) public view returns(string memory, string memory) {\r\n        // get actor name and center id\r\n        uint index = checkHealthActor(_actorID, address(0));\r\n        actor memory tmp = actors[index];\r\n        //get center name\r\n        (uint c_index, ) = checkHealthCenter(tmp.centerID, address(0));\r\n        (, string memory centerName,) = getCenterByIndex(c_index);\r\n        return (tmp.name, centerName);\r\n    }\r\n    \r\n}\r\n",
  "sourcePath": "F:\\ComputerScience\\projects\\PFE\\project\\2022-2023\\Blockchain-side\\contracts\\HealthActor.sol",
  "compiler": {
    "name": "solc",
    "version": "0.8.17+commit.8df45f5f.Emscripten.clang"
  },
  "schemaVersion": "3.4.11",
  "updatedAt": "2023-05-09T22:44:01.740Z",
  "networkType": "ethereum",
  "devdoc": {
    "details": "Implements actor methods",
    "kind": "dev",
    "methods": {},
    "title": "HealthActor",
    "version": 1
  },
  "userdoc": {
    "kind": "user",
    "methods": {
      "addHealthActor(uint256,uint256,string,address,string)": {
        "notice": "////////////////////////////////////////////////////////////           PUBLIC METHODS FOR CONTRACT INTERFACE ////////////////////////////////////////////////////////////"
      },
      "getNumberOfCenters()": {
        "notice": "////////////////////////////////////////////////////////////           PUBLIC METHODS FOR CONTRACT INTERFACE ////////////////////////////////////////////////////////////"
      }
    },
    "version": 1
  }
}