{
  "contractName": "HealthActor",
  "abi": [
    {
      "inputs": [
        {
          "internalType": "address",
          "name": "authorityAddress",
          "type": "address"
        }
      ],
      "stateMutability": "nonpayable",
      "type": "constructor"
    },
    {
      "inputs": [],
      "name": "actorCount",
      "outputs": [
        {
          "internalType": "uint256",
          "name": "",
          "type": "uint256"
        }
      ],
      "stateMutability": "view",
      "type": "function",
      "constant": true
    },
    {
      "inputs": [
        {
          "internalType": "uint256",
          "name": "",
          "type": "uint256"
        }
      ],
      "name": "actors",
      "outputs": [
        {
          "internalType": "uint256",
          "name": "id",
          "type": "uint256"
        },
        {
          "internalType": "uint256",
          "name": "centerID",
          "type": "uint256"
        },
        {
          "internalType": "string",
          "name": "name",
          "type": "string"
        },
        {
          "internalType": "address",
          "name": "addr",
          "type": "address"
        },
        {
          "internalType": "string",
          "name": "public_key",
          "type": "string"
        }
      ],
      "stateMutability": "view",
      "type": "function",
      "constant": true
    },
    {
      "inputs": [
        {
          "internalType": "uint256",
          "name": "_id",
          "type": "uint256"
        },
        {
          "internalType": "string",
          "name": "_name",
          "type": "string"
        },
        {
          "internalType": "address",
          "name": "_account",
          "type": "address"
        }
      ],
      "name": "addHealthCenter",
      "outputs": [],
      "stateMutability": "nonpayable",
      "type": "function"
    },
    {
      "inputs": [
        {
          "internalType": "uint256",
          "name": "_index",
          "type": "uint256"
        }
      ],
      "name": "getCenterByIndex",
      "outputs": [
        {
          "internalType": "uint256",
          "name": "",
          "type": "uint256"
        },
        {
          "internalType": "string",
          "name": "",
          "type": "string"
        },
        {
          "internalType": "address",
          "name": "",
          "type": "address"
        }
      ],
      "stateMutability": "view",
      "type": "function",
      "constant": true
    },
    {
      "inputs": [],
      "name": "getNumberOfCenters",
      "outputs": [
        {
          "internalType": "uint256",
          "name": "",
          "type": "uint256"
        }
      ],
      "stateMutability": "view",
      "type": "function",
      "constant": true
    },
    {
      "inputs": [
        {
          "internalType": "uint256",
          "name": "_id",
          "type": "uint256"
        }
      ],
      "name": "rmHealthCenter",
      "outputs": [],
      "stateMutability": "nonpayable",
      "type": "function"
    },
    {
      "inputs": [
        {
          "internalType": "uint256",
          "name": "_id",
          "type": "uint256"
        },
        {
          "internalType": "uint256",
          "name": "_centerID",
          "type": "uint256"
        },
        {
          "internalType": "string",
          "name": "_name",
          "type": "string"
        },
        {
          "internalType": "address",
          "name": "_account",
          "type": "address"
        },
        {
          "internalType": "string",
          "name": "_pKey",
          "type": "string"
        }
      ],
      "name": "addHealthActor",
      "outputs": [],
      "stateMutability": "nonpayable",
      "type": "function"
    },
    {
      "inputs": [
        {
          "internalType": "uint256",
          "name": "_id",
          "type": "uint256"
        }
      ],
      "name": "rmHealthActor",
      "outputs": [],
      "stateMutability": "nonpayable",
      "type": "function"
    },
    {
      "inputs": [
        {
          "internalType": "uint256",
          "name": "_id",
          "type": "uint256"
        },
        {
          "internalType": "address",
          "name": "_address",
          "type": "address"
        }
      ],
      "name": "checkHealthActor",
      "outputs": [
        {
          "internalType": "uint256",
          "name": "",
          "type": "uint256"
        }
      ],
      "stateMutability": "view",
      "type": "function",
      "constant": true
    },
    {
      "inputs": [
        {
          "internalType": "address",
          "name": "_address",
          "type": "address"
        }
      ],
      "name": "getActor",
      "outputs": [
        {
          "components": [
            {
              "internalType": "uint256",
              "name": "id",
              "type": "uint256"
            },
            {
              "internalType": "uint256",
              "name": "centerID",
              "type": "uint256"
            },
            {
              "internalType": "string",
              "name": "name",
              "type": "string"
            },
            {
              "internalType": "address",
              "name": "addr",
              "type": "address"
            },
            {
              "internalType": "string",
              "name": "public_key",
              "type": "string"
            }
          ],
          "internalType": "struct HealthActor.actor",
          "name": "",
          "type": "tuple"
        }
      ],
      "stateMutability": "view",
      "type": "function",
      "constant": true
    }
  ],
  "bytecode": "0x608060405260006003553480156200001657600080fd5b5060405162001ff338038062001ff3833981016040819052620000399162000392565b60008054600160a060020a038316600160a060020a031990911617815560408051606081018252600b815281518083018352600981527f6d792063656e746572000000000000000000000000000000000000000000000060208281019190915282019081529181018390526001805480820182559352805160039093027fb10e2d527612073b26eecdfd717e6a320cf44b4afac2b0732d9fcbe2b7fa0cf681019384559151849391927fb10e2d527612073b26eecdfd717e6a320cf44b4afac2b0732d9fcbe2b7fa0cf701906200011190826200049b565b506040919091015160029091018054600160a060020a031916600160a060020a0390921691909117905550600380549060006200014e836200056e565b90915550506040805160a08101825260178152600b602080830191825283518085018552600581527f626164726f00000000000000000000000000000000000000000000000000000081830152838501908152736158ca8d2f4d51a88207c87c495e31079cb01c02606085015284518086018652600f81527f746573745f7075626c69635f6b657900000000000000000000000000000000008184015260808501526003546000908152600292839052949094208351815591516001830155925191929091908201906200022390826200049b565b506060820151600382018054600160a060020a031916600160a060020a03909216919091179055608082015160048201906200026090826200049b565b5050600380549150600062000275836200056e565b90915550506040805160a08101825260198152600b602080830191825283518085018552600581527f62696c616c0000000000000000000000000000000000000000000000000000008183015283850190815273275e9114f18a7751af2e743e181a50525af1b08a606085015284518086018652600f81527f746573745f7075626c69635f6b657900000000000000000000000000000000008184015260808501526003546000908152600292839052949094208351815591516001830155925191929091908201906200034a90826200049b565b506060820151600382018054600160a060020a031916600160a060020a03909216919091179055608082015160048201906200038790826200049b565b5090505050620005af565b600060208284031215620003a557600080fd5b8151600160a060020a0381168114620003bd57600080fd5b9392505050565b7f4e487b7100000000000000000000000000000000000000000000000000000000600052604160045260246000fd5b6002810460018216806200040857607f821691505b60208210810362000442577f4e487b7100000000000000000000000000000000000000000000000000000000600052602260045260246000fd5b50919050565b601f82111562000496576000818152602081206020601f86010481016020861015620004715750805b6020601f860104820191505b8181101562000492578281556001016200047d565b5050505b505050565b815167ffffffffffffffff811115620004b857620004b8620003c4565b620004d081620004c98454620003f3565b8462000448565b602080601f8311600181146200050c5760008415620004ef5750858301515b60028086026008870290910a600019041982161786555062000492565b600085815260208120601f198616915b828110156200053d578886015182559484019460019091019084016200051c565b50858210156200055e57878501516008601f88160260020a60001904191681555b5050505050600202600101905550565b600060018201620005a8577f4e487b7100000000000000000000000000000000000000000000000000000000600052601160045260246000fd5b5060010190565b611a3480620005bf6000396000f3fe608060405234801561001057600080fd5b50600436106100bb576000357c0100000000000000000000000000000000000000000000000000000000900480639b7d75b7116100835780639b7d75b71461014c578063a2f7e84c1461016e578063a58c1c2614610181578063c5d78afb14610194578063ecd5b55d146101a757600080fd5b80632b1ca81d146100c05780632efc1713146100d55780634138d167146100e857806389421f5e1461011157806393c0e83a14610128575b600080fd5b6100d36100ce366004611185565b6101af565b005b6100d36100e336600461125b565b6103ac565b6100fb6100f63660046112e3565b6105f4565b6040516101089190611355565b60405180910390f35b61011a60035481565b604051908152602001610108565b61013b610136366004611185565b610801565b6040516101089594939291906113be565b61015f61015a366004611185565b610951565b6040516101089392919061140a565b6100d361017c366004611185565b610ac4565b61011a61018f36600461143c565b610c55565b6100d36101a2366004611468565b610cc5565b60015461011a565b6000805460405160e260020a6304d3a46b0281523360048201528291600160a060020a03169063134e91ac906024016040805180830381865afa1580156101fa573d6000803e3d6000fd5b505050506040513d601f19601f8201168201806040525081019061021e91906114bf565b915091508061024b5760405160e560020a62461bcd028152600401610242906114f4565b60405180910390fd5b600080610259856000610eb3565b90925090506001811515146102b35760405160e560020a62461bcd02815260206004820152601860248201527f63656e74657220646f6573206e6f7420657869737420212100000000000000006044820152606401610242565b600180546102c2908290611544565b815481106102d2576102d2611557565b9060005260206000209060030201600183815481106102f3576102f3611557565b60009182526020909120825460039092020190815560018082019061031a908401826115fc565b506002918201549101805473ffffffffffffffffffffffffffffffffffffffff1916600160a060020a03909216919091179055600180548061035e5761035e6116e3565b60008281526020812060036000199093019283020181815590610384600183018261112f565b50600201805473ffffffffffffffffffffffffffffffffffffffff1916905590555050505050565b6000805460405160e260020a6304d3a46b0281523360048201528291600160a060020a03169063134e91ac906024016040805180830381865afa1580156103f7573d6000803e3d6000fd5b505050506040513d601f19601f8201168201806040525081019061041b91906114bf565b915091508061043f5760405160e560020a62461bcd028152600401610242906114f4565b600061044b8886610c55565b905080156104c35760405160e560020a62461bcd028152602060048201526024808201527f4163746f72206964206f72206163636f756e7420616c7265616479206578697360448201527f74202121000000000000000000000000000000000000000000000000000000006064820152608401610242565b60006104d0886000610eb3565b9150506001811515146105285760405160e560020a62461bcd02815260206004820152601e60248201527f63656e74657220646f6573206e6f7420657869737420657869737420212100006044820152606401610242565b60038054906000610538836116fc565b90915550506040805160a0810182528a815260208082018b81528284018b8152600160a060020a038b166060850152608084018a9052600354600090815260029384905294909420835181559051600182015592519192919082019061059e9082611715565b50606082015160038201805473ffffffffffffffffffffffffffffffffffffffff1916600160a060020a03909216919091179055608082015160048201906105e69082611715565b505050505050505050505050565b61062f6040518060a001604052806000815260200160008152602001606081526020016000600160a060020a03168152602001606081525090565b600061063c600084610c55565b90506000811161064b84610f5e565b60405160200161065b91906117d5565b6040516020818303038152906040529061068b5760405160e560020a62461bcd028152600401610242919061181a565b50600260008281526020019081526020016000206040518060a001604052908160008201548152602001600182015481526020016002820180546106ce90611570565b80601f01602080910402602001604051908101604052809291908181526020018280546106fa90611570565b80156107475780601f1061071c57610100808354040283529160200191610747565b820191906000526020600020905b81548152906001019060200180831161072a57829003601f168201915b50505091835250506003820154600160a060020a0316602082015260048201805460409092019161077790611570565b80601f01602080910402602001604051908101604052809291908181526020018280546107a390611570565b80156107f05780601f106107c5576101008083540402835291602001916107f0565b820191906000526020600020905b8154815290600101906020018083116107d357829003601f168201915b505050505081525050915050919050565b60026020819052600091825260409091208054600182015492820180549193929161082b90611570565b80601f016020809104026020016040519081016040528092919081815260200182805461085790611570565b80156108a45780601f10610879576101008083540402835291602001916108a4565b820191906000526020600020905b81548152906001019060200180831161088757829003601f168201915b50505060038401546004850180549495600160a060020a039092169491935091506108ce90611570565b80601f01602080910402602001604051908101604052809291908181526020018280546108fa90611570565b80156109475780601f1061091c57610100808354040283529160200191610947565b820191906000526020600020905b81548152906001019060200180831161092a57829003601f168201915b5050505050905085565b600060608160015484106109aa5760405160e560020a62461bcd02815260206004820152600e60248201527f57726f6e6720496e6465782021210000000000000000000000000000000000006044820152606401610242565b600184815481106109bd576109bd611557565b906000526020600020906003020160000154600185815481106109e2576109e2611557565b906000526020600020906003020160010160018681548110610a0657610a06611557565b906000526020600020906003020160020160009054906101000a9004600160a060020a0316818054610a3790611570565b80601f0160208091040260200160405190810160405280929190818152602001828054610a6390611570565b8015610ab05780601f10610a8557610100808354040283529160200191610ab0565b820191906000526020600020905b815481529060010190602001808311610a9357829003601f168201915b505050505091509250925092509193909250565b6000805460405160e260020a6304d3a46b0281523360048201528291600160a060020a03169063134e91ac906024016040805180830381865afa158015610b0f573d6000803e3d6000fd5b505050506040513d601f19601f82011682018060405250810190610b3391906114bf565b9150915080610b575760405160e560020a62461bcd028152600401610242906114f4565b6000610b64846000610c55565b905060008111610bb95760405160e560020a62461bcd02815260206004820152601760248201527f4163746f7220646f6573206e6f742065786973742021210000000000000000006044820152606401610242565b6003546000908152600260208190526040808320848452922082548155600180840154908201559081810190610bf1908401826115fc565b50600382810154908201805473ffffffffffffffffffffffffffffffffffffffff1916600160a060020a03909216919091179055600480820190610c37908401826115fc565b50506003805491506000610c4a8361182d565b919050555050505050565b600060015b6003548111610cb957600081815260026020526040902054841480610c9b5750600081815260026020526040902060030154600160a060020a038481169116145b15610ca7579050610cbf565b80610cb1816116fc565b915050610c5a565b60009150505b92915050565b6000805460405160e260020a6304d3a46b0281523360048201528291600160a060020a03169063134e91ac906024016040805180830381865afa158015610d10573d6000803e3d6000fd5b505050506040513d601f19601f82011682018060405250810190610d3491906114bf565b9150915080610d585760405160e560020a62461bcd028152600401610242906114f4565b6000610d648685610eb3565b9150508015610dde5760405160e560020a62461bcd02815260206004820152602560248201527f63656e746572206964206f72206163636f756e7420616c72656164792065786960448201527f73742021210000000000000000000000000000000000000000000000000000006064820152608401610242565b6040805160608101825287815260208101878152600160a060020a03871692820192909252600180548082018255600091909152815160039091027fb10e2d527612073b26eecdfd717e6a320cf44b4afac2b0732d9fcbe2b7fa0cf681019182559251919290917fb10e2d527612073b26eecdfd717e6a320cf44b4afac2b0732d9fcbe2b7fa0cf790910190610e749082611715565b50604091909101516002909101805473ffffffffffffffffffffffffffffffffffffffff1916600160a060020a03909216919091179055505050505050565b60008060008060005b600154811015610f52578660018281548110610eda57610eda611557565b9060005260206000209060030201600001541480610f2f575085600160a060020a031660018281548110610f1057610f10611557565b6000918252602090912060026003909202010154600160a060020a0316145b15610f405760019150809250610f52565b80610f4a816116fc565b915050610ebc565b50909590945092505050565b60408051602880825260608281019093526000919060208201818036833701905050905060005b60148110156110e1576000610f9b826013611544565b610fa6906008611844565b610fb1906002611942565b610fc490600160a060020a038716611967565b60f860020a029050600060108260f860020a9004610fe2919061197b565b60f860020a02905060008160f860020a90046010611000919061199d565b6110109060f860020a85046119b9565b60f860020a029050611021826110e8565b8561102d866002611844565b8151811061103d5761103d611557565b60200101907effffffffffffffffffffffffffffffffffffffffffffffffffffffffffffff1916908160001a905350611075816110e8565b85611081866002611844565b61108c9060016119d2565b8151811061109c5761109c611557565b60200101907effffffffffffffffffffffffffffffffffffffffffffffffffffffffffffff1916908160001a90535050505080806110d9906116fc565b915050610f85565b5092915050565b6000600a60ff60f860020a84041610156111195761110d60f860020a830460306119e5565b60f860020a0292915050565b61110d60f860020a830460576119e5565b919050565b50805461113b90611570565b6000825580601f1061114b575050565b601f016020900490600052602060002090810190611169919061116c565b50565b5b80821115611181576000815560010161116d565b5090565b60006020828403121561119757600080fd5b5035919050565b60e060020a634e487b7102600052604160045260246000fd5b600082601f8301126111c857600080fd5b813567ffffffffffffffff808211156111e3576111e361119e565b604051601f8301601f19908116603f0116810190828211818310171561120b5761120b61119e565b8160405283815286602085880101111561122457600080fd5b836020870160208301376000602085830101528094505050505092915050565b8035600160a060020a038116811461112a57600080fd5b600080600080600060a0868803121561127357600080fd5b8535945060208601359350604086013567ffffffffffffffff8082111561129957600080fd5b6112a589838a016111b7565b94506112b360608901611244565b935060808801359150808211156112c957600080fd5b506112d6888289016111b7565b9150509295509295909350565b6000602082840312156112f557600080fd5b6112fe82611244565b9392505050565b60005b83811015611320578181015183820152602001611308565b50506000910152565b60008151808452611341816020860160208601611305565b601f01601f19169290920160200192915050565b6020815281516020820152602082015160408201526000604083015160a0606084015261138560c0840182611329565b9050600160a060020a0360608501511660808401526080840151601f198483030160a08501526113b58282611329565b95945050505050565b85815284602082015260a0604082015260006113dd60a0830186611329565b600160a060020a038516606084015282810360808401526113fe8185611329565b98975050505050505050565b8381526060602082015260006114236060830185611329565b9050600160a060020a0383166040830152949350505050565b6000806040838503121561144f57600080fd5b8235915061145f60208401611244565b90509250929050565b60008060006060848603121561147d57600080fd5b83359250602084013567ffffffffffffffff81111561149b57600080fd5b6114a7868287016111b7565b9250506114b660408501611244565b90509250925092565b600080604083850312156114d257600080fd5b82519150602083015180151581146114e957600080fd5b809150509250929050565b6020808252601a908201527f43616c6c65722068617665206e6f74207065726d657373696f6e000000000000604082015260600190565b60e060020a634e487b7102600052601160045260246000fd5b81810381811115610cbf57610cbf61152b565b60e060020a634e487b7102600052603260045260246000fd5b60028104600182168061158457607f821691505b6020821081036115a75760e060020a634e487b7102600052602260045260246000fd5b50919050565b601f8211156115f7576000818152602081206020601f860104810160208610156115d45750805b6020601f860104820191505b818110156115f3578281556001016115e0565b5050505b505050565b818103611607575050565b6116118254611570565b67ffffffffffffffff8111156116295761162961119e565b61163d816116378454611570565b846115ad565b6000601f82116001811461167557600083156116595750848201545b60028085026008860290910a60001904198216178555506116dc565b600085815260209020601f19841690600086815260209020845b838110156116af578286015482556001958601959091019060200161168f565b50858310156116cf57818501546008601f88160260020a60001904191681555b5050506001600284020184555b5050505050565b60e060020a634e487b7102600052603160045260246000fd5b60006001820161170e5761170e61152b565b5060010190565b815167ffffffffffffffff81111561172f5761172f61119e565b61173d816116378454611570565b602080601f831160018114611776576000841561175a5750858301515b60028086026008870290910a60001904198216178655506115f3565b600085815260208120601f198616915b828110156117a557888601518255948401946001909101908401611786565b50858210156117c557878501516008601f88160260020a60001904191681555b5050505050600202600101905550565b7f4163746f7220646f6573206e6f7420657869737420212100000000000000000081526000825161180d816017850160208701611305565b9190910160170192915050565b6020815260006112fe6020830184611329565b60008161183c5761183c61152b565b506000190190565b8082028115828204841417610cbf57610cbf61152b565b600181815b8085111561189857816000190482111561187c5761187c61152b565b8085161561188957918102915b60029094049390800290611860565b509250929050565b6000826118af57506001610cbf565b816118bc57506000610cbf565b81600181146118d257600281146118dc576118f9565b6001915050610cbf565b60ff8411156118ed576118ed61152b565b8360020a915050610cbf565b5060208310610133831016604e8410600b841016171561191c575081810a610cbf565b611926838361185b565b806000190482111561193a5761193a61152b565b029392505050565b60006112fe83836118a0565b60e060020a634e487b7102600052601260045260246000fd5b6000826119765761197661194e565b500490565b600060ff83168061198e5761198e61194e565b8060ff84160491505092915050565b60ff81811683821602908116908181146110e1576110e161152b565b60ff8281168282160390811115610cbf57610cbf61152b565b80820180821115610cbf57610cbf61152b565b60ff8181168382160190811115610cbf57610cbf61152b56fea2646970667358221220792d29f3b3537bfd914c573b78a7d4686eb375258d7402c4c99981aab8699f3d64736f6c63430008110033",
  "immutableReferences": {},
  "source": "// SPDX-License-Identifier: GPL-3.0\r\npragma solidity >=0.7.0 <0.9.0;\r\n\r\nimport {HealthCenter} from  \"./HealthCenter.sol\";\r\n\r\n\r\n/** \r\n * @title HealthActor\r\n * @dev Implements actor methods\r\n */\r\ncontract HealthActor is HealthCenter {\r\n\r\n    struct actor {\r\n        uint id;\r\n        uint centerID;\r\n        string name;\r\n        address addr;\r\n        string public_key;\r\n    }\r\n\r\n    mapping (uint => actor) public actors;\r\n    uint256 public actorCount = 0; // pointer in the last element in the map\r\n\r\n    constructor (address authorityAddress) HealthCenter(authorityAddress){\r\n        actorCount++;\r\n        actors[actorCount] = actor(23, 11, \"badro\", address(0x6158ca8d2F4D51a88207C87c495E31079cb01c02), \"test_public_key\");\r\n        actorCount++;\r\n        actors[actorCount] = actor(25, 11, \"bilal\", address(0x275e9114f18A7751af2E743e181a50525af1b08a), \"test_public_key\");\r\n    }\r\n\r\n    function char(bytes1 b) internal pure returns (bytes1 c) {\r\n        if (uint8(b) < 10) return bytes1(uint8(b) + 0x30);\r\n        else return bytes1(uint8(b) + 0x57);\r\n    }\r\n\r\n    function toAsciiString(address x) internal pure returns (string memory) {\r\n        bytes memory s = new bytes(40);\r\n        for (uint i = 0; i < 20; i++) {\r\n            bytes1 b = bytes1(uint8(uint(uint160(x)) / (2**(8*(19 - i)))));\r\n            bytes1 hi = bytes1(uint8(b) / 16);\r\n            bytes1 lo = bytes1(uint8(b) - 16 * uint8(hi));\r\n            s[2*i] = char(hi);\r\n            s[2*i+1] = char(lo);            \r\n        }\r\n        return string(s);\r\n    }\r\n    \r\n    /**\r\n    * ////////////////////////////////////////////////////////////\r\n    *           PUBLIC METHODS FOR CONTRACT INTERFACE\r\n    * ////////////////////////////////////////////////////////////\r\n    */\r\n\r\n    function addHealthActor(uint _id, uint _centerID, string memory _name, address _account, string memory _pKey) public onlyAuthority{\r\n        uint index = checkHealthActor(_id, _account);\r\n        require(index == 0, \"Actor id or account already exist !!\");\r\n\r\n        ( , bool centerExist) = checkHealthCenter(_centerID, address(0));\r\n        require(centerExist==true, \"center does not exist exist !!\");\r\n\r\n        actorCount++;\r\n        actors[actorCount] = actor(_id, _centerID, _name, _account, _pKey);\r\n    }\r\n\r\n    function rmHealthActor(uint _id) public onlyAuthority{\r\n        uint index = checkHealthActor(_id, address(0));\r\n        require(index>0, \"Actor does not exist !!\");\r\n\r\n        actors[index] = actors[actorCount];\r\n        actorCount--;\r\n    }\r\n\r\n    // function to show if an actor exist\r\n    // exist : return index of actor\r\n    // n'exist pas : return 0\r\n    function checkHealthActor(uint _id, address _address) view public returns (uint) {\r\n        uint index = 1;\r\n        for (index; index <= actorCount; index++){\r\n            if (actors[index].id == _id || actors[index].addr == _address){\r\n                return index;\r\n            }\r\n        }\r\n        return 0;\r\n    }\r\n\r\n    \r\n    // function should be call only inside solidity\r\n    function getActor(address _address) view public returns (actor memory) {\r\n        uint index = checkHealthActor(0, _address);\r\n        require(index>0, string(abi.encodePacked(\"Actor does not exist !!\",toAsciiString(_address))));\r\n\r\n        return actors[index];\r\n    }\r\n    \r\n}\r\n",
  "sourcePath": "F:\\ComputerScience\\projects\\PFE\\project\\2022-2023\\Blockchain-side\\contracts\\HealthActor.sol",
  "compiler": {
    "name": "solc",
    "version": "0.8.17+commit.8df45f5f.Emscripten.clang"
  },
  "schemaVersion": "3.4.11",
  "updatedAt": "2023-04-20T14:41:47.066Z",
  "networkType": "ethereum",
  "devdoc": {
    "details": "Implements actor methods",
    "kind": "dev",
    "methods": {},
    "title": "HealthActor",
    "version": 1
  },
  "userdoc": {
    "kind": "user",
    "methods": {
      "addHealthActor(uint256,uint256,string,address,string)": {
        "notice": "////////////////////////////////////////////////////////////           PUBLIC METHODS FOR CONTRACT INTERFACE ////////////////////////////////////////////////////////////"
      },
      "getNumberOfCenters()": {
        "notice": "////////////////////////////////////////////////////////////           PUBLIC METHODS FOR CONTRACT INTERFACE ////////////////////////////////////////////////////////////"
      }
    },
    "version": 1
  }
}