{
  "contractName": "HealthCenter",
  "abi": [
    {
      "inputs": [
        {
          "internalType": "address",
          "name": "AuthorityAddress",
          "type": "address"
        }
      ],
      "stateMutability": "nonpayable",
      "type": "constructor"
    },
    {
      "inputs": [
        {
          "internalType": "uint256",
          "name": "_id",
          "type": "uint256"
        },
        {
          "internalType": "address",
          "name": "_address",
          "type": "address"
        }
      ],
      "name": "checkHealthCenter",
      "outputs": [
        {
          "internalType": "uint256",
          "name": "",
          "type": "uint256"
        },
        {
          "internalType": "bool",
          "name": "",
          "type": "bool"
        }
      ],
      "stateMutability": "view",
      "type": "function"
    },
    {
      "inputs": [],
      "name": "getNumberOfCenters",
      "outputs": [
        {
          "internalType": "uint256",
          "name": "",
          "type": "uint256"
        }
      ],
      "stateMutability": "view",
      "type": "function"
    },
    {
      "inputs": [
        {
          "internalType": "uint256",
          "name": "_index",
          "type": "uint256"
        }
      ],
      "name": "getCenterByIndex",
      "outputs": [
        {
          "internalType": "uint256",
          "name": "",
          "type": "uint256"
        },
        {
          "internalType": "string",
          "name": "",
          "type": "string"
        },
        {
          "internalType": "address",
          "name": "",
          "type": "address"
        }
      ],
      "stateMutability": "view",
      "type": "function"
    },
    {
      "inputs": [
        {
          "internalType": "uint256",
          "name": "_id",
          "type": "uint256"
        },
        {
          "internalType": "string",
          "name": "_name",
          "type": "string"
        },
        {
          "internalType": "address",
          "name": "_account",
          "type": "address"
        }
      ],
      "name": "addHealthCenter",
      "outputs": [],
      "stateMutability": "nonpayable",
      "type": "function"
    },
    {
      "inputs": [
        {
          "internalType": "uint256",
          "name": "_id",
          "type": "uint256"
        }
      ],
      "name": "rmHealthCenter",
      "outputs": [],
      "stateMutability": "nonpayable",
      "type": "function"
    }
  ],
  "bytecode": "0x60803461007457610c3080380390601f19601f83011683019183831067ffffffffffffffff841117610079578084926020946040528339810103126100745751600160a060020a038116908190036100745760008054600160a060020a031916919091179055604051610b8790816100a98239f35b600080fd5b7f4e487b7100000000000000000000000000000000000000000000000000000000600052604160045260246000fdfe608060408181526004918236101561001657600080fd5b6000927c01000000000000000000000000000000000000000000000000000000008435049182632b1ca81d146105aa5750816382820a39146105635781639b7d75b7146103d3578163c5d78afb14610099575063ecd5b55d1461007857600080fd5b346100955781600319360112610095576020906001549051908152f35b5080fd5b838334610095576060366003190112610095576024908335823567ffffffffffffffff8082116103cf57366023830112156103cf5781870135918183116103ba57845192602090601f19926100f58385601f850116018761083e565b818652368983830101116103b657818a928a859301838901378601015260443596600160a060020a0396878916988981036103b257888b5416828d858251809481937f134e91ac00000000000000000000000000000000000000000000000000000000835233908301525afa9081156103a857610184929161017e918e91610379575b506109c1565b886108cd565b905061030f5780519660608801888110878211176102fa578252875282870195865286019788526001908154680100000000000000008110156102e55780836101cf92018455610879565b9790976102d15751875581870195519a8b519586116102bd5750506101fe846101f8875461095f565b87610a26565b8192601f85116001146102535750505081908798600296979892610248575b505060088202850a6000190419169084021790555b01915116600160a060020a031982541617905580f35b01519050888061021d565b8493929a919416858a528a8a209a8a905b8282106102a65750509160029798999a91848995941061028b575b50505002019055610232565b01516008601f841602840a600019041916905589808061027f565b8087869e8294978701518155019d01940190610264565b60418b9160e060020a634e487b7102835252fd5b5089808c60e060020a634e487b7102825252fd5b508960418c60e060020a634e487b7102835252fd5b838c60418f60e060020a634e487b7102835252fd5b8a91608493602592519360e560020a62461bcd0285528401528201527f63656e746572206964206f72206163636f756e7420616c72656164792065786960448201527f73742021210000000000000000000000000000000000000000000000000000006064820152fd5b6103999150853d87116103a1575b610391818361083e565b81019061099d565b90508f610178565b503d610387565b83513d8e823e3d90fd5b8a80fd5b8980fd5b858760418a60e060020a634e487b7102835252fd5b8580fd5b90508234610560576020928360031936011261009557823591600193845484101561051b575061040283610879565b505494600160a060020a0360026104248761041c88610879565b500196610879565b500154169383518096849083549361043b8561095f565b948585528683821691826000146104fa5750506001146104be575b505061046b925097959397949294038661083e565b80519586948552606084860152855193846060870152815b8581106104a757505060808096508486010152830152601f80199101168101030190f35b808801820151898201608001528896508101610483565b85925086528186209086915b8583106104e257505061046b93508201018980610456565b8054838c018501528a945086939092019181016104ca565b925093505061046b94915060ff191682840152151581028201018980610456565b6064908684519160e560020a62461bcd028352820152600e60248201527f57726f6e6720496e6465782021210000000000000000000000000000000000006044820152fd5b80fd5b9050346105a657816003193601126105a65760243590600160a060020a03821682036105a2579061059491356108cd565b825191825215156020820152f35b8380fd5b8280fd5b929150346105a25760203660031901126105a2578035600160a060020a03848481838954167f134e91ac000000000000000000000000000000000000000000000000000000008252338783015260249889915afa908115610834579061061691889161081557506109c1565b85908694879360019687918254965b8781106107ac575b50501515036107685750600019928084019081116107535761065161065891610879565b5092610879565b61073f5782810361070d575b505050825480156106f857019261067a84610879565b9290926106e55750506002818580935582848201610698815461095f565b806106a7575b50505001555580f35b601f81116001146106bd5750555b82388061069e565b6106d890828452876020601f81872093010482019101610a0f565b81602081209155556106b5565b85809160e060020a634e487b7102825252fd5b848660318560e060020a634e487b7102835252fd5b6002809184548155610723888601898301610a6d565b0192015416600160a060020a0319825416179055388080610664565b8688808760e060020a634e487b7102825252fd5b868860118760e060020a634e487b7102835252fd5b5160e560020a62461bcd0281526020818601526018818801527f63656e74657220646f6573206e6f7420657869737420212100000000000000006044820152606490fd5b90809293506107ba82610879565b50541480156107fe575b6107f15760001981146107dc57880190889291610625565b898b60118a60e060020a634e487b7102835252fd5b945050508580388061062d565b5084600261080b83610879565b50015416156107c4565b61082c9150863d88116103a157610391818361083e565b905038610178565b85513d89823e3d90fd5b90601f8019910116810190811067ffffffffffffffff82111761086057604052565b60e060020a634e487b7102600052604160045260246000fd5b6001548110156108b4576003906001600052027fb10e2d527612073b26eecdfd717e6a320cf44b4afac2b0732d9fcbe2b7fa0cf60190600090565b60e060020a634e487b7102600052603260045260246000fd5b60018054600094938593845b8381106108ea575b50505050509190565b816108f482610879565b505414801561093d575b61092b5760001981146109125784016108d9565b60e060020a634e487b7102600052601160045260246000fd5b965050505090509138808080806108e1565b50600261094982610879565b500154600160a060020a038481169116146108fe565b9060016002830492168015610993575b602083101461097a57565b60e060020a634e487b7102600052602260045260246000fd5b91607f169161096f565b91908260409103126109bc576020825192015180151581036109bc5790565b600080fd5b156109c857565b606460405160e560020a62461bcd02815260206004820152601a60248201527f43616c6c65722068617665206e6f74207065726d657373696f6e0000000000006044820152fd5b818110610a1a575050565b60008155600101610a0f565b9190601f8111610a3557505050565b610a6192600052602060002090602080601f85010483019310610a63575b601f60209101040190610a0f565b565b9091508190610a53565b90808214610b4d57610a7f815461095f565b9067ffffffffffffffff8211610860578190610aa582610a9f865461095f565b86610a26565b600090601f8311600114610ade57600092610ad3575b5050816002029160080260020a600019041916179055565b015490503880610abb565b81526020808220858352818320935090601f1985169083905b828210610b345750509160029391856001969410610b19575b50505002019055565b01546008601f841602840a6000190419169055388080610b10565b8495819295850154815560018091019601940190610af7565b505056fea264697066735822122048a1257cd3f307d755c6df2bee4da92ebbc8bc93cd5940f151ce986d7c7d8b1a64736f6c63430008110033",
  "immutableReferences": {},
  "source": "// SPDX-License-Identifier: GPL-3.0\r\npragma solidity >=0.7.0 <0.9.0;\r\n\r\n\r\nimport {HealthAuthority} from  \"./HealthAuthority.sol\";\r\n\r\n\r\n/** \r\n * @title HealthCenter\r\n * @dev Implements center methods\r\n */\r\ncontract HealthCenter {\r\n\r\n    HealthAuthority authority; // associated authority\r\n\r\n    struct center {\r\n        uint id;\r\n        string name;\r\n        address addr;\r\n    }\r\n\r\n    // array content all center\r\n    center[] centers;\r\n\r\n    modifier onlyAuthority() {\r\n        (uint index, bool exist) = authority.checkHealthAuthority(msg.sender);\r\n        require(exist, \"Caller have not permession\");\r\n        _;\r\n    } \r\n\r\n\r\n    constructor(address AuthorityAddress) {\r\n        authority = HealthAuthority(AuthorityAddress);\r\n        // centers.push(center(11, 'my center', address(0x0)));\r\n    }\r\n\r\n    function checkHealthCenter(uint _id, address _address) view public returns (uint, bool) {\r\n        uint index = 0;\r\n        bool exist = false;\r\n        for (uint i = 0; i < centers.length ; i++){\r\n            if (centers[i].id == _id || centers[i].addr == _address){\r\n                exist = true;\r\n                index = i;\r\n                break;\r\n            }\r\n        }\r\n        return (index, exist);\r\n    }\r\n    \r\n\r\n    /**\r\n    * ////////////////////////////////////////////////////////////\r\n    *           PUBLIC METHODS FOR CONTRACT INTERFACE\r\n    * ////////////////////////////////////////////////////////////\r\n    */\r\n\r\n    function getNumberOfCenters() view public returns (uint) {\r\n        uint len = centers.length;\r\n        return len;\r\n    }\r\n\r\n    function getCenterByIndex(uint _index) view public returns (uint, string memory, address) {\r\n        require(_index>=0 && _index<centers.length, \"Wrong Index !!\");\r\n        return (centers[_index].id, centers[_index].name, centers[_index].addr); \r\n    }\r\n\r\n    function addHealthCenter(uint _id, string memory _name, address _account) public onlyAuthority {\r\n        ( , bool exist) = checkHealthCenter(_id, _account);\r\n        require(exist==false, \"center id or account already exist !!\");\r\n\r\n        centers.push(center(_id, _name, _account));\r\n    }\r\n\r\n    function rmHealthCenter(uint _id) public onlyAuthority{\r\n        (uint index, bool exist) = checkHealthCenter(_id, address(0));\r\n        require(exist==true, \"center does not exist !!\");\r\n\r\n        centers[index] = centers[centers.length-1];\r\n        centers.pop();\r\n    }\r\n}",
  "sourcePath": "F:\\ComputerScience\\projects\\PFE\\project\\2022-2023\\Blockchain-side\\contracts\\HealthCenter.sol",
  "compiler": {
    "name": "solc",
    "version": "0.8.17+commit.8df45f5f.Emscripten.clang"
  },
  "schemaVersion": "3.4.11",
  "updatedAt": "2023-05-09T22:43:29.913Z",
  "devdoc": {
    "details": "Implements center methods",
    "kind": "dev",
    "methods": {},
    "title": "HealthCenter",
    "version": 1
  },
  "userdoc": {
    "kind": "user",
    "methods": {
      "getNumberOfCenters()": {
        "notice": "////////////////////////////////////////////////////////////           PUBLIC METHODS FOR CONTRACT INTERFACE ////////////////////////////////////////////////////////////"
      }
    },
    "version": 1
  }
}