{
  "contractName": "Patient",
  "abi": [
    {
      "inputs": [
        {
          "internalType": "address",
          "name": "authorityAddress",
          "type": "address"
        },
        {
          "internalType": "address",
          "name": "actorAddress",
          "type": "address"
        }
      ],
      "stateMutability": "nonpayable",
      "type": "constructor"
    },
    {
      "inputs": [
        {
          "internalType": "uint256",
          "name": "_id",
          "type": "uint256"
        },
        {
          "internalType": "address",
          "name": "_address",
          "type": "address"
        }
      ],
      "name": "checkPatient",
      "outputs": [
        {
          "internalType": "uint256",
          "name": "",
          "type": "uint256"
        },
        {
          "internalType": "bool",
          "name": "",
          "type": "bool"
        }
      ],
      "stateMutability": "view",
      "type": "function",
      "constant": true
    },
    {
      "inputs": [],
      "name": "getNumberOfPatient",
      "outputs": [
        {
          "internalType": "uint256",
          "name": "",
          "type": "uint256"
        }
      ],
      "stateMutability": "view",
      "type": "function",
      "constant": true
    },
    {
      "inputs": [
        {
          "internalType": "uint256",
          "name": "_index",
          "type": "uint256"
        }
      ],
      "name": "getPatientByIndex",
      "outputs": [
        {
          "internalType": "uint256",
          "name": "",
          "type": "uint256"
        },
        {
          "internalType": "string",
          "name": "",
          "type": "string"
        },
        {
          "internalType": "address",
          "name": "",
          "type": "address"
        }
      ],
      "stateMutability": "view",
      "type": "function",
      "constant": true
    },
    {
      "inputs": [
        {
          "internalType": "uint256",
          "name": "_id",
          "type": "uint256"
        },
        {
          "internalType": "string",
          "name": "_name",
          "type": "string"
        },
        {
          "internalType": "address",
          "name": "_account",
          "type": "address"
        }
      ],
      "name": "addPatient",
      "outputs": [],
      "stateMutability": "nonpayable",
      "type": "function"
    },
    {
      "inputs": [
        {
          "internalType": "uint256",
          "name": "_id",
          "type": "uint256"
        }
      ],
      "name": "rmPatient",
      "outputs": [],
      "stateMutability": "nonpayable",
      "type": "function"
    },
    {
      "inputs": [
        {
          "internalType": "uint256",
          "name": "_requestID",
          "type": "uint256"
        },
        {
          "internalType": "bool",
          "name": "_response",
          "type": "bool"
        }
      ],
      "name": "AuthorizationResponse",
      "outputs": [],
      "stateMutability": "nonpayable",
      "type": "function"
    },
    {
      "inputs": [
        {
          "internalType": "uint256",
          "name": "_ehrID",
          "type": "uint256"
        },
        {
          "internalType": "bool",
          "name": "_lastOne",
          "type": "bool"
        }
      ],
      "name": "getEHRbyOwner",
      "outputs": [
        {
          "components": [
            {
              "internalType": "uint256",
              "name": "actorID",
              "type": "uint256"
            },
            {
              "internalType": "enum EHR.EHRType",
              "name": "eType",
              "type": "uint8"
            },
            {
              "internalType": "string",
              "name": "hash",
              "type": "string"
            },
            {
              "internalType": "string",
              "name": "ipfsHashAddress",
              "type": "string"
            },
            {
              "internalType": "string",
              "name": "secretKey",
              "type": "string"
            }
          ],
          "internalType": "struct EHR.EHRAbstract",
          "name": "",
          "type": "tuple"
        },
        {
          "internalType": "uint256",
          "name": "",
          "type": "uint256"
        }
      ],
      "stateMutability": "view",
      "type": "function",
      "constant": true
    },
    {
      "inputs": [
        {
          "internalType": "uint256",
          "name": "_patientID",
          "type": "uint256"
        },
        {
          "internalType": "uint256",
          "name": "_ehrID",
          "type": "uint256"
        },
        {
          "internalType": "enum EHR.RequestType",
          "name": "_requestType",
          "type": "uint8"
        },
        {
          "internalType": "bool",
          "name": "_lastEHR",
          "type": "bool"
        }
      ],
      "name": "AuthorizationRequest",
      "outputs": [
        {
          "internalType": "uint256",
          "name": "",
          "type": "uint256"
        }
      ],
      "stateMutability": "nonpayable",
      "type": "function"
    },
    {
      "inputs": [
        {
          "internalType": "uint256",
          "name": "_patientID",
          "type": "uint256"
        },
        {
          "internalType": "uint256",
          "name": "_requestID",
          "type": "uint256"
        },
        {
          "internalType": "string",
          "name": "_hash",
          "type": "string"
        },
        {
          "internalType": "string",
          "name": "_ipfsAddr",
          "type": "string"
        },
        {
          "internalType": "string",
          "name": "_secretKey",
          "type": "string"
        }
      ],
      "name": "shareEHR",
      "outputs": [
        {
          "internalType": "uint256",
          "name": "",
          "type": "uint256"
        }
      ],
      "stateMutability": "nonpayable",
      "type": "function"
    },
    {
      "inputs": [
        {
          "internalType": "uint256",
          "name": "_patientID",
          "type": "uint256"
        },
        {
          "internalType": "uint256",
          "name": "_requestID",
          "type": "uint256"
        }
      ],
      "name": "getEHRbyRequest",
      "outputs": [
        {
          "components": [
            {
              "internalType": "uint256",
              "name": "actorID",
              "type": "uint256"
            },
            {
              "internalType": "enum EHR.EHRType",
              "name": "eType",
              "type": "uint8"
            },
            {
              "internalType": "string",
              "name": "hash",
              "type": "string"
            },
            {
              "internalType": "string",
              "name": "ipfsHashAddress",
              "type": "string"
            },
            {
              "internalType": "string",
              "name": "secretKey",
              "type": "string"
            }
          ],
          "internalType": "struct EHR.EHRAbstract",
          "name": "ehr",
          "type": "tuple"
        }
      ],
      "stateMutability": "view",
      "type": "function",
      "constant": true
    }
  ],
  "bytecode": "0x60806040523480156200001157600080fd5b50604051620043783803806200437883398181016040528101906200003791906200012a565b816000806101000a81548173ffffffffffffffffffffffffffffffffffffffff021916908373ffffffffffffffffffffffffffffffffffffffff16021790555080600160006101000a81548173ffffffffffffffffffffffffffffffffffffffff021916908373ffffffffffffffffffffffffffffffffffffffff160217905550505062000171565b600080fd5b600073ffffffffffffffffffffffffffffffffffffffff82169050919050565b6000620000f282620000c5565b9050919050565b6200010481620000e5565b81146200011057600080fd5b50565b6000815190506200012481620000f9565b92915050565b60008060408385031215620001445762000143620000c0565b5b6000620001548582860162000113565b9250506020620001678582860162000113565b9150509250929050565b6141f780620001816000396000f3fe608060405234801561001057600080fd5b506004361061009e5760003560e01c806357ea0c2f1161006657806357ea0c2f146101585780638b10a2f01461018a578063a7f391d2146101ba578063c4113ed3146101ea578063f0cd11f2146102085761009e565b806307f1683b146100a3578063189dd32d146100d35780631fed6dd6146100ef5780634053bbac1461010b57806349bf3afb14610127575b600080fd5b6100bd60048036038101906100b891906114fe565b610239565b6040516100ca91906115dc565b60405180910390f35b6100ed60048036038101906100e8919061162f565b610407565b005b610109600480360381019061010491906116cd565b610511565b005b6101256004803603810190610120919061173c565b6107a2565b005b610141600480360381019061013c9190611769565b610ab8565b60405161014f9291906117b8565b60405180910390f35b610172600480360381019061016d919061173c565b610ba5565b6040516101819392919061186f565b60405180910390f35b6101a4600480360381019061019f91906118d2565b610d28565b6040516101b191906115dc565b60405180910390f35b6101d460048036038101906101cf9190611939565b610ef2565b6040516101e19190611acd565b60405180910390f35b6101f26110bd565b6040516101ff91906115dc565b60405180910390f35b610222600480360381019061021d919061162f565b6110ca565b604051610230929190611aef565b60405180910390f35b6000806000610249886000610ab8565b915091508061028d576040517f08c379a000000000000000000000000000000000000000000000000000000000815260040161028490611b6b565b60405180910390fd5b6000600160009054906101000a900473ffffffffffffffffffffffffffffffffffffffff1673ffffffffffffffffffffffffffffffffffffffff1663cbd3638f336040518263ffffffff1660e01b81526004016102ea9190611b8b565b602060405180830381865afa158015610307573d6000803e3d6000fd5b505050506040513d601f19601f8201168201806040525081019061032b9190611bbb565b90506002838154811061034157610340611be8565b5b906000526020600020906004020160030160009054906101000a900473ffffffffffffffffffffffffffffffffffffffff1673ffffffffffffffffffffffffffffffffffffffff16631b669d3c898360018b8b8b6040518763ffffffff1660e01b81526004016103b696959493929190611c26565b6020604051808303816000875af11580156103d5573d6000803e3d6000fd5b505050506040513d601f19601f820116820180604052508101906103f99190611bbb565b935050505095945050505050565b600080610415600033610ab8565b9150915080610459576040517f08c379a000000000000000000000000000000000000000000000000000000000815260040161045090611d0e565b60405180910390fd5b6002828154811061046d5761046c611be8565b5b906000526020600020906004020160030160009054906101000a900473ffffffffffffffffffffffffffffffffffffffff1673ffffffffffffffffffffffffffffffffffffffff1663a9d51f5885856040518363ffffffff1660e01b81526004016104d99291906117b8565b600060405180830381600087803b1580156104f357600080fd5b505af1158015610507573d6000803e3d6000fd5b5050505050505050565b60008060008054906101000a900473ffffffffffffffffffffffffffffffffffffffff1673ffffffffffffffffffffffffffffffffffffffff1663134e91ac336040518263ffffffff1660e01b815260040161056d9190611b8b565b6040805180830381865afa158015610589573d6000803e3d6000fd5b505050506040513d601f19601f820116820180604052508101906105ad9190611d43565b91509150806105f1576040517f08c379a00000000000000000000000000000000000000000000000000000000081526004016105e890611dcf565b60405180910390fd5b6000806105fe8786610ab8565b915091506000151581151514610649576040517f08c379a000000000000000000000000000000000000000000000000000000000815260040161064090611e61565b60405180910390fd5b600260405180608001604052808981526020018881526020018773ffffffffffffffffffffffffffffffffffffffff16815260200160405161068a906112c3565b604051809103906000f0801580156106a6573d6000803e3d6000fd5b5073ffffffffffffffffffffffffffffffffffffffff168152509080600181540180825580915050600190039060005260206000209060040201600090919091909150600082015181600001556020820151816001019081610708919061208d565b5060408201518160020160006101000a81548173ffffffffffffffffffffffffffffffffffffffff021916908373ffffffffffffffffffffffffffffffffffffffff16021790555060608201518160030160006101000a81548173ffffffffffffffffffffffffffffffffffffffff021916908373ffffffffffffffffffffffffffffffffffffffff160217905550505050505050505050565b60008060008054906101000a900473ffffffffffffffffffffffffffffffffffffffff1673ffffffffffffffffffffffffffffffffffffffff1663134e91ac336040518263ffffffff1660e01b81526004016107fe9190611b8b565b6040805180830381865afa15801561081a573d6000803e3d6000fd5b505050506040513d601f19601f8201168201806040525081019061083e9190611d43565b9150915080610882576040517f08c379a000000000000000000000000000000000000000000000000000000000815260040161087990611dcf565b60405180910390fd5b600080610890856000610ab8565b9150915060011515811515146108db576040517f08c379a00000000000000000000000000000000000000000000000000000000081526004016108d290611b6b565b60405180910390fd5b600260016002805490506108ef919061218e565b81548110610900576108ff611be8565b5b90600052602060002090600402016002838154811061092257610921611be8565b5b9060005260206000209060040201600082015481600001556001820181600101908161094e91906121d8565b506002820160009054906101000a900473ffffffffffffffffffffffffffffffffffffffff168160020160006101000a81548173ffffffffffffffffffffffffffffffffffffffff021916908373ffffffffffffffffffffffffffffffffffffffff1602179055506003820160009054906101000a900473ffffffffffffffffffffffffffffffffffffffff168160030160006101000a81548173ffffffffffffffffffffffffffffffffffffffff021916908373ffffffffffffffffffffffffffffffffffffffff1602179055509050506002805480610a3257610a316122c0565b5b6001900381819060005260206000209060040201600080820160009055600182016000610a5f91906112d0565b6002820160006101000a81549073ffffffffffffffffffffffffffffffffffffffff02191690556003820160006101000a81549073ffffffffffffffffffffffffffffffffffffffff0219169055505090555050505050565b60008060008060005b600280549050811015610b95578660028281548110610ae357610ae2611be8565b5b9060005260206000209060040201600001541480610b7157508573ffffffffffffffffffffffffffffffffffffffff1660028281548110610b2757610b26611be8565b5b906000526020600020906004020160020160009054906101000a900473ffffffffffffffffffffffffffffffffffffffff1673ffffffffffffffffffffffffffffffffffffffff16145b15610b825760019150809250610b95565b8080610b8d906122ef565b915050610ac1565b5081819350935050509250929050565b600060606000808410158015610bbf575060028054905084105b610bfe576040517f08c379a0000000000000000000000000000000000000000000000000000000008152600401610bf590612383565b60405180910390fd5b60028481548110610c1257610c11611be8565b5b90600052602060002090600402016000015460028581548110610c3857610c37611be8565b5b906000526020600020906004020160010160028681548110610c5d57610c5c611be8565b5b906000526020600020906004020160020160009054906101000a900473ffffffffffffffffffffffffffffffffffffffff16818054610c9b90611eb0565b80601f0160208091040260200160405190810160405280929190818152602001828054610cc790611eb0565b8015610d145780601f10610ce957610100808354040283529160200191610d14565b820191906000526020600020905b815481529060010190602001808311610cf757829003601f168201915b505050505091509250925092509193909250565b600080600160009054906101000a900473ffffffffffffffffffffffffffffffffffffffff1673ffffffffffffffffffffffffffffffffffffffff1663cbd3638f336040518263ffffffff1660e01b8152600401610d869190611b8b565b602060405180830381865afa158015610da3573d6000803e3d6000fd5b505050506040513d601f19601f82011682018060405250810190610dc79190611bbb565b9050600080610dd7886000610ab8565b9150915080610e1b576040517f08c379a0000000000000000000000000000000000000000000000000000000008152600401610e1290611b6b565b60405180910390fd5b60028281548110610e2f57610e2e611be8565b5b906000526020600020906004020160030160009054906101000a900473ffffffffffffffffffffffffffffffffffffffff1673ffffffffffffffffffffffffffffffffffffffff16638c9ede63848989896040518563ffffffff1660e01b8152600401610e9f94939291906123eb565b6020604051808303816000875af1158015610ebe573d6000803e3d6000fd5b505050506040513d601f19601f82011682018060405250810190610ee29190611bbb565b5060009350505050949350505050565b610efa611310565b600080610f08856000610ab8565b9150915080610f4c576040517f08c379a0000000000000000000000000000000000000000000000000000000008152600401610f4390611b6b565b60405180910390fd5b6000600160009054906101000a900473ffffffffffffffffffffffffffffffffffffffff1673ffffffffffffffffffffffffffffffffffffffff1663cbd3638f336040518263ffffffff1660e01b8152600401610fa99190611b8b565b602060405180830381865afa158015610fc6573d6000803e3d6000fd5b505050506040513d601f19601f82011682018060405250810190610fea9190611bbb565b90506002838154811061100057610fff611be8565b5b906000526020600020906004020160030160009054906101000a900473ffffffffffffffffffffffffffffffffffffffff1673ffffffffffffffffffffffffffffffffffffffff166308ff4d7086836040518363ffffffff1660e01b815260040161106c929190612430565b600060405180830381865afa158015611089573d6000803e3d6000fd5b505050506040513d6000823e3d601f19601f820116820180604052508101906110b291906125d8565b935050505092915050565b6000600280549050905090565b6110d2611310565b60008060006110e2600033610ab8565b9150915080611126576040517f08c379a000000000000000000000000000000000000000000000000000000000815260040161111d90611b6b565b60405180910390fd5b84156111f057600282815481106111405761113f611be8565b5b906000526020600020906004020160030160009054906101000a900473ffffffffffffffffffffffffffffffffffffffff1673ffffffffffffffffffffffffffffffffffffffff1663742d575d6040518163ffffffff1660e01b8152600401600060405180830381865afa1580156111bc573d6000803e3d6000fd5b505050506040513d6000823e3d601f19601f820116820180604052508101906111e59190612621565b9350935050506112bc565b6002828154811061120457611203611be8565b5b906000526020600020906004020160030160009054906101000a900473ffffffffffffffffffffffffffffffffffffffff1673ffffffffffffffffffffffffffffffffffffffff16638f823dfe876040518263ffffffff1660e01b815260040161126e91906115dc565b600060405180830381865afa15801561128b573d6000803e3d6000fd5b505050506040513d6000823e3d601f19601f820116820180604052508101906112b491906125d8565b869350935050505b9250929050565b611b448061267e83390190565b5080546112dc90611eb0565b6000825580601f106112ee575061130d565b601f01602090049060005260206000209081019061130c9190611351565b5b50565b6040518060a00160405280600081526020016000600181111561133657611335611988565b5b81526020016060815260200160608152602001606081525090565b5b8082111561136a576000816000905550600101611352565b5090565b6000604051905090565b600080fd5b600080fd5b6000819050919050565b61139581611382565b81146113a057600080fd5b50565b6000813590506113b28161138c565b92915050565b600080fd5b600080fd5b6000601f19601f8301169050919050565b7f4e487b7100000000000000000000000000000000000000000000000000000000600052604160045260246000fd5b61140b826113c2565b810181811067ffffffffffffffff8211171561142a576114296113d3565b5b80604052505050565b600061143d61136e565b90506114498282611402565b919050565b600067ffffffffffffffff821115611469576114686113d3565b5b611472826113c2565b9050602081019050919050565b82818337600083830152505050565b60006114a161149c8461144e565b611433565b9050828152602081018484840111156114bd576114bc6113bd565b5b6114c884828561147f565b509392505050565b600082601f8301126114e5576114e46113b8565b5b81356114f584826020860161148e565b91505092915050565b600080600080600060a0868803121561151a57611519611378565b5b6000611528888289016113a3565b9550506020611539888289016113a3565b945050604086013567ffffffffffffffff81111561155a5761155961137d565b5b611566888289016114d0565b935050606086013567ffffffffffffffff8111156115875761158661137d565b5b611593888289016114d0565b925050608086013567ffffffffffffffff8111156115b4576115b361137d565b5b6115c0888289016114d0565b9150509295509295909350565b6115d681611382565b82525050565b60006020820190506115f160008301846115cd565b92915050565b60008115159050919050565b61160c816115f7565b811461161757600080fd5b50565b60008135905061162981611603565b92915050565b6000806040838503121561164657611645611378565b5b6000611654858286016113a3565b92505060206116658582860161161a565b9150509250929050565b600073ffffffffffffffffffffffffffffffffffffffff82169050919050565b600061169a8261166f565b9050919050565b6116aa8161168f565b81146116b557600080fd5b50565b6000813590506116c7816116a1565b92915050565b6000806000606084860312156116e6576116e5611378565b5b60006116f4868287016113a3565b935050602084013567ffffffffffffffff8111156117155761171461137d565b5b611721868287016114d0565b9250506040611732868287016116b8565b9150509250925092565b60006020828403121561175257611751611378565b5b6000611760848285016113a3565b91505092915050565b600080604083850312156117805761177f611378565b5b600061178e858286016113a3565b925050602061179f858286016116b8565b9150509250929050565b6117b2816115f7565b82525050565b60006040820190506117cd60008301856115cd565b6117da60208301846117a9565b9392505050565b600081519050919050565b600082825260208201905092915050565b60005b8381101561181b578082015181840152602081019050611800565b60008484015250505050565b6000611832826117e1565b61183c81856117ec565b935061184c8185602086016117fd565b611855816113c2565b840191505092915050565b6118698161168f565b82525050565b600060608201905061188460008301866115cd565b81810360208301526118968185611827565b90506118a56040830184611860565b949350505050565b600281106118ba57600080fd5b50565b6000813590506118cc816118ad565b92915050565b600080600080608085870312156118ec576118eb611378565b5b60006118fa878288016113a3565b945050602061190b878288016113a3565b935050604061191c878288016118bd565b925050606061192d8782880161161a565b91505092959194509250565b600080604083850312156119505761194f611378565b5b600061195e858286016113a3565b925050602061196f858286016113a3565b9150509250929050565b61198281611382565b82525050565b7f4e487b7100000000000000000000000000000000000000000000000000000000600052602160045260246000fd5b600281106119c8576119c7611988565b5b50565b60008190506119d9826119b7565b919050565b60006119e9826119cb565b9050919050565b6119f9816119de565b82525050565b600082825260208201905092915050565b6000611a1b826117e1565b611a2581856119ff565b9350611a358185602086016117fd565b611a3e816113c2565b840191505092915050565b600060a083016000830151611a616000860182611979565b506020830151611a7460208601826119f0565b5060408301518482036040860152611a8c8282611a10565b91505060608301518482036060860152611aa68282611a10565b91505060808301518482036080860152611ac08282611a10565b9150508091505092915050565b60006020820190508181036000830152611ae78184611a49565b905092915050565b60006040820190508181036000830152611b098185611a49565b9050611b1860208301846115cd565b9392505050565b7f70617469656e7420646f6573206e6f7420657869737420212100000000000000600082015250565b6000611b556019836117ec565b9150611b6082611b1f565b602082019050919050565b60006020820190508181036000830152611b8481611b48565b9050919050565b6000602082019050611ba06000830184611860565b92915050565b600081519050611bb58161138c565b92915050565b600060208284031215611bd157611bd0611378565b5b6000611bdf84828501611ba6565b91505092915050565b7f4e487b7100000000000000000000000000000000000000000000000000000000600052603260045260246000fd5b611c20816119de565b82525050565b600060c082019050611c3b60008301896115cd565b611c4860208301886115cd565b611c556040830187611c17565b8181036060830152611c678186611827565b90508181036080830152611c7b8185611827565b905081810360a0830152611c8f8184611827565b9050979650505050505050565b7f796f7520617265206e6f7420612070617469656e742c207065726d697373696f60008201527f6e2064656e696564202121000000000000000000000000000000000000000000602082015250565b6000611cf8602b836117ec565b9150611d0382611c9c565b604082019050919050565b60006020820190508181036000830152611d2781611ceb565b9050919050565b600081519050611d3d81611603565b92915050565b60008060408385031215611d5a57611d59611378565b5b6000611d6885828601611ba6565b9250506020611d7985828601611d2e565b9150509250929050565b7f43616c6c65722068617665206e6f74207065726d657373696f6e000000000000600082015250565b6000611db9601a836117ec565b9150611dc482611d83565b602082019050919050565b60006020820190508181036000830152611de881611dac565b9050919050565b7f70617469656e74206964206f72206163636f756e7420616c726561647920657860008201527f6973742021210000000000000000000000000000000000000000000000000000602082015250565b6000611e4b6026836117ec565b9150611e5682611def565b604082019050919050565b60006020820190508181036000830152611e7a81611e3e565b9050919050565b7f4e487b7100000000000000000000000000000000000000000000000000000000600052602260045260246000fd5b60006002820490506001821680611ec857607f821691505b602082108103611edb57611eda611e81565b5b50919050565b60008190508160005260206000209050919050565b60006020601f8301049050919050565b600082821b905092915050565b600060088302611f437fffffffffffffffffffffffffffffffffffffffffffffffffffffffffffffffff82611f06565b611f4d8683611f06565b95508019841693508086168417925050509392505050565b6000819050919050565b6000611f8a611f85611f8084611382565b611f65565b611382565b9050919050565b6000819050919050565b611fa483611f6f565b611fb8611fb082611f91565b848454611f13565b825550505050565b600090565b611fcd611fc0565b611fd8818484611f9b565b505050565b5b81811015611ffc57611ff1600082611fc5565b600181019050611fde565b5050565b601f8211156120415761201281611ee1565b61201b84611ef6565b8101602085101561202a578190505b61203e61203685611ef6565b830182611fdd565b50505b505050565b600082821c905092915050565b600061206460001984600802612046565b1980831691505092915050565b600061207d8383612053565b9150826002028217905092915050565b612096826117e1565b67ffffffffffffffff8111156120af576120ae6113d3565b5b6120b98254611eb0565b6120c4828285612000565b600060209050601f8311600181146120f757600084156120e5578287015190505b6120ef8582612071565b865550612157565b601f19841661210586611ee1565b60005b8281101561212d57848901518255600182019150602085019450602081019050612108565b8683101561214a5784890151612146601f891682612053565b8355505b6001600288020188555050505b505050505050565b7f4e487b7100000000000000000000000000000000000000000000000000000000600052601160045260246000fd5b600061219982611382565b91506121a483611382565b92508282039050818111156121bc576121bb61215f565b5b92915050565b6000815490506121d181611eb0565b9050919050565b8181036121e65750506122be565b6121ef826121c2565b67ffffffffffffffff811115612208576122076113d3565b5b6122128254611eb0565b61221d828285612000565b6000601f83116001811461224c576000841561223a578287015490505b6122448582612071565b8655506122b7565b601f19841661225a87611ee1565b965061226586611ee1565b60005b8281101561228d57848901548255600182019150600185019450602081019050612268565b868310156122aa57848901546122a6601f891682612053565b8355505b6001600288020188555050505b5050505050505b565b7f4e487b7100000000000000000000000000000000000000000000000000000000600052603160045260246000fd5b60006122fa82611382565b91507fffffffffffffffffffffffffffffffffffffffffffffffffffffffffffffffff820361232c5761232b61215f565b5b600182019050919050565b7f57726f6e6720696e646578212100000000000000000000000000000000000000600082015250565b600061236d600d836117ec565b915061237882612337565b602082019050919050565b6000602082019050818103600083015261239c81612360565b9050919050565b600281106123b4576123b3611988565b5b50565b60008190506123c5826123a3565b919050565b60006123d5826123b7565b9050919050565b6123e5816123ca565b82525050565b600060808201905061240060008301876115cd565b61240d60208301866115cd565b61241a60408301856123dc565b61242760608301846117a9565b95945050505050565b600060408201905061244560008301856115cd565b61245260208301846115cd565b9392505050565b600080fd5b600080fd5b6002811061247057600080fd5b50565b60008151905061248281612463565b92915050565b600061249b6124968461144e565b611433565b9050828152602081018484840111156124b7576124b66113bd565b5b6124c28482856117fd565b509392505050565b600082601f8301126124df576124de6113b8565b5b81516124ef848260208601612488565b91505092915050565b600060a0828403121561250e5761250d612459565b5b61251860a0611433565b9050600061252884828501611ba6565b600083015250602061253c84828501612473565b602083015250604082015167ffffffffffffffff8111156125605761255f61245e565b5b61256c848285016124ca565b604083015250606082015167ffffffffffffffff8111156125905761258f61245e565b5b61259c848285016124ca565b606083015250608082015167ffffffffffffffff8111156125c0576125bf61245e565b5b6125cc848285016124ca565b60808301525092915050565b6000602082840312156125ee576125ed611378565b5b600082015167ffffffffffffffff81111561260c5761260b61137d565b5b612618848285016124f8565b91505092915050565b6000806040838503121561263857612637611378565b5b600083015167ffffffffffffffff8111156126565761265561137d565b5b612662858286016124f8565b925050602061267385828601611ba6565b915050925092905056fe608060405234801561001057600080fd5b50611b24806100206000396000f3fe608060405234801561001057600080fd5b50600436106100885760003560e01c80638c9ede631161005b5780638c9ede631461013d5780638f823dfe1461016d578063a9d51f581461019d578063fb76c1fb146101b957610088565b806308ff4d701461008d5780631b669d3c146100bd57806340c57998146100ed578063742d575d1461011e575b600080fd5b6100a760048036038101906100a29190610f16565b6101e9565b6040516100b491906110f0565b60405180910390f35b6100d760048036038101906100d2919061126c565b610508565b6040516100e4919061135c565b60405180910390f35b61010760048036038101906101029190611377565b610759565b6040516101159291906113bf565b60405180910390f35b6101266107b3565b6040516101349291906113e8565b60405180910390f35b61015760048036038101906101529190611469565b610a4b565b604051610164919061135c565b60405180910390f35b61018760048036038101906101829190611377565b610b56565b60405161019491906110f0565b60405180910390f35b6101b760048036038101906101b291906114d0565b610dd5565b005b6101d360048036038101906101ce9190611377565b610e69565b6040516101e09190611510565b60405180910390f35b6101f1610e8b565b6000806101fd85610759565b9150915081801561020b5750805b61024a576040517f08c379a0000000000000000000000000000000000000000000000000000000008152600401610241906115ae565b60405180910390fd5b836000868154811061025f5761025e6115ce565b5b906000526020600020906004020160000154146102b1576040517f08c379a00000000000000000000000000000000000000000000000000000000081526004016102a890611649565b60405180910390fd5b6001600086815481106102c7576102c66115ce565b5b906000526020600020906004020160010154815481106102ea576102e96115ce565b5b90600052602060002090600502016040518060a0016040529081600082015481526020016001820160009054906101000a900460ff16600181111561033257610331610f65565b5b600181111561034457610343610f65565b5b815260200160028201805461035890611698565b80601f016020809104026020016040519081016040528092919081815260200182805461038490611698565b80156103d15780601f106103a6576101008083540402835291602001916103d1565b820191906000526020600020905b8154815290600101906020018083116103b457829003601f168201915b505050505081526020016003820180546103ea90611698565b80601f016020809104026020016040519081016040528092919081815260200182805461041690611698565b80156104635780601f1061043857610100808354040283529160200191610463565b820191906000526020600020905b81548152906001019060200180831161044657829003601f168201915b5050505050815260200160048201805461047c90611698565b80601f01602080910402602001604051908101604052809291908181526020018280546104a890611698565b80156104f55780601f106104ca576101008083540402835291602001916104f5565b820191906000526020600020905b8154815290600101906020018083116104d857829003601f168201915b5050505050815250509250505092915050565b600080600061051689610759565b915091508180156105245750805b610563576040517f08c379a000000000000000000000000000000000000000000000000000000000815260040161055a906115ae565b60405180910390fd5b8760008a81548110610578576105776115ce565b5b906000526020600020906004020160000154146105ca576040517f08c379a00000000000000000000000000000000000000000000000000000000081526004016105c190611649565b60405180910390fd5b600060018111156105de576105dd610f65565b5b60008a815481106105f2576105f16115ce565b5b906000526020600020906004020160020160009054906101000a900460ff16600181111561062357610622610f65565b5b14610663576040517f08c379a000000000000000000000000000000000000000000000000000000000815260040161065a90611649565b60405180910390fd5b600180549050925060016040518060a001604052808a815260200189600181111561069157610690610f65565b5b81526020018881526020018781526020018681525090806001815401808255809150506001900390600052602060002090600502016000909190919091506000820151816000015560208201518160010160006101000a81548160ff0219169083600181111561070457610703610f65565b5b0217905550604082015181600201908161071e9190611875565b5060608201518160030190816107349190611875565b50608082015181600401908161074a9190611875565b50505050509695505050505050565b6000806000808460008054905011156107a6576001915060008581548110610784576107836115ce565b5b906000526020600020906004020160020160019054906101000a900460ff1690505b8181935093505050915091565b6107bb610e8b565b60008060018054905011610804576040517f08c379a00000000000000000000000000000000000000000000000000000000081526004016107fb90611993565b60405180910390fd5b6001808054905061081591906119e2565b90506001818154811061082b5761082a6115ce565b5b906000526020600020906005020181816040518060a0016040529081600082015481526020016001820160009054906101000a900460ff16600181111561087557610874610f65565b5b600181111561088757610886610f65565b5b815260200160028201805461089b90611698565b80601f01602080910402602001604051908101604052809291908181526020018280546108c790611698565b80156109145780601f106108e957610100808354040283529160200191610914565b820191906000526020600020905b8154815290600101906020018083116108f757829003601f168201915b5050505050815260200160038201805461092d90611698565b80601f016020809104026020016040519081016040528092919081815260200182805461095990611698565b80156109a65780601f1061097b576101008083540402835291602001916109a6565b820191906000526020600020905b81548152906001019060200180831161098957829003601f168201915b505050505081526020016004820180546109bf90611698565b80601f01602080910402602001604051908101604052809291908181526020018280546109eb90611698565b8015610a385780601f10610a0d57610100808354040283529160200191610a38565b820191906000526020600020905b815481529060010190602001808311610a1b57829003601f168201915b5050505050815250509150915091509091565b600080600080549050905060008315610a725760018080549050610a6f91906119e2565b95505b60006040518060a00160405280898152602001888152602001876001811115610a9e57610a9d610f65565b5b8152602001831515815260200160008152509080600181540180825580915050600190039060005260206000209060040201600090919091909150600082015181600001556020820151816001015560408201518160020160006101000a81548160ff02191690836001811115610b1857610b17610f65565b5b021790555060608201518160020160016101000a81548160ff0219169083151502179055506080820151816003015550508192505050949350505050565b610b5e610e8b565b610b6782610e69565b610ba6576040517f08c379a0000000000000000000000000000000000000000000000000000000008152600401610b9d90611a62565b60405180910390fd5b60018281548110610bba57610bb96115ce565b5b90600052602060002090600502016040518060a0016040529081600082015481526020016001820160009054906101000a900460ff166001811115610c0257610c01610f65565b5b6001811115610c1457610c13610f65565b5b8152602001600282018054610c2890611698565b80601f0160208091040260200160405190810160405280929190818152602001828054610c5490611698565b8015610ca15780601f10610c7657610100808354040283529160200191610ca1565b820191906000526020600020905b815481529060010190602001808311610c8457829003601f168201915b50505050508152602001600382018054610cba90611698565b80601f0160208091040260200160405190810160405280929190818152602001828054610ce690611698565b8015610d335780601f10610d0857610100808354040283529160200191610d33565b820191906000526020600020905b815481529060010190602001808311610d1657829003601f168201915b50505050508152602001600482018054610d4c90611698565b80601f0160208091040260200160405190810160405280929190818152602001828054610d7890611698565b8015610dc55780601f10610d9a57610100808354040283529160200191610dc5565b820191906000526020600020905b815481529060010190602001808311610da857829003601f168201915b5050505050815250509050919050565b600080610de184610759565b9150915081610e25576040517f08c379a0000000000000000000000000000000000000000000000000000000008152600401610e1c90611ace565b60405180910390fd5b600160008581548110610e3b57610e3a6115ce565b5b906000526020600020906004020160020160016101000a81548160ff02191690831515021790555050505050565b6000816001805490501115610e815760019050610e86565b600090505b919050565b6040518060a001604052806000815260200160006001811115610eb157610eb0610f65565b5b81526020016060815260200160608152602001606081525090565b6000604051905090565b600080fd5b600080fd5b6000819050919050565b610ef381610ee0565b8114610efe57600080fd5b50565b600081359050610f1081610eea565b92915050565b60008060408385031215610f2d57610f2c610ed6565b5b6000610f3b85828601610f01565b9250506020610f4c85828601610f01565b9150509250929050565b610f5f81610ee0565b82525050565b7f4e487b7100000000000000000000000000000000000000000000000000000000600052602160045260246000fd5b60028110610fa557610fa4610f65565b5b50565b6000819050610fb682610f94565b919050565b6000610fc682610fa8565b9050919050565b610fd681610fbb565b82525050565b600081519050919050565b600082825260208201905092915050565b60005b83811015611016578082015181840152602081019050610ffb565b60008484015250505050565b6000601f19601f8301169050919050565b600061103e82610fdc565b6110488185610fe7565b9350611058818560208601610ff8565b61106181611022565b840191505092915050565b600060a0830160008301516110846000860182610f56565b5060208301516110976020860182610fcd565b50604083015184820360408601526110af8282611033565b915050606083015184820360608601526110c98282611033565b915050608083015184820360808601526110e38282611033565b9150508091505092915050565b6000602082019050818103600083015261110a818461106c565b905092915050565b6002811061111f57600080fd5b50565b60008135905061113181611112565b92915050565b600080fd5b600080fd5b7f4e487b7100000000000000000000000000000000000000000000000000000000600052604160045260246000fd5b61117982611022565b810181811067ffffffffffffffff8211171561119857611197611141565b5b80604052505050565b60006111ab610ecc565b90506111b78282611170565b919050565b600067ffffffffffffffff8211156111d7576111d6611141565b5b6111e082611022565b9050602081019050919050565b82818337600083830152505050565b600061120f61120a846111bc565b6111a1565b90508281526020810184848401111561122b5761122a61113c565b5b6112368482856111ed565b509392505050565b600082601f83011261125357611252611137565b5b81356112638482602086016111fc565b91505092915050565b60008060008060008060c0878903121561128957611288610ed6565b5b600061129789828a01610f01565b96505060206112a889828a01610f01565b95505060406112b989828a01611122565b945050606087013567ffffffffffffffff8111156112da576112d9610edb565b5b6112e689828a0161123e565b935050608087013567ffffffffffffffff81111561130757611306610edb565b5b61131389828a0161123e565b92505060a087013567ffffffffffffffff81111561133457611333610edb565b5b61134089828a0161123e565b9150509295509295509295565b61135681610ee0565b82525050565b6000602082019050611371600083018461134d565b92915050565b60006020828403121561138d5761138c610ed6565b5b600061139b84828501610f01565b91505092915050565b60008115159050919050565b6113b9816113a4565b82525050565b60006040820190506113d460008301856113b0565b6113e160208301846113b0565b9392505050565b60006040820190508181036000830152611402818561106c565b9050611411602083018461134d565b9392505050565b6002811061142557600080fd5b50565b60008135905061143781611418565b92915050565b611446816113a4565b811461145157600080fd5b50565b6000813590506114638161143d565b92915050565b6000806000806080858703121561148357611482610ed6565b5b600061149187828801610f01565b94505060206114a287828801610f01565b93505060406114b387828801611428565b92505060606114c487828801611454565b91505092959194509250565b600080604083850312156114e7576114e6610ed6565b5b60006114f585828601610f01565b925050602061150685828601611454565b9150509250929050565b600060208201905061152560008301846113b0565b92915050565b600082825260208201905092915050565b7f5265717565737420646f6573206e6f74206578697374206f7220646f6573206e60008201527f6f74206163636570746564202121000000000000000000000000000000000000602082015250565b6000611598602e8361152b565b91506115a38261153c565b604082019050919050565b600060208201905081810360008301526115c78161158b565b9050919050565b7f4e487b7100000000000000000000000000000000000000000000000000000000600052603260045260246000fd5b7f7065726d697373696f6e2064656e696564202121000000000000000000000000600082015250565b600061163360148361152b565b915061163e826115fd565b602082019050919050565b6000602082019050818103600083015261166281611626565b9050919050565b7f4e487b7100000000000000000000000000000000000000000000000000000000600052602260045260246000fd5b600060028204905060018216806116b057607f821691505b6020821081036116c3576116c2611669565b5b50919050565b60008190508160005260206000209050919050565b60006020601f8301049050919050565b600082821b905092915050565b60006008830261172b7fffffffffffffffffffffffffffffffffffffffffffffffffffffffffffffffff826116ee565b61173586836116ee565b95508019841693508086168417925050509392505050565b6000819050919050565b600061177261176d61176884610ee0565b61174d565b610ee0565b9050919050565b6000819050919050565b61178c83611757565b6117a061179882611779565b8484546116fb565b825550505050565b600090565b6117b56117a8565b6117c0818484611783565b505050565b5b818110156117e4576117d96000826117ad565b6001810190506117c6565b5050565b601f821115611829576117fa816116c9565b611803846116de565b81016020851015611812578190505b61182661181e856116de565b8301826117c5565b50505b505050565b600082821c905092915050565b600061184c6000198460080261182e565b1980831691505092915050565b6000611865838361183b565b9150826002028217905092915050565b61187e82610fdc565b67ffffffffffffffff81111561189757611896611141565b5b6118a18254611698565b6118ac8282856117e8565b600060209050601f8311600181146118df57600084156118cd578287015190505b6118d78582611859565b86555061193f565b601f1984166118ed866116c9565b60005b82811015611915578489015182556001820191506020850194506020810190506118f0565b86831015611932578489015161192e601f89168261183b565b8355505b6001600288020188555050505b505050505050565b7f6e6f7420657869737420616e7920454852202121000000000000000000000000600082015250565b600061197d60148361152b565b915061198882611947565b602082019050919050565b600060208201905081810360008301526119ac81611970565b9050919050565b7f4e487b7100000000000000000000000000000000000000000000000000000000600052601160045260246000fd5b60006119ed82610ee0565b91506119f883610ee0565b9250828203905081811115611a1057611a0f6119b3565b5b92915050565b7f45485220646f6573206e6f742065786973742021210000000000000000000000600082015250565b6000611a4c60158361152b565b9150611a5782611a16565b602082019050919050565b60006020820190508181036000830152611a7b81611a3f565b9050919050565b7f5265717565737420646f6573206e6f7420657869737420212100000000000000600082015250565b6000611ab860198361152b565b9150611ac382611a82565b602082019050919050565b60006020820190508181036000830152611ae781611aab565b905091905056fea26469706673582212204fa637ec7faebc643effed3075c29ef507a20241806940c9c9dbbe3c6c998e3464736f6c63430008110033a2646970667358221220072ae90f39a71c9ad34c46fd7e013964c96d9a39d3c983a2ba06160cfa20105564736f6c63430008110033",
  "immutableReferences": {},
  "source": "// SPDX-License-Identifier: GPL-3.0\r\n\r\npragma solidity >=0.7.0 <0.9.0;\r\n\r\nimport {EHR} from \"./EHR.sol\";\r\nimport {HealthAuthority} from \"./HealthAuthority.sol\";\r\nimport {HealthActor} from \"./HealthActor.sol\";\r\n\r\n\r\n/** \r\n * @title Patient\r\n * @dev Implements Patient methods\r\n */\r\ncontract Patient {\r\n\r\n    HealthAuthority authority;\r\n    HealthActor actor;\r\n\r\n    struct patient{\r\n        uint id;\r\n        string name;\r\n        address addr;\r\n        EHR ehr;\r\n    }\r\n    patient[] patients;\r\n\r\n    modifier isAccount() {\r\n        (uint index, bool exist) = authority.checkHealthAuthority(msg.sender);\r\n        require(exist, \"Caller have not permession\");\r\n        _;\r\n    }\r\n\r\n    constructor(address authorityAddress, address actorAddress){\r\n        authority = HealthAuthority(authorityAddress);\r\n        actor = HealthActor(actorAddress);\r\n    }\r\n\r\n\r\n    /**\r\n    * ///////////////////////////////////////////////////////////////////////\r\n    *         PUBLIC METHODS FOR REGISTRATION PURPOSE (Authority only)\r\n    * ///////////////////////////////////////////////////////////////////////\r\n    */\r\n    function checkPatient(uint _id, address _address) view public returns (uint, bool) {\r\n        uint index = 0;\r\n        bool exist = false;\r\n        for (uint i = 0; i < patients.length ; i++){\r\n            if (patients[i].id == _id || patients[i].addr == _address){\r\n                exist = true;\r\n                index = i;\r\n                break;\r\n            }\r\n        }\r\n        return (index, exist);\r\n    }\r\n\r\n    function getNumberOfPatient() public view returns(uint) {\r\n        return patients.length;\r\n    }\r\n\r\n    function getPatientByIndex(uint _index) public view returns(uint, string memory, address) {\r\n        require(_index >= 0 && _index < patients.length, \"Wrong index!!\");\r\n\r\n        return (patients[_index].id, patients[_index].name, patients[_index].addr);\r\n    }\r\n\r\n    function addPatient(uint _id, string memory _name, address _account) public isAccount{\r\n        (uint index, bool exist) = checkPatient(_id, _account);\r\n        require(exist==false, \"patient id or account already exist !!\");\r\n\r\n        patients.push(patient(_id, _name, _account, new EHR()));\r\n    }\r\n\r\n    function rmPatient(uint _id) public isAccount{\r\n        (uint index, bool exist) = checkPatient(_id, address(0));\r\n        require(exist==true, \"patient does not exist !!\");\r\n\r\n        patients[index] = patients[patients.length-1];\r\n        patients.pop();\r\n    }\r\n\r\n\r\n    /**\r\n    * ///////////////////////////////////////////////////////////////////////\r\n    *           PUBLIC METHODS FOR EHR PUBLISH PURPOSE (Patient only)\r\n    * ///////////////////////////////////////////////////////////////////////\r\n    */\r\n\r\n    /** \r\n     * @dev Response to a request from associated patient.\r\n     * @param _requestID the request id \r\n     */\r\n    function AuthorizationResponse(uint _requestID, bool _response) public {\r\n        // check if this is trusted patient \r\n        (uint index, bool exist) = checkPatient(0, msg.sender);\r\n        require(exist, \"you are not a patient, permission denied !!\");\r\n\r\n        // response to request \r\n        patients[index].ehr.setResponse(_requestID, _response);\r\n\r\n        // event to actor\r\n    }\r\n\r\n    function getEHRbyOwner(uint _ehrID, bool _lastOne) view public returns (EHR.EHRAbstract memory, uint){\r\n        (uint index, bool exist) = checkPatient(0, msg.sender);\r\n        require(exist, \"patient does not exist !!\");\r\n\r\n        if (_lastOne) {\r\n            return patients[index].ehr.getLastEHR();\r\n        }\r\n        else {\r\n            return (patients[index].ehr.getEHRAbstract(_ehrID), _ehrID);\r\n        }\r\n    }\r\n\r\n\r\n    /**\r\n    * ///////////////////////////////////////////////////////////////////////\r\n    *           PUBLIC METHODS FOR EHR PUBLISH PURPOSE (Actor only)\r\n    * ///////////////////////////////////////////////////////////////////////\r\n    */\r\n\r\n    /** \r\n     * @dev Create a new request from an actor.\r\n     * @param _patientID and the request type and ehrID\r\n     */\r\n    function AuthorizationRequest(uint _patientID, uint _ehrID, EHR.RequestType _requestType, bool _lastEHR) public returns (uint){\r\n        // check if caller is actor\r\n        uint actorID = actor.getActorID(msg.sender);\r\n\r\n        // check if patient exist \r\n        (uint index, bool exist) = checkPatient(_patientID, address(0));\r\n        require(exist, \"patient does not exist !!\");\r\n\r\n        patients[index].ehr.setRequest(actorID, _ehrID,  _requestType, _lastEHR);\r\n\r\n        // event to patient\r\n\r\n        return 0; // return the requestID\r\n    }\r\n\r\n    function shareEHR(uint _patientID, uint _requestID, string memory _hash, string memory _ipfsAddr, string memory _secretKey ) public returns (uint) {\r\n        // check if patient exist \r\n        (uint index, bool exist) = checkPatient(_patientID, address(0));\r\n        require(exist, \"patient does not exist !!\");\r\n\r\n        // check if actor exist and get the actor id\r\n        uint actorID = actor.getActorID(msg.sender);\r\n       \r\n        return patients[index].ehr.addEHRAbstract(_requestID, actorID, EHR.EHRType.SCANNER, _hash, _ipfsAddr, _secretKey);\r\n    }   \r\n\r\n    function getEHRbyRequest(uint _patientID, uint _requestID) view public returns (EHR.EHRAbstract memory ehr) {\r\n        // check if patient exist \r\n        (uint index, bool exist) = checkPatient(_patientID, address(0));\r\n        require(exist, \"patient does not exist !!\");\r\n\r\n        // check if actor exist and get the actor id\r\n        uint actorID = actor.getActorID(msg.sender);\r\n\r\n        return patients[index].ehr.getEHRbyActor(_requestID, actorID);\r\n    }   \r\n\r\n}\r\n",
  "sourcePath": "F:\\ComputerScience\\projects\\PFE\\tutorial\\truffle projects\\EHR Share System\\contracts\\Patient.sol",
  "compiler": {
    "name": "solc",
    "version": "0.8.17+commit.8df45f5f.Emscripten.clang"
  },
  "schemaVersion": "3.4.11",
  "updatedAt": "2023-02-21T09:15:57.118Z",
  "networkType": "ethereum",
  "devdoc": {
    "details": "Implements Patient methods",
    "kind": "dev",
    "methods": {
      "AuthorizationRequest(uint256,uint256,uint8,bool)": {
        "details": "Create a new request from an actor.",
        "params": {
          "_patientID": "and the request type and ehrID"
        }
      },
      "AuthorizationResponse(uint256,bool)": {
        "details": "Response to a request from associated patient.",
        "params": {
          "_requestID": "the request id "
        }
      }
    },
    "title": "Patient",
    "version": 1
  },
  "userdoc": {
    "kind": "user",
    "methods": {
      "checkPatient(uint256,address)": {
        "notice": "///////////////////////////////////////////////////////////////////////         PUBLIC METHODS FOR REGISTRATION PURPOSE (Authority only) ///////////////////////////////////////////////////////////////////////"
      }
    },
    "version": 1
  }
}