{
  "contractName": "Patient",
  "abi": [
    {
      "inputs": [
        {
          "internalType": "address",
          "name": "authorityAddress",
          "type": "address"
        },
        {
          "internalType": "address",
          "name": "actorAddress",
          "type": "address"
        }
      ],
      "stateMutability": "nonpayable",
      "type": "constructor"
    },
    {
      "inputs": [
        {
          "internalType": "uint256",
          "name": "_id",
          "type": "uint256"
        },
        {
          "internalType": "address",
          "name": "_address",
          "type": "address"
        }
      ],
      "name": "checkPatient",
      "outputs": [
        {
          "internalType": "uint256",
          "name": "",
          "type": "uint256"
        },
        {
          "internalType": "bool",
          "name": "",
          "type": "bool"
        }
      ],
      "stateMutability": "view",
      "type": "function",
      "constant": true
    },
    {
      "inputs": [],
      "name": "getNumberOfPatient",
      "outputs": [
        {
          "internalType": "uint256",
          "name": "",
          "type": "uint256"
        }
      ],
      "stateMutability": "view",
      "type": "function",
      "constant": true
    },
    {
      "inputs": [
        {
          "internalType": "uint256",
          "name": "_index",
          "type": "uint256"
        }
      ],
      "name": "getPatientByIndex",
      "outputs": [
        {
          "internalType": "uint256",
          "name": "",
          "type": "uint256"
        },
        {
          "internalType": "string",
          "name": "",
          "type": "string"
        },
        {
          "internalType": "address",
          "name": "",
          "type": "address"
        }
      ],
      "stateMutability": "view",
      "type": "function",
      "constant": true
    },
    {
      "inputs": [],
      "name": "getNumberOfRequest",
      "outputs": [
        {
          "internalType": "uint256",
          "name": "",
          "type": "uint256"
        }
      ],
      "stateMutability": "view",
      "type": "function",
      "constant": true
    },
    {
      "inputs": [
        {
          "internalType": "uint256",
          "name": "_requestID",
          "type": "uint256"
        }
      ],
      "name": "getRequestByIndex",
      "outputs": [
        {
          "internalType": "string",
          "name": "",
          "type": "string"
        },
        {
          "internalType": "uint256",
          "name": "",
          "type": "uint256"
        },
        {
          "internalType": "enum EHR.RequestType",
          "name": "",
          "type": "uint8"
        },
        {
          "internalType": "enum EHR.RequestState",
          "name": "",
          "type": "uint8"
        },
        {
          "internalType": "string",
          "name": "",
          "type": "string"
        }
      ],
      "stateMutability": "view",
      "type": "function",
      "constant": true
    },
    {
      "inputs": [
        {
          "internalType": "uint256",
          "name": "_requestID",
          "type": "uint256"
        },
        {
          "internalType": "enum EHR.RequestState",
          "name": "_newState",
          "type": "uint8"
        }
      ],
      "name": "setResponse",
      "outputs": [],
      "stateMutability": "nonpayable",
      "type": "function"
    },
    {
      "inputs": [
        {
          "internalType": "uint256",
          "name": "_patientID",
          "type": "uint256"
        },
        {
          "internalType": "enum EHR.RequestType",
          "name": "_type",
          "type": "uint8"
        }
      ],
      "name": "verifyAuthorization",
      "outputs": [
        {
          "internalType": "enum EHR.RequestState",
          "name": "",
          "type": "uint8"
        },
        {
          "internalType": "uint256",
          "name": "",
          "type": "uint256"
        }
      ],
      "stateMutability": "view",
      "type": "function",
      "constant": true
    },
    {
      "inputs": [
        {
          "internalType": "uint256",
          "name": "_patientID",
          "type": "uint256"
        },
        {
          "internalType": "enum EHR.RequestType",
          "name": "_requestType",
          "type": "uint8"
        }
      ],
      "name": "sendRequest",
      "outputs": [
        {
          "internalType": "bool",
          "name": "",
          "type": "bool"
        }
      ],
      "stateMutability": "nonpayable",
      "type": "function"
    },
    {
      "inputs": [
        {
          "internalType": "uint256",
          "name": "_patientID",
          "type": "uint256"
        }
      ],
      "name": "getNbOfEHR",
      "outputs": [
        {
          "internalType": "uint256",
          "name": "",
          "type": "uint256"
        }
      ],
      "stateMutability": "view",
      "type": "function",
      "constant": true
    },
    {
      "inputs": [
        {
          "internalType": "uint256",
          "name": "_ehrID",
          "type": "uint256"
        },
        {
          "internalType": "uint256",
          "name": "_patientID",
          "type": "uint256"
        }
      ],
      "name": "getEHR",
      "outputs": [
        {
          "internalType": "string",
          "name": "",
          "type": "string"
        },
        {
          "internalType": "uint256",
          "name": "",
          "type": "uint256"
        },
        {
          "internalType": "string",
          "name": "",
          "type": "string"
        },
        {
          "internalType": "string",
          "name": "",
          "type": "string"
        },
        {
          "internalType": "string",
          "name": "",
          "type": "string"
        },
        {
          "internalType": "string",
          "name": "",
          "type": "string"
        },
        {
          "internalType": "string",
          "name": "",
          "type": "string"
        }
      ],
      "stateMutability": "view",
      "type": "function",
      "constant": true
    },
    {
      "inputs": [
        {
          "internalType": "uint256",
          "name": "_patientID",
          "type": "uint256"
        },
        {
          "internalType": "uint256",
          "name": "_requestID",
          "type": "uint256"
        },
        {
          "internalType": "string",
          "name": "_title",
          "type": "string"
        },
        {
          "internalType": "string",
          "name": "_hash",
          "type": "string"
        },
        {
          "internalType": "string",
          "name": "_ipfsAddr",
          "type": "string"
        },
        {
          "internalType": "string",
          "name": "_secretKey",
          "type": "string"
        }
      ],
      "name": "shareEHR",
      "outputs": [],
      "stateMutability": "nonpayable",
      "type": "function"
    },
    {
      "inputs": [
        {
          "internalType": "uint256",
          "name": "_id",
          "type": "uint256"
        },
        {
          "internalType": "string",
          "name": "_name",
          "type": "string"
        },
        {
          "internalType": "address",
          "name": "_account",
          "type": "address"
        },
        {
          "internalType": "string",
          "name": "_pKey",
          "type": "string"
        }
      ],
      "name": "addPatient",
      "outputs": [],
      "stateMutability": "nonpayable",
      "type": "function"
    },
    {
      "inputs": [
        {
          "internalType": "uint256",
          "name": "_id",
          "type": "uint256"
        }
      ],
      "name": "rmPatient",
      "outputs": [],
      "stateMutability": "nonpayable",
      "type": "function"
    }
  ],
  "bytecode": "0x6080346200009657620032b580380390601f19601f83011683019183831067ffffffffffffffff8411176200009b57808492604094855283398101031262000096576200005a60206200005283620000ca565b9201620000ca565b60008054600160a060020a03938416600160a060020a031991821617909155600180549290931691161790556040516131d59081620000e08239f35b600080fd5b7f4e487b7100000000000000000000000000000000000000000000000000000000600052604160045260246000fd5b5190600160a060020a0382168203620000965756fe604060c081526004608052600436101561001857600080fd5b60009060a08281527c010000000000000000000000000000000000000000000000000000000083350480633f2c0e35146112cb5780634053bbac146110d257806349bf3afb1461109157806357ea0c2f14610f3a5780636d052b3714610d7357806397a444e214610cd557806398ad1b9514610b8a5780639b4fd9a614610a88578063bb68e82614610922578063c4113ed314610902578063d45d373914610704578063dbbe7c21146102545763e28d73a0146100d457600080fd5b34610250576100e2366113f7565b90600160a060020a03806001541685519060e060020a634138d16702825233608051830152816024818851935afa908115610244579061012c91865191610223575b50519261159e565b156101dc5760209261018595949260036101476044946114b9565b50015416875196879485937f23c3147300000000000000000000000000000000000000000000000000000000855260805185015260248401906113c4565b8551905af19081156101d057506101a1575b6020825160018152f35b602090813d81116101c9575b6101b7818361141b565b810103126101c55781610197565b5080fd5b503d6101ad565b8351903d9051823e3d90fd5b6064865160e560020a62461bcd0281526020608051820152601960248201527f50617469656e7420646f6573206e6f74206578697374202121000000000000006044820152fd5b61023e913d8091833e610236818361141b565b810190611793565b38610124565b865186513d90823e3d90fd5b5180fd5b5091346106ff5760803660031901126106ff576080518035906024359067ffffffffffffffff82116106fa5761028c91369101611472565b9260443593600160a060020a038516918286036106f65760643567ffffffffffffffff81116106f1576102c490369060805101611472565b95602482600160a060020a038a5154168151928380927f134e91ac000000000000000000000000000000000000000000000000000000008252336080518301525afa9081156106e55761032a9291610324918b51916106b6575b50611e12565b85611600565b9050610649578051936111b7948581019581871067ffffffffffffffff88111761062f57611fe9823980895196039086f094851561062457508151958887019087821067ffffffffffffffff83111761060c575082528552602085019182528401918252600160a060020a03606085019316835260808401948552600254680100000000000000008110156105d8578060016103c992016002556114b9565b9490946105f2575184555180519067ffffffffffffffff82116105d8578190610402826103f9600189015461167e565b60018901611e77565b875190602091601f8411600114610567575088519261055c575b5050816002029160080260020a6000190419161760018401555b600160a060020a036002840191511690600160a060020a03199182825416179055600160a060020a03600384019251169082541617905560805101905180519067ffffffffffffffff821161054257819061049b82610495865461167e565b86611e77565b845190602091601f84116001146104da57508551926104cf575b5050816002029160080260020a6000190419161790555180f35b0151905038806104b5565b8590528551602081209350601f198516905b81811061052a5750916002939185600196941061050f575b505050020190555180f35b01516008601f841602840a6000190419169055388080610504565b929360206001819287860151815501950193016104ec565b60248460e060020a634e487b710281515260416080515251fd5b01519050388061041c565b60018801905288516020812093505b601f19851681106105c05750918391600293600195601f198116106105a5575b50505002016001840155610436565b01516008601f841602840a6000190419169055388080610596565b91926020600181928685015181550194019201610576565b60248760e060020a634e487b710281515260416080515251fd5b60248760e060020a634e487b710281515280516080515251fd5b8060e060020a634e487b710260249252604160805152fd5b8251903d90823e3d90fd5b60248a60e060020a634e487b710281515260416080515251fd5b6084905160e560020a62461bcd0281526020608051820152602660248201527f70617469656e74206964206f72206163636f756e7420616c726561647920657860448201527f69737420212100000000000000000000000000000000000000000000000000006064820152fd5b6106d69150853d87116106de575b6106ce818361141b565b810190611df3565b90503861031e565b503d6106c4565b83518a513d90823e3d90fd5b875180fd5b8480fd5b855180fd5b825180fd5b509190346106ff576003199060c0368301126108fd5767ffffffffffffffff916044358381116106fa5761073d90369060805101611472565b906064358481116108f85761075790369060805101611472565b916084358581116106f15761077190369060805101611472565b9160a4359586116106f15761078e6107a296369060805101611472565b61079a6080513561159e565b979097611919565b600160a060020a03602481600154168b89519283809260e060020a634138d1670282523360805183015251935afa908b82156108ec5761088293600361080061084e989560209c9b9a98956108739551916108d3575b50519d6114b9565b50015416966108638b519c8d9a8b998a997f1c00a8cb000000000000000000000000000000000000000000000000000000008b526024356080518c015260c060248c015260c48b019061139f565b9160448a0152868983030160648a015261139f565b908487830301608488015261139f565b918483030160a485015261139f565b03918851905af19081156108c8575061089a57825180f35b602090813d81116108c1575b6108b0818361141b565b810103126108be5780825180f35b80fd5b503d6108a6565b5184513d90823e3d90fd5b6108e6913d8091833e610236818361141b565b386107f8565b8951903d9051823e3d90fd5b865180fd5b835180fd5b5034610250575190816003193601126101c5576020906002549051908152f35b50346102505761093b610934366113f7565b919061159e565b15610a4157600160a060020a03806001541685519060e060020a634138d16702825233608051830152816024818851935afa908115610244579285949260036109956044948a976109d39a5191610a28575b5051936114b9565b50015416845196879485937fb0d23b0900000000000000000000000000000000000000000000000000000000855260805185015260248401906113c4565b5afa9081156101d057519182916109f9575b506109f2835180936113ea565b6020820152f35b9050610a1b9150823d8411610a21575b610a13818361141b565b810190611836565b836109e5565b503d610a09565b610a3b913d8091833e610236818361141b565b8b61098d565b6064845160e560020a62461bcd0281526020608051820152601f60248201527f546869732070617469656e7420646f6573206e6f7420657869737420212120006044820152fd5b509034610b8557602092836003193601126106ff57610aaa3360805135611600565b15610b3e576003610ac2600160a060020a03926114b9565b500154169084835180937f7cd7710d00000000000000000000000000000000000000000000000000000000825281608051915afa9384156101d0575193610b0c575b505051908152f35b909192508382813d8311610b37575b610b25818361141b565b810103126108be575051903880610b04565b503d610b1b565b60648584519060e560020a62461bcd028252608051820152601e60248201527f546869732070617469656e7420646f6573206e6f7420657869737420212100006044820152fd5b505180fd5b509034610b855780600319360112610b8557602435906080518210156106ff57610bb33361150d565b15610c68576003610bcb600160a060020a03926114b9565b50015416803b156108fd57610c128251937f98ad1b9500000000000000000000000000000000000000000000000000000000855260805180359086015260248501906113ea565b82604481865180945af18015610c5c57610c2b57825180f35b67ffffffffffffffff8211610c4257528180825180f35b60248360e060020a634e487b710281515260416080515251fd5b815184513d90823e3d90fd5b6084825160e560020a62461bcd0281526020608051820152602b60248201527f796f7520617265206e6f7420612070617469656e742c207065726d697373696f60448201527f6e2064656e6965642021210000000000000000000000000000000000000000006064820152fd5b5034610250578160031936011261025057610d6f610d46610d61610d2793610d38610d5487610d0960243560805135611967565b9b959098939196949294519e8f9e8f9260e0845260e084019061139f565b93602083015281840391015261139f565b908a820360608c015261139f565b9088820360808a015261139f565b918683039087015261139f565b9083820360c085015261139f565b0390f35b509034610b85576020366003190112610b855760249160036080610da9610da4610d9c3361150d565b9190916116bc565b6114b9565b50600160a060020a039283910154168451958680927f6d052b3700000000000000000000000000000000000000000000000000000000825284518035908301525afa928315610f2e57825193849285968692610ec9575b50600154168251957faf653207000000000000000000000000000000000000000000000000000000008752608051870152856024818751935afa9182156108c8578451958693610e92575b5090610e7b610d6f95969783610e6d610e8595519a8a8c9b8c528b019061139f565b9660208a01528801906113c4565b60608601906113ea565b838203608085015261139f565b610e8592919350610ebc610e7b91610d6f97983d8091833e610eb4818361141b565b81019061174f565b9097965093919250610e4b565b935094505093506080813d608011610f26575b81610ee96080938361141b565b81010312610b855780519360208201519381830151926002841015610f21576060015195608051871015610f21579492959087610e00565b845180fd5b3d9150610edc565b5191513d9150823e3d90fd5b50346102505760209182600319360112610b85576080513560025481101561104a57610f65816114b9565b505492610f71826114b9565b509085600160a060020a036002610f8c6001809601966114b9565b5001541693855193835193825492610fa38461167e565b808852938381169081156110275750600114610fed575b505050505090610fcf81610fe593038261141b565b606084519687968752860152606085019061139f565b918301520390f35b81515251838120939450925b828410611014575050508201018582610fe5610fcf8a610fba565b8054868501860152928401928101610ff9565b60ff191686890152505050501515810283010190508582610fe5610fcf8a610fba565b60648483519060e560020a62461bcd028252608051820152600d60248201527f57726f6e6720696e6465782121000000000000000000000000000000000000006044820152fd5b503461025057816003193601126102505760243590600160a060020a038216820361025057506110c49060805135611600565b825191825215156020820152f35b509034610b85576020366003190112610b8557600160a060020a0360248282855154168151928380927f134e91ac000000000000000000000000000000000000000000000000000000008252336080518301525afa9081156112bd57611142929385519261129e575b5050611e12565b600161115e6111536080513561159e565b929092151514611919565b600291825491600019928381019081116112845761117e611185916114b9565b50916114b9565b91909161126a57808203611210575b505050815480156111f65701906111aa826114b9565b6111dc576111d790845181556111c260018201611f9c565b84518084830155600382015560805101611f9c565b555180f35b60248460e060020a634e487b710281515280516080515251fd5b60248460e060020a634e487b710281515260316080515251fd5b61126292815483556112286001830160018501611ebe565b85830181878401541690600160a060020a031991828254161790556003840191600384015416908254161790556080518091019101611ebe565b838080611194565b60248660e060020a634e487b710281515280516080515251fd5b60248660e060020a634e487b710281515260116080515251fd5b6112b49250803d106106de576106ce818361141b565b9050848061113b565b50505051903d9051823e3d90fd5b5091346108be57806003193601126108be5750600160a060020a0360036112f7610da4610d9c3361150d565b50015416906020815180937f3f2c0e3500000000000000000000000000000000000000000000000000000000825281608051915afa918215610c5c57835192611345575b6020838351908152f35b9091506020813d8211611374575b816113606020938361141b565b810103126106ff576020925051903861133b565b3d9150611353565b60005b83811061138f5750506000910152565b818101518382015260200161137f565b906020916113b88151809281855285808601910161137c565b601f01601f1916010190565b9060028210156113d15752565b60e060020a634e487b7102600052602160045260246000fd5b9060048210156113d15752565b6040906003190112611416576004359060243560028110156114165790565b600080fd5b90601f8019910116810190811067ffffffffffffffff82111761143d57604052565b60e060020a634e487b7102600052604160045260246000fd5b67ffffffffffffffff811161143d57601f01601f191660200190565b81601f820112156114165780359061148982611456565b92611497604051948561141b565b8284526020838301011161141657816000926020809301838601378301015290565b6002548110156114f4576005906002600052027f405787fa12a823e0f2b7631cc41b3ba8828b3321ca811111fa75cd3aa3bb5ace0190600090565b60e060020a634e487b7102600052603260045260246000fd5b6002805460009392849290835b83811061152a575b505050509190565b611533816114b9565b505415801561157d575b61156b5760001981146115525760010161151a565b60e060020a634e487b7102600052601160045260246000fd5b95505050505060019138808080611522565b5082611588826114b9565b500154600160a060020a0383811691161461153d565b6002805460009392849290835b8381106115ba57505050509190565b816115c4826114b9565b50541480156115e3575b61156b576000198114611552576001016115ab565b50600160a060020a03836115f6836114b9565b50015416156115ce565b60028054600094938593919291845b848110611620575b50505050509190565b8161162a826114b9565b505414801561165d575b6116495760001981146115525760010161160f565b965050505050506001913880808080611617565b5083611668826114b9565b500154600160a060020a03848116911614611634565b90600160028304921680156116b2575b602083101461169957565b60e060020a634e487b7102600052602260045260246000fd5b91607f169161168e565b156116c357565b606460405160e560020a62461bcd02815260206004820152601860248201527f596f7520617265206e6f7420612070617469656e7420212100000000000000006044820152fd5b81601f8201121561141657805161172081611456565b9261172e604051948561141b565b818452602082840101116114165761174c916020808501910161137c565b90565b9190916040818403126114165780519267ffffffffffffffff93848111611416578161177c91840161170a565b9360208301519081116114165761174c920161170a565b9060208282031261141657815167ffffffffffffffff9283821161141657019060a082820312611416576040519260a084018481108282111761143d576040528251845260208301516020850152604083015181811161141657826117f991850161170a565b60408501526060830151600160a060020a038116810361141657606085015260808301519081116114165761182e920161170a565b608082015290565b919082604091031261141657815160048110156114165760209092015190565b9060208282031261141657815167ffffffffffffffff9283821161141657019060c082820312611416576040519260c084018481108282111761143d57604052825181811161141657826118ab91850161170a565b84526020830151602085015260408301516040850152606083015181811161141657826118d991850161170a565b6060850152608083015181811161141657826118f691850161170a565b608085015260a083015190811161141657611911920161170a565b60a082015290565b1561192057565b606460405160e560020a62461bcd02815260206004820152601960248201527f70617469656e7420646f6573206e6f74206578697374202121000000000000006044820152fd5b919060009081806002938454925b838110611da2575b50611ca457506000928392845b838110611c4a575b5050505061199f90611919565b600160a060020a039182600154169260409283519060e060020a634138d167028252600492338484015260249260008185818b5afa908115611c3f579060449291600091611c26575b505192878260036119f8846114b9565b500154168151948580927fb0d23b09000000000000000000000000000000000000000000000000000000008252888b83015260018a8301525afa928315611c1b576000908194611bf9575b5086811015611be257611b7757916064916003611a62600096956114b9565b5001541688519a8b9485937fdf5ff354000000000000000000000000000000000000000000000000000000008552898501528784015260448301525afa958615611b6c57600096611b44575b50906000918487015191855196879384927faf6532070000000000000000000000000000000000000000000000000000000084528301525afa918215611b3a57506000928392611b1c575b50835160208501516060860151608087015160a090970151929691959493909290565b9092611b3292503d8091833e610eb4818361141b565b909138611af9565b513d6000823e3d90fd5b611b649060009392973d8091833e611b5c818361141b565b810190611856565b959091611aae565b84513d6000823e3d90fd5b608486603d8760208c519360e560020a62461bcd0285528401528201527f5065726d697373696f6e2064656e69656420212120706c65617365207265717560448201527f6573742070617469656e7420666f7220636f6e73756c74696e672e2e2e0000006064820152fd5b8560218860e060020a634e487b7102600052526000fd5b9050611c13919350883d8a11610a2157610a13818361141b565b929038611a43565b88513d6000823e3d90fd5b611c39913d8091833e610236818361141b565b386119e8565b87513d6000823e3d90fd5b81611c54826114b9565b5054148015611c87575b611c735760001981146115525760010161198a565b94505050505061199f600190388080611992565b50600160a060020a0383611c9a836114b9565b5001541615611c5e565b6003935060009250611cb691506114b9565b50600160a060020a03928391015416936024604051809681937f8f823dfe00000000000000000000000000000000000000000000000000000000835260048301525afa928315611d7b57600093611d87575b506001541690600060408401516024604051809581937faf65320700000000000000000000000000000000000000000000000000000000835260048301525afa908115611d7b576000928392611b1c5750835160208501516060860151608087015160a090970151929691959493909290565b6040513d6000823e3d90fd5b611d9b91933d8091833e611b5c818361141b565b9138611d08565b611dab816114b9565b5054158015611dd5575b611dca57600019811461155257600101611975565b91505060013861197d565b50611ddf816114b9565b50860154600160a060020a03163314611db5565b9190826040910312611416576020825192015180151581036114165790565b15611e1957565b606460405160e560020a62461bcd02815260206004820152601a60248201527f43616c6c65722068617665206e6f74207065726d657373696f6e0000000000006044820152fd5b818110611e6b575050565b60008155600101611e60565b9190601f8111611e8657505050565b611eb292600052602060002090602080601f85010483019310611eb4575b601f60209101040190611e60565b565b9091508190611ea4565b90808214611f9857611ed0815461167e565b9067ffffffffffffffff821161143d578190611ef082610495865461167e565b600090601f8311600114611f2957600092611f1e575b5050816002029160080260020a600019041916179055565b015490503880611f06565b81526020808220858352818320935090601f1985169083905b828210611f7f5750509160029391856001969410611f64575b50505002019055565b01546008601f841602840a6000190419169055388080611f5b565b8495819295850154815560018091019601940190611f42565b5050565b611fa6815461167e565b9081611fb0575050565b81601f60009311600114611fc2575055565b611fde9082845260016020601f81872093010482019101611e60565b816020812091555556fe6080806040523461001b57600060025561119690816100218239f35b600080fdfe6080604052600436101561001257600080fd5b7c010000000000000000000000000000000000000000000000000000000060003504806308d19b8b14610a7b5780631c00a8cb1461046957806323c31473146103785780633f2c0e351461035a57806340c579981461032c5780636d052b371461025c5780637cd7710d1461023e5780638f823dfe1461021f57806398ad1b9514610192578063b0d23b09146101665763df5ff354146100b157600080fd5b346101615760603660031901126101615760ff60026101096004356100d4610f94565b506100ed6100e182610f42565b81610159575b5061109e565b6101046100f982610d8c565b505460243514611112565b610d8c565b5001541660028110156101405760016101229114611112565b61013c610130604435610fc6565b60405191829182610d0f565b0390f35b60e060020a634e487b7102600052602160045260246000fd5b9050386100e7565b600080fd5b3461016157604061017f61017936610ce3565b90610e0a565b61018b83518093610d02565b6020820152f35b34610161576040366003190112610161576004356024356004811015610161576101bb82610f42565b50156101d85760026101cf6101d693610d8c565b5001610ddd565b005b606460405160e560020a62461bcd02815260206004820152601960248201527f5265717565737420646f6573206e6f74206578697374202121000000000000006044820152fd5b346101615760203660031901126101615761013c610130600435610fc6565b34610161576000366003190112610161576020600254604051908152f35b34610161576020366003190112610161576004356000548110156102e55761028381610d8c565b5054600161029083610d8c565b5001549160ff61010060026102b383826102a987610d8c565b5001541694610d8c565b50015404169260405192835260208301526002811015610140576080926102e39160408401526060830190610d02565bf35b606460405160e560020a62461bcd02815260206004820152601a60248201527f57524f4e4720494e44455820464f5220524551554553542021210000000000006044820152fd5b3461016157602036600319011261016157604061034a600435610f42565b8251911515825215156020820152f35b34610161576000366003190112610161576020600054604051908152f35b346101615761038636610ce3565b9060005490604051906080820182811067ffffffffffffffff8211176104505760405281526020810190428252604081019360028110156101405784526060810191600283526801000000000000000084101561045057600184016000556103ed84610d8c565b9190916104375760029251825551600182015501925160028110156101405760ff80198554169116178355519160048310156101405760209261042f91610ddd565b604051908152f35b60e060020a634e487b7102600052600060045260246000fd5b60e060020a634e487b7102600052604160045260246000fd5b346101615760c03660031901126101615760043560243567ffffffffffffffff81116101615761049d903690600401610c8c565b9060643567ffffffffffffffff8111610161576104be903690600401610c8c565b9060843567ffffffffffffffff8111610161576104df903690600401610c8c565b60a43567ffffffffffffffff811161016157600261053561050660ff933690600401610c8c565b9461051e61051382610f42565b81610a73575061109e565b61010461052a82610d8c565b505460443514611112565b5001541660028110156101405761054c9015611112565b6002546000198114610a5a5760010192836002556040519461056d86610b69565b855242602086015260443560408601526060850152608084015260a083015260005260016020526040600020815180519067ffffffffffffffff82116104505781906105b98454610b2b565b601f8111610a0a575b50602090601f831160011461099f57600092610994575b5050816002029160080260020a6000190419161781555b6020820151600182015560408201516002820155606082015180519067ffffffffffffffff821161045057819061062a6003850154610b2b565b601f8111610941575b50602090601f83116001146108cd576000926108c2575b5050816002029160080260020a6000190419161760038201555b608082015180519067ffffffffffffffff8211610450576106886004840154610b2b565b601f811161087b575b50602090601f831160011461080357918060a094926005946000926107f8575b5050816002029160080260020a6000190419161760048201555b0191015180519067ffffffffffffffff82116104505781906106ed8454610b2b565b601f81116107a5575b50602090601f831160011461073c57600092610731575b5050816002029160080260020a6000190419161790555b6020600254604051908152f35b01519050838061070d565b6000858152602081209350601f198516905b81811061078d57509160029391856001969410610772575b50505002019055610724565b01516008601f841602840a6000190419169055848080610766565b9293602060018192878601518155019501930161074e565b9091508360005260206000206020601f850104810191602085106107ee575b906020601f86959493010401905b8181106107df57506106f6565b600081558493506001016107d2565b90915081906107c4565b0151905086806106b1565b906004840160005260206000209160005b601f198516811061086357508360a09593600193600293600597601f19811610610848575b505050020160048201556106cb565b01516008601f841602840a6000190419169055878080610839565b91926020600181928685015181550194019201610814565b6004840160005260206000206020601f8501048101602085106108bb575b6020601f840104820181106108af575050610691565b60008155600101610899565b5080610899565b01519050848061064a565b91506003840160005260206000209160005b601f19851681106109295750918391600293600195601f1981161061090e575b50505002016003820155610664565b01516008601f841602840a60001904191690558580806108ff565b919260206001819286850151815501940192016108df565b9091506003840160005260206000206020601f85010481016020851061098d575b90849392915b6020601f8401048201811061097e575050610633565b60008155859450600101610968565b5080610962565b0151905084806105d9565b60008581526020812093505b601f19851681106109f25750918391600293600195601f198116106109d7575b505050020181556105f0565b01516008601f841602840a60001904191690558580806109cb565b919260206001819286850151815501940192016109ab565b9091508360005260206000206020601f850104810160208510610a53575b90849392915b6020601f84010482018110610a445750506105c2565b60008155859450600101610a2e565b5080610a28565b60e060020a634e487b7102600052601160045260246000fd5b90508a6100e7565b34610161576020366003190112610161576004356000526001602052610af7604060002061013c610aab82610ba7565b91610b1d600182015491610b0f600282015493610aca60038401610ba7565b610ae26005610adb60048701610ba7565b9501610ba7565b95604051998a9960c08b5260c08b0190610c4c565b9260208a015260408901528782036060890152610c4c565b908582036080870152610c4c565b9083820360a0850152610c4c565b9060016002830492168015610b5f575b6020831014610b4657565b60e060020a634e487b7102600052602260045260246000fd5b91607f1691610b3b565b60c0810190811067ffffffffffffffff82111761045057604052565b90601f8019910116810190811067ffffffffffffffff82111761045057604052565b9060405191826000825492610bbb84610b2b565b908184526001948581169081600014610c2a5750600114610be7575b5050610be592500383610b85565b565b9093915060005260209081600020936000915b818310610c12575050610be593508201013880610bd7565b85548884018501529485019487945091830191610bfa565b915050610be594506020925060ff191682840152151581028201013880610bd7565b919082519283825260005b848110610c78575050826000602080949584010152601f8019910116010190565b602081830181015184830182015201610c57565b81601f820112156101615780359067ffffffffffffffff82116104505760405192610cc1601f8401601f191660200185610b85565b8284526020838301011161016157816000926020809301838601378301015290565b6040906003190112610161576004359060243560028110156101615790565b9060048210156101405752565b90610d899160208152610d2e825160c0602084015260e0830190610c4c565b90602083015160408201526040830151606082015260c060a0610d79610d66606087015195601f199687878303016080880152610c4c565b6080870151868683030184870152610c4c565b9401519282850301910152610c4c565b90565b906000918254811015610dc657600390838052027f290decd9548b62a8d60345a988386fc84ba6bc95484008f6362f93160ef3e563019190565b60248360e060020a634e487b710281526032600452fd5b9060048110156101405761ff0061010083549202169061ff001916179055565b91908203918211610a5a57565b916000918254805b610e1e57506002935050565b600019810181811180610f2b5786610e3583610d8c565b50541480610ed0575b610e6b5750508015610e54576000190180610e12565b60248460e060020a634e487b710281526011600452fd5b92509293945050610eb95762015180610e916001610e8884610d8c565b50015442610dfd565b1115610e9e575060039190565b915060ff6101006002610eb085610d8c565b50015404169190565b60248360e060020a634e487b710281526011600452fd5b505084610edc82610d8c565b5060ff600280920154169080861015610f1457811015610efd578414610e3e565b60248760e060020a634e487b710281526021600452fd5b60248860e060020a634e487b710281526021600452fd5b60248660e060020a634e487b710281526011600452fd5b62015180610f546001610e8884610d8c565b11610f8b576101006002610f6960ff93610d8c565b500154041660048110156101405715610f8457600190600090565b6001908190565b50600090600090565b60405190610fa182610b69565b606060a083828152600060208201526000604082015282808201528260808201520152565b610fce610f94565b5080151580611092575b1561104b5760005260016020526040600020611043600560405192610ffc84610b69565b61100581610ba7565b8452600181015460208501526002810154604085015261102760038201610ba7565b606085015261103860048201610ba7565b608085015201610ba7565b60a082015290565b606460405160e560020a62461bcd02815260206004820152601560248201527f45485220646f6573206e6f7420657869737420212100000000000000000000006044820152fd5b50600254811115610fd8565b156110a557565b608460405160e560020a62461bcd02815260206004820152602e60248201527f5265717565737420646f6573206e6f74206578697374206f7220646f6573206e60448201527f6f742061636365707465642021210000000000000000000000000000000000006064820152fd5b1561111957565b606460405160e560020a62461bcd02815260206004820152601460248201527f7065726d697373696f6e2064656e6965642021210000000000000000000000006044820152fdfea2646970667358221220a44b1c85143a99dba883d4e1971870d4422bbf48bff7fb9d492b7d88a94eed4a64736f6c63430008110033a264697066735822122008bbb6d944d78e9594ee17c61ff236d154897043fbeaeeadfc420c9c9a70659764736f6c63430008110033",
  "immutableReferences": {},
  "source": "// SPDX-License-Identifier: GPL-3.0\r\n\r\npragma solidity >=0.7.0 <0.9.0;\r\n\r\nimport {EHR} from \"./EHR.sol\";\r\nimport {HealthAuthority} from \"./HealthAuthority.sol\";\r\nimport {HealthActor} from \"./HealthActor.sol\";\r\n\r\n\r\n/** \r\n * @title Patient\r\n * @dev Implements Patient methods\r\n */\r\ncontract Patient {\r\n\r\n    HealthAuthority authority;\r\n    HealthActor actor;\r\n\r\n    struct patient{\r\n        uint id;\r\n        string name;\r\n        address addr;\r\n        EHR ehr;\r\n        string public_key;\r\n    }\r\n    patient[] patients;\r\n\r\n    modifier onlyAuthority() {\r\n        (uint index, bool exist) = authority.checkHealthAuthority(msg.sender);\r\n        require(exist, \"Caller have not permession\");\r\n        _;\r\n    }\r\n\r\n    constructor(address authorityAddress, address actorAddress){\r\n        authority = HealthAuthority(authorityAddress);\r\n        actor = HealthActor(actorAddress);\r\n\r\n        // patients.push(patient(20, 'badro', address(0x87C8Ea2F6EF914766609df6C776e65b191F97EF8), new EHR(), \"public_key\"));\r\n        // patients.push(patient(25, 'bilal', address(0xDb4454a0Ff6c7eBeAD241de2432D68648f4b2ff5), new EHR(), \"public_key\"));\r\n    }\r\n\r\n    /**\r\n    * ///////////////////////////////////////////////////////////////////////\r\n    *                       PUBLIC METHODS FOR PATIENT (GETTERS)\r\n    * ///////////////////////////////////////////////////////////////////////\r\n    */\r\n    function checkPatient(uint _id, address _address) view public returns (uint, bool) {\r\n        uint index = 0;\r\n        bool exist = false;\r\n        for (uint i = 0; i < patients.length ; i++){\r\n            if (patients[i].id == _id || patients[i].addr == _address){\r\n                exist = true;\r\n                index = i;\r\n                break;\r\n            }\r\n        }\r\n        return (index, exist);\r\n    }\r\n\r\n    function getNumberOfPatient() public view returns(uint) {\r\n        return patients.length;\r\n    }\r\n\r\n    function getPatientByIndex(uint _index) public view returns(uint, string memory, address) {\r\n        require(_index >= 0 && _index < patients.length, \"Wrong index!!\");\r\n        return (patients[_index].id, patients[_index].name, patients[_index].addr);\r\n    }\r\n\r\n    /**\r\n    * ///////////////////////////////////////////////////////////////////////\r\n    *                       PUBLIC METHODS FOR REQEUST\r\n    * ///////////////////////////////////////////////////////////////////////\r\n    */\r\n    ////////// ONLY CALL BY PATIENT //////////\r\n    function getNumberOfRequest() public view returns (uint256) {\r\n        (uint index, bool exist) = checkPatient(0, msg.sender);\r\n        require(exist, \"You are not a patient !!\");\r\n        return patients[index].ehr.getNumberOfRequest();\r\n    }\r\n    function getRequestByIndex(uint256 _requestID) public view returns (string memory, uint256, EHR.RequestType, EHR.RequestState, string memory){\r\n        (uint index, bool exist) = checkPatient(0, msg.sender);\r\n        require(exist, \"You are not a patient !!\");\r\n        // get a request : (actorID, timestamp, rType, state)\r\n        (uint actorID, uint256 timestamp, EHR.RequestType rType, EHR.RequestState state) = patients[index].ehr.getRequestByIndex(_requestID);\r\n\r\n        (string memory actorName, string memory centerName) = actor.getActorAndCenterName(actorID);\r\n\r\n        return (actorName, timestamp, rType, state, centerName);\r\n    }\r\n    /** \r\n     * @dev Response to a request from associated patient.\r\n     * @param _requestID the request id \r\n     */\r\n    function setResponse(uint _requestID, EHR.RequestState _newState) public {\r\n        // check if this is trusted patient \r\n        (uint index, bool exist) = checkPatient(0, msg.sender);\r\n        require(exist, \"you are not a patient, permission denied !!\");\r\n\r\n        // response to request \r\n        patients[index].ehr.setResponse(_requestID, _newState);\r\n\r\n        // event to actor \r\n    }\r\n\r\n    ////////// ONLY CALL BY ACTOR //////////\r\n    function verifyAuthorization(uint _patientID, EHR.RequestType _type) public view returns (EHR.RequestState, uint) {\r\n        (uint index, bool exist) = checkPatient(_patientID, address(0x0));\r\n        require(exist, \"This patient does not exist !! \");\r\n        // get actor id for checking respose\r\n        uint actor_id = actor.getActor(msg.sender).id;\r\n        return patients[index].ehr.checkResponse(actor_id, _type);\r\n    }\r\n    /** \r\n     * @dev Create a new request from an actor.\r\n     * @param _patientID this is a patient id\r\n     * @param _requestType the type of request CONSULT PUBLISH\r\n     */\r\n    function sendRequest(uint _patientID, EHR.RequestType _requestType) public returns (bool){\r\n        // check if caller is actor\r\n        uint actorID = actor.getActor(msg.sender).id;\r\n\r\n        // check if patient exist \r\n        (uint index, bool exist) = checkPatient(_patientID, address(0));\r\n        require(exist, \"Patient does not exist !!\");\r\n\r\n        patients[index].ehr.setRequest(actorID,  _requestType);\r\n\r\n        //TODO: event to patient\r\n\r\n        return true; // return the requestID\r\n    }\r\n\r\n\r\n    /**\r\n    * ///////////////////////////////////////////////////////////////////////\r\n    *                    PUBLIC METHODS FOR EHR PURPOSE\r\n    * ///////////////////////////////////////////////////////////////////////\r\n    */\r\n    \r\n    function getNbOfEHR(uint _patientID) public view returns (uint256) {\r\n        (uint index, bool exist) = checkPatient(_patientID, msg.sender);\r\n        require(exist, \"This patient does not exist !!\");\r\n        return patients[index].ehr.ehrCount();\r\n    }\r\n\r\n    //test \r\n    function getEHR(uint _ehrID, uint _patientID) view public returns (string memory, uint256,string memory,string memory, string memory, string memory, string memory) {    \r\n        // EHR = (title, date, actorName, centerName, hash, ipfs, secretKey)  \r\n\r\n        //// if the caller is patient\r\n        (uint index, bool isPatient) = checkPatient(0, msg.sender);\r\n        if (isPatient) {\r\n            EHR.EHRAbstract memory temp1 = patients[index].ehr.getEHRAbstract(_ehrID);\r\n            (string memory actorName, string memory centerName) = actor.getActorAndCenterName(temp1.actorID);\r\n            return (temp1.title, temp1.date , actorName, centerName, temp1.ehrHash, temp1.ipfsHashAddress, temp1.secretKey);\r\n        }\r\n\r\n        //// if the caller is actor => \r\n        // check if patient exist \r\n        (index, isPatient) = checkPatient(_patientID, address(0));\r\n        require(isPatient, \"patient does not exist !!\");\r\n        // check actor\r\n        uint actorID = actor.getActor(msg.sender).id;\r\n        // check the authorization\r\n        (EHR.RequestState state, uint _requestID) = patients[index].ehr.checkResponse(actorID, EHR.RequestType.CONSULT);\r\n        require(state==EHR.RequestState.ACCEPTED, \"Permission denied !! please request patient for consulting...\");\r\n        // get the EHR\r\n        EHR.EHRAbstract memory temp = patients[index].ehr.getEHRbyActor(_requestID, actorID, _ehrID);\r\n        (string memory actorrName, string memory centerrName) = actor.getActorAndCenterName(temp.actorID);\r\n        return (temp.title, temp.date , actorrName, centerrName, temp.ehrHash, temp.ipfsHashAddress, temp.secretKey);\r\n    }\r\n\r\n    /////////////// ACTOR ONLY ///////////////\r\n\r\n    function shareEHR(uint _patientID, uint _requestID, string memory _title, string memory _hash, string memory _ipfsAddr, string memory _secretKey ) public {\r\n        // check if patient exist \r\n        (uint index, bool exist) = checkPatient(_patientID, address(0));\r\n        require(exist, \"patient does not exist !!\");\r\n\r\n        // check if actor exist and get the actor id\r\n        uint actorID = actor.getActor(msg.sender).id;\r\n       \r\n        patients[index].ehr.addEHRAbstract(_requestID, _title, actorID, _hash, _ipfsAddr, _secretKey);\r\n    }\r\n\r\n\r\n\r\n    /**\r\n    * ///////////////////////////////////////////////////////////////////////\r\n    *         PUBLIC METHODS FOR REGISTRATION PURPOSE (Authority only)\r\n    * ///////////////////////////////////////////////////////////////////////\r\n    */\r\n    function addPatient(uint _id, string memory _name, address _account, string memory _pKey) public onlyAuthority {\r\n        (, bool exist) = checkPatient(_id, _account);\r\n        require(exist==false, \"patient id or account already exist !!\");\r\n\r\n        patients.push(patient(_id, _name, _account, new EHR(), _pKey));\r\n    }\r\n\r\n    function rmPatient(uint _id) public onlyAuthority{\r\n        (uint index, bool exist) = checkPatient(_id, address(0));\r\n        require(exist==true, \"patient does not exist !!\");\r\n\r\n        patients[index] = patients[patients.length-1];\r\n        patients.pop();\r\n    }\r\n}\r\n",
  "sourcePath": "F:\\ComputerScience\\projects\\PFE\\project\\2022-2023\\Blockchain-side\\contracts\\Patient.sol",
  "compiler": {
    "name": "solc",
    "version": "0.8.17+commit.8df45f5f.Emscripten.clang"
  },
  "schemaVersion": "3.4.11",
  "updatedAt": "2023-05-09T22:44:01.749Z",
  "networkType": "ethereum",
  "devdoc": {
    "details": "Implements Patient methods",
    "kind": "dev",
    "methods": {
      "sendRequest(uint256,uint8)": {
        "details": "Create a new request from an actor.",
        "params": {
          "_patientID": "this is a patient id",
          "_requestType": "the type of request CONSULT PUBLISH"
        }
      },
      "setResponse(uint256,uint8)": {
        "details": "Response to a request from associated patient.",
        "params": {
          "_requestID": "the request id "
        }
      }
    },
    "title": "Patient",
    "version": 1
  },
  "userdoc": {
    "kind": "user",
    "methods": {
      "addPatient(uint256,string,address,string)": {
        "notice": "///////////////////////////////////////////////////////////////////////         PUBLIC METHODS FOR REGISTRATION PURPOSE (Authority only) ///////////////////////////////////////////////////////////////////////"
      },
      "checkPatient(uint256,address)": {
        "notice": "///////////////////////////////////////////////////////////////////////                       PUBLIC METHODS FOR PATIENT (GETTERS) ///////////////////////////////////////////////////////////////////////"
      },
      "getNbOfEHR(uint256)": {
        "notice": "///////////////////////////////////////////////////////////////////////                    PUBLIC METHODS FOR EHR PURPOSE ///////////////////////////////////////////////////////////////////////"
      },
      "getNumberOfRequest()": {
        "notice": "///////////////////////////////////////////////////////////////////////                       PUBLIC METHODS FOR REQEUST ///////////////////////////////////////////////////////////////////////"
      }
    },
    "version": 1
  }
}