{
  "contractName": "Patient",
  "abi": [
    {
      "inputs": [
        {
          "internalType": "address",
          "name": "authorityAddress",
          "type": "address"
        },
        {
          "internalType": "address",
          "name": "actorAddress",
          "type": "address"
        }
      ],
      "stateMutability": "nonpayable",
      "type": "constructor"
    },
    {
      "inputs": [
        {
          "internalType": "uint256",
          "name": "_id",
          "type": "uint256"
        },
        {
          "internalType": "address",
          "name": "_address",
          "type": "address"
        }
      ],
      "name": "checkPatient",
      "outputs": [
        {
          "internalType": "uint256",
          "name": "",
          "type": "uint256"
        },
        {
          "internalType": "bool",
          "name": "",
          "type": "bool"
        }
      ],
      "stateMutability": "view",
      "type": "function",
      "constant": true
    },
    {
      "inputs": [],
      "name": "getNumberOfPatient",
      "outputs": [
        {
          "internalType": "uint256",
          "name": "",
          "type": "uint256"
        }
      ],
      "stateMutability": "view",
      "type": "function",
      "constant": true
    },
    {
      "inputs": [
        {
          "internalType": "uint256",
          "name": "_index",
          "type": "uint256"
        }
      ],
      "name": "getPatientByIndex",
      "outputs": [
        {
          "internalType": "uint256",
          "name": "",
          "type": "uint256"
        },
        {
          "internalType": "string",
          "name": "",
          "type": "string"
        },
        {
          "internalType": "address",
          "name": "",
          "type": "address"
        }
      ],
      "stateMutability": "view",
      "type": "function",
      "constant": true
    },
    {
      "inputs": [],
      "name": "getNumberOfRequest",
      "outputs": [
        {
          "internalType": "uint256",
          "name": "",
          "type": "uint256"
        }
      ],
      "stateMutability": "view",
      "type": "function",
      "constant": true
    },
    {
      "inputs": [
        {
          "internalType": "uint256",
          "name": "_requestID",
          "type": "uint256"
        }
      ],
      "name": "getRequestByIndex",
      "outputs": [
        {
          "internalType": "string",
          "name": "",
          "type": "string"
        },
        {
          "internalType": "uint256",
          "name": "",
          "type": "uint256"
        },
        {
          "internalType": "enum EHR.RequestType",
          "name": "",
          "type": "uint8"
        },
        {
          "internalType": "enum EHR.RequestState",
          "name": "",
          "type": "uint8"
        },
        {
          "internalType": "string",
          "name": "",
          "type": "string"
        }
      ],
      "stateMutability": "view",
      "type": "function",
      "constant": true
    },
    {
      "inputs": [
        {
          "internalType": "uint256",
          "name": "_requestID",
          "type": "uint256"
        },
        {
          "internalType": "enum EHR.RequestState",
          "name": "_newState",
          "type": "uint8"
        }
      ],
      "name": "setResponse",
      "outputs": [],
      "stateMutability": "nonpayable",
      "type": "function"
    },
    {
      "inputs": [
        {
          "internalType": "uint256",
          "name": "_patientID",
          "type": "uint256"
        },
        {
          "internalType": "enum EHR.RequestType",
          "name": "_type",
          "type": "uint8"
        }
      ],
      "name": "verifyAuthorization",
      "outputs": [
        {
          "internalType": "enum EHR.RequestState",
          "name": "",
          "type": "uint8"
        },
        {
          "internalType": "uint256",
          "name": "",
          "type": "uint256"
        }
      ],
      "stateMutability": "view",
      "type": "function",
      "constant": true
    },
    {
      "inputs": [
        {
          "internalType": "uint256",
          "name": "_patientID",
          "type": "uint256"
        },
        {
          "internalType": "enum EHR.RequestType",
          "name": "_requestType",
          "type": "uint8"
        }
      ],
      "name": "sendRequest",
      "outputs": [
        {
          "internalType": "bool",
          "name": "",
          "type": "bool"
        }
      ],
      "stateMutability": "nonpayable",
      "type": "function"
    },
    {
      "inputs": [
        {
          "internalType": "uint256",
          "name": "_patientID",
          "type": "uint256"
        }
      ],
      "name": "getNbOfEHR",
      "outputs": [
        {
          "internalType": "uint256",
          "name": "",
          "type": "uint256"
        }
      ],
      "stateMutability": "view",
      "type": "function",
      "constant": true
    },
    {
      "inputs": [
        {
          "internalType": "uint256",
          "name": "_ehrID",
          "type": "uint256"
        },
        {
          "internalType": "uint256",
          "name": "_patientID",
          "type": "uint256"
        }
      ],
      "name": "getEHR",
      "outputs": [
        {
          "internalType": "string",
          "name": "",
          "type": "string"
        },
        {
          "internalType": "uint256",
          "name": "",
          "type": "uint256"
        },
        {
          "internalType": "string",
          "name": "",
          "type": "string"
        },
        {
          "internalType": "string",
          "name": "",
          "type": "string"
        },
        {
          "internalType": "string",
          "name": "",
          "type": "string"
        },
        {
          "internalType": "string",
          "name": "",
          "type": "string"
        },
        {
          "internalType": "string",
          "name": "",
          "type": "string"
        }
      ],
      "stateMutability": "view",
      "type": "function",
      "constant": true
    },
    {
      "inputs": [
        {
          "internalType": "uint256",
          "name": "_patientID",
          "type": "uint256"
        },
        {
          "internalType": "uint256",
          "name": "_requestID",
          "type": "uint256"
        },
        {
          "internalType": "string",
          "name": "_title",
          "type": "string"
        },
        {
          "internalType": "string",
          "name": "_hash",
          "type": "string"
        },
        {
          "internalType": "string",
          "name": "_ipfsAddr",
          "type": "string"
        },
        {
          "internalType": "string",
          "name": "_secretKey",
          "type": "string"
        }
      ],
      "name": "shareEHR",
      "outputs": [],
      "stateMutability": "nonpayable",
      "type": "function"
    },
    {
      "inputs": [
        {
          "internalType": "uint256",
          "name": "_id",
          "type": "uint256"
        },
        {
          "internalType": "string",
          "name": "_name",
          "type": "string"
        },
        {
          "internalType": "address",
          "name": "_account",
          "type": "address"
        },
        {
          "internalType": "string",
          "name": "_pKey",
          "type": "string"
        }
      ],
      "name": "addPatient",
      "outputs": [],
      "stateMutability": "nonpayable",
      "type": "function"
    },
    {
      "inputs": [
        {
          "internalType": "uint256",
          "name": "_id",
          "type": "uint256"
        }
      ],
      "name": "rmPatient",
      "outputs": [],
      "stateMutability": "nonpayable",
      "type": "function"
    }
  ],
  "bytecode": "0x6080346200055a5762005afc90813803601f19601f8201168201908282106001604060020a038311176200040157808391604095869485528339810103126200055a576200005b602062000053836200057f565b92016200057f565b60008054600160a060020a03938416600160a060020a0319918216179091556001805492909316911617905580516119a08082018281106001604060020a03821117620004015782916200415c833903906000f080156200054f5781519060a082018281106001604060020a038211176200040157835260148252620000e06200055f565b90600582527f626164726f0000000000000000000000000000000000000000000000000000006020830152602083019182527387c8ea2f6ef914766609df6c776e65b191f97ef884840152600160a060020a03166060830152620001436200055f565b91600a83527f7075626c69635f6b65790000000000000000000000000000000000000000000060208401526080810192835260025490680100000000000000008210156200040157600182018060025582101562000520576002600052602060002092815160058402850155518051906001604060020a0382116200040157600160058502860101546001600282049116801562000515575b6020821014620003c757601f8111620004c4575b50602090601f83116001146200043c57918060059492600497969460009262000430575b5050816002029160080260020a600019041916176001848402860101555b808701519190920292909201600281018054600160a060020a0319908116600160a060020a039586161790915560609092015160038201805490931693169290921790559151805191909201916001604060020a038211620004015782549060016002830492168015620003f6575b6020831014620003c75781601f8493116200036f575b50602090601f83116001146200030157600092620002f5575b5050816002029160080260020a6000190419161790555b51613bc79081620005958239f35b015190503880620002d0565b6000858152602081209350601f198516905b81811062000356575091600293918560019694106200033a575b50505002019055620002e7565b01516008601f841602840a60001904191690553880806200032d565b9293602060018192878601518155019501930162000313565b9091508360005260206000206020601f85010481019160208510620003bc575b906020601f86959493010401905b818110620003ac5750620002b7565b600081558493506001016200039d565b90915081906200038f565b7f4e487b7100000000000000000000000000000000000000000000000000000000600052602260045260246000fd5b91607f1691620002a1565b7f4e487b7100000000000000000000000000000000000000000000000000000000600052604160045260246000fd5b01519050388062000214565b9060016005860287010160005260206000209160005b601f1985168110620004ab5750836005959360019360029360049a9997601f198116106200048f575b505050020160018484028601015562000232565b01516008601f841602840a60001904191690553880806200047b565b9192602060018192868501518155019401920162000452565b60016005860287010160005260206000206020601f8501048101602085106200050d575b6020601f8401048201811062000500575050620001f0565b60008155600101620004e8565b5080620004e8565b90607f1690620001dc565b7f4e487b7100000000000000000000000000000000000000000000000000000000600052603260045260246000fd5b50513d6000823e3d90fd5b600080fd5b60405190604082018281106001604060020a038211176200040157604052565b5190600160a060020a03821682036200055a5756fe604060c08152600460805260043610156200001957600080fd5b60009060a08281527c010000000000000000000000000000000000000000000000000000000083350480633f2c0e3514620014025780634053bbac14620011e657806349bf3afb14620011a057806357ea0c2f14620010305780636d052b371462000e4557806397a444e21462000d9757806398ad1b951462000c3e5780639b4fd9a61462000b2d578063bb68e82614620009ac578063c4113ed3146200098a578063d45d37391462000763578063dbbe7c21146200027b5763e28d73a014620000e257600080fd5b346200027757620000f33662001542565b90600160a060020a03806001541685519060e060020a634138d16702825233608051830152816024818851935afa9081156200026b5790620001419186519162000245575b505192620016ff565b15620001fe576020926200019f9594926003620001606044946200160e565b50015416875196879485937f23c3147300000000000000000000000000000000000000000000000000000000855260805185015260248401906200150d565b8551905af1908115620001f25750620001bd575b6020825160018152f35b602090813d8111620001ea575b620001d6818362001568565b81010312620001e65781620001b3565b5080fd5b503d620001ca565b8351903d9051823e3d90fd5b6064865160e560020a62461bcd0281526020608051820152601960248201527f50617469656e7420646f6573206e6f74206578697374202121000000000000006044820152fd5b62000264913d8091833e6200025b818362001568565b8101906200191c565b3862000138565b865186513d90823e3d90fd5b5180fd5b5091346200075e5760803660031901126200075e576080518035906024359067ffffffffffffffff82116200075957620002b891369101620015c1565b9260443593600160a060020a03851691828603620007555760643567ffffffffffffffff81116200075057620002f490369060805101620015c1565b95602482600160a060020a038a5154168151928380927f134e91ac000000000000000000000000000000000000000000000000000000008252336080518301525afa908115620007445762000360929162000359918b51916200070e575b5062001fff565b856200176b565b9050620006a1578051936119a0948581019581871067ffffffffffffffff8811176200068757620021f2823980895196039086f09485156200067c57508151958887019087821067ffffffffffffffff83111762000664575082528552602085019182528401918252600160a060020a036060850193168352608084019485526002546801000000000000000081101562000630578060016200040792016002556200160e565b9490946200064a575184555180519067ffffffffffffffff82116200063057819062000446826200043c6001890154620017f4565b6001890162002067565b875190602091601f8411600114620005ba5750885192620005ae575b5050816002029160080260020a6000190419161760018401555b600160a060020a036002840191511690600160a060020a03199182825416179055600160a060020a03600384019251169082541617905560805101905180519067ffffffffffffffff821162000594578190620004e682620004df8654620017f4565b8662002067565b845190602091601f84116001146200052857508551926200051c575b5050816002029160080260020a6000190419161790555180f35b01519050388062000502565b8590528551602081209350601f198516905b8181106200057b575091600293918560019694106200055f575b505050020190555180f35b01516008601f841602840a600019041916905538808062000554565b929360206001819287860151815501950193016200053a565b60248460e060020a634e487b710281515260416080515251fd5b01519050388062000462565b60018801905288516020812093505b601f1985168110620006175750918391600293600195601f19811610620005fb575b505050020160018401556200047c565b01516008601f841602840a6000190419169055388080620005eb565b91926020600181928685015181550194019201620005c9565b60248760e060020a634e487b710281515260416080515251fd5b60248760e060020a634e487b710281515280516080515251fd5b8060e060020a634e487b710260249252604160805152fd5b8251903d90823e3d90fd5b60248a60e060020a634e487b710281515260416080515251fd5b6084905160e560020a62461bcd0281526020608051820152602660248201527f70617469656e74206964206f72206163636f756e7420616c726561647920657860448201527f69737420212100000000000000000000000000000000000000000000000000006064820152fd5b620007339150853d87116200073c575b6200072a818362001568565b81019062001fde565b90503862000352565b503d6200071e565b83518a513d90823e3d90fd5b875180fd5b8480fd5b855180fd5b825180fd5b509190346200075e576003199060c036830112620009855767ffffffffffffffff916044358381116200075957620007a190369060805101620015c1565b906064358481116200098057620007be90369060805101620015c1565b916084358581116200075057620007db90369060805101620015c1565b9160a4359586116200075057620007fc6200081396369060805101620015c1565b6200080a60805135620016ff565b97909762001abf565b600160a060020a03602481600154168b89519283809260e060020a634138d1670282523360805183015251935afa908b82156200097457620008ff93600362000878620008c8989560209c9b9a9895620008ef95519162000957575b50519d6200160e565b5001541696620008de8b519c8d9a8b998a997f1c00a8cb000000000000000000000000000000000000000000000000000000008b526024356080518c015260c060248c015260c48b0190620014e6565b9160448a0152868983030160648a0152620014e6565b9084878303016084880152620014e6565b918483030160a4850152620014e6565b03918851905af19081156200094c57506200091957825180f35b602090813d811162000944575b62000932818362001568565b81010312620009415780825180f35b80fd5b503d62000926565b5184513d90823e3d90fd5b6200096d913d8091833e6200025b818362001568565b386200086f565b8951903d9051823e3d90fd5b865180fd5b835180fd5b50346200027757519081600319360112620001e6576020906002549051908152f35b50346200027757620009ca620009c23662001542565b9190620016ff565b1562000ae657600160a060020a03806001541685519060e060020a634138d16702825233608051830152816024818851935afa9081156200026b5792859492600362000a2a6044948a9762000a699a519162000ac9575b5051936200160e565b50015416845196879485937fb0d23b0900000000000000000000000000000000000000000000000000000000855260805185015260248401906200150d565b5afa908115620001f2575191829162000a93575b5062000a8c8351809362001534565b6020820152f35b905062000aba9150823d841162000ac1575b62000ab1818362001568565b810190620019ca565b8362000a7d565b503d62000aa5565b62000adf913d8091833e6200025b818362001568565b8b62000a21565b6064845160e560020a62461bcd0281526020608051820152601f60248201527f546869732070617469656e7420646f6573206e6f7420657869737420212120006044820152fd5b50903462000c3957602092836003193601126200075e5762000b5333608051356200176b565b1562000bf257600362000b6e600160a060020a03926200160e565b500154169084835180937f7cd7710d00000000000000000000000000000000000000000000000000000000825281608051915afa938415620001f257519362000bba575b505051908152f35b909192508382813d831162000bea575b62000bd6818362001568565b810103126200094157505190388062000bb2565b503d62000bca565b60648584519060e560020a62461bcd028252608051820152601e60248201527f546869732070617469656e7420646f6573206e6f7420657869737420212100006044820152fd5b505180fd5b50903462000c39578060031936011262000c3957602435906080518210156200075e5762000c6c3362001663565b1562000d2a57600362000c87600160a060020a03926200160e565b50015416803b15620009855762000cd18251937f98ad1b95000000000000000000000000000000000000000000000000000000008552608051803590860152602485019062001534565b82604481865180945af1801562000d1e5762000cec57825180f35b67ffffffffffffffff821162000d0457528180825180f35b60248360e060020a634e487b710281515260416080515251fd5b815184513d90823e3d90fd5b6084825160e560020a62461bcd0281526020608051820152602b60248201527f796f7520617265206e6f7420612070617469656e742c207065726d697373696f60448201527f6e2064656e6965642021210000000000000000000000000000000000000000006064820152fd5b5034620002775781600319360112620002775762000e4162000e1562000e3262000df49362000e0662000e248762000dd56024356080513562001b0e565b9b959098939196949294519e8f9e8f9260e0845260e0840190620014e6565b936020830152818403910152620014e6565b908a820360608c0152620014e6565b9088820360808a0152620014e6565b9186830390870152620014e6565b9083820360c0850152620014e6565b0390f35b50903462000c3957602036600319011262000c39576024916003608062000e8362000e7d62000e743362001663565b91909162001835565b6200160e565b50600160a060020a039283910154168451958680927f6d052b3700000000000000000000000000000000000000000000000000000000825284518035908301525afa928315620010245782519384928596869262000fb7575b50600154168251957faf653207000000000000000000000000000000000000000000000000000000008752608051870152856024818751935afa9182156200094c57845195869362000f78575b509062000f5f62000e419596978362000f5062000f6a95519a8a8c9b8c528b0190620014e6565b9660208a01528801906200150d565b606086019062001534565b8382036080850152620014e6565b62000f6a9291935062000fa962000f5f9162000e4197983d8091833e62000fa0818362001568565b810190620018d1565b909796509391925062000f29565b935094505093506080813d6080116200101b575b8162000fda6080938362001568565b8101031262000c395780519360208201519381830151926002841015620010165760600151956080518710156200101657949295908762000edc565b845180fd5b3d915062000fcb565b5191513d9150823e3d90fd5b503462000277576020918260031936011262000c395760805135600254811015620011595762001060816200160e565b5054926200106e826200160e565b509085600160a060020a0360026200108b6001809601966200160e565b5001541693855193835193825492620010a484620017f4565b80885293838116908115620011335750600114620010f4575b505050505090620010d581620010ec93038262001568565b6060845196879687528601526060850190620014e6565b918301520390f35b81515251838120939450925b8284106200111f575050508201018582620010ec620010d58a620010bd565b805486850186015292840192810162001100565b60ff191686890152505050501515810283010190508582620010ec620010d58a620010bd565b60648483519060e560020a62461bcd028252608051820152600d60248201527f57726f6e6720696e6465782121000000000000000000000000000000000000006044820152fd5b5034620002775781600319360112620002775760243590600160a060020a0382168203620002775750620011d890608051356200176b565b825191825215156020820152f35b50903462000c3957602036600319011262000c3957600160a060020a0360248282855154168151928380927f134e91ac000000000000000000000000000000000000000000000000000000008252336080518301525afa908115620013f4576200125c9293855192620013d0575b505062001fff565b60016200127c6200127060805135620016ff565b92909215151462001abf565b60029182549160001992838101908111620013b657620012a0620012a8916200160e565b50916200160e565b9190916200139c578082036200133d575b5050508154801562001323570190620012d2826200160e565b6200130957620013049084518155620012ee600182016200219f565b845180848301556003820155608051016200219f565b555180f35b60248460e060020a634e487b710281515280516080515251fd5b60248460e060020a634e487b710281515260316080515251fd5b620013939281548355620013586001830160018501620020b3565b85830181878401541690600160a060020a031991828254161790556003840191600384015416908254161790556080518091019101620020b3565b838080620012b9565b60248660e060020a634e487b710281515280516080515251fd5b60248660e060020a634e487b710281515260116080515251fd5b620013ea9250803d106200073c576200072a818362001568565b9050848062001254565b50505051903d9051823e3d90fd5b509134620009415780600319360112620009415750600160a060020a0360036200143462000e7d62000e743362001663565b50015416906020815180937f3f2c0e3500000000000000000000000000000000000000000000000000000000825281608051915afa91821562000d1e5783519262001484575b6020838351908152f35b9091506020813d8211620014b8575b81620014a26020938362001568565b810103126200075e57602092505190386200147a565b3d915062001493565b60005b838110620014d55750506000910152565b8181015183820152602001620014c4565b906020916200150181518092818552858086019101620014c1565b601f01601f1916010190565b9060028210156200151b5752565b60e060020a634e487b7102600052602160045260246000fd5b9060048210156200151b5752565b60409060031901126200156357600435906024356002811015620015635790565b600080fd5b90601f8019910116810190811067ffffffffffffffff8211176200158b57604052565b60e060020a634e487b7102600052604160045260246000fd5b67ffffffffffffffff81116200158b57601f01601f191660200190565b81601f820112156200156357803590620015db82620015a4565b92620015eb604051948562001568565b828452602083830101116200156357816000926020809301838601378301015290565b6002548110156200164a576005906002600052027f405787fa12a823e0f2b7631cc41b3ba8828b3321ca811111fa75cd3aa3bb5ace0190600090565b60e060020a634e487b7102600052603260045260246000fd5b6002805460009392849290835b83811062001681575b505050509190565b6200168c816200160e565b5054158015620016db575b620016c8576000198114620016af5760010162001670565b60e060020a634e487b7102600052601160045260246000fd5b9550505050506001913880808062001679565b5082620016e8826200160e565b500154600160a060020a0383811691161462001697565b6002805460009392849290835b8381106200171c57505050509190565b8162001728826200160e565b50541480156200174b575b620016c8576000198114620016af576001016200170c565b50600160a060020a038362001760836200160e565b500154161562001733565b60028054600094938593919291845b8481106200178c575b50505050509190565b8162001798826200160e565b5054148015620017d0575b620017bb576000198114620016af576001016200177a565b96505050505050600191388080808062001783565b5083620017dd826200160e565b500154600160a060020a03848116911614620017a3565b90600160028304921680156200182a575b60208310146200181157565b60e060020a634e487b7102600052602260045260246000fd5b91607f169162001805565b156200183d57565b606460405160e560020a62461bcd02815260206004820152601860248201527f596f7520617265206e6f7420612070617469656e7420212100000000000000006044820152fd5b81601f82011215620015635780516200189d81620015a4565b92620018ad604051948562001568565b818452602082840101116200156357620018ce9160208085019101620014c1565b90565b919091604081840312620015635780519267ffffffffffffffff938481116200156357816200190291840162001884565b9360208301519081116200156357620018ce920162001884565b906020828203126200156357815167ffffffffffffffff928382116200156357019060a08282031262001563576040519260a08401848110828211176200158b57604052825184526020830151602085015260408301518181116200156357826200198991850162001884565b60408501526060830151600160a060020a03811681036200156357606085015260808301519081116200156357620019c2920162001884565b608082015290565b9190826040910312620015635781516004811015620015635760209092015190565b906020828203126200156357815167ffffffffffffffff928382116200156357019060c08282031262001563576040519260c08401848110828211176200158b57604052825181811162001563578262001a4891850162001884565b84526020830151602085015260408301516040850152606083015181811162001563578262001a7991850162001884565b6060850152608083015181811162001563578262001a9991850162001884565b608085015260a0830151908111620015635762001ab7920162001884565b60a082015290565b1562001ac757565b606460405160e560020a62461bcd02815260206004820152601960248201527f70617469656e7420646f6573206e6f74206578697374202121000000000000006044820152fd5b919060009081806002938454925b83811062001f83575b5062001e7b57506000928392845b83811062001e16575b5050505062001b4b9062001abf565b600160a060020a039182600154169260409283519060e060020a634138d167028252600492338484015260249260008185818b5afa90811562001e0b57906044929160009162001dee575b5051928782600362001ba8846200160e565b500154168151948580927fb0d23b09000000000000000000000000000000000000000000000000000000008252888b83015260018a8301525afa92831562001de357600090819462001dbc575b508681101562001da55762001d3a5791606491600362001c18600096956200160e565b5001541688519a8b9485937fdf5ff354000000000000000000000000000000000000000000000000000000008552898501528784015260448301525afa95861562001d2f5760009662001d02575b50906000918487015191855196879384927faf6532070000000000000000000000000000000000000000000000000000000084528301525afa91821562001cf85750600092839262001cd6575b50835160208501516060860151608087015160a090970151929691959493909290565b909262001cef92503d8091833e62000fa0818362001568565b90913862001cb3565b513d6000823e3d90fd5b62001d269060009392973d8091833e62001d1d818362001568565b810190620019ec565b95909162001c66565b84513d6000823e3d90fd5b608486603d8760208c519360e560020a62461bcd0285528401528201527f5065726d697373696f6e2064656e69656420212120706c65617365207265717560448201527f6573742070617469656e7420666f7220636f6e73756c74696e672e2e2e0000006064820152fd5b8560218860e060020a634e487b7102600052526000fd5b905062001dda919350883d8a1162000ac15762000ab1818362001568565b92903862001bf5565b88513d6000823e3d90fd5b62001e04913d8091833e6200025b818362001568565b3862001b96565b87513d6000823e3d90fd5b8162001e22826200160e565b505414801562001e5b575b62001e45576000198114620016af5760010162001b33565b94505050505062001b4b60019038808062001b3c565b50600160a060020a038362001e70836200160e565b500154161562001e2d565b600393506000925062001e8f91506200160e565b50600160a060020a03928391015416936024604051809681937f8f823dfe00000000000000000000000000000000000000000000000000000000835260048301525afa92831562001f585760009362001f64575b506001541690600060408401516024604051809581937faf65320700000000000000000000000000000000000000000000000000000000835260048301525afa90811562001f5857600092839262001cd65750835160208501516060860151608087015160a090970151929691959493909290565b6040513d6000823e3d90fd5b62001f7b91933d8091833e62001d1d818362001568565b913862001ee3565b62001f8e816200160e565b505415801562001fbd575b62001fb1576000198114620016af5760010162001b1c565b91505060013862001b25565b5062001fc9816200160e565b50860154600160a060020a0316331462001f99565b91908260409103126200156357602082519201518015158103620015635790565b156200200757565b606460405160e560020a62461bcd02815260206004820152601a60248201527f43616c6c65722068617665206e6f74207065726d657373696f6e0000000000006044820152fd5b8181106200205a575050565b600081556001016200204e565b9190601f81116200207757505050565b620020a692600052602060002090602080601f85010483019310620020a8575b601f602091010401906200204e565b565b909150819062002097565b908082146200219b57620020c88154620017f4565b9067ffffffffffffffff82116200158b578190620020ec82620004df8654620017f4565b600090601f831160011462002128576000926200211c575b5050816002029160080260020a600019041916179055565b01549050388062002104565b81526020808220858352818320935090601f1985169083905b82821062002181575050916002939185600196941062002165575b50505002019055565b01546008601f841602840a60001904191690553880806200215c565b849581929585015481556001809101960194019062002141565b5050565b620021ab8154620017f4565b9081620021b6575050565b81601f60009311600114620021c9575055565b620021e79082845260016020601f818720930104820191016200204e565b816020812091555556fe608034620007e457600160025560c08101908082106001604060020a03831117620003ff57604091825262000033620007e9565b600a81527f746573745f7469746c65000000000000000000000000000000000000000000006020820152815242602082015260178282015262000075620007e9565b600481527f7465737400000000000000000000000000000000000000000000000000000000908160208201526060830152620000b0620007e9565b600b81527f48656c6c6f20776f726c6400000000000000000000000000000000000000000060208201526080830152620000e9620007e9565b9060048252602082015260a0820152600160005260016020528160002081518051906001604060020a038211620003ff5782549060016002830492168015620007d9575b6020831014620005005781601f84931162000784575b50602090601f8311600114620007145760009262000708575b5050816002029160080260020a6000190419161781555b6020820151600182015582820151600282015560608201518051906001604060020a038211620003ff5760038301549060016002830492168015620006fd575b6020831014620005005781601f849311620006a2575b50602090601f831160011462000629576000926200061d575b5050816002029160080260020a6000190419161760038201555b60808201518051906001604060020a038211620003ff5760048301546001600282049116801562000612575b60208210146200050057601f8111620005c1575b50602090601f83116001146200054657918060a094926005946000926200053a575b5050816002029160080260020a6000190419161760048201555b019101518051906001604060020a038211620003ff57825490600160028304921680156200052f575b6020831014620005005781601f849311620004a8575b50602090601f83116001146200043a576000926200042e575b5050816002029160080260020a6000190419161790555b8051608081018181106001604060020a03821117620003ff57825260178152602081019042825282810191600183526060820191600283526000549168010000000000000000831015620003ff576001830180600055831015620003d057600292600080526003602060002091020191518255516001820155019151906002821015620003a157825490516004811015620003a15761ff0061010060ff92021692169061ffff1916171790555161119690816200080a8239f35b7f4e487b7100000000000000000000000000000000000000000000000000000000600052602160045260246000fd5b7f4e487b7100000000000000000000000000000000000000000000000000000000600052603260045260246000fd5b7f4e487b7100000000000000000000000000000000000000000000000000000000600052604160045260246000fd5b015190503880620002d0565b6000858152602081209350601f198516905b8181106200048f5750916002939185600196941062000473575b50505002019055620002e7565b01516008601f841602840a600019041916905538808062000466565b929360206001819287860151815501950193016200044c565b9091508360005260206000206020601f85010481019160208510620004f5575b906020601f86959493010401905b818110620004e55750620002b7565b60008155849350600101620004d6565b9091508190620004c8565b7f4e487b7100000000000000000000000000000000000000000000000000000000600052602260045260246000fd5b91607f1691620002a1565b0151905038806200025e565b90601f198316916004850160005260206000209260005b818110620005a857509360a0959360019360029383600598106200058c575b5050500201600482015562000278565b01516008601f841602840a60001904191690553880806200057c565b929360206001819287860151815501950193016200055d565b6004840160005260206000206020601f8501048101916020851062000607575b601f602091010401905b818110620005fa57506200023c565b60008155600101620005eb565b9091508190620005e1565b90607f169062000228565b015190503880620001e2565b91506003840160005260206000209160005b601f1985168110620006895750918391600293600195601f198116106200066d575b50505002016003820155620001fc565b01516008601f841602840a60001904191690553880806200065d565b919260206001819286850151815501940192016200063b565b9091506003840160005260206000206020601f85010481019160208510620006f2575b906020601f86959493010401905b818110620006e25750620001c9565b60008155849350600101620006d3565b9091508190620006c5565b91607f1691620001b3565b0151905038806200015c565b60008581526020812093505b601f19851681106200076b5750918391600293600195601f198116106200074f575b5050500201815562000173565b01516008601f841602840a600019041916905538808062000742565b9192602060018192868501518155019401920162000720565b9091508360005260206000206020601f850104810160208510620007d1575b90849392915b6020601f84010482018110620007c157505062000143565b60008155859450600101620007a9565b5080620007a3565b91607f16916200012d565b600080fd5b60405190604082018281106001604060020a03821117620003ff5760405256fe6080604052600436101561001257600080fd5b7c010000000000000000000000000000000000000000000000000000000060003504806308d19b8b14610a7b5780631c00a8cb1461046957806323c31473146103785780633f2c0e351461035a57806340c579981461032c5780636d052b371461025c5780637cd7710d1461023e5780638f823dfe1461021f57806398ad1b9514610192578063b0d23b09146101665763df5ff354146100b157600080fd5b346101615760603660031901126101615760ff60026101096004356100d4610f94565b506100ed6100e182610f42565b81610159575b5061109e565b6101046100f982610d8c565b505460243514611112565b610d8c565b5001541660028110156101405760016101229114611112565b61013c610130604435610fc6565b60405191829182610d0f565b0390f35b60e060020a634e487b7102600052602160045260246000fd5b9050386100e7565b600080fd5b3461016157604061017f61017936610ce3565b90610e0a565b61018b83518093610d02565b6020820152f35b34610161576040366003190112610161576004356024356004811015610161576101bb82610f42565b50156101d85760026101cf6101d693610d8c565b5001610ddd565b005b606460405160e560020a62461bcd02815260206004820152601960248201527f5265717565737420646f6573206e6f74206578697374202121000000000000006044820152fd5b346101615760203660031901126101615761013c610130600435610fc6565b34610161576000366003190112610161576020600254604051908152f35b34610161576020366003190112610161576004356000548110156102e55761028381610d8c565b5054600161029083610d8c565b5001549160ff61010060026102b383826102a987610d8c565b5001541694610d8c565b50015404169260405192835260208301526002811015610140576080926102e39160408401526060830190610d02565bf35b606460405160e560020a62461bcd02815260206004820152601a60248201527f57524f4e4720494e44455820464f5220524551554553542021210000000000006044820152fd5b3461016157602036600319011261016157604061034a600435610f42565b8251911515825215156020820152f35b34610161576000366003190112610161576020600054604051908152f35b346101615761038636610ce3565b9060005490604051906080820182811067ffffffffffffffff8211176104505760405281526020810190428252604081019360028110156101405784526060810191600283526801000000000000000084101561045057600184016000556103ed84610d8c565b9190916104375760029251825551600182015501925160028110156101405760ff80198554169116178355519160048310156101405760209261042f91610ddd565b604051908152f35b60e060020a634e487b7102600052600060045260246000fd5b60e060020a634e487b7102600052604160045260246000fd5b346101615760c03660031901126101615760043560243567ffffffffffffffff81116101615761049d903690600401610c8c565b9060643567ffffffffffffffff8111610161576104be903690600401610c8c565b9060843567ffffffffffffffff8111610161576104df903690600401610c8c565b60a43567ffffffffffffffff811161016157600261053561050660ff933690600401610c8c565b9461051e61051382610f42565b81610a73575061109e565b61010461052a82610d8c565b505460443514611112565b5001541660028110156101405761054c9015611112565b6002546000198114610a5a5760010192836002556040519461056d86610b69565b855242602086015260443560408601526060850152608084015260a083015260005260016020526040600020815180519067ffffffffffffffff82116104505781906105b98454610b2b565b601f8111610a0a575b50602090601f831160011461099f57600092610994575b5050816002029160080260020a6000190419161781555b6020820151600182015560408201516002820155606082015180519067ffffffffffffffff821161045057819061062a6003850154610b2b565b601f8111610941575b50602090601f83116001146108cd576000926108c2575b5050816002029160080260020a6000190419161760038201555b608082015180519067ffffffffffffffff8211610450576106886004840154610b2b565b601f811161087b575b50602090601f831160011461080357918060a094926005946000926107f8575b5050816002029160080260020a6000190419161760048201555b0191015180519067ffffffffffffffff82116104505781906106ed8454610b2b565b601f81116107a5575b50602090601f831160011461073c57600092610731575b5050816002029160080260020a6000190419161790555b6020600254604051908152f35b01519050838061070d565b6000858152602081209350601f198516905b81811061078d57509160029391856001969410610772575b50505002019055610724565b01516008601f841602840a6000190419169055848080610766565b9293602060018192878601518155019501930161074e565b9091508360005260206000206020601f850104810191602085106107ee575b906020601f86959493010401905b8181106107df57506106f6565b600081558493506001016107d2565b90915081906107c4565b0151905086806106b1565b906004840160005260206000209160005b601f198516811061086357508360a09593600193600293600597601f19811610610848575b505050020160048201556106cb565b01516008601f841602840a6000190419169055878080610839565b91926020600181928685015181550194019201610814565b6004840160005260206000206020601f8501048101602085106108bb575b6020601f840104820181106108af575050610691565b60008155600101610899565b5080610899565b01519050848061064a565b91506003840160005260206000209160005b601f19851681106109295750918391600293600195601f1981161061090e575b50505002016003820155610664565b01516008601f841602840a60001904191690558580806108ff565b919260206001819286850151815501940192016108df565b9091506003840160005260206000206020601f85010481016020851061098d575b90849392915b6020601f8401048201811061097e575050610633565b60008155859450600101610968565b5080610962565b0151905084806105d9565b60008581526020812093505b601f19851681106109f25750918391600293600195601f198116106109d7575b505050020181556105f0565b01516008601f841602840a60001904191690558580806109cb565b919260206001819286850151815501940192016109ab565b9091508360005260206000206020601f850104810160208510610a53575b90849392915b6020601f84010482018110610a445750506105c2565b60008155859450600101610a2e565b5080610a28565b60e060020a634e487b7102600052601160045260246000fd5b90508a6100e7565b34610161576020366003190112610161576004356000526001602052610af7604060002061013c610aab82610ba7565b91610b1d600182015491610b0f600282015493610aca60038401610ba7565b610ae26005610adb60048701610ba7565b9501610ba7565b95604051998a9960c08b5260c08b0190610c4c565b9260208a015260408901528782036060890152610c4c565b908582036080870152610c4c565b9083820360a0850152610c4c565b9060016002830492168015610b5f575b6020831014610b4657565b60e060020a634e487b7102600052602260045260246000fd5b91607f1691610b3b565b60c0810190811067ffffffffffffffff82111761045057604052565b90601f8019910116810190811067ffffffffffffffff82111761045057604052565b9060405191826000825492610bbb84610b2b565b908184526001948581169081600014610c2a5750600114610be7575b5050610be592500383610b85565b565b9093915060005260209081600020936000915b818310610c12575050610be593508201013880610bd7565b85548884018501529485019487945091830191610bfa565b915050610be594506020925060ff191682840152151581028201013880610bd7565b919082519283825260005b848110610c78575050826000602080949584010152601f8019910116010190565b602081830181015184830182015201610c57565b81601f820112156101615780359067ffffffffffffffff82116104505760405192610cc1601f8401601f191660200185610b85565b8284526020838301011161016157816000926020809301838601378301015290565b6040906003190112610161576004359060243560028110156101615790565b9060048210156101405752565b90610d899160208152610d2e825160c0602084015260e0830190610c4c565b90602083015160408201526040830151606082015260c060a0610d79610d66606087015195601f199687878303016080880152610c4c565b6080870151868683030184870152610c4c565b9401519282850301910152610c4c565b90565b906000918254811015610dc657600390838052027f290decd9548b62a8d60345a988386fc84ba6bc95484008f6362f93160ef3e563019190565b60248360e060020a634e487b710281526032600452fd5b9060048110156101405761ff0061010083549202169061ff001916179055565b91908203918211610a5a57565b916000918254805b610e1e57506002935050565b600019810181811180610f2b5786610e3583610d8c565b50541480610ed0575b610e6b5750508015610e54576000190180610e12565b60248460e060020a634e487b710281526011600452fd5b92509293945050610eb95762015180610e916001610e8884610d8c565b50015442610dfd565b1115610e9e575060039190565b915060ff6101006002610eb085610d8c565b50015404169190565b60248360e060020a634e487b710281526011600452fd5b505084610edc82610d8c565b5060ff600280920154169080861015610f1457811015610efd578414610e3e565b60248760e060020a634e487b710281526021600452fd5b60248860e060020a634e487b710281526021600452fd5b60248660e060020a634e487b710281526011600452fd5b62015180610f546001610e8884610d8c565b11610f8b576101006002610f6960ff93610d8c565b500154041660048110156101405715610f8457600190600090565b6001908190565b50600090600090565b60405190610fa182610b69565b606060a083828152600060208201526000604082015282808201528260808201520152565b610fce610f94565b5080151580611092575b1561104b5760005260016020526040600020611043600560405192610ffc84610b69565b61100581610ba7565b8452600181015460208501526002810154604085015261102760038201610ba7565b606085015261103860048201610ba7565b608085015201610ba7565b60a082015290565b606460405160e560020a62461bcd02815260206004820152601560248201527f45485220646f6573206e6f7420657869737420212100000000000000000000006044820152fd5b50600254811115610fd8565b156110a557565b608460405160e560020a62461bcd02815260206004820152602e60248201527f5265717565737420646f6573206e6f74206578697374206f7220646f6573206e60448201527f6f742061636365707465642021210000000000000000000000000000000000006064820152fd5b1561111957565b606460405160e560020a62461bcd02815260206004820152601460248201527f7065726d697373696f6e2064656e6965642021210000000000000000000000006044820152fdfea2646970667358221220ca49233bb76b7363712f8b74283d01c7293e4fd97bc5c6cacc5a585518632ae464736f6c63430008110033a264697066735822122076164f7ef114a391b841b883add168c851ab909c3633fb068acc1f962d98cfe064736f6c63430008110033608034620007e457600160025560c08101908082106001604060020a03831117620003ff57604091825262000033620007e9565b600a81527f746573745f7469746c65000000000000000000000000000000000000000000006020820152815242602082015260178282015262000075620007e9565b600481527f7465737400000000000000000000000000000000000000000000000000000000908160208201526060830152620000b0620007e9565b600b81527f48656c6c6f20776f726c6400000000000000000000000000000000000000000060208201526080830152620000e9620007e9565b9060048252602082015260a0820152600160005260016020528160002081518051906001604060020a038211620003ff5782549060016002830492168015620007d9575b6020831014620005005781601f84931162000784575b50602090601f8311600114620007145760009262000708575b5050816002029160080260020a6000190419161781555b6020820151600182015582820151600282015560608201518051906001604060020a038211620003ff5760038301549060016002830492168015620006fd575b6020831014620005005781601f849311620006a2575b50602090601f831160011462000629576000926200061d575b5050816002029160080260020a6000190419161760038201555b60808201518051906001604060020a038211620003ff5760048301546001600282049116801562000612575b60208210146200050057601f8111620005c1575b50602090601f83116001146200054657918060a094926005946000926200053a575b5050816002029160080260020a6000190419161760048201555b019101518051906001604060020a038211620003ff57825490600160028304921680156200052f575b6020831014620005005781601f849311620004a8575b50602090601f83116001146200043a576000926200042e575b5050816002029160080260020a6000190419161790555b8051608081018181106001604060020a03821117620003ff57825260178152602081019042825282810191600183526060820191600283526000549168010000000000000000831015620003ff576001830180600055831015620003d057600292600080526003602060002091020191518255516001820155019151906002821015620003a157825490516004811015620003a15761ff0061010060ff92021692169061ffff1916171790555161119690816200080a8239f35b7f4e487b7100000000000000000000000000000000000000000000000000000000600052602160045260246000fd5b7f4e487b7100000000000000000000000000000000000000000000000000000000600052603260045260246000fd5b7f4e487b7100000000000000000000000000000000000000000000000000000000600052604160045260246000fd5b015190503880620002d0565b6000858152602081209350601f198516905b8181106200048f5750916002939185600196941062000473575b50505002019055620002e7565b01516008601f841602840a600019041916905538808062000466565b929360206001819287860151815501950193016200044c565b9091508360005260206000206020601f85010481019160208510620004f5575b906020601f86959493010401905b818110620004e55750620002b7565b60008155849350600101620004d6565b9091508190620004c8565b7f4e487b7100000000000000000000000000000000000000000000000000000000600052602260045260246000fd5b91607f1691620002a1565b0151905038806200025e565b90601f198316916004850160005260206000209260005b818110620005a857509360a0959360019360029383600598106200058c575b5050500201600482015562000278565b01516008601f841602840a60001904191690553880806200057c565b929360206001819287860151815501950193016200055d565b6004840160005260206000206020601f8501048101916020851062000607575b601f602091010401905b818110620005fa57506200023c565b60008155600101620005eb565b9091508190620005e1565b90607f169062000228565b015190503880620001e2565b91506003840160005260206000209160005b601f1985168110620006895750918391600293600195601f198116106200066d575b50505002016003820155620001fc565b01516008601f841602840a60001904191690553880806200065d565b919260206001819286850151815501940192016200063b565b9091506003840160005260206000206020601f85010481019160208510620006f2575b906020601f86959493010401905b818110620006e25750620001c9565b60008155849350600101620006d3565b9091508190620006c5565b91607f1691620001b3565b0151905038806200015c565b60008581526020812093505b601f19851681106200076b5750918391600293600195601f198116106200074f575b5050500201815562000173565b01516008601f841602840a600019041916905538808062000742565b9192602060018192868501518155019401920162000720565b9091508360005260206000206020601f850104810160208510620007d1575b90849392915b6020601f84010482018110620007c157505062000143565b60008155859450600101620007a9565b5080620007a3565b91607f16916200012d565b600080fd5b60405190604082018281106001604060020a03821117620003ff5760405256fe6080604052600436101561001257600080fd5b7c010000000000000000000000000000000000000000000000000000000060003504806308d19b8b14610a7b5780631c00a8cb1461046957806323c31473146103785780633f2c0e351461035a57806340c579981461032c5780636d052b371461025c5780637cd7710d1461023e5780638f823dfe1461021f57806398ad1b9514610192578063b0d23b09146101665763df5ff354146100b157600080fd5b346101615760603660031901126101615760ff60026101096004356100d4610f94565b506100ed6100e182610f42565b81610159575b5061109e565b6101046100f982610d8c565b505460243514611112565b610d8c565b5001541660028110156101405760016101229114611112565b61013c610130604435610fc6565b60405191829182610d0f565b0390f35b60e060020a634e487b7102600052602160045260246000fd5b9050386100e7565b600080fd5b3461016157604061017f61017936610ce3565b90610e0a565b61018b83518093610d02565b6020820152f35b34610161576040366003190112610161576004356024356004811015610161576101bb82610f42565b50156101d85760026101cf6101d693610d8c565b5001610ddd565b005b606460405160e560020a62461bcd02815260206004820152601960248201527f5265717565737420646f6573206e6f74206578697374202121000000000000006044820152fd5b346101615760203660031901126101615761013c610130600435610fc6565b34610161576000366003190112610161576020600254604051908152f35b34610161576020366003190112610161576004356000548110156102e55761028381610d8c565b5054600161029083610d8c565b5001549160ff61010060026102b383826102a987610d8c565b5001541694610d8c565b50015404169260405192835260208301526002811015610140576080926102e39160408401526060830190610d02565bf35b606460405160e560020a62461bcd02815260206004820152601a60248201527f57524f4e4720494e44455820464f5220524551554553542021210000000000006044820152fd5b3461016157602036600319011261016157604061034a600435610f42565b8251911515825215156020820152f35b34610161576000366003190112610161576020600054604051908152f35b346101615761038636610ce3565b9060005490604051906080820182811067ffffffffffffffff8211176104505760405281526020810190428252604081019360028110156101405784526060810191600283526801000000000000000084101561045057600184016000556103ed84610d8c565b9190916104375760029251825551600182015501925160028110156101405760ff80198554169116178355519160048310156101405760209261042f91610ddd565b604051908152f35b60e060020a634e487b7102600052600060045260246000fd5b60e060020a634e487b7102600052604160045260246000fd5b346101615760c03660031901126101615760043560243567ffffffffffffffff81116101615761049d903690600401610c8c565b9060643567ffffffffffffffff8111610161576104be903690600401610c8c565b9060843567ffffffffffffffff8111610161576104df903690600401610c8c565b60a43567ffffffffffffffff811161016157600261053561050660ff933690600401610c8c565b9461051e61051382610f42565b81610a73575061109e565b61010461052a82610d8c565b505460443514611112565b5001541660028110156101405761054c9015611112565b6002546000198114610a5a5760010192836002556040519461056d86610b69565b855242602086015260443560408601526060850152608084015260a083015260005260016020526040600020815180519067ffffffffffffffff82116104505781906105b98454610b2b565b601f8111610a0a575b50602090601f831160011461099f57600092610994575b5050816002029160080260020a6000190419161781555b6020820151600182015560408201516002820155606082015180519067ffffffffffffffff821161045057819061062a6003850154610b2b565b601f8111610941575b50602090601f83116001146108cd576000926108c2575b5050816002029160080260020a6000190419161760038201555b608082015180519067ffffffffffffffff8211610450576106886004840154610b2b565b601f811161087b575b50602090601f831160011461080357918060a094926005946000926107f8575b5050816002029160080260020a6000190419161760048201555b0191015180519067ffffffffffffffff82116104505781906106ed8454610b2b565b601f81116107a5575b50602090601f831160011461073c57600092610731575b5050816002029160080260020a6000190419161790555b6020600254604051908152f35b01519050838061070d565b6000858152602081209350601f198516905b81811061078d57509160029391856001969410610772575b50505002019055610724565b01516008601f841602840a6000190419169055848080610766565b9293602060018192878601518155019501930161074e565b9091508360005260206000206020601f850104810191602085106107ee575b906020601f86959493010401905b8181106107df57506106f6565b600081558493506001016107d2565b90915081906107c4565b0151905086806106b1565b906004840160005260206000209160005b601f198516811061086357508360a09593600193600293600597601f19811610610848575b505050020160048201556106cb565b01516008601f841602840a6000190419169055878080610839565b91926020600181928685015181550194019201610814565b6004840160005260206000206020601f8501048101602085106108bb575b6020601f840104820181106108af575050610691565b60008155600101610899565b5080610899565b01519050848061064a565b91506003840160005260206000209160005b601f19851681106109295750918391600293600195601f1981161061090e575b50505002016003820155610664565b01516008601f841602840a60001904191690558580806108ff565b919260206001819286850151815501940192016108df565b9091506003840160005260206000206020601f85010481016020851061098d575b90849392915b6020601f8401048201811061097e575050610633565b60008155859450600101610968565b5080610962565b0151905084806105d9565b60008581526020812093505b601f19851681106109f25750918391600293600195601f198116106109d7575b505050020181556105f0565b01516008601f841602840a60001904191690558580806109cb565b919260206001819286850151815501940192016109ab565b9091508360005260206000206020601f850104810160208510610a53575b90849392915b6020601f84010482018110610a445750506105c2565b60008155859450600101610a2e565b5080610a28565b60e060020a634e487b7102600052601160045260246000fd5b90508a6100e7565b34610161576020366003190112610161576004356000526001602052610af7604060002061013c610aab82610ba7565b91610b1d600182015491610b0f600282015493610aca60038401610ba7565b610ae26005610adb60048701610ba7565b9501610ba7565b95604051998a9960c08b5260c08b0190610c4c565b9260208a015260408901528782036060890152610c4c565b908582036080870152610c4c565b9083820360a0850152610c4c565b9060016002830492168015610b5f575b6020831014610b4657565b60e060020a634e487b7102600052602260045260246000fd5b91607f1691610b3b565b60c0810190811067ffffffffffffffff82111761045057604052565b90601f8019910116810190811067ffffffffffffffff82111761045057604052565b9060405191826000825492610bbb84610b2b565b908184526001948581169081600014610c2a5750600114610be7575b5050610be592500383610b85565b565b9093915060005260209081600020936000915b818310610c12575050610be593508201013880610bd7565b85548884018501529485019487945091830191610bfa565b915050610be594506020925060ff191682840152151581028201013880610bd7565b919082519283825260005b848110610c78575050826000602080949584010152601f8019910116010190565b602081830181015184830182015201610c57565b81601f820112156101615780359067ffffffffffffffff82116104505760405192610cc1601f8401601f191660200185610b85565b8284526020838301011161016157816000926020809301838601378301015290565b6040906003190112610161576004359060243560028110156101615790565b9060048210156101405752565b90610d899160208152610d2e825160c0602084015260e0830190610c4c565b90602083015160408201526040830151606082015260c060a0610d79610d66606087015195601f199687878303016080880152610c4c565b6080870151868683030184870152610c4c565b9401519282850301910152610c4c565b90565b906000918254811015610dc657600390838052027f290decd9548b62a8d60345a988386fc84ba6bc95484008f6362f93160ef3e563019190565b60248360e060020a634e487b710281526032600452fd5b9060048110156101405761ff0061010083549202169061ff001916179055565b91908203918211610a5a57565b916000918254805b610e1e57506002935050565b600019810181811180610f2b5786610e3583610d8c565b50541480610ed0575b610e6b5750508015610e54576000190180610e12565b60248460e060020a634e487b710281526011600452fd5b92509293945050610eb95762015180610e916001610e8884610d8c565b50015442610dfd565b1115610e9e575060039190565b915060ff6101006002610eb085610d8c565b50015404169190565b60248360e060020a634e487b710281526011600452fd5b505084610edc82610d8c565b5060ff600280920154169080861015610f1457811015610efd578414610e3e565b60248760e060020a634e487b710281526021600452fd5b60248860e060020a634e487b710281526021600452fd5b60248660e060020a634e487b710281526011600452fd5b62015180610f546001610e8884610d8c565b11610f8b576101006002610f6960ff93610d8c565b500154041660048110156101405715610f8457600190600090565b6001908190565b50600090600090565b60405190610fa182610b69565b606060a083828152600060208201526000604082015282808201528260808201520152565b610fce610f94565b5080151580611092575b1561104b5760005260016020526040600020611043600560405192610ffc84610b69565b61100581610ba7565b8452600181015460208501526002810154604085015261102760038201610ba7565b606085015261103860048201610ba7565b608085015201610ba7565b60a082015290565b606460405160e560020a62461bcd02815260206004820152601560248201527f45485220646f6573206e6f7420657869737420212100000000000000000000006044820152fd5b50600254811115610fd8565b156110a557565b608460405160e560020a62461bcd02815260206004820152602e60248201527f5265717565737420646f6573206e6f74206578697374206f7220646f6573206e60448201527f6f742061636365707465642021210000000000000000000000000000000000006064820152fd5b1561111957565b606460405160e560020a62461bcd02815260206004820152601460248201527f7065726d697373696f6e2064656e6965642021210000000000000000000000006044820152fdfea2646970667358221220ca49233bb76b7363712f8b74283d01c7293e4fd97bc5c6cacc5a585518632ae464736f6c63430008110033",
  "immutableReferences": {},
  "source": "// SPDX-License-Identifier: GPL-3.0\r\n\r\npragma solidity >=0.7.0 <0.9.0;\r\n\r\nimport {EHR} from \"./EHR.sol\";\r\nimport {HealthAuthority} from \"./HealthAuthority.sol\";\r\nimport {HealthActor} from \"./HealthActor.sol\";\r\n\r\n\r\n/** \r\n * @title Patient\r\n * @dev Implements Patient methods\r\n */\r\ncontract Patient {\r\n\r\n    HealthAuthority authority;\r\n    HealthActor actor;\r\n\r\n    struct patient{\r\n        uint id;\r\n        string name;\r\n        address addr;\r\n        EHR ehr;\r\n        string public_key;\r\n    }\r\n    patient[] patients;\r\n\r\n    modifier onlyAuthority() {\r\n        (uint index, bool exist) = authority.checkHealthAuthority(msg.sender);\r\n        require(exist, \"Caller have not permession\");\r\n        _;\r\n    }\r\n\r\n    constructor(address authorityAddress, address actorAddress){\r\n        authority = HealthAuthority(authorityAddress);\r\n        actor = HealthActor(actorAddress);\r\n\r\n        patients.push(patient(20, 'badro', address(0x87C8Ea2F6EF914766609df6C776e65b191F97EF8), new EHR(), \"public_key\"));\r\n        // patients.push(patient(25, 'bilal', address(0xDb4454a0Ff6c7eBeAD241de2432D68648f4b2ff5), new EHR(), \"public_key\"));\r\n    }\r\n\r\n    /**\r\n    * ///////////////////////////////////////////////////////////////////////\r\n    *                       PUBLIC METHODS FOR PATIENT (GETTERS)\r\n    * ///////////////////////////////////////////////////////////////////////\r\n    */\r\n    function checkPatient(uint _id, address _address) view public returns (uint, bool) {\r\n        uint index = 0;\r\n        bool exist = false;\r\n        for (uint i = 0; i < patients.length ; i++){\r\n            if (patients[i].id == _id || patients[i].addr == _address){\r\n                exist = true;\r\n                index = i;\r\n                break;\r\n            }\r\n        }\r\n        return (index, exist);\r\n    }\r\n\r\n    function getNumberOfPatient() public view returns(uint) {\r\n        return patients.length;\r\n    }\r\n\r\n    function getPatientByIndex(uint _index) public view returns(uint, string memory, address) {\r\n        require(_index >= 0 && _index < patients.length, \"Wrong index!!\");\r\n        return (patients[_index].id, patients[_index].name, patients[_index].addr);\r\n    }\r\n\r\n    /**\r\n    * ///////////////////////////////////////////////////////////////////////\r\n    *                       PUBLIC METHODS FOR REQEUST\r\n    * ///////////////////////////////////////////////////////////////////////\r\n    */\r\n    ////////// ONLY CALL BY PATIENT //////////\r\n    function getNumberOfRequest() public view returns (uint256) {\r\n        (uint index, bool exist) = checkPatient(0, msg.sender);\r\n        require(exist, \"You are not a patient !!\");\r\n        return patients[index].ehr.getNumberOfRequest();\r\n    }\r\n    function getRequestByIndex(uint256 _requestID) public view returns (string memory, uint256, EHR.RequestType, EHR.RequestState, string memory){\r\n        (uint index, bool exist) = checkPatient(0, msg.sender);\r\n        require(exist, \"You are not a patient !!\");\r\n        // get a request : (actorID, timestamp, rType, state)\r\n        (uint actorID, uint256 timestamp, EHR.RequestType rType, EHR.RequestState state) = patients[index].ehr.getRequestByIndex(_requestID);\r\n\r\n        (string memory actorName, string memory centerName) = actor.getActorAndCenterName(actorID);\r\n\r\n        return (actorName, timestamp, rType, state, centerName);\r\n    }\r\n    /** \r\n     * @dev Response to a request from associated patient.\r\n     * @param _requestID the request id \r\n     */\r\n    function setResponse(uint _requestID, EHR.RequestState _newState) public {\r\n        // check if this is trusted patient \r\n        (uint index, bool exist) = checkPatient(0, msg.sender);\r\n        require(exist, \"you are not a patient, permission denied !!\");\r\n\r\n        // response to request \r\n        patients[index].ehr.setResponse(_requestID, _newState);\r\n\r\n        // event to actor \r\n    }\r\n\r\n    ////////// ONLY CALL BY ACTOR //////////\r\n    function verifyAuthorization(uint _patientID, EHR.RequestType _type) public view returns (EHR.RequestState, uint) {\r\n        (uint index, bool exist) = checkPatient(_patientID, address(0x0));\r\n        require(exist, \"This patient does not exist !! \");\r\n        // get actor id for checking respose\r\n        uint actor_id = actor.getActor(msg.sender).id;\r\n        return patients[index].ehr.checkResponse(actor_id, _type);\r\n    }\r\n    /** \r\n     * @dev Create a new request from an actor.\r\n     * @param _patientID this is a patient id\r\n     * @param _requestType the type of request CONSULT PUBLISH\r\n     */\r\n    function sendRequest(uint _patientID, EHR.RequestType _requestType) public returns (bool){\r\n        // check if caller is actor\r\n        uint actorID = actor.getActor(msg.sender).id;\r\n\r\n        // check if patient exist \r\n        (uint index, bool exist) = checkPatient(_patientID, address(0));\r\n        require(exist, \"Patient does not exist !!\");\r\n\r\n        patients[index].ehr.setRequest(actorID,  _requestType);\r\n\r\n        //TODO: event to patient\r\n\r\n        return true; // return the requestID\r\n    }\r\n\r\n\r\n    /**\r\n    * ///////////////////////////////////////////////////////////////////////\r\n    *                    PUBLIC METHODS FOR EHR PURPOSE\r\n    * ///////////////////////////////////////////////////////////////////////\r\n    */\r\n\r\n    function getNbOfEHR(uint _patientID) public view returns (uint256) {\r\n        (uint index, bool exist) = checkPatient(_patientID, msg.sender);\r\n        require(exist, \"This patient does not exist !!\");\r\n        return patients[index].ehr.ehrCount();\r\n    }\r\n\r\n    function getEHR(uint _ehrID, uint _patientID) view public returns (string memory, uint256,string memory,string memory, string memory, string memory, string memory) {    \r\n        // EHR = (title, date, actorName, centerName, hash, ipfs, secretKey)  \r\n\r\n        //// if the caller is patient\r\n        (uint index, bool isPatient) = checkPatient(0, msg.sender);\r\n        if (isPatient) {\r\n            EHR.EHRAbstract memory temp1 = patients[index].ehr.getEHRAbstract(_ehrID);\r\n            (string memory actorName, string memory centerName) = actor.getActorAndCenterName(temp1.actorID);\r\n            return (temp1.title, temp1.date , actorName, centerName, temp1.ehrHash, temp1.ipfsHashAddress, temp1.secretKey);\r\n        }\r\n\r\n        //// if the caller is actor => \r\n        // check if patient exist \r\n        (index, isPatient) = checkPatient(_patientID, address(0));\r\n        require(isPatient, \"patient does not exist !!\");\r\n        // check actor\r\n        uint actorID = actor.getActor(msg.sender).id;\r\n        // check the authorization\r\n        (EHR.RequestState state, uint _requestID) = patients[index].ehr.checkResponse(actorID, EHR.RequestType.CONSULT);\r\n        require(state==EHR.RequestState.ACCEPTED, \"Permission denied !! please request patient for consulting...\");\r\n        // get the EHR\r\n        EHR.EHRAbstract memory temp = patients[index].ehr.getEHRbyActor(_requestID, actorID, _ehrID);\r\n        (string memory actorrName, string memory centerrName) = actor.getActorAndCenterName(temp.actorID);\r\n        return (temp.title, temp.date , actorrName, centerrName, temp.ehrHash, temp.ipfsHashAddress, temp.secretKey);\r\n    }\r\n\r\n    /////////////// ACTOR ONLY ///////////////\r\n\r\n    function shareEHR(uint _patientID, uint _requestID, string memory _title, string memory _hash, string memory _ipfsAddr, string memory _secretKey ) public {\r\n        // check if patient exist \r\n        (uint index, bool exist) = checkPatient(_patientID, address(0));\r\n        require(exist, \"patient does not exist !!\");\r\n\r\n        // check if actor exist and get the actor id\r\n        uint actorID = actor.getActor(msg.sender).id;\r\n       \r\n        patients[index].ehr.addEHRAbstract(_requestID, _title, actorID, _hash, _ipfsAddr, _secretKey);\r\n    }\r\n\r\n\r\n\r\n    /**\r\n    * ///////////////////////////////////////////////////////////////////////\r\n    *         PUBLIC METHODS FOR REGISTRATION PURPOSE (Authority only)\r\n    * ///////////////////////////////////////////////////////////////////////\r\n    */\r\n    function addPatient(uint _id, string memory _name, address _account, string memory _pKey) public onlyAuthority {\r\n        (, bool exist) = checkPatient(_id, _account);\r\n        require(exist==false, \"patient id or account already exist !!\");\r\n\r\n        patients.push(patient(_id, _name, _account, new EHR(), _pKey));\r\n    }\r\n\r\n    function rmPatient(uint _id) public onlyAuthority{\r\n        (uint index, bool exist) = checkPatient(_id, address(0));\r\n        require(exist==true, \"patient does not exist !!\");\r\n\r\n        patients[index] = patients[patients.length-1];\r\n        patients.pop();\r\n    }\r\n}\r\n",
  "sourcePath": "F:\\ComputerScience\\projects\\PFE\\project\\2022-2023\\Blockchain-side\\contracts\\Patient.sol",
  "compiler": {
    "name": "solc",
    "version": "0.8.17+commit.8df45f5f.Emscripten.clang"
  },
  "schemaVersion": "3.4.11",
  "updatedAt": "2023-05-01T23:39:25.509Z",
  "networkType": "ethereum",
  "devdoc": {
    "details": "Implements Patient methods",
    "kind": "dev",
    "methods": {
      "sendRequest(uint256,uint8)": {
        "details": "Create a new request from an actor.",
        "params": {
          "_patientID": "this is a patient id",
          "_requestType": "the type of request CONSULT PUBLISH"
        }
      },
      "setResponse(uint256,uint8)": {
        "details": "Response to a request from associated patient.",
        "params": {
          "_requestID": "the request id "
        }
      }
    },
    "title": "Patient",
    "version": 1
  },
  "userdoc": {
    "kind": "user",
    "methods": {
      "addPatient(uint256,string,address,string)": {
        "notice": "///////////////////////////////////////////////////////////////////////         PUBLIC METHODS FOR REGISTRATION PURPOSE (Authority only) ///////////////////////////////////////////////////////////////////////"
      },
      "checkPatient(uint256,address)": {
        "notice": "///////////////////////////////////////////////////////////////////////                       PUBLIC METHODS FOR PATIENT (GETTERS) ///////////////////////////////////////////////////////////////////////"
      },
      "getNbOfEHR(uint256)": {
        "notice": "///////////////////////////////////////////////////////////////////////                    PUBLIC METHODS FOR EHR PURPOSE ///////////////////////////////////////////////////////////////////////"
      },
      "getNumberOfRequest()": {
        "notice": "///////////////////////////////////////////////////////////////////////                       PUBLIC METHODS FOR REQEUST ///////////////////////////////////////////////////////////////////////"
      }
    },
    "version": 1
  }
}