{
  "contractName": "Patient",
  "abi": [
    {
      "inputs": [
        {
          "internalType": "address",
          "name": "authorityAddress",
          "type": "address"
        },
        {
          "internalType": "address",
          "name": "actorAddress",
          "type": "address"
        }
      ],
      "stateMutability": "nonpayable",
      "type": "constructor"
    },
    {
      "inputs": [
        {
          "internalType": "uint256",
          "name": "_id",
          "type": "uint256"
        },
        {
          "internalType": "address",
          "name": "_address",
          "type": "address"
        }
      ],
      "name": "checkPatient",
      "outputs": [
        {
          "internalType": "uint256",
          "name": "",
          "type": "uint256"
        },
        {
          "internalType": "bool",
          "name": "",
          "type": "bool"
        }
      ],
      "stateMutability": "view",
      "type": "function",
      "constant": true
    },
    {
      "inputs": [],
      "name": "getNumberOfPatient",
      "outputs": [
        {
          "internalType": "uint256",
          "name": "",
          "type": "uint256"
        }
      ],
      "stateMutability": "view",
      "type": "function",
      "constant": true
    },
    {
      "inputs": [
        {
          "internalType": "uint256",
          "name": "_index",
          "type": "uint256"
        }
      ],
      "name": "getPatientByIndex",
      "outputs": [
        {
          "internalType": "uint256",
          "name": "",
          "type": "uint256"
        },
        {
          "internalType": "string",
          "name": "",
          "type": "string"
        },
        {
          "internalType": "address",
          "name": "",
          "type": "address"
        }
      ],
      "stateMutability": "view",
      "type": "function",
      "constant": true
    },
    {
      "inputs": [
        {
          "internalType": "uint256",
          "name": "_id",
          "type": "uint256"
        },
        {
          "internalType": "string",
          "name": "_name",
          "type": "string"
        },
        {
          "internalType": "address",
          "name": "_account",
          "type": "address"
        }
      ],
      "name": "addPatient",
      "outputs": [],
      "stateMutability": "nonpayable",
      "type": "function"
    },
    {
      "inputs": [
        {
          "internalType": "uint256",
          "name": "_id",
          "type": "uint256"
        }
      ],
      "name": "rmPatient",
      "outputs": [],
      "stateMutability": "nonpayable",
      "type": "function"
    },
    {
      "inputs": [
        {
          "internalType": "uint256",
          "name": "_patientID",
          "type": "uint256"
        },
        {
          "internalType": "enum EHR.RequestType",
          "name": "_requestType",
          "type": "uint8"
        }
      ],
      "name": "sendRequest",
      "outputs": [
        {
          "internalType": "uint256",
          "name": "",
          "type": "uint256"
        }
      ],
      "stateMutability": "nonpayable",
      "type": "function"
    }
  ],
  "bytecode": "0x60806040523480156200001157600080fd5b50604051620022073803806200220783398181016040528101906200003791906200012a565b816000806101000a81548173ffffffffffffffffffffffffffffffffffffffff021916908373ffffffffffffffffffffffffffffffffffffffff16021790555080600160006101000a81548173ffffffffffffffffffffffffffffffffffffffff021916908373ffffffffffffffffffffffffffffffffffffffff160217905550505062000171565b600080fd5b600073ffffffffffffffffffffffffffffffffffffffff82169050919050565b6000620000f282620000c5565b9050919050565b6200010481620000e5565b81146200011057600080fd5b50565b6000815190506200012481620000f9565b92915050565b60008060408385031215620001445762000143620000c0565b5b6000620001548582860162000113565b9250506020620001678582860162000113565b9150509250929050565b61208680620001816000396000f3fe608060405234801561001057600080fd5b50600436106100625760003560e01c80631fed6dd6146100675780634053bbac1461008357806349bf3afb1461009f57806357ea0c2f146100d0578063c4113ed314610102578063e28d73a014610120575b600080fd5b610081600480360381019061007c9190610d90565b610150565b005b61009d60048036038101906100989190610dff565b6103e1565b005b6100b960048036038101906100b49190610e2c565b6106f7565b6040516100c7929190610e96565b60405180910390f35b6100ea60048036038101906100e59190610dff565b6107e4565b6040516100f993929190610f4d565b60405180910390f35b61010a610967565b6040516101179190610f8b565b60405180910390f35b61013a60048036038101906101359190610fcb565b610974565b6040516101479190610f8b565b60405180910390f35b60008060008054906101000a900473ffffffffffffffffffffffffffffffffffffffff1673ffffffffffffffffffffffffffffffffffffffff1663134e91ac336040518263ffffffff1660e01b81526004016101ac919061100b565b6040805180830381865afa1580156101c8573d6000803e3d6000fd5b505050506040513d601f19601f820116820180604052508101906101ec9190611067565b9150915080610230576040517f08c379a0000000000000000000000000000000000000000000000000000000008152600401610227906110f3565b60405180910390fd5b60008061023d87866106f7565b915091506000151581151514610288576040517f08c379a000000000000000000000000000000000000000000000000000000000815260040161027f90611185565b60405180910390fd5b600260405180608001604052808981526020018881526020018773ffffffffffffffffffffffffffffffffffffffff1681526020016040516102c990610b38565b604051809103906000f0801580156102e5573d6000803e3d6000fd5b5073ffffffffffffffffffffffffffffffffffffffff16815250908060018154018082558091505060019003906000526020600020906004020160009091909190915060008201518160000155602082015181600101908161034791906113b1565b5060408201518160020160006101000a81548173ffffffffffffffffffffffffffffffffffffffff021916908373ffffffffffffffffffffffffffffffffffffffff16021790555060608201518160030160006101000a81548173ffffffffffffffffffffffffffffffffffffffff021916908373ffffffffffffffffffffffffffffffffffffffff160217905550505050505050505050565b60008060008054906101000a900473ffffffffffffffffffffffffffffffffffffffff1673ffffffffffffffffffffffffffffffffffffffff1663134e91ac336040518263ffffffff1660e01b815260040161043d919061100b565b6040805180830381865afa158015610459573d6000803e3d6000fd5b505050506040513d601f19601f8201168201806040525081019061047d9190611067565b91509150806104c1576040517f08c379a00000000000000000000000000000000000000000000000000000000081526004016104b8906110f3565b60405180910390fd5b6000806104cf8560006106f7565b91509150600115158115151461051a576040517f08c379a0000000000000000000000000000000000000000000000000000000008152600401610511906114cf565b60405180910390fd5b6002600160028054905061052e919061151e565b8154811061053f5761053e611552565b5b90600052602060002090600402016002838154811061056157610560611552565b5b9060005260206000209060040201600082015481600001556001820181600101908161058d9190611597565b506002820160009054906101000a900473ffffffffffffffffffffffffffffffffffffffff168160020160006101000a81548173ffffffffffffffffffffffffffffffffffffffff021916908373ffffffffffffffffffffffffffffffffffffffff1602179055506003820160009054906101000a900473ffffffffffffffffffffffffffffffffffffffff168160030160006101000a81548173ffffffffffffffffffffffffffffffffffffffff021916908373ffffffffffffffffffffffffffffffffffffffff16021790555090505060028054806106715761067061167f565b5b600190038181906000526020600020906004020160008082016000905560018201600061069e9190610b45565b6002820160006101000a81549073ffffffffffffffffffffffffffffffffffffffff02191690556003820160006101000a81549073ffffffffffffffffffffffffffffffffffffffff0219169055505090555050505050565b60008060008060005b6002805490508110156107d457866002828154811061072257610721611552565b5b90600052602060002090600402016000015414806107b057508573ffffffffffffffffffffffffffffffffffffffff166002828154811061076657610765611552565b5b906000526020600020906004020160020160009054906101000a900473ffffffffffffffffffffffffffffffffffffffff1673ffffffffffffffffffffffffffffffffffffffff16145b156107c157600191508092506107d4565b80806107cc906116ae565b915050610700565b5081819350935050509250929050565b6000606060008084101580156107fe575060028054905084105b61083d576040517f08c379a000000000000000000000000000000000000000000000000000000000815260040161083490611742565b60405180910390fd5b6002848154811061085157610850611552565b5b9060005260206000209060040201600001546002858154811061087757610876611552565b5b90600052602060002090600402016001016002868154811061089c5761089b611552565b5b906000526020600020906004020160020160009054906101000a900473ffffffffffffffffffffffffffffffffffffffff168180546108da906111d4565b80601f0160208091040260200160405190810160405280929190818152602001828054610906906111d4565b80156109535780601f1061092857610100808354040283529160200191610953565b820191906000526020600020905b81548152906001019060200180831161093657829003601f168201915b505050505091509250925092509193909250565b6000600280549050905090565b600080600160009054906101000a900473ffffffffffffffffffffffffffffffffffffffff1673ffffffffffffffffffffffffffffffffffffffff1663cbd3638f336040518263ffffffff1660e01b81526004016109d2919061100b565b602060405180830381865afa1580156109ef573d6000803e3d6000fd5b505050506040513d601f19601f82011682018060405250810190610a139190611762565b9050600080610a238660006106f7565b9150915080610a67576040517f08c379a0000000000000000000000000000000000000000000000000000000008152600401610a5e906117db565b60405180910390fd5b60028281548110610a7b57610a7a611552565b5b906000526020600020906004020160030160009054906101000a900473ffffffffffffffffffffffffffffffffffffffff1673ffffffffffffffffffffffffffffffffffffffff166323c3147384876040518363ffffffff1660e01b8152600401610ae7929190611872565b6020604051808303816000875af1158015610b06573d6000803e3d6000fd5b505050506040513d601f19601f82011682018060405250810190610b2a9190611762565b506000935050505092915050565b6107b58061189c83390190565b508054610b51906111d4565b6000825580601f10610b635750610b82565b601f016020900490600052602060002090810190610b819190610b85565b5b50565b5b80821115610b9e576000816000905550600101610b86565b5090565b6000604051905090565b600080fd5b600080fd5b6000819050919050565b610bc981610bb6565b8114610bd457600080fd5b50565b600081359050610be681610bc0565b92915050565b600080fd5b600080fd5b6000601f19601f8301169050919050565b7f4e487b7100000000000000000000000000000000000000000000000000000000600052604160045260246000fd5b610c3f82610bf6565b810181811067ffffffffffffffff82111715610c5e57610c5d610c07565b5b80604052505050565b6000610c71610ba2565b9050610c7d8282610c36565b919050565b600067ffffffffffffffff821115610c9d57610c9c610c07565b5b610ca682610bf6565b9050602081019050919050565b82818337600083830152505050565b6000610cd5610cd084610c82565b610c67565b905082815260208101848484011115610cf157610cf0610bf1565b5b610cfc848285610cb3565b509392505050565b600082601f830112610d1957610d18610bec565b5b8135610d29848260208601610cc2565b91505092915050565b600073ffffffffffffffffffffffffffffffffffffffff82169050919050565b6000610d5d82610d32565b9050919050565b610d6d81610d52565b8114610d7857600080fd5b50565b600081359050610d8a81610d64565b92915050565b600080600060608486031215610da957610da8610bac565b5b6000610db786828701610bd7565b935050602084013567ffffffffffffffff811115610dd857610dd7610bb1565b5b610de486828701610d04565b9250506040610df586828701610d7b565b9150509250925092565b600060208284031215610e1557610e14610bac565b5b6000610e2384828501610bd7565b91505092915050565b60008060408385031215610e4357610e42610bac565b5b6000610e5185828601610bd7565b9250506020610e6285828601610d7b565b9150509250929050565b610e7581610bb6565b82525050565b60008115159050919050565b610e9081610e7b565b82525050565b6000604082019050610eab6000830185610e6c565b610eb86020830184610e87565b9392505050565b600081519050919050565b600082825260208201905092915050565b60005b83811015610ef9578082015181840152602081019050610ede565b60008484015250505050565b6000610f1082610ebf565b610f1a8185610eca565b9350610f2a818560208601610edb565b610f3381610bf6565b840191505092915050565b610f4781610d52565b82525050565b6000606082019050610f626000830186610e6c565b8181036020830152610f748185610f05565b9050610f836040830184610f3e565b949350505050565b6000602082019050610fa06000830184610e6c565b92915050565b60028110610fb357600080fd5b50565b600081359050610fc581610fa6565b92915050565b60008060408385031215610fe257610fe1610bac565b5b6000610ff085828601610bd7565b925050602061100185828601610fb6565b9150509250929050565b60006020820190506110206000830184610f3e565b92915050565b60008151905061103581610bc0565b92915050565b61104481610e7b565b811461104f57600080fd5b50565b6000815190506110618161103b565b92915050565b6000806040838503121561107e5761107d610bac565b5b600061108c85828601611026565b925050602061109d85828601611052565b9150509250929050565b7f43616c6c65722068617665206e6f74207065726d657373696f6e000000000000600082015250565b60006110dd601a83610eca565b91506110e8826110a7565b602082019050919050565b6000602082019050818103600083015261110c816110d0565b9050919050565b7f70617469656e74206964206f72206163636f756e7420616c726561647920657860008201527f6973742021210000000000000000000000000000000000000000000000000000602082015250565b600061116f602683610eca565b915061117a82611113565b604082019050919050565b6000602082019050818103600083015261119e81611162565b9050919050565b7f4e487b7100000000000000000000000000000000000000000000000000000000600052602260045260246000fd5b600060028204905060018216806111ec57607f821691505b6020821081036111ff576111fe6111a5565b5b50919050565b60008190508160005260206000209050919050565b60006020601f8301049050919050565b600082821b905092915050565b6000600883026112677fffffffffffffffffffffffffffffffffffffffffffffffffffffffffffffffff8261122a565b611271868361122a565b95508019841693508086168417925050509392505050565b6000819050919050565b60006112ae6112a96112a484610bb6565b611289565b610bb6565b9050919050565b6000819050919050565b6112c883611293565b6112dc6112d4826112b5565b848454611237565b825550505050565b600090565b6112f16112e4565b6112fc8184846112bf565b505050565b5b81811015611320576113156000826112e9565b600181019050611302565b5050565b601f8211156113655761133681611205565b61133f8461121a565b8101602085101561134e578190505b61136261135a8561121a565b830182611301565b50505b505050565b600082821c905092915050565b60006113886000198460080261136a565b1980831691505092915050565b60006113a18383611377565b9150826002028217905092915050565b6113ba82610ebf565b67ffffffffffffffff8111156113d3576113d2610c07565b5b6113dd82546111d4565b6113e8828285611324565b600060209050601f83116001811461141b5760008415611409578287015190505b6114138582611395565b86555061147b565b601f19841661142986611205565b60005b828110156114515784890151825560018201915060208501945060208101905061142c565b8683101561146e578489015161146a601f891682611377565b8355505b6001600288020188555050505b505050505050565b7f70617469656e7420646f6573206e6f7420657869737420212100000000000000600082015250565b60006114b9601983610eca565b91506114c482611483565b602082019050919050565b600060208201905081810360008301526114e8816114ac565b9050919050565b7f4e487b7100000000000000000000000000000000000000000000000000000000600052601160045260246000fd5b600061152982610bb6565b915061153483610bb6565b925082820390508181111561154c5761154b6114ef565b5b92915050565b7f4e487b7100000000000000000000000000000000000000000000000000000000600052603260045260246000fd5b600081549050611590816111d4565b9050919050565b8181036115a557505061167d565b6115ae82611581565b67ffffffffffffffff8111156115c7576115c6610c07565b5b6115d182546111d4565b6115dc828285611324565b6000601f83116001811461160b57600084156115f9578287015490505b6116038582611395565b865550611676565b601f19841661161987611205565b965061162486611205565b60005b8281101561164c57848901548255600182019150600185019450602081019050611627565b868310156116695784890154611665601f891682611377565b8355505b6001600288020188555050505b5050505050505b565b7f4e487b7100000000000000000000000000000000000000000000000000000000600052603160045260246000fd5b60006116b982610bb6565b91507fffffffffffffffffffffffffffffffffffffffffffffffffffffffffffffffff82036116eb576116ea6114ef565b5b600182019050919050565b7f57726f6e6720696e646578212100000000000000000000000000000000000000600082015250565b600061172c600d83610eca565b9150611737826116f6565b602082019050919050565b6000602082019050818103600083015261175b8161171f565b9050919050565b60006020828403121561177857611777610bac565b5b600061178684828501611026565b91505092915050565b7f50617469656e7420646f6573206e6f7420657869737420212100000000000000600082015250565b60006117c5601983610eca565b91506117d08261178f565b602082019050919050565b600060208201905081810360008301526117f4816117b8565b9050919050565b7f4e487b7100000000000000000000000000000000000000000000000000000000600052602160045260246000fd5b6002811061183b5761183a6117fb565b5b50565b600081905061184c8261182a565b919050565b600061185c8261183e565b9050919050565b61186c81611851565b82525050565b60006040820190506118876000830185610e6c565b6118946020830184611863565b939250505056fe608060405234801561001057600080fd5b50610795806100206000396000f3fe608060405234801561001057600080fd5b50600436106100575760003560e01c806323c314731461005c5780633f2c0e351461008c57806340c57998146100aa5780636d052b37146100db578063a9d51f581461010d575b600080fd5b61007660048036038101906100719190610452565b610129565b60405161008391906104a1565b60405180910390f35b610094610207565b6040516100a191906104a1565b60405180910390f35b6100c460048036038101906100bf91906104bc565b610213565b6040516100d2929190610504565b60405180910390f35b6100f560048036038101906100f091906104bc565b61026d565b604051610104939291906105a4565b60405180910390f35b61012760048036038101906101229190610607565b61035e565b005b6000806000805490509050600080604051806080016040528087815260200186600181111561015b5761015a61052d565b5b81526020018315158152602001600081525090806001815401808255809150506001900390600052602060002090600302016000909190919091506000820151816000015560208201518160010160006101000a81548160ff021916908360018111156101cb576101ca61052d565b5b021790555060408201518160010160016101000a81548160ff021916908315150217905550606082015181600201555050819250505092915050565b60008080549050905090565b60008060008084600080549050111561026057600191506000858154811061023e5761023d610647565b5b906000526020600020906003020160010160019054906101000a900460ff1690505b8181935093505050915091565b6000806000808410158015610286575060008054905084105b6102c5576040517f08c379a00000000000000000000000000000000000000000000000000000000081526004016102bc906106d3565b60405180910390fd5b600084815481106102d9576102d8610647565b5b906000526020600020906003020160000154600085815481106102ff576102fe610647565b5b906000526020600020906003020160010160009054906101000a900460ff166000868154811061033257610331610647565b5b906000526020600020906003020160010160019054906101000a900460ff169250925092509193909250565b60008061036a84610213565b91509150816103ae576040517f08c379a00000000000000000000000000000000000000000000000000000000081526004016103a59061073f565b60405180910390fd5b6001600085815481106103c4576103c3610647565b5b906000526020600020906003020160010160016101000a81548160ff02191690831515021790555050505050565b600080fd5b6000819050919050565b61040a816103f7565b811461041557600080fd5b50565b60008135905061042781610401565b92915050565b6002811061043a57600080fd5b50565b60008135905061044c8161042d565b92915050565b60008060408385031215610469576104686103f2565b5b600061047785828601610418565b92505060206104888582860161043d565b9150509250929050565b61049b816103f7565b82525050565b60006020820190506104b66000830184610492565b92915050565b6000602082840312156104d2576104d16103f2565b5b60006104e084828501610418565b91505092915050565b60008115159050919050565b6104fe816104e9565b82525050565b600060408201905061051960008301856104f5565b61052660208301846104f5565b9392505050565b7f4e487b7100000000000000000000000000000000000000000000000000000000600052602160045260246000fd5b6002811061056d5761056c61052d565b5b50565b600081905061057e8261055c565b919050565b600061058e82610570565b9050919050565b61059e81610583565b82525050565b60006060820190506105b96000830186610492565b6105c66020830185610595565b6105d360408301846104f5565b949350505050565b6105e4816104e9565b81146105ef57600080fd5b50565b600081359050610601816105db565b92915050565b6000806040838503121561061e5761061d6103f2565b5b600061062c85828601610418565b925050602061063d858286016105f2565b9150509250929050565b7f4e487b7100000000000000000000000000000000000000000000000000000000600052603260045260246000fd5b600082825260208201905092915050565b7f57524f4e4720494e44455820464f522052455155455354202121000000000000600082015250565b60006106bd601a83610676565b91506106c882610687565b602082019050919050565b600060208201905081810360008301526106ec816106b0565b9050919050565b7f5265717565737420646f6573206e6f7420657869737420212100000000000000600082015250565b6000610729601983610676565b9150610734826106f3565b602082019050919050565b600060208201905081810360008301526107588161071c565b905091905056fea2646970667358221220769aa4dcd68bef3b7c14b299c803812fff7d6af1b17c3a9fcb72120b778320a664736f6c63430008110033a2646970667358221220458671bf53ba64c72adc6dfbe6221936c0b1472d5b0d31198b4f68b3b3655ff564736f6c63430008110033",
  "immutableReferences": {},
  "source": "// SPDX-License-Identifier: GPL-3.0\r\n\r\npragma solidity >=0.7.0 <0.9.0;\r\n\r\nimport {EHR} from \"./EHR.sol\";\r\nimport {HealthAuthority} from \"./HealthAuthority.sol\";\r\nimport {HealthActor} from \"./HealthActor.sol\";\r\n\r\n\r\n/** \r\n * @title Patient\r\n * @dev Implements Patient methods\r\n */\r\ncontract Patient {\r\n\r\n    HealthAuthority authority;\r\n    HealthActor actor;\r\n\r\n    struct patient{\r\n        uint id;\r\n        string name;\r\n        address addr;\r\n        EHR ehr;\r\n    }\r\n    patient[] patients;\r\n\r\n    modifier isAccount() {\r\n        (uint index, bool exist) = authority.checkHealthAuthority(msg.sender);\r\n        require(exist, \"Caller have not permession\");\r\n        _;\r\n    }\r\n\r\n    constructor(address authorityAddress, address actorAddress){\r\n        authority = HealthAuthority(authorityAddress);\r\n        actor = HealthActor(actorAddress);\r\n    }\r\n\r\n\r\n    /**\r\n    * ///////////////////////////////////////////////////////////////////////\r\n    *         PUBLIC METHODS FOR REGISTRATION PURPOSE (Authority only)\r\n    * ///////////////////////////////////////////////////////////////////////\r\n    */\r\n    function checkPatient(uint _id, address _address) view public returns (uint, bool) {\r\n        uint index = 0;\r\n        bool exist = false;\r\n        for (uint i = 0; i < patients.length ; i++){\r\n            if (patients[i].id == _id || patients[i].addr == _address){\r\n                exist = true;\r\n                index = i;\r\n                break;\r\n            }\r\n        }\r\n        return (index, exist);\r\n    }\r\n\r\n    function getNumberOfPatient() public view returns(uint) {\r\n        return patients.length;\r\n    }\r\n\r\n    function getPatientByIndex(uint _index) public view returns(uint, string memory, address) {\r\n        require(_index >= 0 && _index < patients.length, \"Wrong index!!\");\r\n\r\n        return (patients[_index].id, patients[_index].name, patients[_index].addr);\r\n    }\r\n\r\n    function addPatient(uint _id, string memory _name, address _account) public isAccount{\r\n        (uint index, bool exist) = checkPatient(_id, _account);\r\n        require(exist==false, \"patient id or account already exist !!\");\r\n\r\n        patients.push(patient(_id, _name, _account, new EHR()));\r\n    }\r\n\r\n    function rmPatient(uint _id) public isAccount{\r\n        (uint index, bool exist) = checkPatient(_id, address(0));\r\n        require(exist==true, \"patient does not exist !!\");\r\n\r\n        patients[index] = patients[patients.length-1];\r\n        patients.pop();\r\n    }\r\n\r\n\r\n    /**\r\n    * ///////////////////////////////////////////////////////////////////////\r\n    *           PUBLIC METHODS FOR EHR PUBLISH PURPOSE (Patient only)\r\n    * ///////////////////////////////////////////////////////////////////////\r\n    */\r\n\r\n    /** \r\n     * @dev Response to a request from associated patient.\r\n     * @param _requestID the request id \r\n     */\r\n    // function AuthorizationResponse(uint _requestID, bool _response) public {\r\n    //     // check if this is trusted patient \r\n    //     (uint index, bool exist) = checkPatient(0, msg.sender);\r\n    //     require(exist, \"you are not a patient, permission denied !!\");\r\n\r\n    //     // response to request \r\n    //     patients[index].ehr.setResponse(_requestID, _response);\r\n\r\n    //     // event to actor\r\n    // }\r\n\r\n    // function getEHRbyOwner(uint _ehrID, bool _lastOne) view public returns (EHR.EHRAbstract memory, uint){\r\n    //     (uint index, bool exist) = checkPatient(0, msg.sender);\r\n    //     require(exist, \"patient does not exist !!\");\r\n\r\n    //     if (_lastOne) {\r\n    //         return patients[index].ehr.getLastEHR();\r\n    //     }\r\n    //     else {\r\n    //         return (patients[index].ehr.getEHRAbstract(_ehrID), _ehrID);\r\n    //     }\r\n    // }\r\n\r\n\r\n    /**\r\n    * ///////////////////////////////////////////////////////////////////////\r\n    *           PUBLIC METHODS FOR EHR PUBLISH PURPOSE (Actor only)\r\n    * ///////////////////////////////////////////////////////////////////////\r\n    */\r\n\r\n    /** \r\n     * @dev Create a new request from an actor.\r\n     * @param _patientID and the request type and ehrID\r\n     */\r\n    function sendRequest(uint _patientID, EHR.RequestType _requestType) public returns (uint){\r\n        // check if caller is actor\r\n        uint actorID = actor.getActorID(msg.sender);\r\n\r\n        // check if patient exist \r\n        (uint index, bool exist) = checkPatient(_patientID, address(0));\r\n        require(exist, \"Patient does not exist !!\");\r\n\r\n        patients[index].ehr.setRequest(actorID,  _requestType);\r\n\r\n        // event to patient\r\n\r\n        return 0; // return the requestID\r\n    }\r\n\r\n    // function shareEHR(uint _patientID, uint _requestID, string memory _hash, string memory _ipfsAddr, string memory _secretKey ) public returns (uint) {\r\n    //     // check if patient exist \r\n    //     (uint index, bool exist) = checkPatient(_patientID, address(0));\r\n    //     require(exist, \"patient does not exist !!\");\r\n\r\n    //     // check if actor exist and get the actor id\r\n    //     uint actorID = actor.getActorID(msg.sender);\r\n       \r\n    //     return patients[index].ehr.addEHRAbstract(_requestID, actorID, EHR.EHRType.SCANNER, _hash, _ipfsAddr, _secretKey);\r\n    // }   \r\n\r\n    // function getEHRbyRequest(uint _patientID, uint _requestID) view public returns (EHR.EHRAbstract memory ehr) {\r\n    //     // check if patient exist \r\n    //     (uint index, bool exist) = checkPatient(_patientID, address(0));\r\n    //     require(exist, \"patient does not exist !!\");\r\n\r\n    //     // check if actor exist and get the actor id\r\n    //     uint actorID = actor.getActorID(msg.sender);\r\n\r\n    //     return patients[index].ehr.getEHRbyActor(_requestID, actorID);\r\n    // }   \r\n\r\n}\r\n",
  "sourcePath": "F:\\ComputerScience\\projects\\PFE\\tutorial\\truffle projects\\EHR Share System\\contracts\\Patient.sol",
  "compiler": {
    "name": "solc",
    "version": "0.8.17+commit.8df45f5f.Emscripten.clang"
  },
  "schemaVersion": "3.4.11",
  "updatedAt": "2023-02-21T13:57:24.302Z",
  "networkType": "ethereum",
  "devdoc": {
    "details": "Implements Patient methods",
    "kind": "dev",
    "methods": {
      "sendRequest(uint256,uint8)": {
        "details": "Create a new request from an actor.",
        "params": {
          "_patientID": "and the request type and ehrID"
        }
      }
    },
    "title": "Patient",
    "version": 1
  },
  "userdoc": {
    "kind": "user",
    "methods": {
      "checkPatient(uint256,address)": {
        "notice": "///////////////////////////////////////////////////////////////////////         PUBLIC METHODS FOR REGISTRATION PURPOSE (Authority only) ///////////////////////////////////////////////////////////////////////"
      }
    },
    "version": 1
  }
}