{
  "contractName": "Patient",
  "abi": [
    {
      "inputs": [
        {
          "internalType": "address",
          "name": "authorityAddress",
          "type": "address"
        },
        {
          "internalType": "address",
          "name": "actorAddress",
          "type": "address"
        }
      ],
      "stateMutability": "nonpayable",
      "type": "constructor"
    },
    {
      "inputs": [
        {
          "internalType": "uint256",
          "name": "_id",
          "type": "uint256"
        },
        {
          "internalType": "address",
          "name": "_address",
          "type": "address"
        }
      ],
      "name": "checkPatient",
      "outputs": [
        {
          "internalType": "uint256",
          "name": "",
          "type": "uint256"
        },
        {
          "internalType": "bool",
          "name": "",
          "type": "bool"
        }
      ],
      "stateMutability": "view",
      "type": "function",
      "constant": true
    },
    {
      "inputs": [],
      "name": "getNumberOfPatient",
      "outputs": [
        {
          "internalType": "uint256",
          "name": "",
          "type": "uint256"
        }
      ],
      "stateMutability": "view",
      "type": "function",
      "constant": true
    },
    {
      "inputs": [
        {
          "internalType": "uint256",
          "name": "_index",
          "type": "uint256"
        }
      ],
      "name": "getPatientByIndex",
      "outputs": [
        {
          "internalType": "uint256",
          "name": "",
          "type": "uint256"
        },
        {
          "internalType": "string",
          "name": "",
          "type": "string"
        },
        {
          "internalType": "address",
          "name": "",
          "type": "address"
        }
      ],
      "stateMutability": "view",
      "type": "function",
      "constant": true
    },
    {
      "inputs": [
        {
          "internalType": "uint256",
          "name": "_id",
          "type": "uint256"
        },
        {
          "internalType": "string",
          "name": "_name",
          "type": "string"
        },
        {
          "internalType": "address",
          "name": "_account",
          "type": "address"
        }
      ],
      "name": "addPatient",
      "outputs": [],
      "stateMutability": "nonpayable",
      "type": "function"
    },
    {
      "inputs": [
        {
          "internalType": "uint256",
          "name": "_id",
          "type": "uint256"
        }
      ],
      "name": "rmPatient",
      "outputs": [],
      "stateMutability": "nonpayable",
      "type": "function"
    },
    {
      "inputs": [
        {
          "internalType": "uint256",
          "name": "_requestID",
          "type": "uint256"
        }
      ],
      "name": "setResponse",
      "outputs": [],
      "stateMutability": "nonpayable",
      "type": "function"
    },
    {
      "inputs": [],
      "name": "getNumberOfRequest",
      "outputs": [
        {
          "internalType": "uint256",
          "name": "",
          "type": "uint256"
        }
      ],
      "stateMutability": "view",
      "type": "function",
      "constant": true
    },
    {
      "inputs": [
        {
          "internalType": "uint256",
          "name": "_requestID",
          "type": "uint256"
        }
      ],
      "name": "getRequestByIndex",
      "outputs": [
        {
          "internalType": "uint256",
          "name": "",
          "type": "uint256"
        },
        {
          "internalType": "enum EHR.RequestType",
          "name": "",
          "type": "uint8"
        },
        {
          "internalType": "bool",
          "name": "",
          "type": "bool"
        }
      ],
      "stateMutability": "view",
      "type": "function",
      "constant": true
    },
    {
      "inputs": [
        {
          "internalType": "uint256",
          "name": "_patientID",
          "type": "uint256"
        },
        {
          "internalType": "enum EHR.RequestType",
          "name": "_requestType",
          "type": "uint8"
        }
      ],
      "name": "sendRequest",
      "outputs": [
        {
          "internalType": "uint256",
          "name": "",
          "type": "uint256"
        }
      ],
      "stateMutability": "nonpayable",
      "type": "function"
    }
  ],
  "bytecode": "0x60806040523480156200001157600080fd5b5060405162003365380380620033658339818101604052810190620000379190620002d7565b816000806101000a81548173ffffffffffffffffffffffffffffffffffffffff021916908373ffffffffffffffffffffffffffffffffffffffff16021790555080600160006101000a81548173ffffffffffffffffffffffffffffffffffffffff021916908373ffffffffffffffffffffffffffffffffffffffff16021790555060026040518060800160405280601481526020016040518060400160405280600581526020017f626164726f000000000000000000000000000000000000000000000000000000815250815260200173b09e8efd21a77ee5ffdc5aa3f70fcc22e3e060c673ffffffffffffffffffffffffffffffffffffffff16815260200160405162000145906200025f565b604051809103906000f08015801562000162573d6000803e3d6000fd5b5073ffffffffffffffffffffffffffffffffffffffff168152509080600181540180825580915050600190039060005260206000209060040201600090919091909150600082015181600001556020820151816001019081620001c6919062000598565b5060408201518160020160006101000a81548173ffffffffffffffffffffffffffffffffffffffff021916908373ffffffffffffffffffffffffffffffffffffffff16021790555060608201518160030160006101000a81548173ffffffffffffffffffffffffffffffffffffffff021916908373ffffffffffffffffffffffffffffffffffffffff160217905550505050506200067f565b6107488062002c1d83390190565b600080fd5b600073ffffffffffffffffffffffffffffffffffffffff82169050919050565b60006200029f8262000272565b9050919050565b620002b18162000292565b8114620002bd57600080fd5b50565b600081519050620002d181620002a6565b92915050565b60008060408385031215620002f157620002f06200026d565b5b60006200030185828601620002c0565b92505060206200031485828601620002c0565b9150509250929050565b600081519050919050565b7f4e487b7100000000000000000000000000000000000000000000000000000000600052604160045260246000fd5b7f4e487b7100000000000000000000000000000000000000000000000000000000600052602260045260246000fd5b60006002820490506001821680620003a057607f821691505b602082108103620003b657620003b562000358565b5b50919050565b60008190508160005260206000209050919050565b60006020601f8301049050919050565b600082821b905092915050565b600060088302620004207fffffffffffffffffffffffffffffffffffffffffffffffffffffffffffffffff82620003e1565b6200042c8683620003e1565b95508019841693508086168417925050509392505050565b6000819050919050565b6000819050919050565b600062000479620004736200046d8462000444565b6200044e565b62000444565b9050919050565b6000819050919050565b620004958362000458565b620004ad620004a48262000480565b848454620003ee565b825550505050565b600090565b620004c4620004b5565b620004d18184846200048a565b505050565b5b81811015620004f957620004ed600082620004ba565b600181019050620004d7565b5050565b601f82111562000548576200051281620003bc565b6200051d84620003d1565b810160208510156200052d578190505b620005456200053c85620003d1565b830182620004d6565b50505b505050565b600082821c905092915050565b60006200056d600019846008026200054d565b1980831691505092915050565b60006200058883836200055a565b9150826002028217905092915050565b620005a3826200031e565b67ffffffffffffffff811115620005bf57620005be62000329565b5b620005cb825462000387565b620005d8828285620004fd565b600060209050601f831160018114620006105760008415620005fb578287015190505b6200060785826200057a565b86555062000677565b601f1984166200062086620003bc565b60005b828110156200064a5784890151825560018201915060208501945060208101905062000623565b868310156200066a578489015162000666601f8916826200055a565b8355505b6001600288020188555050505b505050505050565b61258e806200068f6000396000f3fe608060405234801561001057600080fd5b50600436106100935760003560e01c806357ea0c2f1161006657806357ea0c2f1461011f5780636d052b37146101515780639d04ae8414610183578063c4113ed31461019f578063e28d73a0146101bd57610093565b80631fed6dd6146100985780633f2c0e35146100b45780634053bbac146100d257806349bf3afb146100ee575b600080fd5b6100b260048036038101906100ad9190611168565b6101ed565b005b6100bc61047e565b6040516100c991906111e6565b60405180910390f35b6100ec60048036038101906100e79190611201565b61058d565b005b6101086004803603810190610103919061122e565b6108a3565b604051610116929190611289565b60405180910390f35b61013960048036038101906101349190611201565b610990565b60405161014893929190611340565b60405180910390f35b61016b60048036038101906101669190611201565b610b13565b60405161017a939291906113f5565b60405180910390f35b61019d60048036038101906101989190611201565b610c38565b005b6101a7610d3f565b6040516101b491906111e6565b60405180910390f35b6101d760048036038101906101d29190611451565b610d4c565b6040516101e491906111e6565b60405180910390f35b60008060008054906101000a900473ffffffffffffffffffffffffffffffffffffffff1673ffffffffffffffffffffffffffffffffffffffff1663134e91ac336040518263ffffffff1660e01b81526004016102499190611491565b6040805180830381865afa158015610265573d6000803e3d6000fd5b505050506040513d601f19601f8201168201806040525081019061028991906114ed565b91509150806102cd576040517f08c379a00000000000000000000000000000000000000000000000000000000081526004016102c490611579565b60405180910390fd5b6000806102da87866108a3565b915091506000151581151514610325576040517f08c379a000000000000000000000000000000000000000000000000000000000815260040161031c9061160b565b60405180910390fd5b600260405180608001604052808981526020018881526020018773ffffffffffffffffffffffffffffffffffffffff16815260200160405161036690610f10565b604051809103906000f080158015610382573d6000803e3d6000fd5b5073ffffffffffffffffffffffffffffffffffffffff1681525090806001815401808255809150506001900390600052602060002090600402016000909190919091506000820151816000015560208201518160010190816103e49190611837565b5060408201518160020160006101000a81548173ffffffffffffffffffffffffffffffffffffffff021916908373ffffffffffffffffffffffffffffffffffffffff16021790555060608201518160030160006101000a81548173ffffffffffffffffffffffffffffffffffffffff021916908373ffffffffffffffffffffffffffffffffffffffff160217905550505050505050505050565b600080600061048e6000336108a3565b91509150806104d2576040517f08c379a00000000000000000000000000000000000000000000000000000000081526004016104c990611955565b60405180910390fd5b600282815481106104e6576104e5611975565b5b906000526020600020906004020160030160009054906101000a900473ffffffffffffffffffffffffffffffffffffffff1673ffffffffffffffffffffffffffffffffffffffff16633f2c0e356040518163ffffffff1660e01b8152600401602060405180830381865afa158015610562573d6000803e3d6000fd5b505050506040513d601f19601f8201168201806040525081019061058691906119a4565b9250505090565b60008060008054906101000a900473ffffffffffffffffffffffffffffffffffffffff1673ffffffffffffffffffffffffffffffffffffffff1663134e91ac336040518263ffffffff1660e01b81526004016105e99190611491565b6040805180830381865afa158015610605573d6000803e3d6000fd5b505050506040513d601f19601f8201168201806040525081019061062991906114ed565b915091508061066d576040517f08c379a000000000000000000000000000000000000000000000000000000000815260040161066490611579565b60405180910390fd5b60008061067b8560006108a3565b9150915060011515811515146106c6576040517f08c379a00000000000000000000000000000000000000000000000000000000081526004016106bd90611a1d565b60405180910390fd5b600260016002805490506106da9190611a6c565b815481106106eb576106ea611975565b5b90600052602060002090600402016002838154811061070d5761070c611975565b5b906000526020600020906004020160008201548160000155600182018160010190816107399190611ab6565b506002820160009054906101000a900473ffffffffffffffffffffffffffffffffffffffff168160020160006101000a81548173ffffffffffffffffffffffffffffffffffffffff021916908373ffffffffffffffffffffffffffffffffffffffff1602179055506003820160009054906101000a900473ffffffffffffffffffffffffffffffffffffffff168160030160006101000a81548173ffffffffffffffffffffffffffffffffffffffff021916908373ffffffffffffffffffffffffffffffffffffffff160217905550905050600280548061081d5761081c611b9e565b5b600190038181906000526020600020906004020160008082016000905560018201600061084a9190610f1d565b6002820160006101000a81549073ffffffffffffffffffffffffffffffffffffffff02191690556003820160006101000a81549073ffffffffffffffffffffffffffffffffffffffff0219169055505090555050505050565b60008060008060005b6002805490508110156109805786600282815481106108ce576108cd611975565b5b906000526020600020906004020160000154148061095c57508573ffffffffffffffffffffffffffffffffffffffff166002828154811061091257610911611975565b5b906000526020600020906004020160020160009054906101000a900473ffffffffffffffffffffffffffffffffffffffff1673ffffffffffffffffffffffffffffffffffffffff16145b1561096d5760019150809250610980565b808061097890611bcd565b9150506108ac565b5081819350935050509250929050565b6000606060008084101580156109aa575060028054905084105b6109e9576040517f08c379a00000000000000000000000000000000000000000000000000000000081526004016109e090611c61565b60405180910390fd5b600284815481106109fd576109fc611975565b5b90600052602060002090600402016000015460028581548110610a2357610a22611975565b5b906000526020600020906004020160010160028681548110610a4857610a47611975565b5b906000526020600020906004020160020160009054906101000a900473ffffffffffffffffffffffffffffffffffffffff16818054610a869061165a565b80601f0160208091040260200160405190810160405280929190818152602001828054610ab29061165a565b8015610aff5780601f10610ad457610100808354040283529160200191610aff565b820191906000526020600020905b815481529060010190602001808311610ae257829003601f168201915b505050505091509250925092509193909250565b6000806000806000610b266000336108a3565b9150915080610b6a576040517f08c379a0000000000000000000000000000000000000000000000000000000008152600401610b6190611955565b60405180910390fd5b60028281548110610b7e57610b7d611975565b5b906000526020600020906004020160030160009054906101000a900473ffffffffffffffffffffffffffffffffffffffff1673ffffffffffffffffffffffffffffffffffffffff16636d052b37876040518263ffffffff1660e01b8152600401610be891906111e6565b606060405180830381865afa158015610c05573d6000803e3d6000fd5b505050506040513d601f19601f82011682018060405250810190610c299190611c96565b94509450945050509193909250565b600080610c466000336108a3565b9150915080610c8a576040517f08c379a0000000000000000000000000000000000000000000000000000000008152600401610c8190611d5b565b60405180910390fd5b60028281548110610c9e57610c9d611975565b5b906000526020600020906004020160030160009054906101000a900473ffffffffffffffffffffffffffffffffffffffff1673ffffffffffffffffffffffffffffffffffffffff16639d04ae84846040518263ffffffff1660e01b8152600401610d0891906111e6565b600060405180830381600087803b158015610d2257600080fd5b505af1158015610d36573d6000803e3d6000fd5b50505050505050565b6000600280549050905090565b600080600160009054906101000a900473ffffffffffffffffffffffffffffffffffffffff1673ffffffffffffffffffffffffffffffffffffffff1663cbd3638f336040518263ffffffff1660e01b8152600401610daa9190611491565b602060405180830381865afa158015610dc7573d6000803e3d6000fd5b505050506040513d601f19601f82011682018060405250810190610deb91906119a4565b9050600080610dfb8660006108a3565b9150915080610e3f576040517f08c379a0000000000000000000000000000000000000000000000000000000008152600401610e3690611dc7565b60405180910390fd5b60028281548110610e5357610e52611975565b5b906000526020600020906004020160030160009054906101000a900473ffffffffffffffffffffffffffffffffffffffff1673ffffffffffffffffffffffffffffffffffffffff166323c3147384876040518363ffffffff1660e01b8152600401610ebf929190611de7565b6020604051808303816000875af1158015610ede573d6000803e3d6000fd5b505050506040513d601f19601f82011682018060405250810190610f0291906119a4565b506000935050505092915050565b61074880611e1183390190565b508054610f299061165a565b6000825580601f10610f3b5750610f5a565b601f016020900490600052602060002090810190610f599190610f5d565b5b50565b5b80821115610f76576000816000905550600101610f5e565b5090565b6000604051905090565b600080fd5b600080fd5b6000819050919050565b610fa181610f8e565b8114610fac57600080fd5b50565b600081359050610fbe81610f98565b92915050565b600080fd5b600080fd5b6000601f19601f8301169050919050565b7f4e487b7100000000000000000000000000000000000000000000000000000000600052604160045260246000fd5b61101782610fce565b810181811067ffffffffffffffff8211171561103657611035610fdf565b5b80604052505050565b6000611049610f7a565b9050611055828261100e565b919050565b600067ffffffffffffffff82111561107557611074610fdf565b5b61107e82610fce565b9050602081019050919050565b82818337600083830152505050565b60006110ad6110a88461105a565b61103f565b9050828152602081018484840111156110c9576110c8610fc9565b5b6110d484828561108b565b509392505050565b600082601f8301126110f1576110f0610fc4565b5b813561110184826020860161109a565b91505092915050565b600073ffffffffffffffffffffffffffffffffffffffff82169050919050565b60006111358261110a565b9050919050565b6111458161112a565b811461115057600080fd5b50565b6000813590506111628161113c565b92915050565b60008060006060848603121561118157611180610f84565b5b600061118f86828701610faf565b935050602084013567ffffffffffffffff8111156111b0576111af610f89565b5b6111bc868287016110dc565b92505060406111cd86828701611153565b9150509250925092565b6111e081610f8e565b82525050565b60006020820190506111fb60008301846111d7565b92915050565b60006020828403121561121757611216610f84565b5b600061122584828501610faf565b91505092915050565b6000806040838503121561124557611244610f84565b5b600061125385828601610faf565b925050602061126485828601611153565b9150509250929050565b60008115159050919050565b6112838161126e565b82525050565b600060408201905061129e60008301856111d7565b6112ab602083018461127a565b9392505050565b600081519050919050565b600082825260208201905092915050565b60005b838110156112ec5780820151818401526020810190506112d1565b60008484015250505050565b6000611303826112b2565b61130d81856112bd565b935061131d8185602086016112ce565b61132681610fce565b840191505092915050565b61133a8161112a565b82525050565b600060608201905061135560008301866111d7565b818103602083015261136781856112f8565b90506113766040830184611331565b949350505050565b7f4e487b7100000000000000000000000000000000000000000000000000000000600052602160045260246000fd5b600281106113be576113bd61137e565b5b50565b60008190506113cf826113ad565b919050565b60006113df826113c1565b9050919050565b6113ef816113d4565b82525050565b600060608201905061140a60008301866111d7565b61141760208301856113e6565b611424604083018461127a565b949350505050565b6002811061143957600080fd5b50565b60008135905061144b8161142c565b92915050565b6000806040838503121561146857611467610f84565b5b600061147685828601610faf565b92505060206114878582860161143c565b9150509250929050565b60006020820190506114a66000830184611331565b92915050565b6000815190506114bb81610f98565b92915050565b6114ca8161126e565b81146114d557600080fd5b50565b6000815190506114e7816114c1565b92915050565b6000806040838503121561150457611503610f84565b5b6000611512858286016114ac565b9250506020611523858286016114d8565b9150509250929050565b7f43616c6c65722068617665206e6f74207065726d657373696f6e000000000000600082015250565b6000611563601a836112bd565b915061156e8261152d565b602082019050919050565b6000602082019050818103600083015261159281611556565b9050919050565b7f70617469656e74206964206f72206163636f756e7420616c726561647920657860008201527f6973742021210000000000000000000000000000000000000000000000000000602082015250565b60006115f56026836112bd565b915061160082611599565b604082019050919050565b60006020820190508181036000830152611624816115e8565b9050919050565b7f4e487b7100000000000000000000000000000000000000000000000000000000600052602260045260246000fd5b6000600282049050600182168061167257607f821691505b6020821081036116855761168461162b565b5b50919050565b60008190508160005260206000209050919050565b60006020601f8301049050919050565b600082821b905092915050565b6000600883026116ed7fffffffffffffffffffffffffffffffffffffffffffffffffffffffffffffffff826116b0565b6116f786836116b0565b95508019841693508086168417925050509392505050565b6000819050919050565b600061173461172f61172a84610f8e565b61170f565b610f8e565b9050919050565b6000819050919050565b61174e83611719565b61176261175a8261173b565b8484546116bd565b825550505050565b600090565b61177761176a565b611782818484611745565b505050565b5b818110156117a65761179b60008261176f565b600181019050611788565b5050565b601f8211156117eb576117bc8161168b565b6117c5846116a0565b810160208510156117d4578190505b6117e86117e0856116a0565b830182611787565b50505b505050565b600082821c905092915050565b600061180e600019846008026117f0565b1980831691505092915050565b600061182783836117fd565b9150826002028217905092915050565b611840826112b2565b67ffffffffffffffff81111561185957611858610fdf565b5b611863825461165a565b61186e8282856117aa565b600060209050601f8311600181146118a1576000841561188f578287015190505b611899858261181b565b865550611901565b601f1984166118af8661168b565b60005b828110156118d7578489015182556001820191506020850194506020810190506118b2565b868310156118f457848901516118f0601f8916826117fd565b8355505b6001600288020188555050505b505050505050565b7f596f7520617265206e6f7420612070617469656e742021210000000000000000600082015250565b600061193f6018836112bd565b915061194a82611909565b602082019050919050565b6000602082019050818103600083015261196e81611932565b9050919050565b7f4e487b7100000000000000000000000000000000000000000000000000000000600052603260045260246000fd5b6000602082840312156119ba576119b9610f84565b5b60006119c8848285016114ac565b91505092915050565b7f70617469656e7420646f6573206e6f7420657869737420212100000000000000600082015250565b6000611a076019836112bd565b9150611a12826119d1565b602082019050919050565b60006020820190508181036000830152611a36816119fa565b9050919050565b7f4e487b7100000000000000000000000000000000000000000000000000000000600052601160045260246000fd5b6000611a7782610f8e565b9150611a8283610f8e565b9250828203905081811115611a9a57611a99611a3d565b5b92915050565b600081549050611aaf8161165a565b9050919050565b818103611ac4575050611b9c565b611acd82611aa0565b67ffffffffffffffff811115611ae657611ae5610fdf565b5b611af0825461165a565b611afb8282856117aa565b6000601f831160018114611b2a5760008415611b18578287015490505b611b22858261181b565b865550611b95565b601f198416611b388761168b565b9650611b438661168b565b60005b82811015611b6b57848901548255600182019150600185019450602081019050611b46565b86831015611b885784890154611b84601f8916826117fd565b8355505b6001600288020188555050505b5050505050505b565b7f4e487b7100000000000000000000000000000000000000000000000000000000600052603160045260246000fd5b6000611bd882610f8e565b91507fffffffffffffffffffffffffffffffffffffffffffffffffffffffffffffffff8203611c0a57611c09611a3d565b5b600182019050919050565b7f57726f6e6720696e646578212100000000000000000000000000000000000000600082015250565b6000611c4b600d836112bd565b9150611c5682611c15565b602082019050919050565b60006020820190508181036000830152611c7a81611c3e565b9050919050565b600081519050611c908161142c565b92915050565b600080600060608486031215611caf57611cae610f84565b5b6000611cbd868287016114ac565b9350506020611cce86828701611c81565b9250506040611cdf868287016114d8565b9150509250925092565b7f796f7520617265206e6f7420612070617469656e742c207065726d697373696f60008201527f6e2064656e696564202121000000000000000000000000000000000000000000602082015250565b6000611d45602b836112bd565b9150611d5082611ce9565b604082019050919050565b60006020820190508181036000830152611d7481611d38565b9050919050565b7f50617469656e7420646f6573206e6f7420657869737420212100000000000000600082015250565b6000611db16019836112bd565b9150611dbc82611d7b565b602082019050919050565b60006020820190508181036000830152611de081611da4565b9050919050565b6000604082019050611dfc60008301856111d7565b611e0960208301846113e6565b939250505056fe608060405234801561001057600080fd5b50610728806100206000396000f3fe608060405234801561001057600080fd5b50600436106100575760003560e01c806323c314731461005c5780633f2c0e351461008c57806340c57998146100aa5780636d052b37146100db5780639d04ae841461010d575b600080fd5b61007660048036038101906100719190610451565b610129565b60405161008391906104a0565b60405180910390f35b610094610207565b6040516100a191906104a0565b60405180910390f35b6100c460048036038101906100bf91906104bb565b610213565b6040516100d2929190610503565b60405180910390f35b6100f560048036038101906100f091906104bb565b61026d565b604051610104939291906105a3565b60405180910390f35b610127600480360381019061012291906104bb565b61035e565b005b6000806000805490509050600080604051806080016040528087815260200186600181111561015b5761015a61052c565b5b81526020018315158152602001600081525090806001815401808255809150506001900390600052602060002090600302016000909190919091506000820151816000015560208201518160010160006101000a81548160ff021916908360018111156101cb576101ca61052c565b5b021790555060408201518160010160016101000a81548160ff021916908315150217905550606082015181600201555050819250505092915050565b60008080549050905090565b60008060008084600080549050111561026057600191506000858154811061023e5761023d6105da565b5b906000526020600020906003020160010160019054906101000a900460ff1690505b8181935093505050915091565b6000806000808410158015610286575060008054905084105b6102c5576040517f08c379a00000000000000000000000000000000000000000000000000000000081526004016102bc90610666565b60405180910390fd5b600084815481106102d9576102d86105da565b5b906000526020600020906003020160000154600085815481106102ff576102fe6105da565b5b906000526020600020906003020160010160009054906101000a900460ff1660008681548110610332576103316105da565b5b906000526020600020906003020160010160019054906101000a900460ff169250925092509193909250565b60008061036a83610213565b91509150816103ae576040517f08c379a00000000000000000000000000000000000000000000000000000000081526004016103a5906106d2565b60405180910390fd5b6001600084815481106103c4576103c36105da565b5b906000526020600020906003020160010160016101000a81548160ff021916908315150217905550505050565b600080fd5b6000819050919050565b610409816103f6565b811461041457600080fd5b50565b60008135905061042681610400565b92915050565b6002811061043957600080fd5b50565b60008135905061044b8161042c565b92915050565b60008060408385031215610468576104676103f1565b5b600061047685828601610417565b92505060206104878582860161043c565b9150509250929050565b61049a816103f6565b82525050565b60006020820190506104b56000830184610491565b92915050565b6000602082840312156104d1576104d06103f1565b5b60006104df84828501610417565b91505092915050565b60008115159050919050565b6104fd816104e8565b82525050565b600060408201905061051860008301856104f4565b61052560208301846104f4565b9392505050565b7f4e487b7100000000000000000000000000000000000000000000000000000000600052602160045260246000fd5b6002811061056c5761056b61052c565b5b50565b600081905061057d8261055b565b919050565b600061058d8261056f565b9050919050565b61059d81610582565b82525050565b60006060820190506105b86000830186610491565b6105c56020830185610594565b6105d260408301846104f4565b949350505050565b7f4e487b7100000000000000000000000000000000000000000000000000000000600052603260045260246000fd5b600082825260208201905092915050565b7f57524f4e4720494e44455820464f522052455155455354202121000000000000600082015250565b6000610650601a83610609565b915061065b8261061a565b602082019050919050565b6000602082019050818103600083015261067f81610643565b9050919050565b7f5265717565737420646f6573206e6f7420657869737420212100000000000000600082015250565b60006106bc601983610609565b91506106c782610686565b602082019050919050565b600060208201905081810360008301526106eb816106af565b905091905056fea2646970667358221220fa47ea6952e86e10f5c25daa938ab283da842a15287a32906954b4a64eb7709a64736f6c63430008110033a2646970667358221220537dadccd415322da0eb08409140ee3dbd3697801f4c0971ab2c64c9127dd92064736f6c63430008110033608060405234801561001057600080fd5b50610728806100206000396000f3fe608060405234801561001057600080fd5b50600436106100575760003560e01c806323c314731461005c5780633f2c0e351461008c57806340c57998146100aa5780636d052b37146100db5780639d04ae841461010d575b600080fd5b61007660048036038101906100719190610451565b610129565b60405161008391906104a0565b60405180910390f35b610094610207565b6040516100a191906104a0565b60405180910390f35b6100c460048036038101906100bf91906104bb565b610213565b6040516100d2929190610503565b60405180910390f35b6100f560048036038101906100f091906104bb565b61026d565b604051610104939291906105a3565b60405180910390f35b610127600480360381019061012291906104bb565b61035e565b005b6000806000805490509050600080604051806080016040528087815260200186600181111561015b5761015a61052c565b5b81526020018315158152602001600081525090806001815401808255809150506001900390600052602060002090600302016000909190919091506000820151816000015560208201518160010160006101000a81548160ff021916908360018111156101cb576101ca61052c565b5b021790555060408201518160010160016101000a81548160ff021916908315150217905550606082015181600201555050819250505092915050565b60008080549050905090565b60008060008084600080549050111561026057600191506000858154811061023e5761023d6105da565b5b906000526020600020906003020160010160019054906101000a900460ff1690505b8181935093505050915091565b6000806000808410158015610286575060008054905084105b6102c5576040517f08c379a00000000000000000000000000000000000000000000000000000000081526004016102bc90610666565b60405180910390fd5b600084815481106102d9576102d86105da565b5b906000526020600020906003020160000154600085815481106102ff576102fe6105da565b5b906000526020600020906003020160010160009054906101000a900460ff1660008681548110610332576103316105da565b5b906000526020600020906003020160010160019054906101000a900460ff169250925092509193909250565b60008061036a83610213565b91509150816103ae576040517f08c379a00000000000000000000000000000000000000000000000000000000081526004016103a5906106d2565b60405180910390fd5b6001600084815481106103c4576103c36105da565b5b906000526020600020906003020160010160016101000a81548160ff021916908315150217905550505050565b600080fd5b6000819050919050565b610409816103f6565b811461041457600080fd5b50565b60008135905061042681610400565b92915050565b6002811061043957600080fd5b50565b60008135905061044b8161042c565b92915050565b60008060408385031215610468576104676103f1565b5b600061047685828601610417565b92505060206104878582860161043c565b9150509250929050565b61049a816103f6565b82525050565b60006020820190506104b56000830184610491565b92915050565b6000602082840312156104d1576104d06103f1565b5b60006104df84828501610417565b91505092915050565b60008115159050919050565b6104fd816104e8565b82525050565b600060408201905061051860008301856104f4565b61052560208301846104f4565b9392505050565b7f4e487b7100000000000000000000000000000000000000000000000000000000600052602160045260246000fd5b6002811061056c5761056b61052c565b5b50565b600081905061057d8261055b565b919050565b600061058d8261056f565b9050919050565b61059d81610582565b82525050565b60006060820190506105b86000830186610491565b6105c56020830185610594565b6105d260408301846104f4565b949350505050565b7f4e487b7100000000000000000000000000000000000000000000000000000000600052603260045260246000fd5b600082825260208201905092915050565b7f57524f4e4720494e44455820464f522052455155455354202121000000000000600082015250565b6000610650601a83610609565b915061065b8261061a565b602082019050919050565b6000602082019050818103600083015261067f81610643565b9050919050565b7f5265717565737420646f6573206e6f7420657869737420212100000000000000600082015250565b60006106bc601983610609565b91506106c782610686565b602082019050919050565b600060208201905081810360008301526106eb816106af565b905091905056fea2646970667358221220fa47ea6952e86e10f5c25daa938ab283da842a15287a32906954b4a64eb7709a64736f6c63430008110033",
  "immutableReferences": {},
  "source": "// SPDX-License-Identifier: GPL-3.0\r\n\r\npragma solidity >=0.7.0 <0.9.0;\r\n\r\nimport {EHR} from \"./EHR.sol\";\r\nimport {HealthAuthority} from \"./HealthAuthority.sol\";\r\nimport {HealthActor} from \"./HealthActor.sol\";\r\n\r\n\r\n/** \r\n * @title Patient\r\n * @dev Implements Patient methods\r\n */\r\ncontract Patient {\r\n\r\n    HealthAuthority authority;\r\n    HealthActor actor;\r\n\r\n    struct patient{\r\n        uint id;\r\n        string name;\r\n        address addr;\r\n        EHR ehr;\r\n    }\r\n    patient[] patients;\r\n\r\n    modifier isAccount() {\r\n        (uint index, bool exist) = authority.checkHealthAuthority(msg.sender);\r\n        require(exist, \"Caller have not permession\");\r\n        _;\r\n    }\r\n\r\n    constructor(address authorityAddress, address actorAddress){\r\n        authority = HealthAuthority(authorityAddress);\r\n        actor = HealthActor(actorAddress);\r\n\r\n        patients.push(patient(20, 'badro', address(0xB09E8efD21A77Ee5FfDc5Aa3f70fcC22E3e060C6), new EHR()));\r\n    }\r\n\r\n\r\n    /**\r\n    * ///////////////////////////////////////////////////////////////////////\r\n    *         PUBLIC METHODS FOR REGISTRATION PURPOSE (Authority only)\r\n    * ///////////////////////////////////////////////////////////////////////\r\n    */\r\n    function checkPatient(uint _id, address _address) view public returns (uint, bool) {\r\n        uint index = 0;\r\n        bool exist = false;\r\n        for (uint i = 0; i < patients.length ; i++){\r\n            if (patients[i].id == _id || patients[i].addr == _address){\r\n                exist = true;\r\n                index = i;\r\n                break;\r\n            }\r\n        }\r\n        return (index, exist);\r\n    }\r\n\r\n    function getNumberOfPatient() public view returns(uint) {\r\n        return patients.length;\r\n    }\r\n\r\n    function getPatientByIndex(uint _index) public view returns(uint, string memory, address) {\r\n        require(_index >= 0 && _index < patients.length, \"Wrong index!!\");\r\n\r\n        return (patients[_index].id, patients[_index].name, patients[_index].addr);\r\n    }\r\n\r\n    function addPatient(uint _id, string memory _name, address _account) public isAccount{\r\n        (uint index, bool exist) = checkPatient(_id, _account);\r\n        require(exist==false, \"patient id or account already exist !!\");\r\n\r\n        patients.push(patient(_id, _name, _account, new EHR()));\r\n    }\r\n\r\n    function rmPatient(uint _id) public isAccount{\r\n        (uint index, bool exist) = checkPatient(_id, address(0));\r\n        require(exist==true, \"patient does not exist !!\");\r\n\r\n        patients[index] = patients[patients.length-1];\r\n        patients.pop();\r\n    }\r\n\r\n\r\n    /**\r\n    * ///////////////////////////////////////////////////////////////////////\r\n    *           PUBLIC METHODS FOR EHR PUBLISH PURPOSE (Patient only)\r\n    * ///////////////////////////////////////////////////////////////////////\r\n    */\r\n\r\n    /** \r\n     * @dev Response to a request from associated patient.\r\n     * @param _requestID the request id \r\n     */\r\n    function setResponse(uint _requestID) public {\r\n        // check if this is trusted patient \r\n        (uint index, bool exist) = checkPatient(0, msg.sender);\r\n        require(exist, \"you are not a patient, permission denied !!\");\r\n\r\n        // response to request \r\n        patients[index].ehr.setResponse(_requestID);\r\n\r\n        // event to actor \r\n    }\r\n\r\n    // function getEHRbyOwner(uint _ehrID, bool _lastOne) view public returns (EHR.EHRAbstract memory, uint){\r\n    //     (uint index, bool exist) = checkPatient(0, msg.sender);\r\n    //     require(exist, \"patient does not exist !!\");\r\n\r\n    //     if (_lastOne) {\r\n    //         return patients[index].ehr.getLastEHR();\r\n    //     }\r\n    //     else {\r\n    //         return (patients[index].ehr.getEHRAbstract(_ehrID), _ehrID);\r\n    //     }\r\n    // }\r\n\r\n\r\n    /**\r\n    * ///////////////////////////////////////////////////////////////////////\r\n    *           PUBLIC METHODS FOR EHR PUBLISH PURPOSE (Actor only)\r\n    * ///////////////////////////////////////////////////////////////////////\r\n    */\r\n\r\n    function getNumberOfRequest() public view returns (uint256) {\r\n        (uint index, bool exist) = checkPatient(0, msg.sender);\r\n        require(exist, \"You are not a patient !!\");\r\n        \r\n        return patients[index].ehr.getNumberOfRequest();\r\n    }\r\n\r\n    function getRequestByIndex(uint256 _requestID) public view returns (uint, EHR.RequestType, bool){\r\n        (uint index, bool exist) = checkPatient(0, msg.sender);\r\n        require(exist, \"You are not a patient !!\");\r\n        \r\n        return patients[index].ehr.getRequestByIndex(_requestID);\r\n    }\r\n\r\n    /** \r\n     * @dev Create a new request from an actor.\r\n     * @param _patientID this is a patient id\r\n     * @param _requestType the type of request CONSULT PUBLISH\r\n     */\r\n    function sendRequest(uint _patientID, EHR.RequestType _requestType) public returns (uint){\r\n        // check if caller is actor\r\n        uint actorID = actor.getActorID(msg.sender);\r\n\r\n        // check if patient exist \r\n        (uint index, bool exist) = checkPatient(_patientID, address(0));\r\n        require(exist, \"Patient does not exist !!\");\r\n\r\n        patients[index].ehr.setRequest(actorID,  _requestType);\r\n\r\n        // event to patient\r\n\r\n        return 0; // return the requestID\r\n    }\r\n\r\n    // function shareEHR(uint _patientID, uint _requestID, string memory _hash, string memory _ipfsAddr, string memory _secretKey ) public returns (uint) {\r\n    //     // check if patient exist \r\n    //     (uint index, bool exist) = checkPatient(_patientID, address(0));\r\n    //     require(exist, \"patient does not exist !!\");\r\n\r\n    //     // check if actor exist and get the actor id\r\n    //     uint actorID = actor.getActorID(msg.sender);\r\n       \r\n    //     return patients[index].ehr.addEHRAbstract(_requestID, actorID, EHR.EHRType.SCANNER, _hash, _ipfsAddr, _secretKey);\r\n    // }   \r\n\r\n    // function getEHRbyRequest(uint _patientID, uint _requestID) view public returns (EHR.EHRAbstract memory ehr) {\r\n    //     // check if patient exist \r\n    //     (uint index, bool exist) = checkPatient(_patientID, address(0));\r\n    //     require(exist, \"patient does not exist !!\");\r\n\r\n    //     // check if actor exist and get the actor id\r\n    //     uint actorID = actor.getActorID(msg.sender);\r\n\r\n    //     return patients[index].ehr.getEHRbyActor(_requestID, actorID);\r\n    // }   \r\n\r\n}\r\n",
  "sourcePath": "F:\\ComputerScience\\projects\\PFE\\tutorial\\truffle projects\\EHR Share System\\contracts\\Patient.sol",
  "compiler": {
    "name": "solc",
    "version": "0.8.17+commit.8df45f5f.Emscripten.clang"
  },
  "schemaVersion": "3.4.11",
  "updatedAt": "2023-02-21T21:50:01.311Z",
  "networkType": "ethereum",
  "devdoc": {
    "details": "Implements Patient methods",
    "kind": "dev",
    "methods": {
      "sendRequest(uint256,uint8)": {
        "details": "Create a new request from an actor.",
        "params": {
          "_patientID": "this is a patient id",
          "_requestType": "the type of request CONSULT PUBLISH"
        }
      },
      "setResponse(uint256)": {
        "details": "Response to a request from associated patient.",
        "params": {
          "_requestID": "the request id "
        }
      }
    },
    "title": "Patient",
    "version": 1
  },
  "userdoc": {
    "kind": "user",
    "methods": {
      "checkPatient(uint256,address)": {
        "notice": "///////////////////////////////////////////////////////////////////////         PUBLIC METHODS FOR REGISTRATION PURPOSE (Authority only) ///////////////////////////////////////////////////////////////////////"
      },
      "getNumberOfRequest()": {
        "notice": "///////////////////////////////////////////////////////////////////////           PUBLIC METHODS FOR EHR PUBLISH PURPOSE (Actor only) ///////////////////////////////////////////////////////////////////////"
      }
    },
    "version": 1
  }
}