{
  "contractName": "Patient",
  "abi": [
    {
      "inputs": [
        {
          "internalType": "address",
          "name": "authorityAddress",
          "type": "address"
        },
        {
          "internalType": "address",
          "name": "actorAddress",
          "type": "address"
        }
      ],
      "stateMutability": "nonpayable",
      "type": "constructor"
    },
    {
      "inputs": [
        {
          "internalType": "uint256",
          "name": "_id",
          "type": "uint256"
        },
        {
          "internalType": "address",
          "name": "_address",
          "type": "address"
        }
      ],
      "name": "checkPatient",
      "outputs": [
        {
          "internalType": "uint256",
          "name": "",
          "type": "uint256"
        },
        {
          "internalType": "bool",
          "name": "",
          "type": "bool"
        }
      ],
      "stateMutability": "view",
      "type": "function",
      "constant": true
    },
    {
      "inputs": [],
      "name": "getNumberOfPatient",
      "outputs": [
        {
          "internalType": "uint256",
          "name": "",
          "type": "uint256"
        }
      ],
      "stateMutability": "view",
      "type": "function",
      "constant": true
    },
    {
      "inputs": [
        {
          "internalType": "uint256",
          "name": "_index",
          "type": "uint256"
        }
      ],
      "name": "getPatientByIndex",
      "outputs": [
        {
          "internalType": "uint256",
          "name": "",
          "type": "uint256"
        },
        {
          "internalType": "string",
          "name": "",
          "type": "string"
        },
        {
          "internalType": "address",
          "name": "",
          "type": "address"
        }
      ],
      "stateMutability": "view",
      "type": "function",
      "constant": true
    },
    {
      "inputs": [
        {
          "internalType": "uint256",
          "name": "_id",
          "type": "uint256"
        },
        {
          "internalType": "string",
          "name": "_name",
          "type": "string"
        },
        {
          "internalType": "address",
          "name": "_account",
          "type": "address"
        }
      ],
      "name": "addPatient",
      "outputs": [],
      "stateMutability": "nonpayable",
      "type": "function"
    },
    {
      "inputs": [
        {
          "internalType": "uint256",
          "name": "_id",
          "type": "uint256"
        }
      ],
      "name": "rmPatient",
      "outputs": [],
      "stateMutability": "nonpayable",
      "type": "function"
    },
    {
      "inputs": [],
      "name": "getNumberOfRequest",
      "outputs": [
        {
          "internalType": "uint256",
          "name": "",
          "type": "uint256"
        }
      ],
      "stateMutability": "view",
      "type": "function",
      "constant": true
    },
    {
      "inputs": [
        {
          "internalType": "uint256",
          "name": "_requestID",
          "type": "uint256"
        }
      ],
      "name": "getRequestByIndex",
      "outputs": [
        {
          "internalType": "uint256",
          "name": "",
          "type": "uint256"
        },
        {
          "internalType": "enum EHR.RequestType",
          "name": "",
          "type": "uint8"
        },
        {
          "internalType": "bool",
          "name": "",
          "type": "bool"
        }
      ],
      "stateMutability": "view",
      "type": "function",
      "constant": true
    },
    {
      "inputs": [
        {
          "internalType": "uint256",
          "name": "_patientID",
          "type": "uint256"
        }
      ],
      "name": "verifyAuthorization",
      "outputs": [
        {
          "internalType": "bool",
          "name": "",
          "type": "bool"
        },
        {
          "internalType": "uint256",
          "name": "",
          "type": "uint256"
        }
      ],
      "stateMutability": "view",
      "type": "function",
      "constant": true
    },
    {
      "inputs": [
        {
          "internalType": "uint256",
          "name": "_patientID",
          "type": "uint256"
        },
        {
          "internalType": "enum EHR.RequestType",
          "name": "_requestType",
          "type": "uint8"
        }
      ],
      "name": "sendRequest",
      "outputs": [
        {
          "internalType": "uint256",
          "name": "",
          "type": "uint256"
        }
      ],
      "stateMutability": "nonpayable",
      "type": "function"
    },
    {
      "inputs": [
        {
          "internalType": "uint256",
          "name": "_requestID",
          "type": "uint256"
        }
      ],
      "name": "setResponse",
      "outputs": [],
      "stateMutability": "nonpayable",
      "type": "function"
    },
    {
      "inputs": [],
      "name": "getNbOfEHRByOwner",
      "outputs": [
        {
          "internalType": "uint256",
          "name": "",
          "type": "uint256"
        }
      ],
      "stateMutability": "view",
      "type": "function",
      "constant": true
    },
    {
      "inputs": [
        {
          "internalType": "uint256",
          "name": "_ehrID",
          "type": "uint256"
        }
      ],
      "name": "getEHRbyOwner",
      "outputs": [
        {
          "internalType": "uint256",
          "name": "",
          "type": "uint256"
        },
        {
          "internalType": "string",
          "name": "",
          "type": "string"
        },
        {
          "internalType": "string",
          "name": "",
          "type": "string"
        },
        {
          "internalType": "string",
          "name": "",
          "type": "string"
        }
      ],
      "stateMutability": "view",
      "type": "function",
      "constant": true
    },
    {
      "inputs": [
        {
          "internalType": "uint256",
          "name": "_patientID",
          "type": "uint256"
        },
        {
          "internalType": "uint256",
          "name": "_requestID",
          "type": "uint256"
        },
        {
          "internalType": "string",
          "name": "_hash",
          "type": "string"
        },
        {
          "internalType": "string",
          "name": "_ipfsAddr",
          "type": "string"
        },
        {
          "internalType": "string",
          "name": "_secretKey",
          "type": "string"
        }
      ],
      "name": "shareEHR",
      "outputs": [],
      "stateMutability": "nonpayable",
      "type": "function"
    },
    {
      "inputs": [
        {
          "internalType": "uint256",
          "name": "_patientID",
          "type": "uint256"
        }
      ],
      "name": "getNbOfEHRByActor",
      "outputs": [
        {
          "internalType": "uint256",
          "name": "",
          "type": "uint256"
        }
      ],
      "stateMutability": "view",
      "type": "function",
      "constant": true
    },
    {
      "inputs": [
        {
          "internalType": "uint256",
          "name": "_patientID",
          "type": "uint256"
        },
        {
          "internalType": "uint256",
          "name": "_requestID",
          "type": "uint256"
        },
        {
          "internalType": "uint256",
          "name": "_ehrID",
          "type": "uint256"
        }
      ],
      "name": "getEHRbyActor",
      "outputs": [
        {
          "internalType": "uint256",
          "name": "",
          "type": "uint256"
        },
        {
          "internalType": "string",
          "name": "",
          "type": "string"
        },
        {
          "internalType": "string",
          "name": "",
          "type": "string"
        },
        {
          "internalType": "string",
          "name": "",
          "type": "string"
        }
      ],
      "stateMutability": "view",
      "type": "function",
      "constant": true
    }
  ],
  "bytecode": "0x60806040523480156200001157600080fd5b5060405162007961380380620079618339818101604052810190620000379190620002d7565b816000806101000a81548173ffffffffffffffffffffffffffffffffffffffff021916908373ffffffffffffffffffffffffffffffffffffffff16021790555080600160006101000a81548173ffffffffffffffffffffffffffffffffffffffff021916908373ffffffffffffffffffffffffffffffffffffffff16021790555060026040518060800160405280601481526020016040518060400160405280600581526020017f626164726f000000000000000000000000000000000000000000000000000000815250815260200173b09e8efd21a77ee5ffdc5aa3f70fcc22e3e060c673ffffffffffffffffffffffffffffffffffffffff16815260200160405162000145906200025f565b604051809103906000f08015801562000162573d6000803e3d6000fd5b5073ffffffffffffffffffffffffffffffffffffffff168152509080600181540180825580915050600190039060005260206000209060040201600090919091909150600082015181600001556020820151816001019081620001c6919062000598565b5060408201518160020160006101000a81548173ffffffffffffffffffffffffffffffffffffffff021916908373ffffffffffffffffffffffffffffffffffffffff16021790555060608201518160030160006101000a81548173ffffffffffffffffffffffffffffffffffffffff021916908373ffffffffffffffffffffffffffffffffffffffff160217905550505050506200067f565b612102806200585f83390190565b600080fd5b600073ffffffffffffffffffffffffffffffffffffffff82169050919050565b60006200029f8262000272565b9050919050565b620002b18162000292565b8114620002bd57600080fd5b50565b600081519050620002d181620002a6565b92915050565b60008060408385031215620002f157620002f06200026d565b5b60006200030185828601620002c0565b92505060206200031485828601620002c0565b9150509250929050565b600081519050919050565b7f4e487b7100000000000000000000000000000000000000000000000000000000600052604160045260246000fd5b7f4e487b7100000000000000000000000000000000000000000000000000000000600052602260045260246000fd5b60006002820490506001821680620003a057607f821691505b602082108103620003b657620003b562000358565b5b50919050565b60008190508160005260206000209050919050565b60006020601f8301049050919050565b600082821b905092915050565b600060088302620004207fffffffffffffffffffffffffffffffffffffffffffffffffffffffffffffffff82620003e1565b6200042c8683620003e1565b95508019841693508086168417925050509392505050565b6000819050919050565b6000819050919050565b600062000479620004736200046d8462000444565b6200044e565b62000444565b9050919050565b6000819050919050565b620004958362000458565b620004ad620004a48262000480565b848454620003ee565b825550505050565b600090565b620004c4620004b5565b620004d18184846200048a565b505050565b5b81811015620004f957620004ed600082620004ba565b600181019050620004d7565b5050565b601f82111562000548576200051281620003bc565b6200051d84620003d1565b810160208510156200052d578190505b620005456200053c85620003d1565b830182620004d6565b50505b505050565b600082821c905092915050565b60006200056d600019846008026200054d565b1980831691505092915050565b60006200058883836200055a565b9150826002028217905092915050565b620005a3826200031e565b67ffffffffffffffff811115620005bf57620005be62000329565b5b620005cb825462000387565b620005d8828285620004fd565b600060209050601f831160018114620006105760008415620005fb578287015190505b6200060785826200057a565b86555062000677565b601f1984166200062086620003bc565b60005b828110156200064a5784890151825560018201915060208501945060208101905062000623565b868310156200066a578489015162000666601f8916826200055a565b8355505b6001600288020188555050505b505050505050565b6151d0806200068f6000396000f3fe60806040523480156200001157600080fd5b50600436106200010c5760003560e01c80636d052b3711620000a5578063df5ff354116200006f578063df5ff35414620002e9578063e28d73a01462000322578063f6b923de1462000358578063f7cde44b1462000391576200010c565b80636d052b3714620002395780639d04ae841462000271578063c4113ed31462000291578063c6af96ce14620002b3576200010c565b80633f2c0e3511620000e75780633f2c0e3514620001885780634053bbac14620001aa57806349bf3afb14620001ca57806357ea0c2f1462000201576200010c565b806307f1683b14620001115780631fed6dd6146200013157806327fcf2be1462000151575b600080fd5b6200012f600480360381019062000129919062001cb3565b620003b3565b005b6200014f600480360381019062000149919062001dfd565b6200058b565b005b6200016f600480360381019062000169919062001e78565b6200082e565b6040516200017f92919062001ed8565b60405180910390f35b62000192620009ff565b604051620001a1919062001f05565b60405180910390f35b620001c86004803603810190620001c2919062001e78565b62000b19565b005b620001e86004803603810190620001e2919062001f22565b62000e4b565b604051620001f892919062001f69565b60405180910390f35b6200021f600480360381019062000219919062001e78565b62000f45565b604051620002309392919062002030565b60405180910390f35b62000257600480360381019062000251919062001e78565b620010dd565b6040516200026893929190620020f4565b60405180910390f35b6200028f600480360381019062000289919062001e78565b6200120f565b005b6200029b62001322565b604051620002aa919062001f05565b60405180910390f35b620002d16004803603810190620002cb919062001e78565b6200132f565b604051620002e0919062001f05565b60405180910390f35b62000307600480360381019062000301919062002131565b6200144b565b6040516200031994939291906200218d565b60405180910390f35b6200034060048036038101906200033a919062002217565b6200164b565b6040516200034f919062001f05565b60405180910390f35b62000376600480360381019062000370919062001e78565b62001821565b6040516200038894939291906200218d565b60405180910390f35b6200039b62001975565b604051620003aa919062001f05565b60405180910390f35b600080620003c387600062000e4b565b91509150806200040a576040517f08c379a00000000000000000000000000000000000000000000000000000000081526004016200040190620022ae565b60405180910390fd5b6000600160009054906101000a900473ffffffffffffffffffffffffffffffffffffffff1673ffffffffffffffffffffffffffffffffffffffff1663cbd3638f336040518263ffffffff1660e01b8152600401620004699190620022d0565b602060405180830381865afa15801562000487573d6000803e3d6000fd5b505050506040513d601f19601f82011682018060405250810190620004ad919062002304565b905060028381548110620004c657620004c562002336565b5b906000526020600020906004020160030160009054906101000a900473ffffffffffffffffffffffffffffffffffffffff1673ffffffffffffffffffffffffffffffffffffffff1663e635869788838989896040518663ffffffff1660e01b81526004016200053a95949392919062002365565b6020604051808303816000875af11580156200055a573d6000803e3d6000fd5b505050506040513d601f19601f8201168201806040525081019062000580919062002304565b505050505050505050565b60008060008054906101000a900473ffffffffffffffffffffffffffffffffffffffff1673ffffffffffffffffffffffffffffffffffffffff1663134e91ac336040518263ffffffff1660e01b8152600401620005e99190620022d0565b6040805180830381865afa15801562000606573d6000803e3d6000fd5b505050506040513d601f19601f820116820180604052508101906200062c919062002408565b915091508062000673576040517f08c379a00000000000000000000000000000000000000000000000000000000081526004016200066a906200249f565b60405180910390fd5b60008062000682878662000e4b565b915091506000151581151514620006d0576040517f08c379a0000000000000000000000000000000000000000000000000000000008152600401620006c79062002537565b60405180910390fd5b600260405180608001604052808981526020018881526020018773ffffffffffffffffffffffffffffffffffffffff168152602001604051620007139062001a8f565b604051809103906000f08015801562000730573d6000803e3d6000fd5b5073ffffffffffffffffffffffffffffffffffffffff1681525090806001815401808255809150506001900390600052602060002090600402016000909190919091506000820151816000015560208201518160010190816200079491906200278f565b5060408201518160020160006101000a81548173ffffffffffffffffffffffffffffffffffffffff021916908373ffffffffffffffffffffffffffffffffffffffff16021790555060608201518160030160006101000a81548173ffffffffffffffffffffffffffffffffffffffff021916908373ffffffffffffffffffffffffffffffffffffffff160217905550505050505050505050565b6000806000806200084185600062000e4b565b915091508062000888576040517f08c379a00000000000000000000000000000000000000000000000000000000081526004016200087f90620028c6565b60405180910390fd5b6000600160009054906101000a900473ffffffffffffffffffffffffffffffffffffffff1673ffffffffffffffffffffffffffffffffffffffff1663cbd3638f336040518263ffffffff1660e01b8152600401620008e79190620022d0565b602060405180830381865afa15801562000905573d6000803e3d6000fd5b505050506040513d601f19601f820116820180604052508101906200092b919062002304565b90506002838154811062000944576200094362002336565b5b906000526020600020906004020160030160009054906101000a900473ffffffffffffffffffffffffffffffffffffffff1673ffffffffffffffffffffffffffffffffffffffff1663cc541a68826040518263ffffffff1660e01b8152600401620009b0919062001f05565b6040805180830381865afa158015620009cd573d6000803e3d6000fd5b505050506040513d601f19601f82011682018060405250810190620009f39190620028e8565b94509450505050915091565b600080600062000a1160003362000e4b565b915091508062000a58576040517f08c379a000000000000000000000000000000000000000000000000000000000815260040162000a4f906200297f565b60405180910390fd5b6002828154811062000a6f5762000a6e62002336565b5b906000526020600020906004020160030160009054906101000a900473ffffffffffffffffffffffffffffffffffffffff1673ffffffffffffffffffffffffffffffffffffffff16633f2c0e356040518163ffffffff1660e01b8152600401602060405180830381865afa15801562000aec573d6000803e3d6000fd5b505050506040513d601f19601f8201168201806040525081019062000b12919062002304565b9250505090565b60008060008054906101000a900473ffffffffffffffffffffffffffffffffffffffff1673ffffffffffffffffffffffffffffffffffffffff1663134e91ac336040518263ffffffff1660e01b815260040162000b779190620022d0565b6040805180830381865afa15801562000b94573d6000803e3d6000fd5b505050506040513d601f19601f8201168201806040525081019062000bba919062002408565b915091508062000c01576040517f08c379a000000000000000000000000000000000000000000000000000000000815260040162000bf8906200249f565b60405180910390fd5b60008062000c1185600062000e4b565b91509150600115158115151462000c5f576040517f08c379a000000000000000000000000000000000000000000000000000000000815260040162000c5690620022ae565b60405180910390fd5b6002600160028054905062000c759190620029d0565b8154811062000c895762000c8862002336565b5b90600052602060002090600402016002838154811062000cae5762000cad62002336565b5b9060005260206000209060040201600082015481600001556001820181600101908162000cdc919062002a23565b506002820160009054906101000a900473ffffffffffffffffffffffffffffffffffffffff168160020160006101000a81548173ffffffffffffffffffffffffffffffffffffffff021916908373ffffffffffffffffffffffffffffffffffffffff1602179055506003820160009054906101000a900473ffffffffffffffffffffffffffffffffffffffff168160030160006101000a81548173ffffffffffffffffffffffffffffffffffffffff021916908373ffffffffffffffffffffffffffffffffffffffff160217905550905050600280548062000dc35762000dc262002b24565b5b600190038181906000526020600020906004020160008082016000905560018201600062000df2919062001a9d565b6002820160006101000a81549073ffffffffffffffffffffffffffffffffffffffff02191690556003820160006101000a81549073ffffffffffffffffffffffffffffffffffffffff0219169055505090555050505050565b60008060008060005b60028054905081101562000f3557866002828154811062000e7a5762000e7962002336565b5b906000526020600020906004020160000154148062000f0c57508573ffffffffffffffffffffffffffffffffffffffff166002828154811062000ec25762000ec162002336565b5b906000526020600020906004020160020160009054906101000a900473ffffffffffffffffffffffffffffffffffffffff1673ffffffffffffffffffffffffffffffffffffffff16145b1562000f1f576001915080925062000f35565b808062000f2c9062002b53565b91505062000e54565b5081819350935050509250929050565b60006060600080841015801562000f60575060028054905084105b62000fa2576040517f08c379a000000000000000000000000000000000000000000000000000000000815260040162000f999062002bf0565b60405180910390fd5b6002848154811062000fb95762000fb862002336565b5b9060005260206000209060040201600001546002858154811062000fe25762000fe162002336565b5b9060005260206000209060040201600101600286815481106200100a576200100962002336565b5b906000526020600020906004020160020160009054906101000a900473ffffffffffffffffffffffffffffffffffffffff168180546200104a9062002588565b80601f0160208091040260200160405190810160405280929190818152602001828054620010789062002588565b8015620010c95780601f106200109d57610100808354040283529160200191620010c9565b820191906000526020600020905b815481529060010190602001808311620010ab57829003601f168201915b505050505091509250925092509193909250565b6000806000806000620010f260003362000e4b565b915091508062001139576040517f08c379a000000000000000000000000000000000000000000000000000000000815260040162001130906200297f565b60405180910390fd5b6002828154811062001150576200114f62002336565b5b906000526020600020906004020160030160009054906101000a900473ffffffffffffffffffffffffffffffffffffffff1673ffffffffffffffffffffffffffffffffffffffff16636d052b37876040518263ffffffff1660e01b8152600401620011bc919062001f05565b606060405180830381865afa158015620011da573d6000803e3d6000fd5b505050506040513d601f19601f8201168201806040525081019062001200919062002c29565b94509450945050509193909250565b6000806200121f60003362000e4b565b915091508062001266576040517f08c379a00000000000000000000000000000000000000000000000000000000081526004016200125d9062002cfb565b60405180910390fd5b600282815481106200127d576200127c62002336565b5b906000526020600020906004020160030160009054906101000a900473ffffffffffffffffffffffffffffffffffffffff1673ffffffffffffffffffffffffffffffffffffffff16639d04ae84846040518263ffffffff1660e01b8152600401620012e9919062001f05565b600060405180830381600087803b1580156200130457600080fd5b505af115801562001319573d6000803e3d6000fd5b50505050505050565b6000600280549050905090565b60008060006200134184600062000e4b565b915091508062001388576040517f08c379a00000000000000000000000000000000000000000000000000000000081526004016200137f9062002d6d565b60405180910390fd5b600282815481106200139f576200139e62002336565b5b906000526020600020906004020160030160009054906101000a900473ffffffffffffffffffffffffffffffffffffffff1673ffffffffffffffffffffffffffffffffffffffff16637cd7710d6040518163ffffffff1660e01b8152600401602060405180830381865afa1580156200141c573d6000803e3d6000fd5b505050506040513d601f19601f8201168201806040525081019062001442919062002304565b92505050919050565b600060608060606000806200146289600062000e4b565b9150915080620014a9576040517f08c379a0000000000000000000000000000000000000000000000000000000008152600401620014a090620022ae565b60405180910390fd5b6000600160009054906101000a900473ffffffffffffffffffffffffffffffffffffffff1673ffffffffffffffffffffffffffffffffffffffff1663cbd3638f336040518263ffffffff1660e01b8152600401620015089190620022d0565b602060405180830381865afa15801562001526573d6000803e3d6000fd5b505050506040513d601f19601f820116820180604052508101906200154c919062002304565b905060006002848154811062001567576200156662002336565b5b906000526020600020906004020160030160009054906101000a900473ffffffffffffffffffffffffffffffffffffffff1673ffffffffffffffffffffffffffffffffffffffff1663df5ff3548b848c6040518463ffffffff1660e01b8152600401620015d79392919062002d8f565b600060405180830381865afa158015620015f5573d6000803e3d6000fd5b505050506040513d6000823e3d601f19601f8201168201806040525081019062001620919062002f36565b9050806000015181602001518260400151836060015197509750975097505050505093509350935093565b600080600160009054906101000a900473ffffffffffffffffffffffffffffffffffffffff1673ffffffffffffffffffffffffffffffffffffffff1663cbd3638f336040518263ffffffff1660e01b8152600401620016ab9190620022d0565b602060405180830381865afa158015620016c9573d6000803e3d6000fd5b505050506040513d601f19601f82011682018060405250810190620016ef919062002304565b90506000806200170186600062000e4b565b915091508062001748576040517f08c379a00000000000000000000000000000000000000000000000000000000081526004016200173f9062002fd7565b60405180910390fd5b600282815481106200175f576200175e62002336565b5b906000526020600020906004020160030160009054906101000a900473ffffffffffffffffffffffffffffffffffffffff1673ffffffffffffffffffffffffffffffffffffffff166323c3147384876040518363ffffffff1660e01b8152600401620017cd92919062002ff9565b6020604051808303816000875af1158015620017ed573d6000803e3d6000fd5b505050506040513d601f19601f8201168201806040525081019062001813919062002304565b506000935050505092915050565b600060608060606000806200183860003362000e4b565b91509150806200187f576040517f08c379a0000000000000000000000000000000000000000000000000000000008152600401620018769062003076565b60405180910390fd5b60006002838154811062001898576200189762002336565b5b906000526020600020906004020160030160009054906101000a900473ffffffffffffffffffffffffffffffffffffffff1673ffffffffffffffffffffffffffffffffffffffff16638f823dfe896040518263ffffffff1660e01b815260040162001904919062001f05565b600060405180830381865afa15801562001922573d6000803e3d6000fd5b505050506040513d6000823e3d601f19601f820116820180604052508101906200194d919062002f36565b9050806000015181602001518260400151836060015196509650965096505050509193509193565b60008060006200198760003362000e4b565b9150915080620019ce576040517f08c379a0000000000000000000000000000000000000000000000000000000008152600401620019c59062003076565b60405180910390fd5b60028281548110620019e557620019e462002336565b5b906000526020600020906004020160030160009054906101000a900473ffffffffffffffffffffffffffffffffffffffff1673ffffffffffffffffffffffffffffffffffffffff16637cd7710d6040518163ffffffff1660e01b8152600401602060405180830381865afa15801562001a62573d6000803e3d6000fd5b505050506040513d601f19601f8201168201806040525081019062001a88919062002304565b9250505090565b612102806200309983390190565b50805462001aab9062002588565b6000825580601f1062001abf575062001ae0565b601f01602090049060005260206000209081019062001adf919062001ae3565b5b50565b5b8082111562001afe57600081600090555060010162001ae4565b5090565b6000604051905090565b600080fd5b600080fd5b6000819050919050565b62001b2b8162001b16565b811462001b3757600080fd5b50565b60008135905062001b4b8162001b20565b92915050565b600080fd5b600080fd5b6000601f19601f8301169050919050565b7f4e487b7100000000000000000000000000000000000000000000000000000000600052604160045260246000fd5b62001ba68262001b5b565b810181811067ffffffffffffffff8211171562001bc85762001bc762001b6c565b5b80604052505050565b600062001bdd62001b02565b905062001beb828262001b9b565b919050565b600067ffffffffffffffff82111562001c0e5762001c0d62001b6c565b5b62001c198262001b5b565b9050602081019050919050565b82818337600083830152505050565b600062001c4c62001c468462001bf0565b62001bd1565b90508281526020810184848401111562001c6b5762001c6a62001b56565b5b62001c7884828562001c26565b509392505050565b600082601f83011262001c985762001c9762001b51565b5b813562001caa84826020860162001c35565b91505092915050565b600080600080600060a0868803121562001cd25762001cd162001b0c565b5b600062001ce28882890162001b3a565b955050602062001cf58882890162001b3a565b945050604086013567ffffffffffffffff81111562001d195762001d1862001b11565b5b62001d278882890162001c80565b935050606086013567ffffffffffffffff81111562001d4b5762001d4a62001b11565b5b62001d598882890162001c80565b925050608086013567ffffffffffffffff81111562001d7d5762001d7c62001b11565b5b62001d8b8882890162001c80565b9150509295509295909350565b600073ffffffffffffffffffffffffffffffffffffffff82169050919050565b600062001dc58262001d98565b9050919050565b62001dd78162001db8565b811462001de357600080fd5b50565b60008135905062001df78162001dcc565b92915050565b60008060006060848603121562001e195762001e1862001b0c565b5b600062001e298682870162001b3a565b935050602084013567ffffffffffffffff81111562001e4d5762001e4c62001b11565b5b62001e5b8682870162001c80565b925050604062001e6e8682870162001de6565b9150509250925092565b60006020828403121562001e915762001e9062001b0c565b5b600062001ea18482850162001b3a565b91505092915050565b60008115159050919050565b62001ec18162001eaa565b82525050565b62001ed28162001b16565b82525050565b600060408201905062001eef600083018562001eb6565b62001efe602083018462001ec7565b9392505050565b600060208201905062001f1c600083018462001ec7565b92915050565b6000806040838503121562001f3c5762001f3b62001b0c565b5b600062001f4c8582860162001b3a565b925050602062001f5f8582860162001de6565b9150509250929050565b600060408201905062001f80600083018562001ec7565b62001f8f602083018462001eb6565b9392505050565b600081519050919050565b600082825260208201905092915050565b60005b8381101562001fd257808201518184015260208101905062001fb5565b60008484015250505050565b600062001feb8262001f96565b62001ff7818562001fa1565b93506200200981856020860162001fb2565b620020148162001b5b565b840191505092915050565b6200202a8162001db8565b82525050565b600060608201905062002047600083018662001ec7565b81810360208301526200205b818562001fde565b90506200206c60408301846200201f565b949350505050565b7f4e487b7100000000000000000000000000000000000000000000000000000000600052602160045260246000fd5b60028110620020b757620020b662002074565b5b50565b6000819050620020ca82620020a3565b919050565b6000620020dc82620020ba565b9050919050565b620020ee81620020cf565b82525050565b60006060820190506200210b600083018662001ec7565b6200211a6020830185620020e3565b62002129604083018462001eb6565b949350505050565b6000806000606084860312156200214d576200214c62001b0c565b5b60006200215d8682870162001b3a565b9350506020620021708682870162001b3a565b9250506040620021838682870162001b3a565b9150509250925092565b6000608082019050620021a4600083018762001ec7565b8181036020830152620021b8818662001fde565b90508181036040830152620021ce818562001fde565b90508181036060830152620021e4818462001fde565b905095945050505050565b60028110620021fd57600080fd5b50565b6000813590506200221181620021ef565b92915050565b6000806040838503121562002231576200223062001b0c565b5b6000620022418582860162001b3a565b9250506020620022548582860162002200565b9150509250929050565b7f70617469656e7420646f6573206e6f7420657869737420212100000000000000600082015250565b60006200229660198362001fa1565b9150620022a3826200225e565b602082019050919050565b60006020820190508181036000830152620022c98162002287565b9050919050565b6000602082019050620022e760008301846200201f565b92915050565b600081519050620022fe8162001b20565b92915050565b6000602082840312156200231d576200231c62001b0c565b5b60006200232d84828501620022ed565b91505092915050565b7f4e487b7100000000000000000000000000000000000000000000000000000000600052603260045260246000fd5b600060a0820190506200237c600083018862001ec7565b6200238b602083018762001ec7565b81810360408301526200239f818662001fde565b90508181036060830152620023b5818562001fde565b90508181036080830152620023cb818462001fde565b90509695505050505050565b620023e28162001eaa565b8114620023ee57600080fd5b50565b6000815190506200240281620023d7565b92915050565b6000806040838503121562002422576200242162001b0c565b5b60006200243285828601620022ed565b92505060206200244585828601620023f1565b9150509250929050565b7f43616c6c65722068617665206e6f74207065726d657373696f6e000000000000600082015250565b600062002487601a8362001fa1565b915062002494826200244f565b602082019050919050565b60006020820190508181036000830152620024ba8162002478565b9050919050565b7f70617469656e74206964206f72206163636f756e7420616c726561647920657860008201527f6973742021210000000000000000000000000000000000000000000000000000602082015250565b60006200251f60268362001fa1565b91506200252c82620024c1565b604082019050919050565b60006020820190508181036000830152620025528162002510565b9050919050565b7f4e487b7100000000000000000000000000000000000000000000000000000000600052602260045260246000fd5b60006002820490506001821680620025a157607f821691505b602082108103620025b757620025b662002559565b5b50919050565b60008190508160005260206000209050919050565b60006020601f8301049050919050565b600082821b905092915050565b600060088302620026217fffffffffffffffffffffffffffffffffffffffffffffffffffffffffffffffff82620025e2565b6200262d8683620025e2565b95508019841693508086168417925050509392505050565b6000819050919050565b6000620026706200266a620026648462001b16565b62002645565b62001b16565b9050919050565b6000819050919050565b6200268c836200264f565b620026a46200269b8262002677565b848454620025ef565b825550505050565b600090565b620026bb620026ac565b620026c881848462002681565b505050565b5b81811015620026f057620026e4600082620026b1565b600181019050620026ce565b5050565b601f8211156200273f576200270981620025bd565b6200271484620025d2565b8101602085101562002724578190505b6200273c6200273385620025d2565b830182620026cd565b50505b505050565b600082821c905092915050565b6000620027646000198460080262002744565b1980831691505092915050565b60006200277f838362002751565b9150826002028217905092915050565b6200279a8262001f96565b67ffffffffffffffff811115620027b657620027b562001b6c565b5b620027c2825462002588565b620027cf828285620026f4565b600060209050601f831160018114620028075760008415620027f2578287015190505b620027fe858262002771565b8655506200286e565b601f1984166200281786620025bd565b60005b8281101562002841578489015182556001820191506020850194506020810190506200281a565b868310156200286157848901516200285d601f89168262002751565b8355505b6001600288020188555050505b505050505050565b7f546869732070617469656e7420646f6573206e6f742065786973742021212000600082015250565b6000620028ae601f8362001fa1565b9150620028bb8262002876565b602082019050919050565b60006020820190508181036000830152620028e1816200289f565b9050919050565b6000806040838503121562002902576200290162001b0c565b5b60006200291285828601620023f1565b92505060206200292585828601620022ed565b9150509250929050565b7f596f7520617265206e6f7420612070617469656e742021210000000000000000600082015250565b60006200296760188362001fa1565b915062002974826200292f565b602082019050919050565b600060208201905081810360008301526200299a8162002958565b9050919050565b7f4e487b7100000000000000000000000000000000000000000000000000000000600052601160045260246000fd5b6000620029dd8262001b16565b9150620029ea8362001b16565b925082820390508181111562002a055762002a04620029a1565b5b92915050565b60008154905062002a1c8162002588565b9050919050565b81810362002a3357505062002b22565b62002a3e8262002a0b565b67ffffffffffffffff81111562002a5a5762002a5962001b6c565b5b62002a66825462002588565b62002a73828285620026f4565b6000601f83116001811462002aa7576000841562002a92578287015490505b62002a9e858262002771565b86555062002b1b565b601f19841662002ab787620025bd565b965062002ac486620025bd565b60005b8281101562002aee5784890154825560018201915060018501945060208101905062002ac7565b8683101562002b0e578489015462002b0a601f89168262002751565b8355505b6001600288020188555050505b5050505050505b565b7f4e487b7100000000000000000000000000000000000000000000000000000000600052603160045260246000fd5b600062002b608262001b16565b91507fffffffffffffffffffffffffffffffffffffffffffffffffffffffffffffffff820362002b955762002b94620029a1565b5b600182019050919050565b7f57726f6e6720696e646578212100000000000000000000000000000000000000600082015250565b600062002bd8600d8362001fa1565b915062002be58262002ba0565b602082019050919050565b6000602082019050818103600083015262002c0b8162002bc9565b9050919050565b60008151905062002c2381620021ef565b92915050565b60008060006060848603121562002c455762002c4462001b0c565b5b600062002c5586828701620022ed565b935050602062002c688682870162002c12565b925050604062002c7b86828701620023f1565b9150509250925092565b7f796f7520617265206e6f7420612070617469656e742c207065726d697373696f60008201527f6e2064656e696564202121000000000000000000000000000000000000000000602082015250565b600062002ce3602b8362001fa1565b915062002cf08262002c85565b604082019050919050565b6000602082019050818103600083015262002d168162002cd4565b9050919050565b7f50617469656e7420446f6573204e6f7420457869737421210000000000000000600082015250565b600062002d5560188362001fa1565b915062002d628262002d1d565b602082019050919050565b6000602082019050818103600083015262002d888162002d46565b9050919050565b600060608201905062002da6600083018662001ec7565b62002db5602083018562001ec7565b62002dc4604083018462001ec7565b949350505050565b600080fd5b600080fd5b600062002ded62002de78462001bf0565b62001bd1565b90508281526020810184848401111562002e0c5762002e0b62001b56565b5b62002e1984828562001fb2565b509392505050565b600082601f83011262002e395762002e3862001b51565b5b815162002e4b84826020860162002dd6565b91505092915050565b60006080828403121562002e6d5762002e6c62002dcc565b5b62002e79608062001bd1565b9050600062002e8b84828501620022ed565b600083015250602082015167ffffffffffffffff81111562002eb25762002eb162002dd1565b5b62002ec08482850162002e21565b602083015250604082015167ffffffffffffffff81111562002ee75762002ee662002dd1565b5b62002ef58482850162002e21565b604083015250606082015167ffffffffffffffff81111562002f1c5762002f1b62002dd1565b5b62002f2a8482850162002e21565b60608301525092915050565b60006020828403121562002f4f5762002f4e62001b0c565b5b600082015167ffffffffffffffff81111562002f705762002f6f62001b11565b5b62002f7e8482850162002e54565b91505092915050565b7f50617469656e7420646f6573206e6f7420657869737420212100000000000000600082015250565b600062002fbf60198362001fa1565b915062002fcc8262002f87565b602082019050919050565b6000602082019050818103600083015262002ff28162002fb0565b9050919050565b600060408201905062003010600083018562001ec7565b6200301f6020830184620020e3565b9392505050565b7f596f7520617265206e6f7420612050617469656e742021210000000000000000600082015250565b60006200305e60188362001fa1565b91506200306b8262003026565b602082019050919050565b6000602082019050818103600083015262003091816200304f565b905091905056fe608060405260006002553480156200001657600080fd5b50600260008154809291906200002c906200026a565b91905055506040518060800160405280600081526020016040518060400160405280600481526020017f746573740000000000000000000000000000000000000000000000000000000081525081526020016040518060400160405280600481526020017f746573740000000000000000000000000000000000000000000000000000000081525081526020016040518060400160405280600481526020017f746573740000000000000000000000000000000000000000000000000000000081525081525060016000600254815260200190815260200160002060008201518160000155602082015181600101908162000128919062000527565b50604082015181600201908162000140919062000527565b50606082015181600301908162000158919062000527565b5090505060006040518060800160405280601781526020016001808111156200018657620001856200060e565b5b8152602001600115158152602001600081525090806001815401808255809150506001900390600052602060002090600302016000909190919091506000820151816000015560208201518160010160006101000a81548160ff02191690836001811115620001fa57620001f96200060e565b5b021790555060408201518160010160016101000a81548160ff0219169083151502179055506060820151816002015550506200063d565b7f4e487b7100000000000000000000000000000000000000000000000000000000600052601160045260246000fd5b6000819050919050565b6000620002778262000260565b91507fffffffffffffffffffffffffffffffffffffffffffffffffffffffffffffffff8203620002ac57620002ab62000231565b5b600182019050919050565b600081519050919050565b7f4e487b7100000000000000000000000000000000000000000000000000000000600052604160045260246000fd5b7f4e487b7100000000000000000000000000000000000000000000000000000000600052602260045260246000fd5b600060028204905060018216806200033957607f821691505b6020821081036200034f576200034e620002f1565b5b50919050565b60008190508160005260206000209050919050565b60006020601f8301049050919050565b600082821b905092915050565b600060088302620003b97fffffffffffffffffffffffffffffffffffffffffffffffffffffffffffffffff826200037a565b620003c586836200037a565b95508019841693508086168417925050509392505050565b6000819050919050565b60006200040862000402620003fc8462000260565b620003dd565b62000260565b9050919050565b6000819050919050565b6200042483620003e7565b6200043c62000433826200040f565b84845462000387565b825550505050565b600090565b6200045362000444565b6200046081848462000419565b505050565b5b8181101562000488576200047c60008262000449565b60018101905062000466565b5050565b601f821115620004d757620004a18162000355565b620004ac846200036a565b81016020851015620004bc578190505b620004d4620004cb856200036a565b83018262000465565b50505b505050565b600082821c905092915050565b6000620004fc60001984600802620004dc565b1980831691505092915050565b6000620005178383620004e9565b9150826002028217905092915050565b6200053282620002b7565b67ffffffffffffffff8111156200054e576200054d620002c2565b5b6200055a825462000320565b620005678282856200048c565b600060209050601f8311600181146200059f57600084156200058a578287015190505b62000596858262000509565b86555062000606565b601f198416620005af8662000355565b60005b82811015620005d957848901518255600182019150602085019450602081019050620005b2565b86831015620005f95784890151620005f5601f891682620004e9565b8355505b6001600288020188555050505b505050505050565b7f4e487b7100000000000000000000000000000000000000000000000000000000600052602160045260246000fd5b611ab5806200064d6000396000f3fe608060405234801561001057600080fd5b50600436106100a95760003560e01c80637cd7710d116100715780637cd7710d146101925780638f823dfe146101b05780639d04ae84146101e0578063cc541a68146101fc578063df5ff3541461022d578063e63586971461025d576100a9565b806308d19b8b146100ae57806323c31473146100e15780633f2c0e351461011157806340c579981461012f5780636d052b3714610160575b600080fd5b6100c860048036038101906100c39190610e58565b61028d565b6040516100d89493929190610f24565b60405180910390f35b6100fb60048036038101906100f69190610fa3565b610455565b6040516101089190610fe3565b60405180910390f35b610119610533565b6040516101269190610fe3565b60405180910390f35b61014960048036038101906101449190610e58565b61053f565b604051610157929190611019565b60405180910390f35b61017a60048036038101906101759190610e58565b610599565b604051610189939291906110b9565b60405180910390f35b61019a61068a565b6040516101a79190610fe3565b60405180910390f35b6101ca60048036038101906101c59190610e58565b610690565b6040516101d791906111ba565b60405180910390f35b6101fa60048036038101906101f59190610e58565b6108ce565b005b61021660048036038101906102119190610e58565b610961565b6040516102249291906111dc565b60405180910390f35b61024760048036038101906102429190611205565b610a6f565b60405161025491906111ba565b60405180910390f35b6102776004803603810190610272919061138d565b610be3565b6040516102849190610fe3565b60405180910390f35b60016020528060005260406000206000915090508060000154908060010180546102b69061148b565b80601f01602080910402602001604051908101604052809291908181526020018280546102e29061148b565b801561032f5780601f106103045761010080835404028352916020019161032f565b820191906000526020600020905b81548152906001019060200180831161031257829003601f168201915b5050505050908060020180546103449061148b565b80601f01602080910402602001604051908101604052809291908181526020018280546103709061148b565b80156103bd5780601f10610392576101008083540402835291602001916103bd565b820191906000526020600020905b8154815290600101906020018083116103a057829003601f168201915b5050505050908060030180546103d29061148b565b80601f01602080910402602001604051908101604052809291908181526020018280546103fe9061148b565b801561044b5780601f106104205761010080835404028352916020019161044b565b820191906000526020600020905b81548152906001019060200180831161042e57829003601f168201915b5050505050905084565b6000806000805490509050600080604051806080016040528087815260200186600181111561048757610486611042565b5b81526020018315158152602001600081525090806001815401808255809150506001900390600052602060002090600302016000909190919091506000820151816000015560208201518160010160006101000a81548160ff021916908360018111156104f7576104f6611042565b5b021790555060408201518160010160016101000a81548160ff021916908315150217905550606082015181600201555050819250505092915050565b60008080549050905090565b60008060008084600080549050111561058c57600191506000858154811061056a576105696114bc565b5b906000526020600020906003020160010160019054906101000a900460ff1690505b8181935093505050915091565b60008060008084101580156105b2575060008054905084105b6105f1576040517f08c379a00000000000000000000000000000000000000000000000000000000081526004016105e890611537565b60405180910390fd5b60008481548110610605576106046114bc565b5b9060005260206000209060030201600001546000858154811061062b5761062a6114bc565b5b906000526020600020906003020160010160009054906101000a900460ff166000868154811061065e5761065d6114bc565b5b906000526020600020906003020160010160019054906101000a900460ff169250925092509193909250565b60025481565b610698610de6565b6000821180156106aa57506002548211155b6106e9576040517f08c379a00000000000000000000000000000000000000000000000000000000081526004016106e0906115a3565b60405180910390fd5b60016000838152602001908152602001600020604051806080016040529081600082015481526020016001820180546107219061148b565b80601f016020809104026020016040519081016040528092919081815260200182805461074d9061148b565b801561079a5780601f1061076f5761010080835404028352916020019161079a565b820191906000526020600020905b81548152906001019060200180831161077d57829003601f168201915b505050505081526020016002820180546107b39061148b565b80601f01602080910402602001604051908101604052809291908181526020018280546107df9061148b565b801561082c5780601f106108015761010080835404028352916020019161082c565b820191906000526020600020905b81548152906001019060200180831161080f57829003601f168201915b505050505081526020016003820180546108459061148b565b80601f01602080910402602001604051908101604052809291908181526020018280546108719061148b565b80156108be5780601f10610893576101008083540402835291602001916108be565b820191906000526020600020905b8154815290600101906020018083116108a157829003601f168201915b5050505050815250509050919050565b6000806108da8361053f565b915091508161091e576040517f08c379a00000000000000000000000000000000000000000000000000000000081526004016109159061160f565b60405180910390fd5b600160008481548110610934576109336114bc565b5b906000526020600020906003020160010160016101000a81548160ff021916908315150217905550505050565b600080600080808054905090505b6000811115610a6057846000600183610988919061165e565b81548110610999576109986114bc565b5b90600052602060002090600302016000015403610a4d576000806001836109c0919061165e565b815481106109d1576109d06114bc565b5b90600052602060002090600302016002015403610a3f5760006001826109f7919061165e565b81548110610a0857610a076114bc565b5b906000526020600020906003020160010160019054906101000a900460ff16600182610a34919061165e565b935093505050610a6a565b600082935093505050610a6a565b8080610a5890611692565b91505061096f565b6000829350935050505b915091565b610a77610de6565b600080610a838661053f565b91509150818015610a915750805b610ad0576040517f08c379a0000000000000000000000000000000000000000000000000000000008152600401610ac79061172d565b60405180910390fd5b8460008781548110610ae557610ae46114bc565b5b90600052602060002090600302016000015414610b37576040517f08c379a0000000000000000000000000000000000000000000000000000000008152600401610b2e90611799565b60405180910390fd5b600180811115610b4a57610b49611042565b5b60008781548110610b5e57610b5d6114bc565b5b906000526020600020906003020160010160009054906101000a900460ff166001811115610b8f57610b8e611042565b5b14610bcf576040517f08c379a0000000000000000000000000000000000000000000000000000000008152600401610bc690611799565b60405180910390fd5b610bd884610690565b925050509392505050565b6000806000610bf18861053f565b91509150818015610bff5750805b610c3e576040517f08c379a0000000000000000000000000000000000000000000000000000000008152600401610c359061172d565b60405180910390fd5b8660008981548110610c5357610c526114bc565b5b90600052602060002090600302016000015414610ca5576040517f08c379a0000000000000000000000000000000000000000000000000000000008152600401610c9c90611799565b60405180910390fd5b60006001811115610cb957610cb8611042565b5b60008981548110610ccd57610ccc6114bc565b5b906000526020600020906003020160010160009054906101000a900460ff166001811115610cfe57610cfd611042565b5b14610d3e576040517f08c379a0000000000000000000000000000000000000000000000000000000008152600401610d3590611799565b60405180910390fd5b60026000815480929190610d51906117b9565b9190505550604051806080016040528088815260200187815260200186815260200185815250600160006002548152602001908152602001600020600082015181600001556020820151816001019081610dab91906119ad565b506040820151816002019081610dc191906119ad565b506060820151816003019081610dd791906119ad565b50905050505095945050505050565b6040518060800160405280600081526020016060815260200160608152602001606081525090565b6000604051905090565b600080fd5b600080fd5b6000819050919050565b610e3581610e22565b8114610e4057600080fd5b50565b600081359050610e5281610e2c565b92915050565b600060208284031215610e6e57610e6d610e18565b5b6000610e7c84828501610e43565b91505092915050565b610e8e81610e22565b82525050565b600081519050919050565b600082825260208201905092915050565b60005b83811015610ece578082015181840152602081019050610eb3565b60008484015250505050565b6000601f19601f8301169050919050565b6000610ef682610e94565b610f008185610e9f565b9350610f10818560208601610eb0565b610f1981610eda565b840191505092915050565b6000608082019050610f396000830187610e85565b8181036020830152610f4b8186610eeb565b90508181036040830152610f5f8185610eeb565b90508181036060830152610f738184610eeb565b905095945050505050565b60028110610f8b57600080fd5b50565b600081359050610f9d81610f7e565b92915050565b60008060408385031215610fba57610fb9610e18565b5b6000610fc885828601610e43565b9250506020610fd985828601610f8e565b9150509250929050565b6000602082019050610ff86000830184610e85565b92915050565b60008115159050919050565b61101381610ffe565b82525050565b600060408201905061102e600083018561100a565b61103b602083018461100a565b9392505050565b7f4e487b7100000000000000000000000000000000000000000000000000000000600052602160045260246000fd5b6002811061108257611081611042565b5b50565b600081905061109382611071565b919050565b60006110a382611085565b9050919050565b6110b381611098565b82525050565b60006060820190506110ce6000830186610e85565b6110db60208301856110aa565b6110e8604083018461100a565b949350505050565b6110f981610e22565b82525050565b600082825260208201905092915050565b600061111b82610e94565b61112581856110ff565b9350611135818560208601610eb0565b61113e81610eda565b840191505092915050565b600060808301600083015161116160008601826110f0565b50602083015184820360208601526111798282611110565b915050604083015184820360408601526111938282611110565b915050606083015184820360608601526111ad8282611110565b9150508091505092915050565b600060208201905081810360008301526111d48184611149565b905092915050565b60006040820190506111f1600083018561100a565b6111fe6020830184610e85565b9392505050565b60008060006060848603121561121e5761121d610e18565b5b600061122c86828701610e43565b935050602061123d86828701610e43565b925050604061124e86828701610e43565b9150509250925092565b600080fd5b600080fd5b7f4e487b7100000000000000000000000000000000000000000000000000000000600052604160045260246000fd5b61129a82610eda565b810181811067ffffffffffffffff821117156112b9576112b8611262565b5b80604052505050565b60006112cc610e0e565b90506112d88282611291565b919050565b600067ffffffffffffffff8211156112f8576112f7611262565b5b61130182610eda565b9050602081019050919050565b82818337600083830152505050565b600061133061132b846112dd565b6112c2565b90508281526020810184848401111561134c5761134b61125d565b5b61135784828561130e565b509392505050565b600082601f83011261137457611373611258565b5b813561138484826020860161131d565b91505092915050565b600080600080600060a086880312156113a9576113a8610e18565b5b60006113b788828901610e43565b95505060206113c888828901610e43565b945050604086013567ffffffffffffffff8111156113e9576113e8610e1d565b5b6113f58882890161135f565b935050606086013567ffffffffffffffff81111561141657611415610e1d565b5b6114228882890161135f565b925050608086013567ffffffffffffffff81111561144357611442610e1d565b5b61144f8882890161135f565b9150509295509295909350565b7f4e487b7100000000000000000000000000000000000000000000000000000000600052602260045260246000fd5b600060028204905060018216806114a357607f821691505b6020821081036114b6576114b561145c565b5b50919050565b7f4e487b7100000000000000000000000000000000000000000000000000000000600052603260045260246000fd5b7f57524f4e4720494e44455820464f522052455155455354202121000000000000600082015250565b6000611521601a83610e9f565b915061152c826114eb565b602082019050919050565b6000602082019050818103600083015261155081611514565b9050919050565b7f45485220646f6573206e6f742065786973742021210000000000000000000000600082015250565b600061158d601583610e9f565b915061159882611557565b602082019050919050565b600060208201905081810360008301526115bc81611580565b9050919050565b7f5265717565737420646f6573206e6f7420657869737420212100000000000000600082015250565b60006115f9601983610e9f565b9150611604826115c3565b602082019050919050565b60006020820190508181036000830152611628816115ec565b9050919050565b7f4e487b7100000000000000000000000000000000000000000000000000000000600052601160045260246000fd5b600061166982610e22565b915061167483610e22565b925082820390508181111561168c5761168b61162f565b5b92915050565b600061169d82610e22565b9150600082036116b0576116af61162f565b5b600182039050919050565b7f5265717565737420646f6573206e6f74206578697374206f7220646f6573206e60008201527f6f74206163636570746564202121000000000000000000000000000000000000602082015250565b6000611717602e83610e9f565b9150611722826116bb565b604082019050919050565b600060208201905081810360008301526117468161170a565b9050919050565b7f7065726d697373696f6e2064656e696564202121000000000000000000000000600082015250565b6000611783601483610e9f565b915061178e8261174d565b602082019050919050565b600060208201905081810360008301526117b281611776565b9050919050565b60006117c482610e22565b91507fffffffffffffffffffffffffffffffffffffffffffffffffffffffffffffffff82036117f6576117f561162f565b5b600182019050919050565b60008190508160005260206000209050919050565b60006020601f8301049050919050565b600082821b905092915050565b6000600883026118637fffffffffffffffffffffffffffffffffffffffffffffffffffffffffffffffff82611826565b61186d8683611826565b95508019841693508086168417925050509392505050565b6000819050919050565b60006118aa6118a56118a084610e22565b611885565b610e22565b9050919050565b6000819050919050565b6118c48361188f565b6118d86118d0826118b1565b848454611833565b825550505050565b600090565b6118ed6118e0565b6118f88184846118bb565b505050565b5b8181101561191c576119116000826118e5565b6001810190506118fe565b5050565b601f8211156119615761193281611801565b61193b84611816565b8101602085101561194a578190505b61195e61195685611816565b8301826118fd565b50505b505050565b600082821c905092915050565b600061198460001984600802611966565b1980831691505092915050565b600061199d8383611973565b9150826002028217905092915050565b6119b682610e94565b67ffffffffffffffff8111156119cf576119ce611262565b5b6119d9825461148b565b6119e4828285611920565b600060209050601f831160018114611a175760008415611a05578287015190505b611a0f8582611991565b865550611a77565b601f198416611a2586611801565b60005b82811015611a4d57848901518255600182019150602085019450602081019050611a28565b86831015611a6a5784890151611a66601f891682611973565b8355505b6001600288020188555050505b50505050505056fea26469706673582212206876605687212fb9a40350456bd599dad3f76c4e05a0a866fc456f358ff6fb2d64736f6c63430008110033a2646970667358221220836e2d7e9255bf7234bf42193b7bf90938a11a84f781192c137e92bec45ed11d64736f6c63430008110033608060405260006002553480156200001657600080fd5b50600260008154809291906200002c906200026a565b91905055506040518060800160405280600081526020016040518060400160405280600481526020017f746573740000000000000000000000000000000000000000000000000000000081525081526020016040518060400160405280600481526020017f746573740000000000000000000000000000000000000000000000000000000081525081526020016040518060400160405280600481526020017f746573740000000000000000000000000000000000000000000000000000000081525081525060016000600254815260200190815260200160002060008201518160000155602082015181600101908162000128919062000527565b50604082015181600201908162000140919062000527565b50606082015181600301908162000158919062000527565b5090505060006040518060800160405280601781526020016001808111156200018657620001856200060e565b5b8152602001600115158152602001600081525090806001815401808255809150506001900390600052602060002090600302016000909190919091506000820151816000015560208201518160010160006101000a81548160ff02191690836001811115620001fa57620001f96200060e565b5b021790555060408201518160010160016101000a81548160ff0219169083151502179055506060820151816002015550506200063d565b7f4e487b7100000000000000000000000000000000000000000000000000000000600052601160045260246000fd5b6000819050919050565b6000620002778262000260565b91507fffffffffffffffffffffffffffffffffffffffffffffffffffffffffffffffff8203620002ac57620002ab62000231565b5b600182019050919050565b600081519050919050565b7f4e487b7100000000000000000000000000000000000000000000000000000000600052604160045260246000fd5b7f4e487b7100000000000000000000000000000000000000000000000000000000600052602260045260246000fd5b600060028204905060018216806200033957607f821691505b6020821081036200034f576200034e620002f1565b5b50919050565b60008190508160005260206000209050919050565b60006020601f8301049050919050565b600082821b905092915050565b600060088302620003b97fffffffffffffffffffffffffffffffffffffffffffffffffffffffffffffffff826200037a565b620003c586836200037a565b95508019841693508086168417925050509392505050565b6000819050919050565b60006200040862000402620003fc8462000260565b620003dd565b62000260565b9050919050565b6000819050919050565b6200042483620003e7565b6200043c62000433826200040f565b84845462000387565b825550505050565b600090565b6200045362000444565b6200046081848462000419565b505050565b5b8181101562000488576200047c60008262000449565b60018101905062000466565b5050565b601f821115620004d757620004a18162000355565b620004ac846200036a565b81016020851015620004bc578190505b620004d4620004cb856200036a565b83018262000465565b50505b505050565b600082821c905092915050565b6000620004fc60001984600802620004dc565b1980831691505092915050565b6000620005178383620004e9565b9150826002028217905092915050565b6200053282620002b7565b67ffffffffffffffff8111156200054e576200054d620002c2565b5b6200055a825462000320565b620005678282856200048c565b600060209050601f8311600181146200059f57600084156200058a578287015190505b62000596858262000509565b86555062000606565b601f198416620005af8662000355565b60005b82811015620005d957848901518255600182019150602085019450602081019050620005b2565b86831015620005f95784890151620005f5601f891682620004e9565b8355505b6001600288020188555050505b505050505050565b7f4e487b7100000000000000000000000000000000000000000000000000000000600052602160045260246000fd5b611ab5806200064d6000396000f3fe608060405234801561001057600080fd5b50600436106100a95760003560e01c80637cd7710d116100715780637cd7710d146101925780638f823dfe146101b05780639d04ae84146101e0578063cc541a68146101fc578063df5ff3541461022d578063e63586971461025d576100a9565b806308d19b8b146100ae57806323c31473146100e15780633f2c0e351461011157806340c579981461012f5780636d052b3714610160575b600080fd5b6100c860048036038101906100c39190610e58565b61028d565b6040516100d89493929190610f24565b60405180910390f35b6100fb60048036038101906100f69190610fa3565b610455565b6040516101089190610fe3565b60405180910390f35b610119610533565b6040516101269190610fe3565b60405180910390f35b61014960048036038101906101449190610e58565b61053f565b604051610157929190611019565b60405180910390f35b61017a60048036038101906101759190610e58565b610599565b604051610189939291906110b9565b60405180910390f35b61019a61068a565b6040516101a79190610fe3565b60405180910390f35b6101ca60048036038101906101c59190610e58565b610690565b6040516101d791906111ba565b60405180910390f35b6101fa60048036038101906101f59190610e58565b6108ce565b005b61021660048036038101906102119190610e58565b610961565b6040516102249291906111dc565b60405180910390f35b61024760048036038101906102429190611205565b610a6f565b60405161025491906111ba565b60405180910390f35b6102776004803603810190610272919061138d565b610be3565b6040516102849190610fe3565b60405180910390f35b60016020528060005260406000206000915090508060000154908060010180546102b69061148b565b80601f01602080910402602001604051908101604052809291908181526020018280546102e29061148b565b801561032f5780601f106103045761010080835404028352916020019161032f565b820191906000526020600020905b81548152906001019060200180831161031257829003601f168201915b5050505050908060020180546103449061148b565b80601f01602080910402602001604051908101604052809291908181526020018280546103709061148b565b80156103bd5780601f10610392576101008083540402835291602001916103bd565b820191906000526020600020905b8154815290600101906020018083116103a057829003601f168201915b5050505050908060030180546103d29061148b565b80601f01602080910402602001604051908101604052809291908181526020018280546103fe9061148b565b801561044b5780601f106104205761010080835404028352916020019161044b565b820191906000526020600020905b81548152906001019060200180831161042e57829003601f168201915b5050505050905084565b6000806000805490509050600080604051806080016040528087815260200186600181111561048757610486611042565b5b81526020018315158152602001600081525090806001815401808255809150506001900390600052602060002090600302016000909190919091506000820151816000015560208201518160010160006101000a81548160ff021916908360018111156104f7576104f6611042565b5b021790555060408201518160010160016101000a81548160ff021916908315150217905550606082015181600201555050819250505092915050565b60008080549050905090565b60008060008084600080549050111561058c57600191506000858154811061056a576105696114bc565b5b906000526020600020906003020160010160019054906101000a900460ff1690505b8181935093505050915091565b60008060008084101580156105b2575060008054905084105b6105f1576040517f08c379a00000000000000000000000000000000000000000000000000000000081526004016105e890611537565b60405180910390fd5b60008481548110610605576106046114bc565b5b9060005260206000209060030201600001546000858154811061062b5761062a6114bc565b5b906000526020600020906003020160010160009054906101000a900460ff166000868154811061065e5761065d6114bc565b5b906000526020600020906003020160010160019054906101000a900460ff169250925092509193909250565b60025481565b610698610de6565b6000821180156106aa57506002548211155b6106e9576040517f08c379a00000000000000000000000000000000000000000000000000000000081526004016106e0906115a3565b60405180910390fd5b60016000838152602001908152602001600020604051806080016040529081600082015481526020016001820180546107219061148b565b80601f016020809104026020016040519081016040528092919081815260200182805461074d9061148b565b801561079a5780601f1061076f5761010080835404028352916020019161079a565b820191906000526020600020905b81548152906001019060200180831161077d57829003601f168201915b505050505081526020016002820180546107b39061148b565b80601f01602080910402602001604051908101604052809291908181526020018280546107df9061148b565b801561082c5780601f106108015761010080835404028352916020019161082c565b820191906000526020600020905b81548152906001019060200180831161080f57829003601f168201915b505050505081526020016003820180546108459061148b565b80601f01602080910402602001604051908101604052809291908181526020018280546108719061148b565b80156108be5780601f10610893576101008083540402835291602001916108be565b820191906000526020600020905b8154815290600101906020018083116108a157829003601f168201915b5050505050815250509050919050565b6000806108da8361053f565b915091508161091e576040517f08c379a00000000000000000000000000000000000000000000000000000000081526004016109159061160f565b60405180910390fd5b600160008481548110610934576109336114bc565b5b906000526020600020906003020160010160016101000a81548160ff021916908315150217905550505050565b600080600080808054905090505b6000811115610a6057846000600183610988919061165e565b81548110610999576109986114bc565b5b90600052602060002090600302016000015403610a4d576000806001836109c0919061165e565b815481106109d1576109d06114bc565b5b90600052602060002090600302016002015403610a3f5760006001826109f7919061165e565b81548110610a0857610a076114bc565b5b906000526020600020906003020160010160019054906101000a900460ff16600182610a34919061165e565b935093505050610a6a565b600082935093505050610a6a565b8080610a5890611692565b91505061096f565b6000829350935050505b915091565b610a77610de6565b600080610a838661053f565b91509150818015610a915750805b610ad0576040517f08c379a0000000000000000000000000000000000000000000000000000000008152600401610ac79061172d565b60405180910390fd5b8460008781548110610ae557610ae46114bc565b5b90600052602060002090600302016000015414610b37576040517f08c379a0000000000000000000000000000000000000000000000000000000008152600401610b2e90611799565b60405180910390fd5b600180811115610b4a57610b49611042565b5b60008781548110610b5e57610b5d6114bc565b5b906000526020600020906003020160010160009054906101000a900460ff166001811115610b8f57610b8e611042565b5b14610bcf576040517f08c379a0000000000000000000000000000000000000000000000000000000008152600401610bc690611799565b60405180910390fd5b610bd884610690565b925050509392505050565b6000806000610bf18861053f565b91509150818015610bff5750805b610c3e576040517f08c379a0000000000000000000000000000000000000000000000000000000008152600401610c359061172d565b60405180910390fd5b8660008981548110610c5357610c526114bc565b5b90600052602060002090600302016000015414610ca5576040517f08c379a0000000000000000000000000000000000000000000000000000000008152600401610c9c90611799565b60405180910390fd5b60006001811115610cb957610cb8611042565b5b60008981548110610ccd57610ccc6114bc565b5b906000526020600020906003020160010160009054906101000a900460ff166001811115610cfe57610cfd611042565b5b14610d3e576040517f08c379a0000000000000000000000000000000000000000000000000000000008152600401610d3590611799565b60405180910390fd5b60026000815480929190610d51906117b9565b9190505550604051806080016040528088815260200187815260200186815260200185815250600160006002548152602001908152602001600020600082015181600001556020820151816001019081610dab91906119ad565b506040820151816002019081610dc191906119ad565b506060820151816003019081610dd791906119ad565b50905050505095945050505050565b6040518060800160405280600081526020016060815260200160608152602001606081525090565b6000604051905090565b600080fd5b600080fd5b6000819050919050565b610e3581610e22565b8114610e4057600080fd5b50565b600081359050610e5281610e2c565b92915050565b600060208284031215610e6e57610e6d610e18565b5b6000610e7c84828501610e43565b91505092915050565b610e8e81610e22565b82525050565b600081519050919050565b600082825260208201905092915050565b60005b83811015610ece578082015181840152602081019050610eb3565b60008484015250505050565b6000601f19601f8301169050919050565b6000610ef682610e94565b610f008185610e9f565b9350610f10818560208601610eb0565b610f1981610eda565b840191505092915050565b6000608082019050610f396000830187610e85565b8181036020830152610f4b8186610eeb565b90508181036040830152610f5f8185610eeb565b90508181036060830152610f738184610eeb565b905095945050505050565b60028110610f8b57600080fd5b50565b600081359050610f9d81610f7e565b92915050565b60008060408385031215610fba57610fb9610e18565b5b6000610fc885828601610e43565b9250506020610fd985828601610f8e565b9150509250929050565b6000602082019050610ff86000830184610e85565b92915050565b60008115159050919050565b61101381610ffe565b82525050565b600060408201905061102e600083018561100a565b61103b602083018461100a565b9392505050565b7f4e487b7100000000000000000000000000000000000000000000000000000000600052602160045260246000fd5b6002811061108257611081611042565b5b50565b600081905061109382611071565b919050565b60006110a382611085565b9050919050565b6110b381611098565b82525050565b60006060820190506110ce6000830186610e85565b6110db60208301856110aa565b6110e8604083018461100a565b949350505050565b6110f981610e22565b82525050565b600082825260208201905092915050565b600061111b82610e94565b61112581856110ff565b9350611135818560208601610eb0565b61113e81610eda565b840191505092915050565b600060808301600083015161116160008601826110f0565b50602083015184820360208601526111798282611110565b915050604083015184820360408601526111938282611110565b915050606083015184820360608601526111ad8282611110565b9150508091505092915050565b600060208201905081810360008301526111d48184611149565b905092915050565b60006040820190506111f1600083018561100a565b6111fe6020830184610e85565b9392505050565b60008060006060848603121561121e5761121d610e18565b5b600061122c86828701610e43565b935050602061123d86828701610e43565b925050604061124e86828701610e43565b9150509250925092565b600080fd5b600080fd5b7f4e487b7100000000000000000000000000000000000000000000000000000000600052604160045260246000fd5b61129a82610eda565b810181811067ffffffffffffffff821117156112b9576112b8611262565b5b80604052505050565b60006112cc610e0e565b90506112d88282611291565b919050565b600067ffffffffffffffff8211156112f8576112f7611262565b5b61130182610eda565b9050602081019050919050565b82818337600083830152505050565b600061133061132b846112dd565b6112c2565b90508281526020810184848401111561134c5761134b61125d565b5b61135784828561130e565b509392505050565b600082601f83011261137457611373611258565b5b813561138484826020860161131d565b91505092915050565b600080600080600060a086880312156113a9576113a8610e18565b5b60006113b788828901610e43565b95505060206113c888828901610e43565b945050604086013567ffffffffffffffff8111156113e9576113e8610e1d565b5b6113f58882890161135f565b935050606086013567ffffffffffffffff81111561141657611415610e1d565b5b6114228882890161135f565b925050608086013567ffffffffffffffff81111561144357611442610e1d565b5b61144f8882890161135f565b9150509295509295909350565b7f4e487b7100000000000000000000000000000000000000000000000000000000600052602260045260246000fd5b600060028204905060018216806114a357607f821691505b6020821081036114b6576114b561145c565b5b50919050565b7f4e487b7100000000000000000000000000000000000000000000000000000000600052603260045260246000fd5b7f57524f4e4720494e44455820464f522052455155455354202121000000000000600082015250565b6000611521601a83610e9f565b915061152c826114eb565b602082019050919050565b6000602082019050818103600083015261155081611514565b9050919050565b7f45485220646f6573206e6f742065786973742021210000000000000000000000600082015250565b600061158d601583610e9f565b915061159882611557565b602082019050919050565b600060208201905081810360008301526115bc81611580565b9050919050565b7f5265717565737420646f6573206e6f7420657869737420212100000000000000600082015250565b60006115f9601983610e9f565b9150611604826115c3565b602082019050919050565b60006020820190508181036000830152611628816115ec565b9050919050565b7f4e487b7100000000000000000000000000000000000000000000000000000000600052601160045260246000fd5b600061166982610e22565b915061167483610e22565b925082820390508181111561168c5761168b61162f565b5b92915050565b600061169d82610e22565b9150600082036116b0576116af61162f565b5b600182039050919050565b7f5265717565737420646f6573206e6f74206578697374206f7220646f6573206e60008201527f6f74206163636570746564202121000000000000000000000000000000000000602082015250565b6000611717602e83610e9f565b9150611722826116bb565b604082019050919050565b600060208201905081810360008301526117468161170a565b9050919050565b7f7065726d697373696f6e2064656e696564202121000000000000000000000000600082015250565b6000611783601483610e9f565b915061178e8261174d565b602082019050919050565b600060208201905081810360008301526117b281611776565b9050919050565b60006117c482610e22565b91507fffffffffffffffffffffffffffffffffffffffffffffffffffffffffffffffff82036117f6576117f561162f565b5b600182019050919050565b60008190508160005260206000209050919050565b60006020601f8301049050919050565b600082821b905092915050565b6000600883026118637fffffffffffffffffffffffffffffffffffffffffffffffffffffffffffffffff82611826565b61186d8683611826565b95508019841693508086168417925050509392505050565b6000819050919050565b60006118aa6118a56118a084610e22565b611885565b610e22565b9050919050565b6000819050919050565b6118c48361188f565b6118d86118d0826118b1565b848454611833565b825550505050565b600090565b6118ed6118e0565b6118f88184846118bb565b505050565b5b8181101561191c576119116000826118e5565b6001810190506118fe565b5050565b601f8211156119615761193281611801565b61193b84611816565b8101602085101561194a578190505b61195e61195685611816565b8301826118fd565b50505b505050565b600082821c905092915050565b600061198460001984600802611966565b1980831691505092915050565b600061199d8383611973565b9150826002028217905092915050565b6119b682610e94565b67ffffffffffffffff8111156119cf576119ce611262565b5b6119d9825461148b565b6119e4828285611920565b600060209050601f831160018114611a175760008415611a05578287015190505b611a0f8582611991565b865550611a77565b601f198416611a2586611801565b60005b82811015611a4d57848901518255600182019150602085019450602081019050611a28565b86831015611a6a5784890151611a66601f891682611973565b8355505b6001600288020188555050505b50505050505056fea26469706673582212206876605687212fb9a40350456bd599dad3f76c4e05a0a866fc456f358ff6fb2d64736f6c63430008110033",
  "immutableReferences": {},
  "source": "// SPDX-License-Identifier: GPL-3.0\r\n\r\npragma solidity >=0.7.0 <0.9.0;\r\n\r\nimport {EHR} from \"./EHR.sol\";\r\nimport {HealthAuthority} from \"./HealthAuthority.sol\";\r\nimport {HealthActor} from \"./HealthActor.sol\";\r\n\r\n\r\n/** \r\n * @title Patient\r\n * @dev Implements Patient methods\r\n */\r\ncontract Patient {\r\n\r\n    HealthAuthority authority;\r\n    HealthActor actor;\r\n\r\n    struct patient{\r\n        uint id;\r\n        string name;\r\n        address addr;\r\n        EHR ehr;\r\n        // string public_key;\r\n        // string private_key;\r\n    }\r\n    patient[] patients;\r\n\r\n    modifier isAccount() {\r\n        (uint index, bool exist) = authority.checkHealthAuthority(msg.sender);\r\n        require(exist, \"Caller have not permession\");\r\n        _;\r\n    }\r\n\r\n    constructor(address authorityAddress, address actorAddress){\r\n        authority = HealthAuthority(authorityAddress);\r\n        actor = HealthActor(actorAddress);\r\n\r\n        patients.push(patient(20, 'badro', address(0xB09E8efD21A77Ee5FfDc5Aa3f70fcC22E3e060C6), new EHR()));\r\n    }\r\n\r\n\r\n    /**\r\n    * ///////////////////////////////////////////////////////////////////////\r\n    *         PUBLIC METHODS FOR REGISTRATION PURPOSE (Authority only)\r\n    * ///////////////////////////////////////////////////////////////////////\r\n    */\r\n    function checkPatient(uint _id, address _address) view public returns (uint, bool) {\r\n        uint index = 0;\r\n        bool exist = false;\r\n        for (uint i = 0; i < patients.length ; i++){\r\n            if (patients[i].id == _id || patients[i].addr == _address){\r\n                exist = true;\r\n                index = i;\r\n                break;\r\n            }\r\n        }\r\n        return (index, exist);\r\n    }\r\n\r\n    function getNumberOfPatient() public view returns(uint) {\r\n        return patients.length;\r\n    }\r\n\r\n    function getPatientByIndex(uint _index) public view returns(uint, string memory, address) {\r\n        require(_index >= 0 && _index < patients.length, \"Wrong index!!\");\r\n\r\n        return (patients[_index].id, patients[_index].name, patients[_index].addr);\r\n    }\r\n\r\n    function addPatient(uint _id, string memory _name, address _account) public isAccount{\r\n        (uint index, bool exist) = checkPatient(_id, _account);\r\n        require(exist==false, \"patient id or account already exist !!\");\r\n\r\n        patients.push(patient(_id, _name, _account, new EHR()));\r\n    }\r\n\r\n    function rmPatient(uint _id) public isAccount{\r\n        (uint index, bool exist) = checkPatient(_id, address(0));\r\n        require(exist==true, \"patient does not exist !!\");\r\n\r\n        patients[index] = patients[patients.length-1];\r\n        patients.pop();\r\n    }\r\n\r\n\r\n    /**\r\n    * ///////////////////////////////////////////////////////////////////////\r\n    *           PUBLIC METHODS FOR EHR PUBLISH PURPOSE (Patient only)\r\n    * ///////////////////////////////////////////////////////////////////////\r\n    */\r\n\r\n    \r\n\r\n    \r\n\r\n\r\n    /**\r\n    * ///////////////////////////////////////////////////////////////////////\r\n    *                PUBLIC METHODS FOR REQUEST PURPOSE\r\n    * ///////////////////////////////////////////////////////////////////////\r\n    */\r\n\r\n    function getNumberOfRequest() public view returns (uint256) {\r\n        (uint index, bool exist) = checkPatient(0, msg.sender);\r\n        require(exist, \"You are not a patient !!\");\r\n        \r\n        return patients[index].ehr.getNumberOfRequest();\r\n    }\r\n\r\n    function getRequestByIndex(uint256 _requestID) public view returns (uint, EHR.RequestType, bool){\r\n        (uint index, bool exist) = checkPatient(0, msg.sender);\r\n        require(exist, \"You are not a patient !!\");\r\n        \r\n        return patients[index].ehr.getRequestByIndex(_requestID);\r\n    }\r\n\r\n    function char(bytes1 b) internal pure returns (bytes1 c) {\r\n        if (uint8(b) < 10) return bytes1(uint8(b) + 0x30);\r\n        else return bytes1(uint8(b) + 0x57);\r\n    }\r\n\r\n    function toAsciiString(address x) internal pure returns (string memory) {\r\n        bytes memory s = new bytes(40);\r\n        for (uint i = 0; i < 20; i++) {\r\n            bytes1 b = bytes1(uint8(uint(uint160(x)) / (2**(8*(19 - i)))));\r\n            bytes1 hi = bytes1(uint8(b) / 16);\r\n            bytes1 lo = bytes1(uint8(b) - 16 * uint8(hi));\r\n            s[2*i] = char(hi);\r\n            s[2*i+1] = char(lo);            \r\n        }\r\n        return string(s);\r\n    }\r\n\r\n    // for actor utilization\r\n    function verifyAuthorization(uint _patientID) public view returns (bool, uint) {\r\n\r\n        (uint index, bool exist) = checkPatient(_patientID, address(0x0));\r\n        require(exist, \"This patient does not exist !! \");\r\n\r\n        uint actor_id = actor.getActorID(msg.sender);\r\n        \r\n        return patients[index].ehr.checkResponse(actor_id);\r\n    }\r\n\r\n\r\n\r\n    /** \r\n     * @dev Create a new request from an actor.\r\n     * @param _patientID this is a patient id\r\n     * @param _requestType the type of request CONSULT PUBLISH\r\n     */\r\n    function sendRequest(uint _patientID, EHR.RequestType _requestType) public returns (uint){\r\n\r\n        // check if caller is actor\r\n        uint actorID = actor.getActorID(msg.sender);\r\n\r\n        // check if patient exist \r\n        (uint index, bool exist) = checkPatient(_patientID, address(0));\r\n        require(exist, \"Patient does not exist !!\");\r\n\r\n        patients[index].ehr.setRequest(actorID,  _requestType);\r\n\r\n        // event to patient\r\n\r\n        return 0; // return the requestID\r\n    }\r\n\r\n    /** \r\n     * @dev Response to a request from associated patient.\r\n     * @param _requestID the request id \r\n     */\r\n    function setResponse(uint _requestID) public {\r\n        // check if this is trusted patient \r\n        (uint index, bool exist) = checkPatient(0, msg.sender);\r\n        require(exist, \"you are not a patient, permission denied !!\");\r\n\r\n        // response to request \r\n        patients[index].ehr.setResponse(_requestID);\r\n\r\n        // event to actor \r\n    }\r\n\r\n\r\n    /**\r\n    * ///////////////////////////////////////////////////////////////////////\r\n    *                    PUBLIC METHODS FOR EHR PURPOSE\r\n    * ///////////////////////////////////////////////////////////////////////\r\n    */\r\n\r\n    ////////////////////// FOR OWNER (patient)\r\n\r\n    function getNbOfEHRByOwner() public view returns (uint256) {\r\n        (uint index, bool exist) = checkPatient(0, msg.sender);\r\n        require(exist, \"You are not a Patient !!\");\r\n\r\n        return patients[index].ehr.ehrCount();\r\n    }\r\n\r\n    function getEHRbyOwner(uint _ehrID) view public returns (uint, string memory, string memory, string memory) {\r\n        (uint index, bool exist) = checkPatient(0, msg.sender);\r\n        require(exist, \"You are not a Patient !!\");\r\n\r\n        EHR.EHRAbstract memory temp = patients[index].ehr.getEHRAbstract(_ehrID);\r\n        \r\n        return (temp.actorID, temp.ehrHash, temp.ipfsHashAddress, temp.secretKey);\r\n    }\r\n\r\n    ////////////////////// FOR REQUEST (actor)\r\n\r\n    function shareEHR(uint _patientID, uint _requestID, string memory _hash, string memory _ipfsAddr, string memory _secretKey ) public {\r\n        // check if patient exist \r\n        (uint index, bool exist) = checkPatient(_patientID, address(0));\r\n        require(exist, \"patient does not exist !!\");\r\n\r\n        // check if actor exist and get the actor id\r\n        uint actorID = actor.getActorID(msg.sender);\r\n       \r\n        patients[index].ehr.addEHRAbstract(_requestID, actorID, _hash, _ipfsAddr, _secretKey);\r\n    }\r\n\r\n    function getNbOfEHRByActor(uint _patientID) public view returns (uint) {\r\n        (uint index, bool exist) = checkPatient(_patientID, address(0));\r\n        require(exist, \"Patient Does Not Exist!!\");\r\n\r\n        return patients[index].ehr.ehrCount();\r\n    }\r\n\r\n    function getEHRbyActor(uint _patientID, uint _requestID, uint _ehrID) view public returns (uint, string memory, string memory, string memory) {\r\n        // check if patient exist \r\n        (uint index, bool exist) = checkPatient(_patientID, address(0));\r\n        require(exist, \"patient does not exist !!\");\r\n\r\n        // check if actor exist and get the actor id\r\n        uint actorID = actor.getActorID(msg.sender);\r\n\r\n        EHR.EHRAbstract memory temp = patients[index].ehr.getEHRbyActor(_requestID, actorID, _ehrID);\r\n\r\n        return (temp.actorID, temp.ehrHash, temp.ipfsHashAddress, temp.secretKey);\r\n    }   \r\n\r\n\r\n}\r\n",
  "sourcePath": "F:\\ComputerScience\\projects\\PFE\\project\\2022-2023\\Blockchain-side\\contracts\\Patient.sol",
  "compiler": {
    "name": "solc",
    "version": "0.8.17+commit.8df45f5f.Emscripten.clang"
  },
  "schemaVersion": "3.4.11",
  "updatedAt": "2023-04-16T08:55:05.410Z",
  "networkType": "ethereum",
  "devdoc": {
    "details": "Implements Patient methods",
    "kind": "dev",
    "methods": {
      "sendRequest(uint256,uint8)": {
        "details": "Create a new request from an actor.",
        "params": {
          "_patientID": "this is a patient id",
          "_requestType": "the type of request CONSULT PUBLISH"
        }
      },
      "setResponse(uint256)": {
        "details": "Response to a request from associated patient.",
        "params": {
          "_requestID": "the request id "
        }
      }
    },
    "title": "Patient",
    "version": 1
  },
  "userdoc": {
    "kind": "user",
    "methods": {
      "checkPatient(uint256,address)": {
        "notice": "///////////////////////////////////////////////////////////////////////         PUBLIC METHODS FOR REGISTRATION PURPOSE (Authority only) ///////////////////////////////////////////////////////////////////////"
      },
      "getNbOfEHRByOwner()": {
        "notice": "///////////////////////////////////////////////////////////////////////                    PUBLIC METHODS FOR EHR PURPOSE ///////////////////////////////////////////////////////////////////////"
      },
      "getNumberOfRequest()": {
        "notice": "///////////////////////////////////////////////////////////////////////                PUBLIC METHODS FOR REQUEST PURPOSE ///////////////////////////////////////////////////////////////////////"
      }
    },
    "version": 1
  }
}