{
  "contractName": "Patient",
  "abi": [
    {
      "inputs": [
        {
          "internalType": "address",
          "name": "authorityAddress",
          "type": "address"
        },
        {
          "internalType": "address",
          "name": "actorAddress",
          "type": "address"
        }
      ],
      "stateMutability": "nonpayable",
      "type": "constructor"
    },
    {
      "inputs": [
        {
          "internalType": "uint256",
          "name": "_id",
          "type": "uint256"
        },
        {
          "internalType": "address",
          "name": "_address",
          "type": "address"
        }
      ],
      "name": "checkPatient",
      "outputs": [
        {
          "internalType": "uint256",
          "name": "",
          "type": "uint256"
        },
        {
          "internalType": "bool",
          "name": "",
          "type": "bool"
        }
      ],
      "stateMutability": "view",
      "type": "function",
      "constant": true
    },
    {
      "inputs": [],
      "name": "getNumberOfPatient",
      "outputs": [
        {
          "internalType": "uint256",
          "name": "",
          "type": "uint256"
        }
      ],
      "stateMutability": "view",
      "type": "function",
      "constant": true
    },
    {
      "inputs": [
        {
          "internalType": "uint256",
          "name": "_index",
          "type": "uint256"
        }
      ],
      "name": "getPatientByIndex",
      "outputs": [
        {
          "internalType": "uint256",
          "name": "",
          "type": "uint256"
        },
        {
          "internalType": "string",
          "name": "",
          "type": "string"
        },
        {
          "internalType": "address",
          "name": "",
          "type": "address"
        }
      ],
      "stateMutability": "view",
      "type": "function",
      "constant": true
    },
    {
      "inputs": [
        {
          "internalType": "uint256",
          "name": "_id",
          "type": "uint256"
        },
        {
          "internalType": "string",
          "name": "_name",
          "type": "string"
        },
        {
          "internalType": "address",
          "name": "_account",
          "type": "address"
        }
      ],
      "name": "addPatient",
      "outputs": [],
      "stateMutability": "nonpayable",
      "type": "function"
    },
    {
      "inputs": [
        {
          "internalType": "uint256",
          "name": "_id",
          "type": "uint256"
        }
      ],
      "name": "rmPatient",
      "outputs": [],
      "stateMutability": "nonpayable",
      "type": "function"
    },
    {
      "inputs": [],
      "name": "getNumberOfRequest",
      "outputs": [
        {
          "internalType": "uint256",
          "name": "",
          "type": "uint256"
        }
      ],
      "stateMutability": "view",
      "type": "function",
      "constant": true
    },
    {
      "inputs": [
        {
          "internalType": "uint256",
          "name": "_requestID",
          "type": "uint256"
        }
      ],
      "name": "getRequestByIndex",
      "outputs": [
        {
          "internalType": "uint256",
          "name": "",
          "type": "uint256"
        },
        {
          "internalType": "enum EHR.RequestType",
          "name": "",
          "type": "uint8"
        },
        {
          "internalType": "bool",
          "name": "",
          "type": "bool"
        }
      ],
      "stateMutability": "view",
      "type": "function",
      "constant": true
    },
    {
      "inputs": [
        {
          "internalType": "uint256",
          "name": "_patientID",
          "type": "uint256"
        },
        {
          "internalType": "enum EHR.RequestType",
          "name": "_requestType",
          "type": "uint8"
        }
      ],
      "name": "sendRequest",
      "outputs": [
        {
          "internalType": "uint256",
          "name": "",
          "type": "uint256"
        }
      ],
      "stateMutability": "nonpayable",
      "type": "function"
    },
    {
      "inputs": [
        {
          "internalType": "uint256",
          "name": "_requestID",
          "type": "uint256"
        }
      ],
      "name": "setResponse",
      "outputs": [],
      "stateMutability": "nonpayable",
      "type": "function"
    },
    {
      "inputs": [],
      "name": "getNbOfEHRByOwner",
      "outputs": [
        {
          "internalType": "uint256",
          "name": "",
          "type": "uint256"
        }
      ],
      "stateMutability": "view",
      "type": "function",
      "constant": true
    },
    {
      "inputs": [
        {
          "internalType": "uint256",
          "name": "_ehrID",
          "type": "uint256"
        }
      ],
      "name": "getEHRbyOwner",
      "outputs": [
        {
          "internalType": "uint256",
          "name": "",
          "type": "uint256"
        },
        {
          "internalType": "string",
          "name": "",
          "type": "string"
        },
        {
          "internalType": "string",
          "name": "",
          "type": "string"
        },
        {
          "internalType": "string",
          "name": "",
          "type": "string"
        }
      ],
      "stateMutability": "view",
      "type": "function",
      "constant": true
    },
    {
      "inputs": [
        {
          "internalType": "uint256",
          "name": "_patientID",
          "type": "uint256"
        },
        {
          "internalType": "uint256",
          "name": "_requestID",
          "type": "uint256"
        },
        {
          "internalType": "string",
          "name": "_hash",
          "type": "string"
        },
        {
          "internalType": "string",
          "name": "_ipfsAddr",
          "type": "string"
        },
        {
          "internalType": "string",
          "name": "_secretKey",
          "type": "string"
        }
      ],
      "name": "shareEHR",
      "outputs": [],
      "stateMutability": "nonpayable",
      "type": "function"
    },
    {
      "inputs": [
        {
          "internalType": "uint256",
          "name": "_patientID",
          "type": "uint256"
        }
      ],
      "name": "getNbOfEHRByActor",
      "outputs": [
        {
          "internalType": "uint256",
          "name": "",
          "type": "uint256"
        }
      ],
      "stateMutability": "view",
      "type": "function",
      "constant": true
    },
    {
      "inputs": [
        {
          "internalType": "uint256",
          "name": "_patientID",
          "type": "uint256"
        },
        {
          "internalType": "uint256",
          "name": "_requestID",
          "type": "uint256"
        },
        {
          "internalType": "uint256",
          "name": "_ehrID",
          "type": "uint256"
        }
      ],
      "name": "getEHRbyActor",
      "outputs": [
        {
          "internalType": "uint256",
          "name": "",
          "type": "uint256"
        },
        {
          "internalType": "string",
          "name": "",
          "type": "string"
        },
        {
          "internalType": "string",
          "name": "",
          "type": "string"
        },
        {
          "internalType": "string",
          "name": "",
          "type": "string"
        }
      ],
      "stateMutability": "view",
      "type": "function",
      "constant": true
    }
  ],
  "bytecode": "0x60806040523480156200001157600080fd5b50604051620070cb380380620070cb8339818101604052810190620000379190620002d7565b816000806101000a81548173ffffffffffffffffffffffffffffffffffffffff021916908373ffffffffffffffffffffffffffffffffffffffff16021790555080600160006101000a81548173ffffffffffffffffffffffffffffffffffffffff021916908373ffffffffffffffffffffffffffffffffffffffff16021790555060026040518060800160405280601481526020016040518060400160405280600581526020017f626164726f000000000000000000000000000000000000000000000000000000815250815260200173b09e8efd21a77ee5ffdc5aa3f70fcc22e3e060c673ffffffffffffffffffffffffffffffffffffffff16815260200160405162000145906200025f565b604051809103906000f08015801562000162573d6000803e3d6000fd5b5073ffffffffffffffffffffffffffffffffffffffff168152509080600181540180825580915050600190039060005260206000209060040201600090919091909150600082015181600001556020820151816001019081620001c6919062000598565b5060408201518160020160006101000a81548173ffffffffffffffffffffffffffffffffffffffff021916908373ffffffffffffffffffffffffffffffffffffffff16021790555060608201518160030160006101000a81548173ffffffffffffffffffffffffffffffffffffffff021916908373ffffffffffffffffffffffffffffffffffffffff160217905550505050506200067f565b611e34806200529783390190565b600080fd5b600073ffffffffffffffffffffffffffffffffffffffff82169050919050565b60006200029f8262000272565b9050919050565b620002b18162000292565b8114620002bd57600080fd5b50565b600081519050620002d181620002a6565b92915050565b60008060408385031215620002f157620002f06200026d565b5b60006200030185828601620002c0565b92505060206200031485828601620002c0565b9150509250929050565b600081519050919050565b7f4e487b7100000000000000000000000000000000000000000000000000000000600052604160045260246000fd5b7f4e487b7100000000000000000000000000000000000000000000000000000000600052602260045260246000fd5b60006002820490506001821680620003a057607f821691505b602082108103620003b657620003b562000358565b5b50919050565b60008190508160005260206000209050919050565b60006020601f8301049050919050565b600082821b905092915050565b600060088302620004207fffffffffffffffffffffffffffffffffffffffffffffffffffffffffffffffff82620003e1565b6200042c8683620003e1565b95508019841693508086168417925050509392505050565b6000819050919050565b6000819050919050565b600062000479620004736200046d8462000444565b6200044e565b62000444565b9050919050565b6000819050919050565b620004958362000458565b620004ad620004a48262000480565b848454620003ee565b825550505050565b600090565b620004c4620004b5565b620004d18184846200048a565b505050565b5b81811015620004f957620004ed600082620004ba565b600181019050620004d7565b5050565b601f82111562000548576200051281620003bc565b6200051d84620003d1565b810160208510156200052d578190505b620005456200053c85620003d1565b830182620004d6565b50505b505050565b600082821c905092915050565b60006200056d600019846008026200054d565b1980831691505092915050565b60006200058883836200055a565b9150826002028217905092915050565b620005a3826200031e565b67ffffffffffffffff811115620005bf57620005be62000329565b5b620005cb825462000387565b620005d8828285620004fd565b600060209050601f831160018114620006105760008415620005fb578287015190505b6200060785826200057a565b86555062000677565b601f1984166200062086620003bc565b60005b828110156200064a5784890151825560018201915060208501945060208101905062000623565b868310156200066a578489015162000666601f8916826200055a565b8355505b6001600288020188555050505b505050505050565b614c08806200068f6000396000f3fe60806040523480156200001157600080fd5b5060043610620001005760003560e01c80639d04ae841162000099578063df5ff354116200006f578063df5ff35414620002a6578063e28d73a014620002df578063f6b923de1462000315578063f7cde44b146200034e5762000100565b80639d04ae84146200022e578063c4113ed3146200024e578063c6af96ce14620002705762000100565b80634053bbac11620000db5780634053bbac146200016757806349bf3afb146200018757806357ea0c2f14620001be5780636d052b3714620001f65762000100565b806307f1683b14620001055780631fed6dd614620001255780633f2c0e351462000145575b600080fd5b6200012360048036038101906200011d919062001a9f565b62000370565b005b6200014360048036038101906200013d919062001be9565b62000548565b005b6200014f620007eb565b6040516200015e919062001c75565b60405180910390f35b6200018560048036038101906200017f919062001c92565b62000905565b005b620001a560048036038101906200019f919062001cc4565b62000c37565b604051620001b592919062001d28565b60405180910390f35b620001dc6004803603810190620001d6919062001c92565b62000d31565b604051620001ed9392919062001def565b60405180910390f35b6200021460048036038101906200020e919062001c92565b62000ec9565b604051620002259392919062001eb3565b60405180910390f35b6200024c600480360381019062000246919062001c92565b62000ffb565b005b620002586200110e565b60405162000267919062001c75565b60405180910390f35b6200028e600480360381019062000288919062001c92565b6200111b565b6040516200029d919062001c75565b60405180910390f35b620002c46004803603810190620002be919062001ef0565b62001237565b604051620002d6949392919062001f4c565b60405180910390f35b620002fd6004803603810190620002f7919062001fd6565b62001437565b6040516200030c919062001c75565b60405180910390f35b6200033360048036038101906200032d919062001c92565b6200160d565b60405162000345949392919062001f4c565b60405180910390f35b6200035862001761565b60405162000367919062001c75565b60405180910390f35b6000806200038087600062000c37565b9150915080620003c7576040517f08c379a0000000000000000000000000000000000000000000000000000000008152600401620003be906200206d565b60405180910390fd5b6000600160009054906101000a900473ffffffffffffffffffffffffffffffffffffffff1673ffffffffffffffffffffffffffffffffffffffff1663cbd3638f336040518263ffffffff1660e01b81526004016200042691906200208f565b602060405180830381865afa15801562000444573d6000803e3d6000fd5b505050506040513d601f19601f820116820180604052508101906200046a9190620020c3565b905060028381548110620004835762000482620020f5565b5b906000526020600020906004020160030160009054906101000a900473ffffffffffffffffffffffffffffffffffffffff1673ffffffffffffffffffffffffffffffffffffffff1663e635869788838989896040518663ffffffff1660e01b8152600401620004f795949392919062002124565b6020604051808303816000875af115801562000517573d6000803e3d6000fd5b505050506040513d601f19601f820116820180604052508101906200053d9190620020c3565b505050505050505050565b60008060008054906101000a900473ffffffffffffffffffffffffffffffffffffffff1673ffffffffffffffffffffffffffffffffffffffff1663134e91ac336040518263ffffffff1660e01b8152600401620005a691906200208f565b6040805180830381865afa158015620005c3573d6000803e3d6000fd5b505050506040513d601f19601f82011682018060405250810190620005e99190620021c7565b915091508062000630576040517f08c379a000000000000000000000000000000000000000000000000000000000815260040162000627906200225e565b60405180910390fd5b6000806200063f878662000c37565b9150915060001515811515146200068d576040517f08c379a00000000000000000000000000000000000000000000000000000000081526004016200068490620022f6565b60405180910390fd5b600260405180608001604052808981526020018881526020018773ffffffffffffffffffffffffffffffffffffffff168152602001604051620006d0906200187b565b604051809103906000f080158015620006ed573d6000803e3d6000fd5b5073ffffffffffffffffffffffffffffffffffffffff1681525090806001815401808255809150506001900390600052602060002090600402016000909190919091506000820151816000015560208201518160010190816200075191906200254e565b5060408201518160020160006101000a81548173ffffffffffffffffffffffffffffffffffffffff021916908373ffffffffffffffffffffffffffffffffffffffff16021790555060608201518160030160006101000a81548173ffffffffffffffffffffffffffffffffffffffff021916908373ffffffffffffffffffffffffffffffffffffffff160217905550505050505050505050565b6000806000620007fd60003362000c37565b915091508062000844576040517f08c379a00000000000000000000000000000000000000000000000000000000081526004016200083b9062002685565b60405180910390fd5b600282815481106200085b576200085a620020f5565b5b906000526020600020906004020160030160009054906101000a900473ffffffffffffffffffffffffffffffffffffffff1673ffffffffffffffffffffffffffffffffffffffff16633f2c0e356040518163ffffffff1660e01b8152600401602060405180830381865afa158015620008d8573d6000803e3d6000fd5b505050506040513d601f19601f82011682018060405250810190620008fe9190620020c3565b9250505090565b60008060008054906101000a900473ffffffffffffffffffffffffffffffffffffffff1673ffffffffffffffffffffffffffffffffffffffff1663134e91ac336040518263ffffffff1660e01b81526004016200096391906200208f565b6040805180830381865afa15801562000980573d6000803e3d6000fd5b505050506040513d601f19601f82011682018060405250810190620009a69190620021c7565b9150915080620009ed576040517f08c379a0000000000000000000000000000000000000000000000000000000008152600401620009e4906200225e565b60405180910390fd5b600080620009fd85600062000c37565b91509150600115158115151462000a4b576040517f08c379a000000000000000000000000000000000000000000000000000000000815260040162000a42906200206d565b60405180910390fd5b6002600160028054905062000a619190620026d6565b8154811062000a755762000a74620020f5565b5b90600052602060002090600402016002838154811062000a9a5762000a99620020f5565b5b9060005260206000209060040201600082015481600001556001820181600101908162000ac8919062002729565b506002820160009054906101000a900473ffffffffffffffffffffffffffffffffffffffff168160020160006101000a81548173ffffffffffffffffffffffffffffffffffffffff021916908373ffffffffffffffffffffffffffffffffffffffff1602179055506003820160009054906101000a900473ffffffffffffffffffffffffffffffffffffffff168160030160006101000a81548173ffffffffffffffffffffffffffffffffffffffff021916908373ffffffffffffffffffffffffffffffffffffffff160217905550905050600280548062000baf5762000bae6200282a565b5b600190038181906000526020600020906004020160008082016000905560018201600062000bde919062001889565b6002820160006101000a81549073ffffffffffffffffffffffffffffffffffffffff02191690556003820160006101000a81549073ffffffffffffffffffffffffffffffffffffffff0219169055505090555050505050565b60008060008060005b60028054905081101562000d2157866002828154811062000c665762000c65620020f5565b5b906000526020600020906004020160000154148062000cf857508573ffffffffffffffffffffffffffffffffffffffff166002828154811062000cae5762000cad620020f5565b5b906000526020600020906004020160020160009054906101000a900473ffffffffffffffffffffffffffffffffffffffff1673ffffffffffffffffffffffffffffffffffffffff16145b1562000d0b576001915080925062000d21565b808062000d189062002859565b91505062000c40565b5081819350935050509250929050565b60006060600080841015801562000d4c575060028054905084105b62000d8e576040517f08c379a000000000000000000000000000000000000000000000000000000000815260040162000d8590620028f6565b60405180910390fd5b6002848154811062000da55762000da4620020f5565b5b9060005260206000209060040201600001546002858154811062000dce5762000dcd620020f5565b5b90600052602060002090600402016001016002868154811062000df65762000df5620020f5565b5b906000526020600020906004020160020160009054906101000a900473ffffffffffffffffffffffffffffffffffffffff1681805462000e369062002347565b80601f016020809104026020016040519081016040528092919081815260200182805462000e649062002347565b801562000eb55780601f1062000e895761010080835404028352916020019162000eb5565b820191906000526020600020905b81548152906001019060200180831162000e9757829003601f168201915b505050505091509250925092509193909250565b600080600080600062000ede60003362000c37565b915091508062000f25576040517f08c379a000000000000000000000000000000000000000000000000000000000815260040162000f1c9062002685565b60405180910390fd5b6002828154811062000f3c5762000f3b620020f5565b5b906000526020600020906004020160030160009054906101000a900473ffffffffffffffffffffffffffffffffffffffff1673ffffffffffffffffffffffffffffffffffffffff16636d052b37876040518263ffffffff1660e01b815260040162000fa8919062001c75565b606060405180830381865afa15801562000fc6573d6000803e3d6000fd5b505050506040513d601f19601f8201168201806040525081019062000fec91906200292f565b94509450945050509193909250565b6000806200100b60003362000c37565b915091508062001052576040517f08c379a0000000000000000000000000000000000000000000000000000000008152600401620010499062002a01565b60405180910390fd5b60028281548110620010695762001068620020f5565b5b906000526020600020906004020160030160009054906101000a900473ffffffffffffffffffffffffffffffffffffffff1673ffffffffffffffffffffffffffffffffffffffff16639d04ae84846040518263ffffffff1660e01b8152600401620010d5919062001c75565b600060405180830381600087803b158015620010f057600080fd5b505af115801562001105573d6000803e3d6000fd5b50505050505050565b6000600280549050905090565b60008060006200112d84600062000c37565b915091508062001174576040517f08c379a00000000000000000000000000000000000000000000000000000000081526004016200116b9062002a73565b60405180910390fd5b600282815481106200118b576200118a620020f5565b5b906000526020600020906004020160030160009054906101000a900473ffffffffffffffffffffffffffffffffffffffff1673ffffffffffffffffffffffffffffffffffffffff16637cd7710d6040518163ffffffff1660e01b8152600401602060405180830381865afa15801562001208573d6000803e3d6000fd5b505050506040513d601f19601f820116820180604052508101906200122e9190620020c3565b92505050919050565b600060608060606000806200124e89600062000c37565b915091508062001295576040517f08c379a00000000000000000000000000000000000000000000000000000000081526004016200128c906200206d565b60405180910390fd5b6000600160009054906101000a900473ffffffffffffffffffffffffffffffffffffffff1673ffffffffffffffffffffffffffffffffffffffff1663cbd3638f336040518263ffffffff1660e01b8152600401620012f491906200208f565b602060405180830381865afa15801562001312573d6000803e3d6000fd5b505050506040513d601f19601f82011682018060405250810190620013389190620020c3565b9050600060028481548110620013535762001352620020f5565b5b906000526020600020906004020160030160009054906101000a900473ffffffffffffffffffffffffffffffffffffffff1673ffffffffffffffffffffffffffffffffffffffff1663df5ff3548b848c6040518463ffffffff1660e01b8152600401620013c39392919062002a95565b600060405180830381865afa158015620013e1573d6000803e3d6000fd5b505050506040513d6000823e3d601f19601f820116820180604052508101906200140c919062002c3c565b9050806000015181602001518260400151836060015197509750975097505050505093509350935093565b600080600160009054906101000a900473ffffffffffffffffffffffffffffffffffffffff1673ffffffffffffffffffffffffffffffffffffffff1663cbd3638f336040518263ffffffff1660e01b81526004016200149791906200208f565b602060405180830381865afa158015620014b5573d6000803e3d6000fd5b505050506040513d601f19601f82011682018060405250810190620014db9190620020c3565b9050600080620014ed86600062000c37565b915091508062001534576040517f08c379a00000000000000000000000000000000000000000000000000000000081526004016200152b9062002cdd565b60405180910390fd5b600282815481106200154b576200154a620020f5565b5b906000526020600020906004020160030160009054906101000a900473ffffffffffffffffffffffffffffffffffffffff1673ffffffffffffffffffffffffffffffffffffffff166323c3147384876040518363ffffffff1660e01b8152600401620015b992919062002cff565b6020604051808303816000875af1158015620015d9573d6000803e3d6000fd5b505050506040513d601f19601f82011682018060405250810190620015ff9190620020c3565b506000935050505092915050565b600060608060606000806200162460003362000c37565b91509150806200166b576040517f08c379a0000000000000000000000000000000000000000000000000000000008152600401620016629062002d7c565b60405180910390fd5b600060028381548110620016845762001683620020f5565b5b906000526020600020906004020160030160009054906101000a900473ffffffffffffffffffffffffffffffffffffffff1673ffffffffffffffffffffffffffffffffffffffff16638f823dfe896040518263ffffffff1660e01b8152600401620016f0919062001c75565b600060405180830381865afa1580156200170e573d6000803e3d6000fd5b505050506040513d6000823e3d601f19601f8201168201806040525081019062001739919062002c3c565b9050806000015181602001518260400151836060015196509650965096505050509193509193565b60008060006200177360003362000c37565b9150915080620017ba576040517f08c379a0000000000000000000000000000000000000000000000000000000008152600401620017b19062002d7c565b60405180910390fd5b60028281548110620017d157620017d0620020f5565b5b906000526020600020906004020160030160009054906101000a900473ffffffffffffffffffffffffffffffffffffffff1673ffffffffffffffffffffffffffffffffffffffff16637cd7710d6040518163ffffffff1660e01b8152600401602060405180830381865afa1580156200184e573d6000803e3d6000fd5b505050506040513d601f19601f82011682018060405250810190620018749190620020c3565b9250505090565b611e348062002d9f83390190565b508054620018979062002347565b6000825580601f10620018ab5750620018cc565b601f016020900490600052602060002090810190620018cb9190620018cf565b5b50565b5b80821115620018ea576000816000905550600101620018d0565b5090565b6000604051905090565b600080fd5b600080fd5b6000819050919050565b620019178162001902565b81146200192357600080fd5b50565b60008135905062001937816200190c565b92915050565b600080fd5b600080fd5b6000601f19601f8301169050919050565b7f4e487b7100000000000000000000000000000000000000000000000000000000600052604160045260246000fd5b620019928262001947565b810181811067ffffffffffffffff82111715620019b457620019b362001958565b5b80604052505050565b6000620019c9620018ee565b9050620019d7828262001987565b919050565b600067ffffffffffffffff821115620019fa57620019f962001958565b5b62001a058262001947565b9050602081019050919050565b82818337600083830152505050565b600062001a3862001a3284620019dc565b620019bd565b90508281526020810184848401111562001a575762001a5662001942565b5b62001a6484828562001a12565b509392505050565b600082601f83011262001a845762001a836200193d565b5b813562001a9684826020860162001a21565b91505092915050565b600080600080600060a0868803121562001abe5762001abd620018f8565b5b600062001ace8882890162001926565b955050602062001ae18882890162001926565b945050604086013567ffffffffffffffff81111562001b055762001b04620018fd565b5b62001b138882890162001a6c565b935050606086013567ffffffffffffffff81111562001b375762001b36620018fd565b5b62001b458882890162001a6c565b925050608086013567ffffffffffffffff81111562001b695762001b68620018fd565b5b62001b778882890162001a6c565b9150509295509295909350565b600073ffffffffffffffffffffffffffffffffffffffff82169050919050565b600062001bb18262001b84565b9050919050565b62001bc38162001ba4565b811462001bcf57600080fd5b50565b60008135905062001be38162001bb8565b92915050565b60008060006060848603121562001c055762001c04620018f8565b5b600062001c158682870162001926565b935050602084013567ffffffffffffffff81111562001c395762001c38620018fd565b5b62001c478682870162001a6c565b925050604062001c5a8682870162001bd2565b9150509250925092565b62001c6f8162001902565b82525050565b600060208201905062001c8c600083018462001c64565b92915050565b60006020828403121562001cab5762001caa620018f8565b5b600062001cbb8482850162001926565b91505092915050565b6000806040838503121562001cde5762001cdd620018f8565b5b600062001cee8582860162001926565b925050602062001d018582860162001bd2565b9150509250929050565b60008115159050919050565b62001d228162001d0b565b82525050565b600060408201905062001d3f600083018562001c64565b62001d4e602083018462001d17565b9392505050565b600081519050919050565b600082825260208201905092915050565b60005b8381101562001d9157808201518184015260208101905062001d74565b60008484015250505050565b600062001daa8262001d55565b62001db6818562001d60565b935062001dc881856020860162001d71565b62001dd38162001947565b840191505092915050565b62001de98162001ba4565b82525050565b600060608201905062001e06600083018662001c64565b818103602083015262001e1a818562001d9d565b905062001e2b604083018462001dde565b949350505050565b7f4e487b7100000000000000000000000000000000000000000000000000000000600052602160045260246000fd5b6002811062001e765762001e7562001e33565b5b50565b600081905062001e898262001e62565b919050565b600062001e9b8262001e79565b9050919050565b62001ead8162001e8e565b82525050565b600060608201905062001eca600083018662001c64565b62001ed9602083018562001ea2565b62001ee8604083018462001d17565b949350505050565b60008060006060848603121562001f0c5762001f0b620018f8565b5b600062001f1c8682870162001926565b935050602062001f2f8682870162001926565b925050604062001f428682870162001926565b9150509250925092565b600060808201905062001f63600083018762001c64565b818103602083015262001f77818662001d9d565b9050818103604083015262001f8d818562001d9d565b9050818103606083015262001fa3818462001d9d565b905095945050505050565b6002811062001fbc57600080fd5b50565b60008135905062001fd08162001fae565b92915050565b6000806040838503121562001ff05762001fef620018f8565b5b6000620020008582860162001926565b9250506020620020138582860162001fbf565b9150509250929050565b7f70617469656e7420646f6573206e6f7420657869737420212100000000000000600082015250565b60006200205560198362001d60565b915062002062826200201d565b602082019050919050565b60006020820190508181036000830152620020888162002046565b9050919050565b6000602082019050620020a6600083018462001dde565b92915050565b600081519050620020bd816200190c565b92915050565b600060208284031215620020dc57620020db620018f8565b5b6000620020ec84828501620020ac565b91505092915050565b7f4e487b7100000000000000000000000000000000000000000000000000000000600052603260045260246000fd5b600060a0820190506200213b600083018862001c64565b6200214a602083018762001c64565b81810360408301526200215e818662001d9d565b9050818103606083015262002174818562001d9d565b905081810360808301526200218a818462001d9d565b90509695505050505050565b620021a18162001d0b565b8114620021ad57600080fd5b50565b600081519050620021c18162002196565b92915050565b60008060408385031215620021e157620021e0620018f8565b5b6000620021f185828601620020ac565b92505060206200220485828601620021b0565b9150509250929050565b7f43616c6c65722068617665206e6f74207065726d657373696f6e000000000000600082015250565b600062002246601a8362001d60565b915062002253826200220e565b602082019050919050565b60006020820190508181036000830152620022798162002237565b9050919050565b7f70617469656e74206964206f72206163636f756e7420616c726561647920657860008201527f6973742021210000000000000000000000000000000000000000000000000000602082015250565b6000620022de60268362001d60565b9150620022eb8262002280565b604082019050919050565b600060208201905081810360008301526200231181620022cf565b9050919050565b7f4e487b7100000000000000000000000000000000000000000000000000000000600052602260045260246000fd5b600060028204905060018216806200236057607f821691505b60208210810362002376576200237562002318565b5b50919050565b60008190508160005260206000209050919050565b60006020601f8301049050919050565b600082821b905092915050565b600060088302620023e07fffffffffffffffffffffffffffffffffffffffffffffffffffffffffffffffff82620023a1565b620023ec8683620023a1565b95508019841693508086168417925050509392505050565b6000819050919050565b60006200242f62002429620024238462001902565b62002404565b62001902565b9050919050565b6000819050919050565b6200244b836200240e565b620024636200245a8262002436565b848454620023ae565b825550505050565b600090565b6200247a6200246b565b6200248781848462002440565b505050565b5b81811015620024af57620024a360008262002470565b6001810190506200248d565b5050565b601f821115620024fe57620024c8816200237c565b620024d38462002391565b81016020851015620024e3578190505b620024fb620024f28562002391565b8301826200248c565b50505b505050565b600082821c905092915050565b6000620025236000198460080262002503565b1980831691505092915050565b60006200253e838362002510565b9150826002028217905092915050565b620025598262001d55565b67ffffffffffffffff81111562002575576200257462001958565b5b62002581825462002347565b6200258e828285620024b3565b600060209050601f831160018114620025c65760008415620025b1578287015190505b620025bd858262002530565b8655506200262d565b601f198416620025d6866200237c565b60005b828110156200260057848901518255600182019150602085019450602081019050620025d9565b868310156200262057848901516200261c601f89168262002510565b8355505b6001600288020188555050505b505050505050565b7f596f7520617265206e6f7420612070617469656e742021210000000000000000600082015250565b60006200266d60188362001d60565b91506200267a8262002635565b602082019050919050565b60006020820190508181036000830152620026a0816200265e565b9050919050565b7f4e487b7100000000000000000000000000000000000000000000000000000000600052601160045260246000fd5b6000620026e38262001902565b9150620026f08362001902565b92508282039050818111156200270b576200270a620026a7565b5b92915050565b600081549050620027228162002347565b9050919050565b8181036200273957505062002828565b620027448262002711565b67ffffffffffffffff81111562002760576200275f62001958565b5b6200276c825462002347565b62002779828285620024b3565b6000601f831160018114620027ad576000841562002798578287015490505b620027a4858262002530565b86555062002821565b601f198416620027bd876200237c565b9650620027ca866200237c565b60005b82811015620027f457848901548255600182019150600185019450602081019050620027cd565b8683101562002814578489015462002810601f89168262002510565b8355505b6001600288020188555050505b5050505050505b565b7f4e487b7100000000000000000000000000000000000000000000000000000000600052603160045260246000fd5b6000620028668262001902565b91507fffffffffffffffffffffffffffffffffffffffffffffffffffffffffffffffff82036200289b576200289a620026a7565b5b600182019050919050565b7f57726f6e6720696e646578212100000000000000000000000000000000000000600082015250565b6000620028de600d8362001d60565b9150620028eb82620028a6565b602082019050919050565b600060208201905081810360008301526200291181620028cf565b9050919050565b600081519050620029298162001fae565b92915050565b6000806000606084860312156200294b576200294a620018f8565b5b60006200295b86828701620020ac565b93505060206200296e8682870162002918565b92505060406200298186828701620021b0565b9150509250925092565b7f796f7520617265206e6f7420612070617469656e742c207065726d697373696f60008201527f6e2064656e696564202121000000000000000000000000000000000000000000602082015250565b6000620029e9602b8362001d60565b9150620029f6826200298b565b604082019050919050565b6000602082019050818103600083015262002a1c81620029da565b9050919050565b7f50617469656e7420446f6573204e6f7420457869737421210000000000000000600082015250565b600062002a5b60188362001d60565b915062002a688262002a23565b602082019050919050565b6000602082019050818103600083015262002a8e8162002a4c565b9050919050565b600060608201905062002aac600083018662001c64565b62002abb602083018562001c64565b62002aca604083018462001c64565b949350505050565b600080fd5b600080fd5b600062002af362002aed84620019dc565b620019bd565b90508281526020810184848401111562002b125762002b1162001942565b5b62002b1f84828562001d71565b509392505050565b600082601f83011262002b3f5762002b3e6200193d565b5b815162002b5184826020860162002adc565b91505092915050565b60006080828403121562002b735762002b7262002ad2565b5b62002b7f6080620019bd565b9050600062002b9184828501620020ac565b600083015250602082015167ffffffffffffffff81111562002bb85762002bb762002ad7565b5b62002bc68482850162002b27565b602083015250604082015167ffffffffffffffff81111562002bed5762002bec62002ad7565b5b62002bfb8482850162002b27565b604083015250606082015167ffffffffffffffff81111562002c225762002c2162002ad7565b5b62002c308482850162002b27565b60608301525092915050565b60006020828403121562002c555762002c54620018f8565b5b600082015167ffffffffffffffff81111562002c765762002c75620018fd565b5b62002c848482850162002b5a565b91505092915050565b7f50617469656e7420646f6573206e6f7420657869737420212100000000000000600082015250565b600062002cc560198362001d60565b915062002cd28262002c8d565b602082019050919050565b6000602082019050818103600083015262002cf88162002cb6565b9050919050565b600060408201905062002d16600083018562001c64565b62002d25602083018462001ea2565b9392505050565b7f596f7520617265206e6f7420612050617469656e742021210000000000000000600082015250565b600062002d6460188362001d60565b915062002d718262002d2c565b602082019050919050565b6000602082019050818103600083015262002d978162002d55565b905091905056fe608060405260006002553480156200001657600080fd5b50600260008154809291906200002c906200019b565b91905055506040518060800160405280600081526020016040518060400160405280600481526020017f746573740000000000000000000000000000000000000000000000000000000081525081526020016040518060400160405280600481526020017f746573740000000000000000000000000000000000000000000000000000000081525081526020016040518060400160405280600481526020017f746573740000000000000000000000000000000000000000000000000000000081525081525060016000600254815260200190815260200160002060008201518160000155602082015181600101908162000128919062000458565b50604082015181600201908162000140919062000458565b50606082015181600301908162000158919062000458565b509050506200053f565b7f4e487b7100000000000000000000000000000000000000000000000000000000600052601160045260246000fd5b6000819050919050565b6000620001a88262000191565b91507fffffffffffffffffffffffffffffffffffffffffffffffffffffffffffffffff8203620001dd57620001dc62000162565b5b600182019050919050565b600081519050919050565b7f4e487b7100000000000000000000000000000000000000000000000000000000600052604160045260246000fd5b7f4e487b7100000000000000000000000000000000000000000000000000000000600052602260045260246000fd5b600060028204905060018216806200026a57607f821691505b60208210810362000280576200027f62000222565b5b50919050565b60008190508160005260206000209050919050565b60006020601f8301049050919050565b600082821b905092915050565b600060088302620002ea7fffffffffffffffffffffffffffffffffffffffffffffffffffffffffffffffff82620002ab565b620002f68683620002ab565b95508019841693508086168417925050509392505050565b6000819050919050565b600062000339620003336200032d8462000191565b6200030e565b62000191565b9050919050565b6000819050919050565b620003558362000318565b6200036d620003648262000340565b848454620002b8565b825550505050565b600090565b6200038462000375565b620003918184846200034a565b505050565b5b81811015620003b957620003ad6000826200037a565b60018101905062000397565b5050565b601f8211156200040857620003d28162000286565b620003dd846200029b565b81016020851015620003ed578190505b62000405620003fc856200029b565b83018262000396565b50505b505050565b600082821c905092915050565b60006200042d600019846008026200040d565b1980831691505092915050565b60006200044883836200041a565b9150826002028217905092915050565b6200046382620001e8565b67ffffffffffffffff8111156200047f576200047e620001f3565b5b6200048b825462000251565b62000498828285620003bd565b600060209050601f831160018114620004d05760008415620004bb578287015190505b620004c785826200043a565b86555062000537565b601f198416620004e08662000286565b60005b828110156200050a57848901518255600182019150602085019450602081019050620004e3565b868310156200052a578489015162000526601f8916826200041a565b8355505b6001600288020188555050505b505050505050565b6118e5806200054f6000396000f3fe608060405234801561001057600080fd5b506004361061009e5760003560e01c80637cd7710d116100665780637cd7710d146101875780638f823dfe146101a55780639d04ae84146101d5578063df5ff354146101f1578063e6358697146102215761009e565b806308d19b8b146100a357806323c31473146100d65780633f2c0e351461010657806340c57998146101245780636d052b3714610155575b600080fd5b6100bd60048036038101906100b89190610d0e565b610251565b6040516100cd9493929190610dda565b60405180910390f35b6100f060048036038101906100eb9190610e59565b610419565b6040516100fd9190610e99565b60405180910390f35b61010e6104f7565b60405161011b9190610e99565b60405180910390f35b61013e60048036038101906101399190610d0e565b610503565b60405161014c929190610ecf565b60405180910390f35b61016f600480360381019061016a9190610d0e565b61055d565b60405161017e93929190610f6f565b60405180910390f35b61018f61064e565b60405161019c9190610e99565b60405180910390f35b6101bf60048036038101906101ba9190610d0e565b610654565b6040516101cc9190611070565b60405180910390f35b6101ef60048036038101906101ea9190610d0e565b610892565b005b61020b60048036038101906102069190611092565b610925565b6040516102189190611070565b60405180910390f35b61023b6004803603810190610236919061121a565b610a99565b6040516102489190610e99565b60405180910390f35b600160205280600052604060002060009150905080600001549080600101805461027a90611318565b80601f01602080910402602001604051908101604052809291908181526020018280546102a690611318565b80156102f35780601f106102c8576101008083540402835291602001916102f3565b820191906000526020600020905b8154815290600101906020018083116102d657829003601f168201915b50505050509080600201805461030890611318565b80601f016020809104026020016040519081016040528092919081815260200182805461033490611318565b80156103815780601f1061035657610100808354040283529160200191610381565b820191906000526020600020905b81548152906001019060200180831161036457829003601f168201915b50505050509080600301805461039690611318565b80601f01602080910402602001604051908101604052809291908181526020018280546103c290611318565b801561040f5780601f106103e45761010080835404028352916020019161040f565b820191906000526020600020905b8154815290600101906020018083116103f257829003601f168201915b5050505050905084565b6000806000805490509050600080604051806080016040528087815260200186600181111561044b5761044a610ef8565b5b81526020018315158152602001600081525090806001815401808255809150506001900390600052602060002090600302016000909190919091506000820151816000015560208201518160010160006101000a81548160ff021916908360018111156104bb576104ba610ef8565b5b021790555060408201518160010160016101000a81548160ff021916908315150217905550606082015181600201555050819250505092915050565b60008080549050905090565b60008060008084600080549050111561055057600191506000858154811061052e5761052d611349565b5b906000526020600020906003020160010160019054906101000a900460ff1690505b8181935093505050915091565b6000806000808410158015610576575060008054905084105b6105b5576040517f08c379a00000000000000000000000000000000000000000000000000000000081526004016105ac906113c4565b60405180910390fd5b600084815481106105c9576105c8611349565b5b906000526020600020906003020160000154600085815481106105ef576105ee611349565b5b906000526020600020906003020160010160009054906101000a900460ff166000868154811061062257610621611349565b5b906000526020600020906003020160010160019054906101000a900460ff169250925092509193909250565b60025481565b61065c610c9c565b60008211801561066e57506002548211155b6106ad576040517f08c379a00000000000000000000000000000000000000000000000000000000081526004016106a490611430565b60405180910390fd5b60016000838152602001908152602001600020604051806080016040529081600082015481526020016001820180546106e590611318565b80601f016020809104026020016040519081016040528092919081815260200182805461071190611318565b801561075e5780601f106107335761010080835404028352916020019161075e565b820191906000526020600020905b81548152906001019060200180831161074157829003601f168201915b5050505050815260200160028201805461077790611318565b80601f01602080910402602001604051908101604052809291908181526020018280546107a390611318565b80156107f05780601f106107c5576101008083540402835291602001916107f0565b820191906000526020600020905b8154815290600101906020018083116107d357829003601f168201915b5050505050815260200160038201805461080990611318565b80601f016020809104026020016040519081016040528092919081815260200182805461083590611318565b80156108825780601f1061085757610100808354040283529160200191610882565b820191906000526020600020905b81548152906001019060200180831161086557829003601f168201915b5050505050815250509050919050565b60008061089e83610503565b91509150816108e2576040517f08c379a00000000000000000000000000000000000000000000000000000000081526004016108d99061149c565b60405180910390fd5b6001600084815481106108f8576108f7611349565b5b906000526020600020906003020160010160016101000a81548160ff021916908315150217905550505050565b61092d610c9c565b60008061093986610503565b915091508180156109475750805b610986576040517f08c379a000000000000000000000000000000000000000000000000000000000815260040161097d9061152e565b60405180910390fd5b846000878154811061099b5761099a611349565b5b906000526020600020906003020160000154146109ed576040517f08c379a00000000000000000000000000000000000000000000000000000000081526004016109e49061159a565b60405180910390fd5b600180811115610a00576109ff610ef8565b5b60008781548110610a1457610a13611349565b5b906000526020600020906003020160010160009054906101000a900460ff166001811115610a4557610a44610ef8565b5b14610a85576040517f08c379a0000000000000000000000000000000000000000000000000000000008152600401610a7c9061159a565b60405180910390fd5b610a8e84610654565b925050509392505050565b6000806000610aa788610503565b91509150818015610ab55750805b610af4576040517f08c379a0000000000000000000000000000000000000000000000000000000008152600401610aeb9061152e565b60405180910390fd5b8660008981548110610b0957610b08611349565b5b90600052602060002090600302016000015414610b5b576040517f08c379a0000000000000000000000000000000000000000000000000000000008152600401610b529061159a565b60405180910390fd5b60006001811115610b6f57610b6e610ef8565b5b60008981548110610b8357610b82611349565b5b906000526020600020906003020160010160009054906101000a900460ff166001811115610bb457610bb3610ef8565b5b14610bf4576040517f08c379a0000000000000000000000000000000000000000000000000000000008152600401610beb9061159a565b60405180910390fd5b60026000815480929190610c07906115e9565b9190505550604051806080016040528088815260200187815260200186815260200185815250600160006002548152602001908152602001600020600082015181600001556020820151816001019081610c6191906117dd565b506040820151816002019081610c7791906117dd565b506060820151816003019081610c8d91906117dd565b50905050505095945050505050565b6040518060800160405280600081526020016060815260200160608152602001606081525090565b6000604051905090565b600080fd5b600080fd5b6000819050919050565b610ceb81610cd8565b8114610cf657600080fd5b50565b600081359050610d0881610ce2565b92915050565b600060208284031215610d2457610d23610cce565b5b6000610d3284828501610cf9565b91505092915050565b610d4481610cd8565b82525050565b600081519050919050565b600082825260208201905092915050565b60005b83811015610d84578082015181840152602081019050610d69565b60008484015250505050565b6000601f19601f8301169050919050565b6000610dac82610d4a565b610db68185610d55565b9350610dc6818560208601610d66565b610dcf81610d90565b840191505092915050565b6000608082019050610def6000830187610d3b565b8181036020830152610e018186610da1565b90508181036040830152610e158185610da1565b90508181036060830152610e298184610da1565b905095945050505050565b60028110610e4157600080fd5b50565b600081359050610e5381610e34565b92915050565b60008060408385031215610e7057610e6f610cce565b5b6000610e7e85828601610cf9565b9250506020610e8f85828601610e44565b9150509250929050565b6000602082019050610eae6000830184610d3b565b92915050565b60008115159050919050565b610ec981610eb4565b82525050565b6000604082019050610ee46000830185610ec0565b610ef16020830184610ec0565b9392505050565b7f4e487b7100000000000000000000000000000000000000000000000000000000600052602160045260246000fd5b60028110610f3857610f37610ef8565b5b50565b6000819050610f4982610f27565b919050565b6000610f5982610f3b565b9050919050565b610f6981610f4e565b82525050565b6000606082019050610f846000830186610d3b565b610f916020830185610f60565b610f9e6040830184610ec0565b949350505050565b610faf81610cd8565b82525050565b600082825260208201905092915050565b6000610fd182610d4a565b610fdb8185610fb5565b9350610feb818560208601610d66565b610ff481610d90565b840191505092915050565b60006080830160008301516110176000860182610fa6565b506020830151848203602086015261102f8282610fc6565b915050604083015184820360408601526110498282610fc6565b915050606083015184820360608601526110638282610fc6565b9150508091505092915050565b6000602082019050818103600083015261108a8184610fff565b905092915050565b6000806000606084860312156110ab576110aa610cce565b5b60006110b986828701610cf9565b93505060206110ca86828701610cf9565b92505060406110db86828701610cf9565b9150509250925092565b600080fd5b600080fd5b7f4e487b7100000000000000000000000000000000000000000000000000000000600052604160045260246000fd5b61112782610d90565b810181811067ffffffffffffffff82111715611146576111456110ef565b5b80604052505050565b6000611159610cc4565b9050611165828261111e565b919050565b600067ffffffffffffffff821115611185576111846110ef565b5b61118e82610d90565b9050602081019050919050565b82818337600083830152505050565b60006111bd6111b88461116a565b61114f565b9050828152602081018484840111156111d9576111d86110ea565b5b6111e484828561119b565b509392505050565b600082601f830112611201576112006110e5565b5b81356112118482602086016111aa565b91505092915050565b600080600080600060a0868803121561123657611235610cce565b5b600061124488828901610cf9565b955050602061125588828901610cf9565b945050604086013567ffffffffffffffff81111561127657611275610cd3565b5b611282888289016111ec565b935050606086013567ffffffffffffffff8111156112a3576112a2610cd3565b5b6112af888289016111ec565b925050608086013567ffffffffffffffff8111156112d0576112cf610cd3565b5b6112dc888289016111ec565b9150509295509295909350565b7f4e487b7100000000000000000000000000000000000000000000000000000000600052602260045260246000fd5b6000600282049050600182168061133057607f821691505b602082108103611343576113426112e9565b5b50919050565b7f4e487b7100000000000000000000000000000000000000000000000000000000600052603260045260246000fd5b7f57524f4e4720494e44455820464f522052455155455354202121000000000000600082015250565b60006113ae601a83610d55565b91506113b982611378565b602082019050919050565b600060208201905081810360008301526113dd816113a1565b9050919050565b7f45485220646f6573206e6f742065786973742021210000000000000000000000600082015250565b600061141a601583610d55565b9150611425826113e4565b602082019050919050565b600060208201905081810360008301526114498161140d565b9050919050565b7f5265717565737420646f6573206e6f7420657869737420212100000000000000600082015250565b6000611486601983610d55565b915061149182611450565b602082019050919050565b600060208201905081810360008301526114b581611479565b9050919050565b7f5265717565737420646f6573206e6f74206578697374206f7220646f6573206e60008201527f6f74206163636570746564202121000000000000000000000000000000000000602082015250565b6000611518602e83610d55565b9150611523826114bc565b604082019050919050565b600060208201905081810360008301526115478161150b565b9050919050565b7f7065726d697373696f6e2064656e696564202121000000000000000000000000600082015250565b6000611584601483610d55565b915061158f8261154e565b602082019050919050565b600060208201905081810360008301526115b381611577565b9050919050565b7f4e487b7100000000000000000000000000000000000000000000000000000000600052601160045260246000fd5b60006115f482610cd8565b91507fffffffffffffffffffffffffffffffffffffffffffffffffffffffffffffffff8203611626576116256115ba565b5b600182019050919050565b60008190508160005260206000209050919050565b60006020601f8301049050919050565b600082821b905092915050565b6000600883026116937fffffffffffffffffffffffffffffffffffffffffffffffffffffffffffffffff82611656565b61169d8683611656565b95508019841693508086168417925050509392505050565b6000819050919050565b60006116da6116d56116d084610cd8565b6116b5565b610cd8565b9050919050565b6000819050919050565b6116f4836116bf565b611708611700826116e1565b848454611663565b825550505050565b600090565b61171d611710565b6117288184846116eb565b505050565b5b8181101561174c57611741600082611715565b60018101905061172e565b5050565b601f8211156117915761176281611631565b61176b84611646565b8101602085101561177a578190505b61178e61178685611646565b83018261172d565b50505b505050565b600082821c905092915050565b60006117b460001984600802611796565b1980831691505092915050565b60006117cd83836117a3565b9150826002028217905092915050565b6117e682610d4a565b67ffffffffffffffff8111156117ff576117fe6110ef565b5b6118098254611318565b611814828285611750565b600060209050601f8311600181146118475760008415611835578287015190505b61183f85826117c1565b8655506118a7565b601f19841661185586611631565b60005b8281101561187d57848901518255600182019150602085019450602081019050611858565b8683101561189a5784890151611896601f8916826117a3565b8355505b6001600288020188555050505b50505050505056fea264697066735822122097263aafb9d6880de44c33339869ea6fc948597c618f154260096154ac9e14eb64736f6c63430008110033a26469706673582212202e9f5adcb779f77caa98104acde94b037c33821cb7ecea38385990a7bd2db0b064736f6c63430008110033608060405260006002553480156200001657600080fd5b50600260008154809291906200002c906200019b565b91905055506040518060800160405280600081526020016040518060400160405280600481526020017f746573740000000000000000000000000000000000000000000000000000000081525081526020016040518060400160405280600481526020017f746573740000000000000000000000000000000000000000000000000000000081525081526020016040518060400160405280600481526020017f746573740000000000000000000000000000000000000000000000000000000081525081525060016000600254815260200190815260200160002060008201518160000155602082015181600101908162000128919062000458565b50604082015181600201908162000140919062000458565b50606082015181600301908162000158919062000458565b509050506200053f565b7f4e487b7100000000000000000000000000000000000000000000000000000000600052601160045260246000fd5b6000819050919050565b6000620001a88262000191565b91507fffffffffffffffffffffffffffffffffffffffffffffffffffffffffffffffff8203620001dd57620001dc62000162565b5b600182019050919050565b600081519050919050565b7f4e487b7100000000000000000000000000000000000000000000000000000000600052604160045260246000fd5b7f4e487b7100000000000000000000000000000000000000000000000000000000600052602260045260246000fd5b600060028204905060018216806200026a57607f821691505b60208210810362000280576200027f62000222565b5b50919050565b60008190508160005260206000209050919050565b60006020601f8301049050919050565b600082821b905092915050565b600060088302620002ea7fffffffffffffffffffffffffffffffffffffffffffffffffffffffffffffffff82620002ab565b620002f68683620002ab565b95508019841693508086168417925050509392505050565b6000819050919050565b600062000339620003336200032d8462000191565b6200030e565b62000191565b9050919050565b6000819050919050565b620003558362000318565b6200036d620003648262000340565b848454620002b8565b825550505050565b600090565b6200038462000375565b620003918184846200034a565b505050565b5b81811015620003b957620003ad6000826200037a565b60018101905062000397565b5050565b601f8211156200040857620003d28162000286565b620003dd846200029b565b81016020851015620003ed578190505b62000405620003fc856200029b565b83018262000396565b50505b505050565b600082821c905092915050565b60006200042d600019846008026200040d565b1980831691505092915050565b60006200044883836200041a565b9150826002028217905092915050565b6200046382620001e8565b67ffffffffffffffff8111156200047f576200047e620001f3565b5b6200048b825462000251565b62000498828285620003bd565b600060209050601f831160018114620004d05760008415620004bb578287015190505b620004c785826200043a565b86555062000537565b601f198416620004e08662000286565b60005b828110156200050a57848901518255600182019150602085019450602081019050620004e3565b868310156200052a578489015162000526601f8916826200041a565b8355505b6001600288020188555050505b505050505050565b6118e5806200054f6000396000f3fe608060405234801561001057600080fd5b506004361061009e5760003560e01c80637cd7710d116100665780637cd7710d146101875780638f823dfe146101a55780639d04ae84146101d5578063df5ff354146101f1578063e6358697146102215761009e565b806308d19b8b146100a357806323c31473146100d65780633f2c0e351461010657806340c57998146101245780636d052b3714610155575b600080fd5b6100bd60048036038101906100b89190610d0e565b610251565b6040516100cd9493929190610dda565b60405180910390f35b6100f060048036038101906100eb9190610e59565b610419565b6040516100fd9190610e99565b60405180910390f35b61010e6104f7565b60405161011b9190610e99565b60405180910390f35b61013e60048036038101906101399190610d0e565b610503565b60405161014c929190610ecf565b60405180910390f35b61016f600480360381019061016a9190610d0e565b61055d565b60405161017e93929190610f6f565b60405180910390f35b61018f61064e565b60405161019c9190610e99565b60405180910390f35b6101bf60048036038101906101ba9190610d0e565b610654565b6040516101cc9190611070565b60405180910390f35b6101ef60048036038101906101ea9190610d0e565b610892565b005b61020b60048036038101906102069190611092565b610925565b6040516102189190611070565b60405180910390f35b61023b6004803603810190610236919061121a565b610a99565b6040516102489190610e99565b60405180910390f35b600160205280600052604060002060009150905080600001549080600101805461027a90611318565b80601f01602080910402602001604051908101604052809291908181526020018280546102a690611318565b80156102f35780601f106102c8576101008083540402835291602001916102f3565b820191906000526020600020905b8154815290600101906020018083116102d657829003601f168201915b50505050509080600201805461030890611318565b80601f016020809104026020016040519081016040528092919081815260200182805461033490611318565b80156103815780601f1061035657610100808354040283529160200191610381565b820191906000526020600020905b81548152906001019060200180831161036457829003601f168201915b50505050509080600301805461039690611318565b80601f01602080910402602001604051908101604052809291908181526020018280546103c290611318565b801561040f5780601f106103e45761010080835404028352916020019161040f565b820191906000526020600020905b8154815290600101906020018083116103f257829003601f168201915b5050505050905084565b6000806000805490509050600080604051806080016040528087815260200186600181111561044b5761044a610ef8565b5b81526020018315158152602001600081525090806001815401808255809150506001900390600052602060002090600302016000909190919091506000820151816000015560208201518160010160006101000a81548160ff021916908360018111156104bb576104ba610ef8565b5b021790555060408201518160010160016101000a81548160ff021916908315150217905550606082015181600201555050819250505092915050565b60008080549050905090565b60008060008084600080549050111561055057600191506000858154811061052e5761052d611349565b5b906000526020600020906003020160010160019054906101000a900460ff1690505b8181935093505050915091565b6000806000808410158015610576575060008054905084105b6105b5576040517f08c379a00000000000000000000000000000000000000000000000000000000081526004016105ac906113c4565b60405180910390fd5b600084815481106105c9576105c8611349565b5b906000526020600020906003020160000154600085815481106105ef576105ee611349565b5b906000526020600020906003020160010160009054906101000a900460ff166000868154811061062257610621611349565b5b906000526020600020906003020160010160019054906101000a900460ff169250925092509193909250565b60025481565b61065c610c9c565b60008211801561066e57506002548211155b6106ad576040517f08c379a00000000000000000000000000000000000000000000000000000000081526004016106a490611430565b60405180910390fd5b60016000838152602001908152602001600020604051806080016040529081600082015481526020016001820180546106e590611318565b80601f016020809104026020016040519081016040528092919081815260200182805461071190611318565b801561075e5780601f106107335761010080835404028352916020019161075e565b820191906000526020600020905b81548152906001019060200180831161074157829003601f168201915b5050505050815260200160028201805461077790611318565b80601f01602080910402602001604051908101604052809291908181526020018280546107a390611318565b80156107f05780601f106107c5576101008083540402835291602001916107f0565b820191906000526020600020905b8154815290600101906020018083116107d357829003601f168201915b5050505050815260200160038201805461080990611318565b80601f016020809104026020016040519081016040528092919081815260200182805461083590611318565b80156108825780601f1061085757610100808354040283529160200191610882565b820191906000526020600020905b81548152906001019060200180831161086557829003601f168201915b5050505050815250509050919050565b60008061089e83610503565b91509150816108e2576040517f08c379a00000000000000000000000000000000000000000000000000000000081526004016108d99061149c565b60405180910390fd5b6001600084815481106108f8576108f7611349565b5b906000526020600020906003020160010160016101000a81548160ff021916908315150217905550505050565b61092d610c9c565b60008061093986610503565b915091508180156109475750805b610986576040517f08c379a000000000000000000000000000000000000000000000000000000000815260040161097d9061152e565b60405180910390fd5b846000878154811061099b5761099a611349565b5b906000526020600020906003020160000154146109ed576040517f08c379a00000000000000000000000000000000000000000000000000000000081526004016109e49061159a565b60405180910390fd5b600180811115610a00576109ff610ef8565b5b60008781548110610a1457610a13611349565b5b906000526020600020906003020160010160009054906101000a900460ff166001811115610a4557610a44610ef8565b5b14610a85576040517f08c379a0000000000000000000000000000000000000000000000000000000008152600401610a7c9061159a565b60405180910390fd5b610a8e84610654565b925050509392505050565b6000806000610aa788610503565b91509150818015610ab55750805b610af4576040517f08c379a0000000000000000000000000000000000000000000000000000000008152600401610aeb9061152e565b60405180910390fd5b8660008981548110610b0957610b08611349565b5b90600052602060002090600302016000015414610b5b576040517f08c379a0000000000000000000000000000000000000000000000000000000008152600401610b529061159a565b60405180910390fd5b60006001811115610b6f57610b6e610ef8565b5b60008981548110610b8357610b82611349565b5b906000526020600020906003020160010160009054906101000a900460ff166001811115610bb457610bb3610ef8565b5b14610bf4576040517f08c379a0000000000000000000000000000000000000000000000000000000008152600401610beb9061159a565b60405180910390fd5b60026000815480929190610c07906115e9565b9190505550604051806080016040528088815260200187815260200186815260200185815250600160006002548152602001908152602001600020600082015181600001556020820151816001019081610c6191906117dd565b506040820151816002019081610c7791906117dd565b506060820151816003019081610c8d91906117dd565b50905050505095945050505050565b6040518060800160405280600081526020016060815260200160608152602001606081525090565b6000604051905090565b600080fd5b600080fd5b6000819050919050565b610ceb81610cd8565b8114610cf657600080fd5b50565b600081359050610d0881610ce2565b92915050565b600060208284031215610d2457610d23610cce565b5b6000610d3284828501610cf9565b91505092915050565b610d4481610cd8565b82525050565b600081519050919050565b600082825260208201905092915050565b60005b83811015610d84578082015181840152602081019050610d69565b60008484015250505050565b6000601f19601f8301169050919050565b6000610dac82610d4a565b610db68185610d55565b9350610dc6818560208601610d66565b610dcf81610d90565b840191505092915050565b6000608082019050610def6000830187610d3b565b8181036020830152610e018186610da1565b90508181036040830152610e158185610da1565b90508181036060830152610e298184610da1565b905095945050505050565b60028110610e4157600080fd5b50565b600081359050610e5381610e34565b92915050565b60008060408385031215610e7057610e6f610cce565b5b6000610e7e85828601610cf9565b9250506020610e8f85828601610e44565b9150509250929050565b6000602082019050610eae6000830184610d3b565b92915050565b60008115159050919050565b610ec981610eb4565b82525050565b6000604082019050610ee46000830185610ec0565b610ef16020830184610ec0565b9392505050565b7f4e487b7100000000000000000000000000000000000000000000000000000000600052602160045260246000fd5b60028110610f3857610f37610ef8565b5b50565b6000819050610f4982610f27565b919050565b6000610f5982610f3b565b9050919050565b610f6981610f4e565b82525050565b6000606082019050610f846000830186610d3b565b610f916020830185610f60565b610f9e6040830184610ec0565b949350505050565b610faf81610cd8565b82525050565b600082825260208201905092915050565b6000610fd182610d4a565b610fdb8185610fb5565b9350610feb818560208601610d66565b610ff481610d90565b840191505092915050565b60006080830160008301516110176000860182610fa6565b506020830151848203602086015261102f8282610fc6565b915050604083015184820360408601526110498282610fc6565b915050606083015184820360608601526110638282610fc6565b9150508091505092915050565b6000602082019050818103600083015261108a8184610fff565b905092915050565b6000806000606084860312156110ab576110aa610cce565b5b60006110b986828701610cf9565b93505060206110ca86828701610cf9565b92505060406110db86828701610cf9565b9150509250925092565b600080fd5b600080fd5b7f4e487b7100000000000000000000000000000000000000000000000000000000600052604160045260246000fd5b61112782610d90565b810181811067ffffffffffffffff82111715611146576111456110ef565b5b80604052505050565b6000611159610cc4565b9050611165828261111e565b919050565b600067ffffffffffffffff821115611185576111846110ef565b5b61118e82610d90565b9050602081019050919050565b82818337600083830152505050565b60006111bd6111b88461116a565b61114f565b9050828152602081018484840111156111d9576111d86110ea565b5b6111e484828561119b565b509392505050565b600082601f830112611201576112006110e5565b5b81356112118482602086016111aa565b91505092915050565b600080600080600060a0868803121561123657611235610cce565b5b600061124488828901610cf9565b955050602061125588828901610cf9565b945050604086013567ffffffffffffffff81111561127657611275610cd3565b5b611282888289016111ec565b935050606086013567ffffffffffffffff8111156112a3576112a2610cd3565b5b6112af888289016111ec565b925050608086013567ffffffffffffffff8111156112d0576112cf610cd3565b5b6112dc888289016111ec565b9150509295509295909350565b7f4e487b7100000000000000000000000000000000000000000000000000000000600052602260045260246000fd5b6000600282049050600182168061133057607f821691505b602082108103611343576113426112e9565b5b50919050565b7f4e487b7100000000000000000000000000000000000000000000000000000000600052603260045260246000fd5b7f57524f4e4720494e44455820464f522052455155455354202121000000000000600082015250565b60006113ae601a83610d55565b91506113b982611378565b602082019050919050565b600060208201905081810360008301526113dd816113a1565b9050919050565b7f45485220646f6573206e6f742065786973742021210000000000000000000000600082015250565b600061141a601583610d55565b9150611425826113e4565b602082019050919050565b600060208201905081810360008301526114498161140d565b9050919050565b7f5265717565737420646f6573206e6f7420657869737420212100000000000000600082015250565b6000611486601983610d55565b915061149182611450565b602082019050919050565b600060208201905081810360008301526114b581611479565b9050919050565b7f5265717565737420646f6573206e6f74206578697374206f7220646f6573206e60008201527f6f74206163636570746564202121000000000000000000000000000000000000602082015250565b6000611518602e83610d55565b9150611523826114bc565b604082019050919050565b600060208201905081810360008301526115478161150b565b9050919050565b7f7065726d697373696f6e2064656e696564202121000000000000000000000000600082015250565b6000611584601483610d55565b915061158f8261154e565b602082019050919050565b600060208201905081810360008301526115b381611577565b9050919050565b7f4e487b7100000000000000000000000000000000000000000000000000000000600052601160045260246000fd5b60006115f482610cd8565b91507fffffffffffffffffffffffffffffffffffffffffffffffffffffffffffffffff8203611626576116256115ba565b5b600182019050919050565b60008190508160005260206000209050919050565b60006020601f8301049050919050565b600082821b905092915050565b6000600883026116937fffffffffffffffffffffffffffffffffffffffffffffffffffffffffffffffff82611656565b61169d8683611656565b95508019841693508086168417925050509392505050565b6000819050919050565b60006116da6116d56116d084610cd8565b6116b5565b610cd8565b9050919050565b6000819050919050565b6116f4836116bf565b611708611700826116e1565b848454611663565b825550505050565b600090565b61171d611710565b6117288184846116eb565b505050565b5b8181101561174c57611741600082611715565b60018101905061172e565b5050565b601f8211156117915761176281611631565b61176b84611646565b8101602085101561177a578190505b61178e61178685611646565b83018261172d565b50505b505050565b600082821c905092915050565b60006117b460001984600802611796565b1980831691505092915050565b60006117cd83836117a3565b9150826002028217905092915050565b6117e682610d4a565b67ffffffffffffffff8111156117ff576117fe6110ef565b5b6118098254611318565b611814828285611750565b600060209050601f8311600181146118475760008415611835578287015190505b61183f85826117c1565b8655506118a7565b601f19841661185586611631565b60005b8281101561187d57848901518255600182019150602085019450602081019050611858565b8683101561189a5784890151611896601f8916826117a3565b8355505b6001600288020188555050505b50505050505056fea264697066735822122097263aafb9d6880de44c33339869ea6fc948597c618f154260096154ac9e14eb64736f6c63430008110033",
  "immutableReferences": {},
  "source": "// SPDX-License-Identifier: GPL-3.0\r\n\r\npragma solidity >=0.7.0 <0.9.0;\r\n\r\nimport {EHR} from \"./EHR.sol\";\r\nimport {HealthAuthority} from \"./HealthAuthority.sol\";\r\nimport {HealthActor} from \"./HealthActor.sol\";\r\n\r\n\r\n/** \r\n * @title Patient\r\n * @dev Implements Patient methods\r\n */\r\ncontract Patient {\r\n\r\n    HealthAuthority authority;\r\n    HealthActor actor;\r\n\r\n    struct patient{\r\n        uint id;\r\n        string name;\r\n        address addr;\r\n        EHR ehr;\r\n    }\r\n    patient[] patients;\r\n\r\n    modifier isAccount() {\r\n        (uint index, bool exist) = authority.checkHealthAuthority(msg.sender);\r\n        require(exist, \"Caller have not permession\");\r\n        _;\r\n    }\r\n\r\n    constructor(address authorityAddress, address actorAddress){\r\n        authority = HealthAuthority(authorityAddress);\r\n        actor = HealthActor(actorAddress);\r\n\r\n        patients.push(patient(20, 'badro', address(0xB09E8efD21A77Ee5FfDc5Aa3f70fcC22E3e060C6), new EHR()));\r\n    }\r\n\r\n\r\n    /**\r\n    * ///////////////////////////////////////////////////////////////////////\r\n    *         PUBLIC METHODS FOR REGISTRATION PURPOSE (Authority only)\r\n    * ///////////////////////////////////////////////////////////////////////\r\n    */\r\n    function checkPatient(uint _id, address _address) view public returns (uint, bool) {\r\n        uint index = 0;\r\n        bool exist = false;\r\n        for (uint i = 0; i < patients.length ; i++){\r\n            if (patients[i].id == _id || patients[i].addr == _address){\r\n                exist = true;\r\n                index = i;\r\n                break;\r\n            }\r\n        }\r\n        return (index, exist);\r\n    }\r\n\r\n    function getNumberOfPatient() public view returns(uint) {\r\n        return patients.length;\r\n    }\r\n\r\n    function getPatientByIndex(uint _index) public view returns(uint, string memory, address) {\r\n        require(_index >= 0 && _index < patients.length, \"Wrong index!!\");\r\n\r\n        return (patients[_index].id, patients[_index].name, patients[_index].addr);\r\n    }\r\n\r\n    function addPatient(uint _id, string memory _name, address _account) public isAccount{\r\n        (uint index, bool exist) = checkPatient(_id, _account);\r\n        require(exist==false, \"patient id or account already exist !!\");\r\n\r\n        patients.push(patient(_id, _name, _account, new EHR()));\r\n    }\r\n\r\n    function rmPatient(uint _id) public isAccount{\r\n        (uint index, bool exist) = checkPatient(_id, address(0));\r\n        require(exist==true, \"patient does not exist !!\");\r\n\r\n        patients[index] = patients[patients.length-1];\r\n        patients.pop();\r\n    }\r\n\r\n\r\n    /**\r\n    * ///////////////////////////////////////////////////////////////////////\r\n    *           PUBLIC METHODS FOR EHR PUBLISH PURPOSE (Patient only)\r\n    * ///////////////////////////////////////////////////////////////////////\r\n    */\r\n\r\n    \r\n\r\n    \r\n\r\n\r\n    /**\r\n    * ///////////////////////////////////////////////////////////////////////\r\n    *                PUBLIC METHODS FOR REQUEST PURPOSE\r\n    * ///////////////////////////////////////////////////////////////////////\r\n    */\r\n\r\n    function getNumberOfRequest() public view returns (uint256) {\r\n        (uint index, bool exist) = checkPatient(0, msg.sender);\r\n        require(exist, \"You are not a patient !!\");\r\n        \r\n        return patients[index].ehr.getNumberOfRequest();\r\n    }\r\n\r\n    function getRequestByIndex(uint256 _requestID) public view returns (uint, EHR.RequestType, bool){\r\n        (uint index, bool exist) = checkPatient(0, msg.sender);\r\n        require(exist, \"You are not a patient !!\");\r\n        \r\n        return patients[index].ehr.getRequestByIndex(_requestID);\r\n    }\r\n\r\n    /** \r\n     * @dev Create a new request from an actor.\r\n     * @param _patientID this is a patient id\r\n     * @param _requestType the type of request CONSULT PUBLISH\r\n     */\r\n    function sendRequest(uint _patientID, EHR.RequestType _requestType) public returns (uint){\r\n        // check if caller is actor\r\n        uint actorID = actor.getActorID(msg.sender);\r\n\r\n        // check if patient exist \r\n        (uint index, bool exist) = checkPatient(_patientID, address(0));\r\n        require(exist, \"Patient does not exist !!\");\r\n\r\n        patients[index].ehr.setRequest(actorID,  _requestType);\r\n\r\n        // event to patient\r\n\r\n        return 0; // return the requestID\r\n    }\r\n\r\n    /** \r\n     * @dev Response to a request from associated patient.\r\n     * @param _requestID the request id \r\n     */\r\n    function setResponse(uint _requestID) public {\r\n        // check if this is trusted patient \r\n        (uint index, bool exist) = checkPatient(0, msg.sender);\r\n        require(exist, \"you are not a patient, permission denied !!\");\r\n\r\n        // response to request \r\n        patients[index].ehr.setResponse(_requestID);\r\n\r\n        // event to actor \r\n    }\r\n\r\n\r\n    /**\r\n    * ///////////////////////////////////////////////////////////////////////\r\n    *                    PUBLIC METHODS FOR EHR PURPOSE\r\n    * ///////////////////////////////////////////////////////////////////////\r\n    */\r\n\r\n    ////////////////////// FOR OWNER (patient)\r\n\r\n    function getNbOfEHRByOwner() public view returns (uint256) {\r\n        (uint index, bool exist) = checkPatient(0, msg.sender);\r\n        require(exist, \"You are not a Patient !!\");\r\n\r\n        return patients[index].ehr.ehrCount();\r\n    }\r\n\r\n    function getEHRbyOwner(uint _ehrID) view public returns (uint, string memory, string memory, string memory) {\r\n        (uint index, bool exist) = checkPatient(0, msg.sender);\r\n        require(exist, \"You are not a Patient !!\");\r\n\r\n        EHR.EHRAbstract memory temp = patients[index].ehr.getEHRAbstract(_ehrID);\r\n        \r\n        return (temp.actorID, temp.ehrHash, temp.ipfsHashAddress, temp.secretKey);\r\n    }\r\n\r\n    ////////////////////// FOR REQUEST (actor)\r\n\r\n    function shareEHR(uint _patientID, uint _requestID, string memory _hash, string memory _ipfsAddr, string memory _secretKey ) public {\r\n        // check if patient exist \r\n        (uint index, bool exist) = checkPatient(_patientID, address(0));\r\n        require(exist, \"patient does not exist !!\");\r\n\r\n        // check if actor exist and get the actor id\r\n        uint actorID = actor.getActorID(msg.sender);\r\n       \r\n        patients[index].ehr.addEHRAbstract(_requestID, actorID, _hash, _ipfsAddr, _secretKey);\r\n    }\r\n\r\n    function getNbOfEHRByActor(uint _patientID) public view returns (uint) {\r\n        (uint index, bool exist) = checkPatient(_patientID, address(0));\r\n        require(exist, \"Patient Does Not Exist!!\");\r\n\r\n        return patients[index].ehr.ehrCount();\r\n    }\r\n\r\n    function getEHRbyActor(uint _patientID, uint _requestID, uint _ehrID) view public returns (uint, string memory, string memory, string memory) {\r\n        // check if patient exist \r\n        (uint index, bool exist) = checkPatient(_patientID, address(0));\r\n        require(exist, \"patient does not exist !!\");\r\n\r\n        // check if actor exist and get the actor id\r\n        uint actorID = actor.getActorID(msg.sender);\r\n\r\n        EHR.EHRAbstract memory temp = patients[index].ehr.getEHRbyActor(_requestID, actorID, _ehrID);\r\n\r\n        return (temp.actorID, temp.ehrHash, temp.ipfsHashAddress, temp.secretKey);\r\n    }   \r\n\r\n\r\n}\r\n",
  "sourcePath": "F:\\ComputerScience\\projects\\PFE\\tutorial\\truffle projects\\EHR Share System\\contracts\\Patient.sol",
  "compiler": {
    "name": "solc",
    "version": "0.8.17+commit.8df45f5f.Emscripten.clang"
  },
  "schemaVersion": "3.4.11",
  "updatedAt": "2023-02-22T09:36:01.091Z",
  "networkType": "ethereum",
  "devdoc": {
    "details": "Implements Patient methods",
    "kind": "dev",
    "methods": {
      "sendRequest(uint256,uint8)": {
        "details": "Create a new request from an actor.",
        "params": {
          "_patientID": "this is a patient id",
          "_requestType": "the type of request CONSULT PUBLISH"
        }
      },
      "setResponse(uint256)": {
        "details": "Response to a request from associated patient.",
        "params": {
          "_requestID": "the request id "
        }
      }
    },
    "title": "Patient",
    "version": 1
  },
  "userdoc": {
    "kind": "user",
    "methods": {
      "checkPatient(uint256,address)": {
        "notice": "///////////////////////////////////////////////////////////////////////         PUBLIC METHODS FOR REGISTRATION PURPOSE (Authority only) ///////////////////////////////////////////////////////////////////////"
      },
      "getNbOfEHRByOwner()": {
        "notice": "///////////////////////////////////////////////////////////////////////                    PUBLIC METHODS FOR EHR PURPOSE ///////////////////////////////////////////////////////////////////////"
      },
      "getNumberOfRequest()": {
        "notice": "///////////////////////////////////////////////////////////////////////                PUBLIC METHODS FOR REQUEST PURPOSE ///////////////////////////////////////////////////////////////////////"
      }
    },
    "version": 1
  }
}