{
  "contractName": "Patient",
  "abi": [
    {
      "inputs": [
        {
          "internalType": "address",
          "name": "authorityAddress",
          "type": "address"
        },
        {
          "internalType": "address",
          "name": "actorAddress",
          "type": "address"
        }
      ],
      "stateMutability": "nonpayable",
      "type": "constructor"
    },
    {
      "inputs": [
        {
          "internalType": "uint256",
          "name": "_id",
          "type": "uint256"
        },
        {
          "internalType": "address",
          "name": "_address",
          "type": "address"
        }
      ],
      "name": "checkPatient",
      "outputs": [
        {
          "internalType": "uint256",
          "name": "",
          "type": "uint256"
        },
        {
          "internalType": "bool",
          "name": "",
          "type": "bool"
        }
      ],
      "stateMutability": "view",
      "type": "function",
      "constant": true
    },
    {
      "inputs": [],
      "name": "getNumberOfPatient",
      "outputs": [
        {
          "internalType": "uint256",
          "name": "",
          "type": "uint256"
        }
      ],
      "stateMutability": "view",
      "type": "function",
      "constant": true
    },
    {
      "inputs": [
        {
          "internalType": "uint256",
          "name": "_index",
          "type": "uint256"
        }
      ],
      "name": "getPatientByIndex",
      "outputs": [
        {
          "internalType": "uint256",
          "name": "",
          "type": "uint256"
        },
        {
          "internalType": "string",
          "name": "",
          "type": "string"
        },
        {
          "internalType": "address",
          "name": "",
          "type": "address"
        }
      ],
      "stateMutability": "view",
      "type": "function",
      "constant": true
    },
    {
      "inputs": [],
      "name": "getNumberOfRequest",
      "outputs": [
        {
          "internalType": "uint256",
          "name": "",
          "type": "uint256"
        }
      ],
      "stateMutability": "view",
      "type": "function",
      "constant": true
    },
    {
      "inputs": [
        {
          "internalType": "uint256",
          "name": "_requestID",
          "type": "uint256"
        }
      ],
      "name": "getRequestByIndex",
      "outputs": [
        {
          "internalType": "uint256",
          "name": "",
          "type": "uint256"
        },
        {
          "internalType": "uint256",
          "name": "",
          "type": "uint256"
        },
        {
          "internalType": "enum EHR.RequestType",
          "name": "",
          "type": "uint8"
        },
        {
          "internalType": "enum EHR.RequestState",
          "name": "",
          "type": "uint8"
        }
      ],
      "stateMutability": "view",
      "type": "function",
      "constant": true
    },
    {
      "inputs": [
        {
          "internalType": "uint256",
          "name": "_requestID",
          "type": "uint256"
        },
        {
          "internalType": "enum EHR.RequestState",
          "name": "_newState",
          "type": "uint8"
        }
      ],
      "name": "setResponse",
      "outputs": [],
      "stateMutability": "nonpayable",
      "type": "function"
    },
    {
      "inputs": [
        {
          "internalType": "uint256",
          "name": "_patientID",
          "type": "uint256"
        }
      ],
      "name": "verifyAuthorization",
      "outputs": [
        {
          "internalType": "enum EHR.RequestState",
          "name": "",
          "type": "uint8"
        },
        {
          "internalType": "uint256",
          "name": "",
          "type": "uint256"
        }
      ],
      "stateMutability": "view",
      "type": "function",
      "constant": true
    },
    {
      "inputs": [
        {
          "internalType": "uint256",
          "name": "_patientID",
          "type": "uint256"
        },
        {
          "internalType": "enum EHR.RequestType",
          "name": "_requestType",
          "type": "uint8"
        }
      ],
      "name": "sendRequest",
      "outputs": [
        {
          "internalType": "bool",
          "name": "",
          "type": "bool"
        }
      ],
      "stateMutability": "nonpayable",
      "type": "function"
    },
    {
      "inputs": [
        {
          "internalType": "uint256",
          "name": "_patientID",
          "type": "uint256"
        }
      ],
      "name": "getNbOfEHR",
      "outputs": [
        {
          "internalType": "uint256",
          "name": "",
          "type": "uint256"
        }
      ],
      "stateMutability": "view",
      "type": "function",
      "constant": true
    },
    {
      "inputs": [
        {
          "internalType": "uint256",
          "name": "_ehrID",
          "type": "uint256"
        },
        {
          "internalType": "uint256",
          "name": "_patientID",
          "type": "uint256"
        }
      ],
      "name": "getEHR",
      "outputs": [
        {
          "internalType": "uint256",
          "name": "",
          "type": "uint256"
        },
        {
          "internalType": "string",
          "name": "",
          "type": "string"
        },
        {
          "internalType": "string",
          "name": "",
          "type": "string"
        },
        {
          "internalType": "string",
          "name": "",
          "type": "string"
        }
      ],
      "stateMutability": "view",
      "type": "function",
      "constant": true
    },
    {
      "inputs": [
        {
          "internalType": "uint256",
          "name": "_patientID",
          "type": "uint256"
        },
        {
          "internalType": "uint256",
          "name": "_requestID",
          "type": "uint256"
        },
        {
          "internalType": "string",
          "name": "_hash",
          "type": "string"
        },
        {
          "internalType": "string",
          "name": "_ipfsAddr",
          "type": "string"
        },
        {
          "internalType": "string",
          "name": "_secretKey",
          "type": "string"
        }
      ],
      "name": "shareEHR",
      "outputs": [],
      "stateMutability": "nonpayable",
      "type": "function"
    },
    {
      "inputs": [
        {
          "internalType": "uint256",
          "name": "_id",
          "type": "uint256"
        },
        {
          "internalType": "string",
          "name": "_name",
          "type": "string"
        },
        {
          "internalType": "address",
          "name": "_account",
          "type": "address"
        },
        {
          "internalType": "string",
          "name": "_pKey",
          "type": "string"
        }
      ],
      "name": "addPatient",
      "outputs": [],
      "stateMutability": "nonpayable",
      "type": "function"
    },
    {
      "inputs": [
        {
          "internalType": "uint256",
          "name": "_id",
          "type": "uint256"
        }
      ],
      "name": "rmPatient",
      "outputs": [],
      "stateMutability": "nonpayable",
      "type": "function"
    }
  ],
  "bytecode": "0x60806040523480156200001157600080fd5b506040516200554d3803806200554d8339810160408190526200003491620001fa565b60008054600160a060020a03808516600160a060020a03199283161790925560018054928416929091169190911790556040805160a0810182526014815281518083018352600581527f626164726f0000000000000000000000000000000000000000000000000000006020828101919091528201527387c8ea2f6ef914766609df6c776e65b191f97ef8818301529051600291906060820190620000d990620001cf565b604051809103906000f080158015620000f6573d6000803e3d6000fd5b50600160a060020a0316815260408051808201909152600a81527f7075626c69635f6b65790000000000000000000000000000000000000000000060208281019190915291820152825460018181018555600094855293829020835160059092020190815590820151919290919082019062000173908262000309565b506040820151600282018054600160a060020a03928316600160a060020a031991821617909155606084015160038401805491909316911617905560808201516004820190620001c4908262000309565b5050505050620003dc565b6117628062003deb83390190565b8051600160a060020a0381168114620001f557600080fd5b919050565b600080604083850312156200020e57600080fd5b6200021983620001dd565b91506200022960208401620001dd565b90509250929050565b7f4e487b7100000000000000000000000000000000000000000000000000000000600052604160045260246000fd5b6002810460018216806200027657607f821691505b602082108103620002b0577f4e487b7100000000000000000000000000000000000000000000000000000000600052602260045260246000fd5b50919050565b601f82111562000304576000818152602081206020601f86010481016020861015620002df5750805b6020601f860104820191505b818110156200030057828155600101620002eb565b5050505b505050565b815167ffffffffffffffff81111562000326576200032662000232565b6200033e8162000337845462000261565b84620002b6565b602080601f8311600181146200037a57600084156200035d5750858301515b60028086026008870290910a600019041982161786555062000300565b600085815260208120601f198616915b82811015620003ab578886015182559484019460019091019084016200038a565b5085821015620003cc57878501516008601f88160260020a60001904191681555b5050505050600202600101905550565b6139ff80620003ec6000396000f3fe60806040523480156200001157600080fd5b5060043610620000fd576000357c0100000000000000000000000000000000000000000000000000000000900480636d052b3711620000b45780639b4fd9a6116200008b5780639b4fd9a61462000239578063c4113ed31462000250578063dbbe7c211462000259578063e28d73a0146200027057600080fd5b80636d052b3714620001d057806397a444e214620001f957806398ad1b95146200022257600080fd5b806307f1683b146200010257806327fcf2be146200011b5780633f2c0e35146200014b5780634053bbac146200016457806349bf3afb146200017b57806357ea0c2f14620001a8575b600080fd5b62000119620001133660046200189f565b62000298565b005b620001326200012c36600462001945565b62000420565b604051620001429291906200198f565b60405180910390f35b62000155620005c1565b60405190815260200162000142565b620001196200017536600462001945565b620006dc565b620001926200018c366004620019c2565b6200094d565b6040805192835290151560208301520162000142565b620001bf620001b936600462001945565b62000a05565b604051620001429392919062001a49565b620001e7620001e136600462001945565b62000b8b565b60405162000142949392919062001a90565b620002106200020a36600462001ac5565b62000cb8565b60405162000142949392919062001ae8565b620001196200023336600462001b46565b6200109f565b620001556200024a36600462001945565b620011d9565b60025462000155565b620001196200026a36600462001b6e565b620012f4565b620002876200028136600462001c07565b62001562565b604051901515815260200162000142565b600080620002a88760006200094d565b9150915080620002d85760405160e560020a62461bcd028152600401620002cf9062001c2f565b60405180910390fd5b60015460405160e060020a634138d167028152336004820152600091600160a060020a031690634138d16790602401600060405180830381865afa15801562000325573d6000803e3d6000fd5b505050506040513d6000823e601f3d908101601f191682016040526200034f919081019062001cb2565b600001519050600283815481106200036b576200036b62001d77565b60009182526020909120600360059092020101546040517fe6358697000000000000000000000000000000000000000000000000000000008152600160a060020a039091169063e635869790620003cf908a9085908b908b908b9060040162001d90565b6020604051808303816000875af1158015620003ef573d6000803e3d6000fd5b505050506040513d601f19601f8201168201806040525081019062000415919062001de7565b505050505050505050565b600080600080620004338560006200094d565b9150915080620004895760405160e560020a62461bcd02815260206004820152601f60248201527f546869732070617469656e7420646f6573206e6f7420657869737420212120006044820152606401620002cf565b60015460405160e060020a634138d167028152336004820152600091600160a060020a031690634138d16790602401600060405180830381865afa158015620004d6573d6000803e3d6000fd5b505050506040513d6000823e601f3d908101601f1916820160405262000500919081019062001cb2565b600001519050600283815481106200051c576200051c62001d77565b60009182526020909120600590910201600301546040517fcc541a6800000000000000000000000000000000000000000000000000000000815260048101839052600160a060020a039091169063cc541a68906024016040805180830381865afa1580156200058f573d6000803e3d6000fd5b505050506040513d601f19601f82011682018060405250810190620005b5919062001e01565b94509450505050915091565b6000806000620005d36000336200094d565b9150915080620006295760405160e560020a62461bcd02815260206004820152601860248201527f596f7520617265206e6f7420612070617469656e7420212100000000000000006044820152606401620002cf565b600282815481106200063f576200063f62001d77565b600091825260209182902060036005909202010154604080517f3f2c0e350000000000000000000000000000000000000000000000000000000081529051600160a060020a0390921692633f2c0e35926004808401938290030181865afa158015620006af573d6000803e3d6000fd5b505050506040513d601f19601f82011682018060405250810190620006d5919062001de7565b9250505090565b600080546040517f134e91ac0000000000000000000000000000000000000000000000000000000081523360048201528291600160a060020a03169063134e91ac906024016040805180830381865afa1580156200073e573d6000803e3d6000fd5b505050506040513d601f19601f8201168201806040525081019062000764919062001e32565b9150915080620007ba5760405160e560020a62461bcd02815260206004820152601a60248201527f43616c6c65722068617665206e6f74207065726d657373696f6e0000000000006044820152606401620002cf565b600080620007ca8560006200094d565b9092509050600181151514620007f75760405160e560020a62461bcd028152600401620002cf9062001c2f565b60028054620008099060019062001e77565b815481106200081c576200081c62001d77565b90600052602060002090600502016002838154811062000840576200084062001d77565b600091825260209091208254600590920201908155600180820190620008699084018262001f1f565b506002828101549082018054600160a060020a0392831673ffffffffffffffffffffffffffffffffffffffff19918216179091556003808501549084018054919093169116179055600480820190620008c59084018262001f1f565b509050506002805480620008dd57620008dd62002016565b600082815260208120600560001990930192830201818155906200090560018301826200170e565b60028201805473ffffffffffffffffffffffffffffffffffffffff199081169091556003830180549091169055620009426004830160006200170e565b505090555050505050565b60008060008060005b600254811015620009f957866002828154811062000978576200097862001d77565b9060005260206000209060050201600001541480620009d1575085600160a060020a031660028281548110620009b257620009b262001d77565b6000918252602090912060026005909202010154600160a060020a0316145b15620009e45760019150809250620009f9565b80620009f0816200202f565b91505062000956565b50909590945092505050565b6000606081600254841062000a605760405160e560020a62461bcd02815260206004820152600d60248201527f57726f6e6720696e6465782121000000000000000000000000000000000000006044820152606401620002cf565b6002848154811062000a765762000a7662001d77565b9060005260206000209060050201600001546002858154811062000a9e5762000a9e62001d77565b90600052602060002090600502016001016002868154811062000ac55762000ac562001d77565b906000526020600020906005020160020160009054906101000a9004600160a060020a031681805462000af89062001e8d565b80601f016020809104026020016040519081016040528092919081815260200182805462000b269062001e8d565b801562000b775780601f1062000b4b5761010080835404028352916020019162000b77565b820191906000526020600020905b81548152906001019060200180831162000b5957829003601f168201915b505050505091509250925092509193909250565b60008060008060008062000ba16000336200094d565b915091508062000bf75760405160e560020a62461bcd02815260206004820152601860248201527f596f7520617265206e6f7420612070617469656e7420212100000000000000006044820152606401620002cf565b6002828154811062000c0d5762000c0d62001d77565b60009182526020909120600590910201600301546040517f6d052b3700000000000000000000000000000000000000000000000000000000815260048101899052600160a060020a0390911690636d052b3790602401608060405180830381865afa15801562000c81573d6000803e3d6000fd5b505050506040513d601f19601f8201168201806040525081019062000ca791906200204b565b955095509550955050509193509193565b6000606080606060008062000ccf6000336200094d565b91509150801562000db75760006002838154811062000cf25762000cf262001d77565b60009182526020909120600590910201600301546040517f8f823dfe000000000000000000000000000000000000000000000000000000008152600481018b9052600160a060020a0390911690638f823dfe90602401600060405180830381865afa15801562000d66573d6000803e3d6000fd5b505050506040513d6000823e601f3d908101601f1916820160405262000d9091908101906200209b565b90508060000151816020015182604001518360600151965096509650965050505062001096565b62000dc48760006200094d565b90925090508062000dec5760405160e560020a62461bcd028152600401620002cf9062001c2f565b60015460405160e060020a634138d167028152336004820152600091600160a060020a031690634138d16790602401600060405180830381865afa15801562000e39573d6000803e3d6000fd5b505050506040513d6000823e601f3d908101601f1916820160405262000e63919081019062001cb2565b6000015190506000806002858154811062000e825762000e8262001d77565b60009182526020909120600590910201600301546040517fcc541a6800000000000000000000000000000000000000000000000000000000815260048101859052600160a060020a039091169063cc541a68906024016040805180830381865afa15801562000ef5573d6000803e3d6000fd5b505050506040513d601f19601f8201168201806040525081019062000f1b919062001e01565b9092509050600082600381111562000f375762000f376200195f565b1462000faf5760405160e560020a62461bcd02815260206004820152603d60248201527f5065726d697373696f6e2064656e69656420212120706c65617365207265717560448201527f6573742070617469656e7420666f7220636f6e73756c74696e672e2e2e0000006064820152608401620002cf565b60006002868154811062000fc75762000fc762001d77565b60009182526020909120600360059092020101546040517fdf5ff3540000000000000000000000000000000000000000000000000000000081526004810184905260248101869052604481018e9052600160a060020a039091169063df5ff35490606401600060405180830381865afa15801562001049573d6000803e3d6000fd5b505050506040513d6000823e601f3d908101601f191682016040526200107391908101906200209b565b805160208201516040830151606090930151919c509a5090985096505050505050505b92959194509250565b600080620010af6000336200094d565b91509150806200112b5760405160e560020a62461bcd02815260206004820152602b60248201527f796f7520617265206e6f7420612070617469656e742c207065726d697373696f60448201527f6e2064656e6965642021210000000000000000000000000000000000000000006064820152608401620002cf565b6002828154811062001141576200114162001d77565b60009182526020909120600360059092020101546040517f98ad1b95000000000000000000000000000000000000000000000000000000008152600160a060020a03909116906398ad1b95906200119f908790879060040162002168565b600060405180830381600087803b158015620011ba57600080fd5b505af1158015620011cf573d6000803e3d6000fd5b5050505050505050565b6000806000620011ea84336200094d565b9150915080620012405760405160e560020a62461bcd02815260206004820152601e60248201527f546869732070617469656e7420646f6573206e6f7420657869737420212100006044820152606401620002cf565b6002828154811062001256576200125662001d77565b600091825260209182902060036005909202010154604080517f7cd7710d0000000000000000000000000000000000000000000000000000000081529051600160a060020a0390921692637cd7710d926004808401938290030181865afa158015620012c6573d6000803e3d6000fd5b505050506040513d601f19601f82011682018060405250810190620012ec919062001de7565b949350505050565b600080546040517f134e91ac0000000000000000000000000000000000000000000000000000000081523360048201528291600160a060020a03169063134e91ac906024016040805180830381865afa15801562001356573d6000803e3d6000fd5b505050506040513d601f19601f820116820180604052508101906200137c919062001e32565b9150915080620013d25760405160e560020a62461bcd02815260206004820152601a60248201527f43616c6c65722068617665206e6f74207065726d657373696f6e0000000000006044820152606401620002cf565b6000620013e087866200094d565b91505080156200145c5760405160e560020a62461bcd02815260206004820152602660248201527f70617469656e74206964206f72206163636f756e7420616c726561647920657860448201527f69737420212100000000000000000000000000000000000000000000000000006064820152608401620002cf565b60026040518060a0016040528089815260200188815260200187600160a060020a03168152602001604051620014929062001750565b604051809103906000f080158015620014af573d6000803e3d6000fd5b50600160a060020a0316815260209081018790528254600181810185556000948552938290208351600590920201908155908201519192909190820190620014f8908262002185565b506040820151600282018054600160a060020a0392831673ffffffffffffffffffffffffffffffffffffffff199182161790915560608401516003840180549190931691161790556080820151600482019062001556908262002185565b50505050505050505050565b60015460405160e060020a634138d1670281523360048201526000918291600160a060020a0390911690634138d16790602401600060405180830381865afa158015620015b3573d6000803e3d6000fd5b505050506040513d6000823e601f3d908101601f19168201604052620015dd919081019062001cb2565b519050600080620015ef86826200094d565b9150915080620016455760405160e560020a62461bcd02815260206004820152601960248201527f50617469656e7420646f6573206e6f74206578697374202121000000000000006044820152606401620002cf565b600282815481106200165b576200165b62001d77565b60009182526020909120600360059092020101546040517f23c31473000000000000000000000000000000000000000000000000000000008152600160a060020a03909116906323c3147390620016b9908690899060040162002251565b6020604051808303816000875af1158015620016d9573d6000803e3d6000fd5b505050506040513d601f19601f82011682018060405250810190620016ff919062001de7565b50600193505050505b92915050565b5080546200171c9062001e8d565b6000825580601f106200172d575050565b601f0160209004906000526020600020908101906200174d91906200175e565b50565b611762806200226883390190565b5b808211156200177557600081556001016200175f565b5090565b60e060020a634e487b7102600052604160045260246000fd5b60405160a0810167ffffffffffffffff81118282101715620017b857620017b862001779565b60405290565b6040516080810167ffffffffffffffff81118282101715620017b857620017b862001779565b604051601f8201601f1916810167ffffffffffffffff8111828210171562001810576200181062001779565b604052919050565b600067ffffffffffffffff82111562001835576200183562001779565b50601f01601f191660200190565b600082601f8301126200185557600080fd5b81356200186c620018668262001818565b620017e4565b8181528460208386010111156200188257600080fd5b816020850160208301376000918101602001919091529392505050565b600080600080600060a08688031215620018b857600080fd5b8535945060208601359350604086013567ffffffffffffffff80821115620018df57600080fd5b620018ed89838a0162001843565b945060608801359150808211156200190457600080fd5b6200191289838a0162001843565b935060808801359150808211156200192957600080fd5b50620019388882890162001843565b9150509295509295909350565b6000602082840312156200195857600080fd5b5035919050565b60e060020a634e487b7102600052602160045260246000fd5b600481106200198b576200198b6200195f565b9052565b604081016200199f828562001978565b8260208301529392505050565b600160a060020a03811681146200174d57600080fd5b60008060408385031215620019d657600080fd5b823591506020830135620019ea81620019ac565b809150509250929050565b60005b8381101562001a12578181015183820152602001620019f8565b50506000910152565b6000815180845262001a35816020860160208601620019f5565b601f01601f19169290920160200192915050565b83815260606020820152600062001a64606083018562001a1b565b9050600160a060020a0383166040830152949350505050565b600281106200198b576200198b6200195f565b848152602081018490526080810162001aad604083018562001a7d565b62001abc606083018462001978565b95945050505050565b6000806040838503121562001ad957600080fd5b50508035926020909101359150565b84815260806020820152600062001b03608083018662001a1b565b828103604084015262001b17818662001a1b565b9050828103606084015262001b2d818562001a1b565b979650505050505050565b600481106200174d57600080fd5b6000806040838503121562001b5a57600080fd5b823591506020830135620019ea8162001b38565b6000806000806080858703121562001b8557600080fd5b84359350602085013567ffffffffffffffff8082111562001ba557600080fd5b62001bb38883890162001843565b94506040870135915062001bc782620019ac565b9092506060860135908082111562001bde57600080fd5b5062001bed8782880162001843565b91505092959194509250565b600281106200174d57600080fd5b6000806040838503121562001c1b57600080fd5b823591506020830135620019ea8162001bf9565b60208082526019908201527f70617469656e7420646f6573206e6f7420657869737420212100000000000000604082015260600190565b600082601f83011262001c7857600080fd5b815162001c89620018668262001818565b81815284602083860101111562001c9f57600080fd5b620012ec826020830160208701620019f5565b60006020828403121562001cc557600080fd5b815167ffffffffffffffff8082111562001cde57600080fd5b9083019060a0828603121562001cf357600080fd5b62001cfd62001792565b825181526020830151602082015260408301518281111562001d1e57600080fd5b62001d2c8782860162001c66565b604083015250606083015162001d4281620019ac565b606082015260808301518281111562001d5a57600080fd5b62001d688782860162001c66565b60808301525095945050505050565b60e060020a634e487b7102600052603260045260246000fd5b85815284602082015260a06040820152600062001db160a083018662001a1b565b828103606084015262001dc5818662001a1b565b9050828103608084015262001ddb818562001a1b565b98975050505050505050565b60006020828403121562001dfa57600080fd5b5051919050565b6000806040838503121562001e1557600080fd5b825162001e228162001b38565b6020939093015192949293505050565b6000806040838503121562001e4657600080fd5b8251915060208301518015158114620019ea57600080fd5b60e060020a634e487b7102600052601160045260246000fd5b8181038181111562001708576200170862001e5e565b60028104600182168062001ea257607f821691505b60208210810362001ec65760e060020a634e487b7102600052602260045260246000fd5b50919050565b601f82111562001f1a576000818152602081206020601f8601048101602086101562001ef55750805b6020601f860104820191505b8181101562001f165782815560010162001f01565b5050505b505050565b81810362001f2b575050565b62001f37825462001e8d565b67ffffffffffffffff81111562001f525762001f5262001779565b62001f6a8162001f63845462001e8d565b8462001ecc565b6000601f82116001811462001fa5576000831562001f885750848201545b60028085026008860290910a60001904198216178555506200200f565b600085815260209020601f19841690600086815260209020845b8381101562001fe1578286015482556001958601959091019060200162001fbf565b50858310156200200257818501546008601f88160260020a60001904191681555b5050506001600284020184555b5050505050565b60e060020a634e487b7102600052603160045260246000fd5b60006001820162002044576200204462001e5e565b5060010190565b600080600080608085870312156200206257600080fd5b845193506020850151925060408501516200207d8162001bf9565b6060860151909250620020908162001b38565b939692955090935050565b600060208284031215620020ae57600080fd5b815167ffffffffffffffff80821115620020c757600080fd5b9083019060808286031215620020dc57600080fd5b620020e6620017be565b82518152602083015182811115620020fd57600080fd5b6200210b8782860162001c66565b6020830152506040830151828111156200212457600080fd5b620021328782860162001c66565b6040830152506060830151828111156200214b57600080fd5b620021598782860162001c66565b60608301525095945050505050565b828152604081016200217e602083018462001978565b9392505050565b815167ffffffffffffffff811115620021a257620021a262001779565b620021b38162001f63845462001e8d565b602080601f831160018114620021ef5760008415620021d25750858301515b60028086026008870290910a600019041982161786555062001f16565b600085815260208120601f198616915b828110156200222057888601518255948401946001909101908401620021ff565b50858210156200224157878501516008601f88160260020a60001904191681555b5050505050600202600101905550565b828152604081016200217e602083018462001a7d56fe608060405260006002553480156200001657600080fd5b506002805490600062000029836200025c565b91905055506040518060800160405280600081526020016040518060400160405280600481526020017f746573740000000000000000000000000000000000000000000000000000000081525081526020016040518060400160405280600b81526020017f48656c6c6f20776f726c6400000000000000000000000000000000000000000081525081526020016040518060400160405280600481526020017f746573740000000000000000000000000000000000000000000000000000000081525081525060016000600254815260200190815260200160002060008201518160000155602082015181600101908162000125919062000374565b50604082015160028201906200013c908262000374565b506060820151600382019062000153908262000374565b50506040805160808101825260178152426020820190815260019282018381526002606084015260008054808601825590805283517f290decd9548b62a8d60345a988386fc84ba6bc95484008f6362f93160ef3e563600390920291820190815592517f290decd9548b62a8d60345a988386fc84ba6bc95484008f6362f93160ef3e56482015590517f290decd9548b62a8d60345a988386fc84ba6bc95484008f6362f93160ef3e56590910180549395509193909260ff191690838181111562000222576200022262000447565b0217905550606082015160028201805461ff0019166101008360038111156200024f576200024f62000447565b0217905550505062000476565b60006001820162000296577f4e487b7100000000000000000000000000000000000000000000000000000000600052601160045260246000fd5b5060010190565b7f4e487b7100000000000000000000000000000000000000000000000000000000600052604160045260246000fd5b600281046001821680620002e157607f821691505b6020821081036200031b577f4e487b7100000000000000000000000000000000000000000000000000000000600052602260045260246000fd5b50919050565b601f8211156200036f576000818152602081206020601f860104810160208610156200034a5750805b6020601f860104820191505b818110156200036b5782815560010162000356565b5050505b505050565b815167ffffffffffffffff8111156200039157620003916200029d565b620003a981620003a28454620002cc565b8462000321565b602080601f831160018114620003e55760008415620003c85750858301515b60028086026008870290910a60001904198216178655506200036b565b600085815260208120601f198616915b828110156200041657888601518255948401946001909101908401620003f5565b50858210156200043757878501516008601f88160260020a60001904191681555b5050505050600202600101905550565b7f4e487b7100000000000000000000000000000000000000000000000000000000600052602160045260246000fd5b6112dc80620004866000396000f3fe608060405234801561001057600080fd5b50600436106100c6576000357c0100000000000000000000000000000000000000000000000000000000900480637cd7710d1161008e5780637cd7710d1461016d5780638f823dfe1461017657806398ad1b9514610196578063cc541a68146101ab578063df5ff354146101cc578063e6358697146101df57600080fd5b806308d19b8b146100cb57806323c31473146100f75780633f2c0e351461011857806340c57998146101205780636d052b371461014a575b600080fd5b6100de6100d9366004610cfc565b6101f2565b6040516100ee9493929190610d5b565b60405180910390f35b61010a610105366004610da5565b6103b2565b6040519081526020016100ee565b60005461010a565b61013361012e366004610cfc565b610478565b6040805192151583529015156020830152016100ee565b61015d610158366004610cfc565b61052f565b6040516100ee9493929190610e06565b61010a60025481565b610189610184366004610cfc565b610644565b6040516100ee9190610e37565b6101a96101a4366004610e99565b6108ae565b005b6101be6101b9366004610cfc565b61095c565b6040516100ee929190610ec2565b6101896101da366004610edd565b610a67565b61010a6101ed366004610faf565b610b81565b6001602081905260009182526040909120805491810180546102139061104b565b80601f016020809104026020016040519081016040528092919081815260200182805461023f9061104b565b801561028c5780601f106102615761010080835404028352916020019161028c565b820191906000526020600020905b81548152906001019060200180831161026f57829003601f168201915b5050505050908060020180546102a19061104b565b80601f01602080910402602001604051908101604052809291908181526020018280546102cd9061104b565b801561031a5780601f106102ef5761010080835404028352916020019161031a565b820191906000526020600020905b8154815290600101906020018083116102fd57829003601f168201915b50505050509080600301805461032f9061104b565b80601f016020809104026020016040519081016040528092919081815260200182805461035b9061104b565b80156103a85780601f1061037d576101008083540402835291602001916103a8565b820191906000526020600020905b81548152906001019060200180831161038b57829003601f168201915b5050505050905084565b600080546040805160808101825285815242602082018190529184919081018660018111156103e3576103e3610dd9565b8152602001600290528154600181810184556000938452602093849020835160039093020191825592820151818401556040820151600282018054939492939192909160ff191690838181111561043c5761043c610dd9565b0217905550606082015160028201805461ff00191661010083600381111561046657610466610dd9565b02179055509293505050505b92915050565b6000806000429050600080858154811061049457610494611088565b906000526020600020906003020160010154826104b191906110ba565b9050620151808111156104cb575060009485945092505050565b60008086815481106104df576104df611088565b906000526020600020906003020160020160019054906101000a900460ff16600381111561050f5761050f610dd9565b03610521575060019485945092505050565b506001946000945092505050565b6000808080600054851061058d5760405160e560020a62461bcd02815260206004820152601a60248201527f57524f4e4720494e44455820464f52205245515545535420212100000000000060448201526064015b60405180910390fd5b600085815481106105a0576105a0611088565b906000526020600020906003020160000154600086815481106105c5576105c5611088565b906000526020600020906003020160010154600087815481106105ea576105ea611088565b60009182526020822060026003909202010154815460ff90911691908990811061061657610616611088565b906000526020600020906003020160020160019054906101000a900460ff1693509350935093509193509193565b61066f6040518060800160405280600081526020016060815260200160608152602001606081525090565b60008211801561068157506002548211155b6106d05760405160e560020a62461bcd02815260206004820152601560248201527f45485220646f6573206e6f7420657869737420212100000000000000000000006044820152606401610584565b600082815260016020818152604092839020835160808101909452805484529182018054918401916107019061104b565b80601f016020809104026020016040519081016040528092919081815260200182805461072d9061104b565b801561077a5780601f1061074f5761010080835404028352916020019161077a565b820191906000526020600020905b81548152906001019060200180831161075d57829003601f168201915b505050505081526020016002820180546107939061104b565b80601f01602080910402602001604051908101604052809291908181526020018280546107bf9061104b565b801561080c5780601f106107e15761010080835404028352916020019161080c565b820191906000526020600020905b8154815290600101906020018083116107ef57829003601f168201915b505050505081526020016003820180546108259061104b565b80601f01602080910402602001604051908101604052809291908181526020018280546108519061104b565b801561089e5780601f106108735761010080835404028352916020019161089e565b820191906000526020600020905b81548152906001019060200180831161088157829003601f168201915b5050505050815250509050919050565b60006108b983610478565b5090508061090c5760405160e560020a62461bcd02815260206004820152601960248201527f5265717565737420646f6573206e6f74206578697374202121000000000000006044820152606401610584565b816000848154811061092057610920611088565b906000526020600020906003020160020160016101000a81548160ff0219169083600381111561095257610952610dd9565b0217905550505050565b60008054819042905b8015610a59578460006109796001846110ba565b8154811061098957610989611088565b90600052602060002090600302016000015403610a47576000806109ae6001846110ba565b815481106109be576109be611088565b906000526020600020906003020160010154836109db91906110ba565b9050620151808111156109f75750600395600095509350505050565b6000610a046001846110ba565b81548110610a1457610a14611088565b6000918252602090912060039091020160020154610100900460ff16610a3b6001846110ba565b94509450505050915091565b80610a51816110cd565b915050610965565b506002946000945092505050565b610a926040518060800160405280600081526020016060815260200160608152602001606081525090565b600080610a9e86610478565b91509150818015610aac5750805b610acb5760405160e560020a62461bcd028152600401610584906110e4565b8460008781548110610adf57610adf611088565b90600052602060002090600302016000015414610b115760405160e560020a62461bcd02815260040161058490611141565b600160008781548110610b2657610b26611088565b600091825260209091206002600390920201015460ff166001811115610b4e57610b4e610dd9565b14610b6e5760405160e560020a62461bcd02815260040161058490611141565b610b7784610644565b9695505050505050565b6000806000610b8f88610478565b91509150818015610b9d5750805b610bbc5760405160e560020a62461bcd028152600401610584906110e4565b8660008981548110610bd057610bd0611088565b90600052602060002090600302016000015414610c025760405160e560020a62461bcd02815260040161058490611141565b6000808981548110610c1657610c16611088565b600091825260209091206002600390920201015460ff166001811115610c3e57610c3e610dd9565b14610c5e5760405160e560020a62461bcd02815260040161058490611141565b60028054906000610c6e83611178565b90915550506040805160808101825288815260208082018981528284018990526060830188905260025460009081526001928390529390932082518155925191929190820190610cbe90826111e0565b5060408201516002820190610cd390826111e0565b5060608201516003820190610ce890826111e0565b505060025493505050505b95945050505050565b600060208284031215610d0e57600080fd5b5035919050565b6000815180845260005b81811015610d3b57602081850181015186830182015201610d1f565b506000602082860101526020601f19601f83011685010191505092915050565b848152608060208201526000610d746080830186610d15565b8281036040840152610d868186610d15565b90508281036060840152610d9a8185610d15565b979650505050505050565b60008060408385031215610db857600080fd5b82359150602083013560028110610dce57600080fd5b809150509250929050565b60e060020a634e487b7102600052602160045260246000fd5b60048110610e0257610e02610dd9565b9052565b848152602081018490526080810160028410610e2457610e24610dd9565b836040830152610cf36060830184610df2565b60208152815160208201526000602083015160806040840152610e5d60a0840182610d15565b90506040840151601f1980858403016060860152610e7b8383610d15565b9250606086015191508085840301608086015250610cf38282610d15565b60008060408385031215610eac57600080fd5b82359150602083013560048110610dce57600080fd5b60408101610ed08285610df2565b8260208301529392505050565b600080600060608486031215610ef257600080fd5b505081359360208301359350604090920135919050565b60e060020a634e487b7102600052604160045260246000fd5b600082601f830112610f3357600080fd5b813567ffffffffffffffff80821115610f4e57610f4e610f09565b604051601f8301601f19908116603f01168101908282118183101715610f7657610f76610f09565b81604052838152866020858801011115610f8f57600080fd5b836020870160208301376000602085830101528094505050505092915050565b600080600080600060a08688031215610fc757600080fd5b8535945060208601359350604086013567ffffffffffffffff80821115610fed57600080fd5b610ff989838a01610f22565b9450606088013591508082111561100f57600080fd5b61101b89838a01610f22565b9350608088013591508082111561103157600080fd5b5061103e88828901610f22565b9150509295509295909350565b60028104600182168061105f57607f821691505b6020821081036110825760e060020a634e487b7102600052602260045260246000fd5b50919050565b60e060020a634e487b7102600052603260045260246000fd5b60e060020a634e487b7102600052601160045260246000fd5b81810381811115610472576104726110a1565b6000816110dc576110dc6110a1565b506000190190565b6020808252602e908201527f5265717565737420646f6573206e6f74206578697374206f7220646f6573206e60408201527f6f74206163636570746564202121000000000000000000000000000000000000606082015260800190565b60208082526014908201527f7065726d697373696f6e2064656e696564202121000000000000000000000000604082015260600190565b60006001820161118a5761118a6110a1565b5060010190565b601f8211156111db576000818152602081206020601f860104810160208610156111b85750805b6020601f860104820191505b818110156111d7578281556001016111c4565b5050505b505050565b815167ffffffffffffffff8111156111fa576111fa610f09565b61120e81611208845461104b565b84611191565b602080601f831160018114611247576000841561122b5750858301515b60028086026008870290910a60001904198216178655506111d7565b600085815260208120601f198616915b8281101561127657888601518255948401946001909101908401611257565b508582101561129657878501516008601f88160260020a60001904191681555b505050505060020260010190555056fea2646970667358221220305d8a800a8ef293391d58b5d2c6904eb1028ec7b0e2a8ec464d4308638723ba64736f6c63430008110033a26469706673582212205b370334e4754cb9174d5f0fd59d3d1976edc4ef1cb71ce3a057193af8f8873464736f6c63430008110033608060405260006002553480156200001657600080fd5b506002805490600062000029836200025c565b91905055506040518060800160405280600081526020016040518060400160405280600481526020017f746573740000000000000000000000000000000000000000000000000000000081525081526020016040518060400160405280600b81526020017f48656c6c6f20776f726c6400000000000000000000000000000000000000000081525081526020016040518060400160405280600481526020017f746573740000000000000000000000000000000000000000000000000000000081525081525060016000600254815260200190815260200160002060008201518160000155602082015181600101908162000125919062000374565b50604082015160028201906200013c908262000374565b506060820151600382019062000153908262000374565b50506040805160808101825260178152426020820190815260019282018381526002606084015260008054808601825590805283517f290decd9548b62a8d60345a988386fc84ba6bc95484008f6362f93160ef3e563600390920291820190815592517f290decd9548b62a8d60345a988386fc84ba6bc95484008f6362f93160ef3e56482015590517f290decd9548b62a8d60345a988386fc84ba6bc95484008f6362f93160ef3e56590910180549395509193909260ff191690838181111562000222576200022262000447565b0217905550606082015160028201805461ff0019166101008360038111156200024f576200024f62000447565b0217905550505062000476565b60006001820162000296577f4e487b7100000000000000000000000000000000000000000000000000000000600052601160045260246000fd5b5060010190565b7f4e487b7100000000000000000000000000000000000000000000000000000000600052604160045260246000fd5b600281046001821680620002e157607f821691505b6020821081036200031b577f4e487b7100000000000000000000000000000000000000000000000000000000600052602260045260246000fd5b50919050565b601f8211156200036f576000818152602081206020601f860104810160208610156200034a5750805b6020601f860104820191505b818110156200036b5782815560010162000356565b5050505b505050565b815167ffffffffffffffff8111156200039157620003916200029d565b620003a981620003a28454620002cc565b8462000321565b602080601f831160018114620003e55760008415620003c85750858301515b60028086026008870290910a60001904198216178655506200036b565b600085815260208120601f198616915b828110156200041657888601518255948401946001909101908401620003f5565b50858210156200043757878501516008601f88160260020a60001904191681555b5050505050600202600101905550565b7f4e487b7100000000000000000000000000000000000000000000000000000000600052602160045260246000fd5b6112dc80620004866000396000f3fe608060405234801561001057600080fd5b50600436106100c6576000357c0100000000000000000000000000000000000000000000000000000000900480637cd7710d1161008e5780637cd7710d1461016d5780638f823dfe1461017657806398ad1b9514610196578063cc541a68146101ab578063df5ff354146101cc578063e6358697146101df57600080fd5b806308d19b8b146100cb57806323c31473146100f75780633f2c0e351461011857806340c57998146101205780636d052b371461014a575b600080fd5b6100de6100d9366004610cfc565b6101f2565b6040516100ee9493929190610d5b565b60405180910390f35b61010a610105366004610da5565b6103b2565b6040519081526020016100ee565b60005461010a565b61013361012e366004610cfc565b610478565b6040805192151583529015156020830152016100ee565b61015d610158366004610cfc565b61052f565b6040516100ee9493929190610e06565b61010a60025481565b610189610184366004610cfc565b610644565b6040516100ee9190610e37565b6101a96101a4366004610e99565b6108ae565b005b6101be6101b9366004610cfc565b61095c565b6040516100ee929190610ec2565b6101896101da366004610edd565b610a67565b61010a6101ed366004610faf565b610b81565b6001602081905260009182526040909120805491810180546102139061104b565b80601f016020809104026020016040519081016040528092919081815260200182805461023f9061104b565b801561028c5780601f106102615761010080835404028352916020019161028c565b820191906000526020600020905b81548152906001019060200180831161026f57829003601f168201915b5050505050908060020180546102a19061104b565b80601f01602080910402602001604051908101604052809291908181526020018280546102cd9061104b565b801561031a5780601f106102ef5761010080835404028352916020019161031a565b820191906000526020600020905b8154815290600101906020018083116102fd57829003601f168201915b50505050509080600301805461032f9061104b565b80601f016020809104026020016040519081016040528092919081815260200182805461035b9061104b565b80156103a85780601f1061037d576101008083540402835291602001916103a8565b820191906000526020600020905b81548152906001019060200180831161038b57829003601f168201915b5050505050905084565b600080546040805160808101825285815242602082018190529184919081018660018111156103e3576103e3610dd9565b8152602001600290528154600181810184556000938452602093849020835160039093020191825592820151818401556040820151600282018054939492939192909160ff191690838181111561043c5761043c610dd9565b0217905550606082015160028201805461ff00191661010083600381111561046657610466610dd9565b02179055509293505050505b92915050565b6000806000429050600080858154811061049457610494611088565b906000526020600020906003020160010154826104b191906110ba565b9050620151808111156104cb575060009485945092505050565b60008086815481106104df576104df611088565b906000526020600020906003020160020160019054906101000a900460ff16600381111561050f5761050f610dd9565b03610521575060019485945092505050565b506001946000945092505050565b6000808080600054851061058d5760405160e560020a62461bcd02815260206004820152601a60248201527f57524f4e4720494e44455820464f52205245515545535420212100000000000060448201526064015b60405180910390fd5b600085815481106105a0576105a0611088565b906000526020600020906003020160000154600086815481106105c5576105c5611088565b906000526020600020906003020160010154600087815481106105ea576105ea611088565b60009182526020822060026003909202010154815460ff90911691908990811061061657610616611088565b906000526020600020906003020160020160019054906101000a900460ff1693509350935093509193509193565b61066f6040518060800160405280600081526020016060815260200160608152602001606081525090565b60008211801561068157506002548211155b6106d05760405160e560020a62461bcd02815260206004820152601560248201527f45485220646f6573206e6f7420657869737420212100000000000000000000006044820152606401610584565b600082815260016020818152604092839020835160808101909452805484529182018054918401916107019061104b565b80601f016020809104026020016040519081016040528092919081815260200182805461072d9061104b565b801561077a5780601f1061074f5761010080835404028352916020019161077a565b820191906000526020600020905b81548152906001019060200180831161075d57829003601f168201915b505050505081526020016002820180546107939061104b565b80601f01602080910402602001604051908101604052809291908181526020018280546107bf9061104b565b801561080c5780601f106107e15761010080835404028352916020019161080c565b820191906000526020600020905b8154815290600101906020018083116107ef57829003601f168201915b505050505081526020016003820180546108259061104b565b80601f01602080910402602001604051908101604052809291908181526020018280546108519061104b565b801561089e5780601f106108735761010080835404028352916020019161089e565b820191906000526020600020905b81548152906001019060200180831161088157829003601f168201915b5050505050815250509050919050565b60006108b983610478565b5090508061090c5760405160e560020a62461bcd02815260206004820152601960248201527f5265717565737420646f6573206e6f74206578697374202121000000000000006044820152606401610584565b816000848154811061092057610920611088565b906000526020600020906003020160020160016101000a81548160ff0219169083600381111561095257610952610dd9565b0217905550505050565b60008054819042905b8015610a59578460006109796001846110ba565b8154811061098957610989611088565b90600052602060002090600302016000015403610a47576000806109ae6001846110ba565b815481106109be576109be611088565b906000526020600020906003020160010154836109db91906110ba565b9050620151808111156109f75750600395600095509350505050565b6000610a046001846110ba565b81548110610a1457610a14611088565b6000918252602090912060039091020160020154610100900460ff16610a3b6001846110ba565b94509450505050915091565b80610a51816110cd565b915050610965565b506002946000945092505050565b610a926040518060800160405280600081526020016060815260200160608152602001606081525090565b600080610a9e86610478565b91509150818015610aac5750805b610acb5760405160e560020a62461bcd028152600401610584906110e4565b8460008781548110610adf57610adf611088565b90600052602060002090600302016000015414610b115760405160e560020a62461bcd02815260040161058490611141565b600160008781548110610b2657610b26611088565b600091825260209091206002600390920201015460ff166001811115610b4e57610b4e610dd9565b14610b6e5760405160e560020a62461bcd02815260040161058490611141565b610b7784610644565b9695505050505050565b6000806000610b8f88610478565b91509150818015610b9d5750805b610bbc5760405160e560020a62461bcd028152600401610584906110e4565b8660008981548110610bd057610bd0611088565b90600052602060002090600302016000015414610c025760405160e560020a62461bcd02815260040161058490611141565b6000808981548110610c1657610c16611088565b600091825260209091206002600390920201015460ff166001811115610c3e57610c3e610dd9565b14610c5e5760405160e560020a62461bcd02815260040161058490611141565b60028054906000610c6e83611178565b90915550506040805160808101825288815260208082018981528284018990526060830188905260025460009081526001928390529390932082518155925191929190820190610cbe90826111e0565b5060408201516002820190610cd390826111e0565b5060608201516003820190610ce890826111e0565b505060025493505050505b95945050505050565b600060208284031215610d0e57600080fd5b5035919050565b6000815180845260005b81811015610d3b57602081850181015186830182015201610d1f565b506000602082860101526020601f19601f83011685010191505092915050565b848152608060208201526000610d746080830186610d15565b8281036040840152610d868186610d15565b90508281036060840152610d9a8185610d15565b979650505050505050565b60008060408385031215610db857600080fd5b82359150602083013560028110610dce57600080fd5b809150509250929050565b60e060020a634e487b7102600052602160045260246000fd5b60048110610e0257610e02610dd9565b9052565b848152602081018490526080810160028410610e2457610e24610dd9565b836040830152610cf36060830184610df2565b60208152815160208201526000602083015160806040840152610e5d60a0840182610d15565b90506040840151601f1980858403016060860152610e7b8383610d15565b9250606086015191508085840301608086015250610cf38282610d15565b60008060408385031215610eac57600080fd5b82359150602083013560048110610dce57600080fd5b60408101610ed08285610df2565b8260208301529392505050565b600080600060608486031215610ef257600080fd5b505081359360208301359350604090920135919050565b60e060020a634e487b7102600052604160045260246000fd5b600082601f830112610f3357600080fd5b813567ffffffffffffffff80821115610f4e57610f4e610f09565b604051601f8301601f19908116603f01168101908282118183101715610f7657610f76610f09565b81604052838152866020858801011115610f8f57600080fd5b836020870160208301376000602085830101528094505050505092915050565b600080600080600060a08688031215610fc757600080fd5b8535945060208601359350604086013567ffffffffffffffff80821115610fed57600080fd5b610ff989838a01610f22565b9450606088013591508082111561100f57600080fd5b61101b89838a01610f22565b9350608088013591508082111561103157600080fd5b5061103e88828901610f22565b9150509295509295909350565b60028104600182168061105f57607f821691505b6020821081036110825760e060020a634e487b7102600052602260045260246000fd5b50919050565b60e060020a634e487b7102600052603260045260246000fd5b60e060020a634e487b7102600052601160045260246000fd5b81810381811115610472576104726110a1565b6000816110dc576110dc6110a1565b506000190190565b6020808252602e908201527f5265717565737420646f6573206e6f74206578697374206f7220646f6573206e60408201527f6f74206163636570746564202121000000000000000000000000000000000000606082015260800190565b60208082526014908201527f7065726d697373696f6e2064656e696564202121000000000000000000000000604082015260600190565b60006001820161118a5761118a6110a1565b5060010190565b601f8211156111db576000818152602081206020601f860104810160208610156111b85750805b6020601f860104820191505b818110156111d7578281556001016111c4565b5050505b505050565b815167ffffffffffffffff8111156111fa576111fa610f09565b61120e81611208845461104b565b84611191565b602080601f831160018114611247576000841561122b5750858301515b60028086026008870290910a60001904198216178655506111d7565b600085815260208120601f198616915b8281101561127657888601518255948401946001909101908401611257565b508582101561129657878501516008601f88160260020a60001904191681555b505050505060020260010190555056fea2646970667358221220305d8a800a8ef293391d58b5d2c6904eb1028ec7b0e2a8ec464d4308638723ba64736f6c63430008110033",
  "immutableReferences": {},
  "source": "// SPDX-License-Identifier: GPL-3.0\r\n\r\npragma solidity >=0.7.0 <0.9.0;\r\n\r\nimport {EHR} from \"./EHR.sol\";\r\nimport {HealthAuthority} from \"./HealthAuthority.sol\";\r\nimport {HealthActor} from \"./HealthActor.sol\";\r\n\r\n\r\n/** \r\n * @title Patient\r\n * @dev Implements Patient methods\r\n */\r\ncontract Patient {\r\n\r\n    HealthAuthority authority;\r\n    HealthActor actor;\r\n\r\n    struct patient{\r\n        uint id;\r\n        string name;\r\n        address addr;\r\n        EHR ehr;\r\n        string public_key;\r\n    }\r\n    patient[] patients;\r\n\r\n    modifier onlyAuthority() {\r\n        (uint index, bool exist) = authority.checkHealthAuthority(msg.sender);\r\n        require(exist, \"Caller have not permession\");\r\n        _;\r\n    }\r\n\r\n    constructor(address authorityAddress, address actorAddress){\r\n        authority = HealthAuthority(authorityAddress);\r\n        actor = HealthActor(actorAddress);\r\n\r\n        patients.push(patient(20, 'badro', address(0x87C8Ea2F6EF914766609df6C776e65b191F97EF8), new EHR(), \"public_key\"));\r\n        // patients.push(patient(25, 'bilal', address(0xDb4454a0Ff6c7eBeAD241de2432D68648f4b2ff5), new EHR(), \"public_key\"));\r\n    }\r\n\r\n    /**\r\n    * ///////////////////////////////////////////////////////////////////////\r\n    *                       PUBLIC METHODS FOR PATIENT (GETTERS)\r\n    * ///////////////////////////////////////////////////////////////////////\r\n    */\r\n    function checkPatient(uint _id, address _address) view public returns (uint, bool) {\r\n        uint index = 0;\r\n        bool exist = false;\r\n        for (uint i = 0; i < patients.length ; i++){\r\n            if (patients[i].id == _id || patients[i].addr == _address){\r\n                exist = true;\r\n                index = i;\r\n                break;\r\n            }\r\n        }\r\n        return (index, exist);\r\n    }\r\n\r\n    function getNumberOfPatient() public view returns(uint) {\r\n        return patients.length;\r\n    }\r\n\r\n    function getPatientByIndex(uint _index) public view returns(uint, string memory, address) {\r\n        require(_index >= 0 && _index < patients.length, \"Wrong index!!\");\r\n        return (patients[_index].id, patients[_index].name, patients[_index].addr);\r\n    }\r\n\r\n    /**\r\n    * ///////////////////////////////////////////////////////////////////////\r\n    *                       PUBLIC METHODS FOR REQEUST\r\n    * ///////////////////////////////////////////////////////////////////////\r\n    */\r\n    ////////// ONLY CALL BY PATIENT //////////\r\n    function getNumberOfRequest() public view returns (uint256) {\r\n        (uint index, bool exist) = checkPatient(0, msg.sender);\r\n        require(exist, \"You are not a patient !!\");\r\n        return patients[index].ehr.getNumberOfRequest();\r\n    }\r\n    function getRequestByIndex(uint256 _requestID) public view returns (uint,uint256, EHR.RequestType, EHR.RequestState){\r\n        (uint index, bool exist) = checkPatient(0, msg.sender);\r\n        require(exist, \"You are not a patient !!\");\r\n        // get a request : (actorID, timestamp, rType, state)\r\n        return patients[index].ehr.getRequestByIndex(_requestID);\r\n    }\r\n    /** \r\n     * @dev Response to a request from associated patient.\r\n     * @param _requestID the request id \r\n     */\r\n    function setResponse(uint _requestID, EHR.RequestState _newState) public {\r\n        // check if this is trusted patient \r\n        (uint index, bool exist) = checkPatient(0, msg.sender);\r\n        require(exist, \"you are not a patient, permission denied !!\");\r\n\r\n        // response to request \r\n        patients[index].ehr.setResponse(_requestID, _newState);\r\n\r\n        // event to actor \r\n    }\r\n\r\n    ////////// ONLY CALL BY ACTOR //////////\r\n    function verifyAuthorization(uint _patientID) public view returns (EHR.RequestState, uint) {\r\n        (uint index, bool exist) = checkPatient(_patientID, address(0x0));\r\n        require(exist, \"This patient does not exist !! \");\r\n        // get actor id for checking respose\r\n        uint actor_id = actor.getActor(msg.sender).id; \r\n        return patients[index].ehr.checkResponse(actor_id);\r\n    }\r\n    /** \r\n     * @dev Create a new request from an actor.\r\n     * @param _patientID this is a patient id\r\n     * @param _requestType the type of request CONSULT PUBLISH\r\n     */\r\n    function sendRequest(uint _patientID, EHR.RequestType _requestType) public returns (bool){\r\n        // check if caller is actor\r\n        uint actorID = actor.getActor(msg.sender).id;\r\n\r\n        // check if patient exist \r\n        (uint index, bool exist) = checkPatient(_patientID, address(0));\r\n        require(exist, \"Patient does not exist !!\");\r\n\r\n        patients[index].ehr.setRequest(actorID,  _requestType);\r\n\r\n        //TODO: event to patient\r\n\r\n        return true; // return the requestID\r\n    }\r\n\r\n\r\n    /**\r\n    * ///////////////////////////////////////////////////////////////////////\r\n    *                    PUBLIC METHODS FOR EHR PURPOSE\r\n    * ///////////////////////////////////////////////////////////////////////\r\n    */\r\n\r\n    function getNbOfEHR(uint _patientID) public view returns (uint256) {\r\n        (uint index, bool exist) = checkPatient(_patientID, msg.sender);\r\n        require(exist, \"This patient does not exist !!\");\r\n        return patients[index].ehr.ehrCount();\r\n    }\r\n\r\n    function getEHR(uint _ehrID, uint _patientID) view public returns (uint, string memory, string memory, string memory) {      \r\n        //// if the caller is patient\r\n        (uint index, bool isPatient) = checkPatient(0, msg.sender);\r\n        if (isPatient) {\r\n            EHR.EHRAbstract memory temp1 = patients[index].ehr.getEHRAbstract(_ehrID);\r\n            return (temp1.actorID, temp1.ehrHash, temp1.ipfsHashAddress, temp1.secretKey);\r\n        }\r\n\r\n        //// if the caller is actor => \r\n        // check if patient exist \r\n        (index, isPatient) = checkPatient(_patientID, address(0));\r\n        require(isPatient, \"patient does not exist !!\");\r\n        // check actor\r\n        uint actorID = actor.getActor(msg.sender).id;\r\n        // check the authorization\r\n        (EHR.RequestState state, uint _requestID) = patients[index].ehr.checkResponse(actorID);\r\n        require(state==EHR.RequestState.ACCEPTED, \"Permission denied !! please request patient for consulting...\");\r\n        // get the EHR\r\n        EHR.EHRAbstract memory temp = patients[index].ehr.getEHRbyActor(_requestID, actorID, _ehrID);\r\n        return (temp.actorID, temp.ehrHash, temp.ipfsHashAddress, temp.secretKey);\r\n    }\r\n\r\n    /////////////// ACTOR ONLY ///////////////\r\n\r\n    function shareEHR(uint _patientID, uint _requestID, string memory _hash, string memory _ipfsAddr, string memory _secretKey ) public {\r\n        // check if patient exist \r\n        (uint index, bool exist) = checkPatient(_patientID, address(0));\r\n        require(exist, \"patient does not exist !!\");\r\n\r\n        // check if actor exist and get the actor id\r\n        uint actorID = actor.getActor(msg.sender).id;\r\n       \r\n        patients[index].ehr.addEHRAbstract(_requestID, actorID, _hash, _ipfsAddr, _secretKey);\r\n    }\r\n\r\n\r\n\r\n    /**\r\n    * ///////////////////////////////////////////////////////////////////////\r\n    *         PUBLIC METHODS FOR REGISTRATION PURPOSE (Authority only)\r\n    * ///////////////////////////////////////////////////////////////////////\r\n    */\r\n    function addPatient(uint _id, string memory _name, address _account, string memory _pKey) public onlyAuthority {\r\n        (, bool exist) = checkPatient(_id, _account);\r\n        require(exist==false, \"patient id or account already exist !!\");\r\n\r\n        patients.push(patient(_id, _name, _account, new EHR(), _pKey));\r\n    }\r\n\r\n    function rmPatient(uint _id) public onlyAuthority{\r\n        (uint index, bool exist) = checkPatient(_id, address(0));\r\n        require(exist==true, \"patient does not exist !!\");\r\n\r\n        patients[index] = patients[patients.length-1];\r\n        patients.pop();\r\n    }\r\n}\r\n",
  "sourcePath": "F:\\ComputerScience\\projects\\PFE\\project\\2022-2023\\Blockchain-side\\contracts\\Patient.sol",
  "compiler": {
    "name": "solc",
    "version": "0.8.17+commit.8df45f5f.Emscripten.clang"
  },
  "schemaVersion": "3.4.11",
  "updatedAt": "2023-04-20T14:41:47.092Z",
  "networkType": "ethereum",
  "devdoc": {
    "details": "Implements Patient methods",
    "kind": "dev",
    "methods": {
      "sendRequest(uint256,uint8)": {
        "details": "Create a new request from an actor.",
        "params": {
          "_patientID": "this is a patient id",
          "_requestType": "the type of request CONSULT PUBLISH"
        }
      },
      "setResponse(uint256,uint8)": {
        "details": "Response to a request from associated patient.",
        "params": {
          "_requestID": "the request id "
        }
      }
    },
    "title": "Patient",
    "version": 1
  },
  "userdoc": {
    "kind": "user",
    "methods": {
      "addPatient(uint256,string,address,string)": {
        "notice": "///////////////////////////////////////////////////////////////////////         PUBLIC METHODS FOR REGISTRATION PURPOSE (Authority only) ///////////////////////////////////////////////////////////////////////"
      },
      "checkPatient(uint256,address)": {
        "notice": "///////////////////////////////////////////////////////////////////////                       PUBLIC METHODS FOR PATIENT (GETTERS) ///////////////////////////////////////////////////////////////////////"
      },
      "getNbOfEHR(uint256)": {
        "notice": "///////////////////////////////////////////////////////////////////////                    PUBLIC METHODS FOR EHR PURPOSE ///////////////////////////////////////////////////////////////////////"
      },
      "getNumberOfRequest()": {
        "notice": "///////////////////////////////////////////////////////////////////////                       PUBLIC METHODS FOR REQEUST ///////////////////////////////////////////////////////////////////////"
      }
    },
    "version": 1
  }
}